:020000040800F2
:1000000038540020E902000865290008632500082B
:10001000712800085F05000809330008000000008F
:10002000000000000000000000000000290200089D
:100030003D0800080000000085020008292E000885
:100040000303000803030008030300080303000878
:100050000303000803030008030300080303000868
:100060000303000803030008030300080303000858
:10007000A5070008030300080303000803030008A2
:100080000303000803030008030300080303000838
:100090001D0600080303000803030008030300080B
:1000A0000303000803030008030300080303000818
:1000B0000303000803030008030300080303000808
:1000C00003030008030300080303000803030008F8
:1000D0000303000835320008030300085532000806
:1000E00003030008030300080303000803030008D8
:1000F00003030008030300080303000803030008C8
:1001000003030008030300080303000803030008B7
:100110000303000803030008F92E00080303000886
:100120000303000803030008030300080303000897
:100130000303000803030008030300080303000887
:10014000590600080303000803030008030300081E
:100150000303000803030008030300080303000867
:100160000303000803030008030300080303000857
:100170000303000803030008030300080000000055
:10018000030300080303000800F002F800F03CF845
:100190000AA090E8000C82448344AAF10107DA45E2
:1001A00001D100F031F8AFF2090EBAE80F0013F0F8
:1001B000010F18BFFB1A43F001031847646A0000DF
:1001C000846A0000103A24BF78C878C1FAD8520770
:1001D00024BF30C830C144BF04680C6070470000C1
:1001E0000023002400250026103A28BF78C1FBD840
:1001F000520728BF30C148BF0B6070471FB506F0DB
:1002000040FB1FBD10B510BD00F074F91146FFF79B
:10021000F5FF04F077FE00F092F903B4FFF7F2FF68
:1002200003BC00F095F900002C4B19680868B0E891
:10023000F04F80F30988BFF36F8F4FF0000080F319
:10024000118870470000000008480068006880F3CB
:1002500008884FF0000080F3148862B661B6BFF3DF
:100260004F8FBFF36F8F00DF00BF00BF08ED00E0CE
:10027000DFF80C00016841F470010160704700BFB5
:1002800088ED00E0EFF30980BFF36F8F134B1A681E
:100290001EF0100F08BF20ED108A20E9F04F10600B
:1002A00009B44FF0500080F31188BFF34F8FBFF3B4
:1002B0006F8F05F093FA4FF0000080F3118809BCAE
:1002C00019680868B0E8F04F1EF0100F08BFB0ECD6
:1002D000108A80F30988BFF36F8F704718000020E1
:1002E000EFF3058070470000094880470948004740
:1002F000FEE7FEE7FEE7FEE7FEE7FEE7FEE7FEE7D6
:10030000FEE7FEE704480549054A064B7047000032
:10031000E92E000889010008384E002038540020DA
:10032000385000203850002053EA020C00F0698059
:100330002DE9F04B4FF00006002B1FBFB3FA83F5F9
:1003400003FA05F424FA05F65E4012BF1643B2FA2A
:1003500082F502FA05F4C5F120051EBF22FA05FC5C
:1003600044EA0C04203556EA044C4FEA144418BF02
:10037000641C4FF000084FF00009904271EB030C31
:1003800039D3002919BFB1FA81F701FA07F6B0FA9B
:1003900080F700FA07F6C7F120071EBF20FA07FC16
:1003A00046EA0C062037B6FBF4FCA7EB0507103F26
:1003B00007F01F0BCBF120060CFA0BFB2CFA06F60C
:1003C00044BFB3460026202FA4BF5E464FF0000B6B
:1003D0005BEA060C08BF4FF0010B19EB0B09ABFBF6
:1003E000027C48EB0608C01B06FB02CC0BFB03CCCF
:1003F00071EB0C01C1E70B46024641464846BDE899
:10040000F08B13B54FF000004FF00001AFF3008008
:10041000BDE81C40704710B5203AC0F00B80B1E831
:100420001850203AA0E81850B1E81850A0E8185029
:10043000BFF4F5AF5FEA027C24BFB1E81850A0E832
:10044000185044BF18C918C0BDE810405FEA827C4C
:1004500024BF51F8043B40F8043B08BF7047D20763
:1004600028BF31F8023B48BF11F8012B28BF20F804
:10047000023B48BF00F8012B70474FF0000200B567
:10048000134694469646203922BFA0E80C50A0E8B7
:100490000C50B1F12001BFF4F7AF090728BFA0E865
:1004A0000C5048BF0CC05DF804EB890028BF40F831
:1004B000042B08BF704748BF20F8022B11F0804F73
:1004C00018BF00F8012B704770477047704710B590
:1004D00000F008F8006810BD10B5044600F002F8FE
:1004E000046010BD00487047D84D00200048704798
:1004F000D84D00207546FFF7F9FFAE460500694666
:10050000534620F00700854618B020B5FFF7FAFEE5
:10051000BDE820404FF000064FF000074FF0000804
:100520004FF0000B21F00701AC46ACE8C009ACE885
:10053000C009ACE8C009ACE8C0098D46704710B5E9
:100540000446AFF300802046BDE81040FFF765BECB
:1005500001491820ABBEFEE7260002007047FEE707
:1005600038B50E4C4FF4007525600025A560E56098
:10057000082525610A4C050A25706070080AA070DC
:10058000E170100A20716271180AA071E3716B4664
:1005900022460249034800F07BFA38BDB0430020F0
:1005A000830000201C03002038B50E4C40F2FF15DC
:1005B00025600025A560E560082525610A4C050A2F
:1005C00025706070080AA070E170100A20716271D5
:1005D000180AA071E3716B4622460249034800F0F5
:1005E00057FA38BDB0430020830000201C030020D0
:1005F00000B58BB000200121CDE9060108910090E3
:10060000019002900390059004906946024800F022
:10061000ADFA0BB000BD00001C030020014800F043
:10062000A0BB00001C03002000B58BB001210020FE
:10063000CDE9060108910E210090099101900290E8
:100640000591039004906946024800F08FFA0BB0C0
:1006500000BD000044030020014800F082BB000000
:100660004403002010B5044600F0ECFD02212046B2
:1006700000F0FCF9002803D0BDE8104000F0F4B908
:1006800010BD000070B506464FF6FF7000224AF21A
:1006900001040FE0B35C58405FF0000310F0010F5D
:1006A0004FEA500000D060405B1CDBB2082BF5D352
:1006B000521CD2B28A42EDD370BD00002DE9F04346
:1006C00000202DED048B87B00446284F9FED288A2B
:1006D000DFED288A9FED289ADFED289A009001909F
:1006E0000290E8460DF1080904AE039007EB84057B
:1006F000286C00EE100A06EB8400C0EE080A20EE1B
:10070000A80A20EE090A20EE290A80ED000A201D21
:1007100002F0E2F9BDEEC00A10EE100A29F814004A
:10072000286900EE100A601C02F08EFABDEEC00AC5
:1007300010EE100A28F81400641C032CD6DBBDF957
:100740000830BDF90420BDF90210BDF90000FFF723
:1007500007FF0023BDF90C10BDF90A001A46FFF788
:1007600023FF07B0BDEC048BBDE8F0838C41002073
:100770000000B44300001042000000466666564088
:1007800010B5044600F05CF8204601F0EBFE204670
:1007900002F0A6F8204602F06DF82046BDE81040B1
:1007A00002F0E2B8014800F0DBBD0000F4030020D5
:1007B00001681823CAB2103AB2FBF3F2054B6FF38B
:1007C0000901032A9B5CC36500D9091D81650846A0
:1007D00070470000A469000810B5014600208B692D
:1007E0008A6A4FF0C07453B1B3F5005F15D072B18F
:1007F000012A0CD0022A0AD0032A09D104E01AB136
:10080000012A06D0022A03D1C96AC90100D50120F4
:1008100010BDC96AA142FAD010BD002AF7D0012A42
:10082000F2D0022AF3D0032AF3D010BD088802497F
:1008300040BA088170470000BE00002070470000E9
:1008400010B504462DED0C8BC06805F0A9FF41ECF6
:100850001A0BB1EE048A606805F0A2FF41EC100BA0
:100860009FED7BBBB0EE4B1AF0EE6B1A03F048F82D
:100870002068B0EE409A02EE100AA068F0EE609A8E
:1008800000EE100A00EE082A12EE100A05F088FFAA
:1008900041EC100BB0EE4B1AF0EE6B1A03F030F88F
:1008A00053EC192B51EC100B05F09EF941EC100B99
:1008B00003F04EFE53EC1A2B51EC100B05F07AFCB2
:1008C00005F060F92061E06805F06AFF41EC1A0B61
:1008D0009FED61DBB0EE4D0AF0EE6D0A03F038FEDD
:1008E000A068B0EE409A00EE100AF0EE609A20EE9A
:1008F000080A10EE100A05F053FF53EC192B05F00F
:1009000059FC9FED57CB53EC1C2B05F053FC41ECED
:10091000190B606805F044FF53EC192B05F056FEE7
:1009200041EC100BB0EE4B1AF0EE6B1A02F0E8FF40
:100930002068B0EE409A02EE100AA068F6EE008A37
:1009400000EE100AF0EE609A20EE080A00EE682A27
:1009500012EE100A05F024FF41EC100BB0EE4B1A1A
:10096000F0EE6B1A02F0CCFF53EC192B51EC100B8C
:1009700005F03AF941EC100B03F0EAFD53EC1A2BA9
:1009800051EC100B05F016FC05F0FCF86061E06816
:1009900005F006FF41EC190BB0EE4D0AF0EE6D0AC2
:1009A00003F0D6FDA068B0EE40AA00EE100AF0EE0B
:1009B00060AA20EE080A10EE100A05F0F1FE53ECD2
:1009C0001A2B05F0F7FB53EC1C2B05F0F3FB41EC65
:1009D0001A0B606805F0E4FE53EC1A2B05F004F9DD
:1009E00041EC100BB0EE4B1AF0EE6B1A02F088FFE0
:1009F0002068B0EE40AA02EE100AA068F0EE60AAED
:100A000000EE100A20EE080A00EE682A12EE100A24
:100A100005F0C6FE41EC100BB0EE4B1AF0EE6B1A6F
:100A200002F06EFF53EC1A2B51EC100B05F0DCF8C2
:100A300041EC100B03F08CFD53EC192B51EC100B17
:100A400005F0B8FB05F09EF8A061BDEC0C8B10BD65
:100A5000000000000000004000000000000008400E
:100A6000000000000000E03F72B6FEE790F8202092
:100A7000012A07D0022A05D0416A41F4802141624F
:100A800001207047006842690A43426100207047B4
:100A9000F0B590F820500468A468012D05D0022D0F
:100AA00003D0416A41F480215DE014F0406F01D130
:100AB000E50055D5C4F30164022C03D9416A41F421
:100AC000000150E00125A5401D608D684FF4C07302
:100AD0009DB1CE6835434E6845EAC605066803EB0E
:100AE0000417F5514FF4C275076805EB04150E693C
:100AF0007E51097D012905D009E00E88CD6845EABF
:100B00004655EBE701684E5946F480764E5111790F
:100B1000D579567941EA056195792D0445EA06258E
:100B200029434FF4C676056806EB0416A9511178DF
:100B3000D57841EA0561957852782D0445EA02227C
:100B400011434FF4C475026805EB04155151006858
:100B500003EB0411425842F0010242500020F0BD64
:100B6000416A41F4001141620120F0BD10B590F8D6
:100B70002020012A07D0022A05D0416A41F48021B1
:100B80004162012010BD3B48D0F8002242F0010232
:100B9000C0F80022D0F8002222F47C52C0F80022D3
:100BA000D0F800224B6A42EA0322C0F800220A7DF4
:100BB00002F01F0301229A40D0F81C329343C0F880
:100BC0001C32CB69B3B9D0F80C329343C0F80C3265
:100BD0008C894B6864F31F434C6900EBC404C4F870
:100BE00040320C890B6864F31F434C6900EBC4046A
:100BF000C4F84432CB69012B16D1D0F80C32134320
:100C0000C0F80C320C884B6864F31F434C6900EB4E
:100C1000C404C4F840320C89CB6864F31F434C69A8
:100C200000EBC404C4F844328B69002BD0F80432C2
:100C30000ED01343C0F804320B69002BD0F81432E5
:100C400008D01343C0F81432096A012904D008E01F
:100C50009343EFE79343F5E7D0F81C121143C0F834
:100C60001C12D0F8001221F00101C0F8001200207F
:100C700010BD000000640040704730B590F820407F
:100C8000012C05D0022C03D0416A41F480215DE0A3
:100C90000468002955D02469A40754D04FF4D874AF
:100CA000056804EB01142D5915F0040595600568DD
:100CB0002D594ED0ED08556005682C5904F00204FA
:100CC000D4604FF4DA74056804EB01142D5905F073
:100CD0000F05156105682D59C5F307259561056850
:100CE0002C59240C54614FF4DC72046802EB01129D
:100CF000A4581C700468A458240A5C700468A458A2
:100D0000240C9C700468A258120EDA704FF4DE7244
:100D1000046802EB0112A4581C710468A458240A48
:100D20005C710468A458240C9C710468A258120ECB
:100D3000DA71006881B1016941F020010161002090
:100D400030BDE468A8E7416A41F400114162012026
:100D500030BD6D0D1560AFE7C16841F02001C16085
:100D6000EDE72DE9F05F0546006800244669D0F8FC
:100D700004908768D0F80CB0D0F810A0D0F8188094
:100D8000F10748D0F90714D001218160B80703D5D5
:100D9000284600F084FA0CE0780702D54FF400648E
:100DA00007E0380702D54FF4805402E0284600F0EF
:100DB00075FAF80516D529684FF480708860B80573
:100DC00003D5284600F06DFA0CE0780502D544F40E
:100DD000005407E0380502D544F4804402E0284678
:100DE00000F05EFAF80316D529684FF48030886069
:100DF000B80303D5284600F056FA0CE0780302D574
:100E000044F4004407E0380302D544F4803402E09F
:100E1000284600F047FA300707D55FEACB6004D5D3
:100E20002968102044F40074C86070074FF0080768
:100E300007D55FEA0B7004D52868C760284600F024
:100E400099F9B00706D52868C068800702D02846FF
:100E500000F092F9700607D55FEACA6004D52968E8
:100E6000102044F480640861B00607D55FEA0A7078
:100E700004D528680761284600F0E0F9F00606D599
:100E800028680069800702D0284600F0D8F9B0032E
:100E900008D55FEAC96005D5296810204860284652
:100EA00000F0CEF9F00307D55FEA097004D5286891
:100EB0004760284600F0F8F9300446D55FEA4970EB
:100EC00040D5F00504D55FEAC87001D044F00104B4
:100ED000B00504D55FEA887001D544F002047005BE
:100EE00004D55FEA487001D544F00404300529D5E3
:100EF00018F0700F26D008F07000402815D006DCDE
:100F0000102809D020280AD0302816D10AE050280D
:100F10000ED0602811D10EE044F008040DE044F03A
:100F200010040AE044F0200407E044F0400404E028
:100F300044F0800401E044F480742868816921F061
:100F400070018161296804204860002C05D0686A1E
:100F5000204368622846FFF78FFEBDE8F09F70B51A
:100F6000040003D094F8200010B104E0012070BD0B
:100F7000204600F081F82068016841F0010101601D
:100F800000F020FC0546052604E000F01BFC401B99
:100F90000A2811D820684068C007F6D02068016888
:100FA00021F00201016000F00DFC05460BE000F0AD
:100FB00009FC401B0A2806D9606A40F400306062D0
:100FC00084F82060D2E7206840688007EFD4207E54
:100FD0000128206801683DD021F080010160607E19
:100FE00001282068016838D021F040010160A07E0E
:100FF00001282068016833D021F020010160E07EE3
:101000000128206801682ED041F010010160207F86
:1010100001282068016829D021F008010160607F63
:1010200001282068016824D021F004010160D4E97E
:1010300002010843D4E90412114308436168491EC0
:1010400008432168C86100206062012084F8200004
:10105000002070BD41F08001C0E741F04001C5E7CC
:1010600041F02001CAE721F01001CFE741F008016B
:10107000D4E741F00401D9E7F0B587B00446142164
:101080006846FFF7FAF9364B3648DFF8D0E01968C2
:10109000D4F800C0334A0325022609271030002463
:1010A000491CF44522D11960012907D1016841F09A
:1010B00000710160006800F000700590106840F059
:1010C000080010601068CDE9005600F00800CDE976
:1010D000047069462448CDE9024500F07BFA0022FD
:1010E0000521142000F00CFC142033E0DFF87CE034
:1010F000F44531D1D0F800C04CF0806CC0F800C08D
:10110000D0F800C001290CF0806CCDF814C0196033
:1011100007D1016841F000710160006800F00070C3
:101120000590106840F002001060106802AB00F0FB
:10113000020005904FF44050CDE9000683E8B0006E
:1011400069460B4800F046FA00220521402000F0D5
:10115000D7FB402000F0C6FB07B0F0BD00640040A4
:101160000400002030380240000C024000680040BB
:10117000000402407047000070B5054600682B4926
:101180002B4C8CB0884224D107AB6A4600212846FC
:10119000FFF773FD0098A0F20120062819D8C0B20D
:1011A0002070244EC0EBC00006EB800081694A1C11
:1011B0003229826107A902D803F07EFE01E003F024
:1011C00080FE207807A9C0EBC00006EB800003F08A
:1011D00078FE19492868884225D109AB6A46002162
:1011E0002846FFF74AFD0098A0F2012006281AD8E9
:1011F000C0B2104D6070C0EBC000E03505EB800060
:1012000081694A1C3229826109A902D803F054FE7F
:1012100001E003F056FE607809A9C0EBC00005EBC1
:10122000800003F04EFE0CB070BD00000064004072
:1012300081000020F04100200068004070477047A6
:101240007047000070B5044690F82000012804D0D3
:10125000606A40F40020606218E0022084F82000F8
:101260002068016821F00101016000F0ABFA054639
:101270000EE000BF00F0A6FA401B0A2808D9606AF9
:1012800040F400306062052084F82000012070BD29
:1012900020684068C007EDD1606270BD704770473C
:1012A000704770477047704770472DE9F04104461A
:1012B000876D00F087FA064694F83500002502286D
:1012C00006D08020606584F834500120BDE8F081AC
:1012D0002068016821F0160101602068416921F051
:1012E00080014161206C08B9A06C20B120680168C0
:1012F00021F0080101602068016821F0010101600E
:101300000CE000F05FFA801B052807D920206065FB
:10131000032084F8350084F83450D7E7206800684B
:10132000C007EED194F85C103F208840B8600120DF
:1013300084F8350084F834500020C7E790F8351061
:10134000022903D08021416501207047052180F8E2
:1013500035100068016821F001010160002070472C
:101360002DE9F84304464FF00009CDF8009063489A
:101370004FF41651A56D0068B0FBF1F72E6894F894
:101380005C10082000FA01F131420FD021680A6890
:1013900052070BD50A6822F004020A6094F85C1028
:1013A0008840A860606D40F00100606594F85C10B2
:1013B0004FF0010808FA01F0304208D0216849696D
:1013C000090604D5A860606D40F00200606594F8DD
:1013D0005C1004208840304208D0216809688907E1
:1013E00004D5A860606D40F00400606594F85C105E
:1013F00010208840304218D021680968090714D5A8
:10140000A86020680168490304D50068000308D576
:10141000A16C07E00168C90503D4016821F0080147
:101420000160216C09B12046884794F85C102020A7
:101430008840304231D021680968C9062DD5A8609E
:1014400094F8350005282068016806D0490347D57F
:10145000006800031DD4616C1CE021F016010160DE
:101460002068416921F080014161206C08B9A06CBD
:1014700020B12068016821F00801016094F85C1037
:101480003F208840A86084F8358084F83490216D2E
:101490001FE0E16B09B120468847606D00282BD022
:1014A000606DC00714D0052084F8350020680168FD
:1014B00021F0010101600098401C0090B84203D85F
:1014C00020680068C007F6D184F8358084F834902D
:1014D000E16C002910D001B02046BDE8F043084778
:1014E0000168C905D5D4016821F01001016084F8B4
:1014F000358084F83490CCE7BDE8F88314000020F0
:101500002DE9F041044600F05DF906465CB1022089
:1015100084F83500002584F834502068016821F0F3
:10152000010101600DE00120BDE8F08100F04AF901
:10153000801B052805D920206065032084F835002C
:10154000F2E720680068C007F0D1226811682048DF
:101550000140D4E901031843D4E903363343184367
:1015600063691843A3691843E3691843236A18435E
:101570000843616A042903D1D4E90B1319430843D2
:10158000106020684069666A20F0070130460E430B
:10159000012704280CD1A06A0643E06A40B1204626
:1015A000FFF71AF920B14020606584F83570BAE77A
:1015B000206846612046FFF7FBF894F85C203F2145
:1015C00091408160656584F835700020ACE70000CB
:1015D0003F8010F02DE9F84FDFF8BCA10022012573
:1015E00003264FF00F090AF1040BAAF1040E00BF05
:1015F0000B6805FA02F42340A34270D10F7907F07B
:101600000307012F01D0022F16D187684FEA420845
:1016100006FA08FC27EA0C07D1F80CC00CFA08FC03
:101620004CEA070CC0F808C04768A7430C79C4F31C
:10163000001494403C4344600C79E443A4070AD06E
:10164000C4684FEA420C06FA0CF7BC438F6807FAED
:101650000CF72743C7600C7904F00304022C12D165
:10166000D40800EB840CDCF820405707FF0E09FA81
:1016700007F824EA0804D1F8108008FA07F848EAC5
:101680000408CCF8208004684FEA420C06FA0CF7F4
:10169000BC430F7907F0030707FA0CF727430760ED
:1016A0004C6814F4403F70D03C4C276847F48047A6
:1016B0002760246822F0030704F480440094384C27
:1016C00007EB040CDCF8084897074FEA177809FA8B
:1016D00008F7BC43334FB84202D1002724E054E05E
:1016E000314FB84201D101271EE0304FB84201D13D
:1016F000022719E02E4FB84201D1032714E02D4FE5
:10170000B84201D104270FE02B4FB84201D1052781
:101710000AE02A4FB84201D1062705E0284FB84217
:1017200001D1072700E0082707FA08F72743CCF87C
:101730000878DAF800405746D1F804C09C435FEAC5
:10174000CC2C00D51C433C60DBF800405F46D1F850
:1017500004C09C435FEA8C2C00D51C433C60DEF83F
:1017600000407746D1F804C09C435FEA8C3C00D52A
:101770001C433C60084F083F3C68D1F804C09C43C0
:101780005FEACC3C00D51C433C60521C102AFFF49D
:101790002FAFBDE8F88F0000083C014044380240FC
:1017A00000300140000002400004024000080240F6
:1017B000000C0240001002400014024000180240D9
:1017C000001C0240014880687047000008000020AB
:1017D0000248816802781144816070470800002047
:1017E0000B4810B5016841F400710160016841F4D3
:1017F00080610160016841F480710160032000F0A4
:101800009FF80F2000F006F800F050F8002010BDFF
:10181000003C024030B505461F4887B000240168EF
:1018200041F010010160006806A900F0100000906E
:1018300001A800F031F90498A8B100F04DF940007A
:101840001649174AB0FBF1F11648491E026040F2F2
:10185000E732C0E90324C0E90114846100F044FBCD
:10186000040003D015E000F037F9E9E70D4800F077
:1018700069FB04000DD1362000F034F8102D07D29A
:1018800000222946362000F03BF80748056000E0BA
:10189000012407B0204630BD4038024040420F00CE
:1018A00000100040540400200C0000200C4882B0BE
:1018B000016841F480410160006800F480400090BC
:1018C0000748001F016841F0805101600068002254
:1018D00000F0805000900F21901E02B000F010B870
:1018E00044380240002809DB00F01F02012191402A
:1018F0004009800000F1E020C0F8001170470000AE
:10190000F0B40E4B1B680C46C3F30223C3F107056A
:10191000042D00D90425191D072901D2002300E058
:10192000DB1E012606FA05F1491E214099409E4022
:10193000761E16403143F0BC01F0FFBC0CED00E018
:10194000064900F0070208684FF6FF03184040EA16
:101950000220034A10430860704700000CED00E0CD
:101960000000FA052DE9F0470E46050065D0DFF8C6
:101970001481D8F80000F7B200F00700B04207D297
:1019800088F80070D8F8000000F00700B04254D189
:1019900028683D4C810712D5400703D5206840F4E4
:1019A000E05020602878000703D5206840F46040AC
:1019B00020602068A96820F0F000084320602878A3
:1019C000C0072DD0304968680839012812D0022894
:1019D00013D0032811D00968890700292DDA21685E
:1019E00021F0030101432160FFF7ECFE814641F243
:1019F000883A0EE009688903EFE709688901ECE796
:101A0000FFF7E0FEA0EB0901514502D90320BDE834
:101A1000F0872068696800F00C00B0EB810FEFD10F
:101A2000D8F80010404601F00701B14207D907700D
:101A3000006800F00700B04201D00120E7E72878F5
:101A4000400705D52068E96820F4E050084320608D
:101A50002878000706D52068296920F4604040EA0C
:101A6000C100206000F058F82168084AC1F3031152
:101A7000515CC8400649086006480068FFF7CAFE86
:101A80000020C4E7003C024008380240AC6900086E
:101A9000140000200C0000200F2202600C4A136882
:101AA00003F003034360136803F0F00383601368DB
:101AB00003F4E053C36012684FF4E05303EAD20228
:101AC00002610448006800F00700086070470000E9
:101AD00008380240003C0240044805490068096893
:101AE000044AC1F38221515CC840704714000020B1
:101AF00008380240BC6900080448054900680968C4
:101B0000044AC1F34231515CC840704714000020C0
:101B100008380240BC690008154810B5006810F08C
:101B20000C02144813D04110042A0FD0082A0ED1F9
:101B30000F4C241F2268236802F03F025B0207D586
:101B40002068C0F38810A0FB010106E0084610BD24
:101B50002168C1F38811A1FB00010023FEF7E4FB1B
:101B60002168C1F30141491C4900B0FBF1F010BDEF
:101B7000083802400024F4002DE9F84F04006ED02C
:101B80002078DFF84C93C007A9F104054AD009F189
:101B900004000168C1F38101012908D00068C0F385
:101BA000810002280AD1D9F80000400206D5286831
:101BB000800337D560680028E1D033E06068B0F575
:101BC000803F10D0B0F5A02F286810D020F48030CE
:101BD0002860286820F4802028606068A8B1FFF79A
:101BE000F1FD06460DE0286840F48030F4E740F44B
:101BF00080202860F7E700BFFFF7E4FD801B642822
:101C000073D828688003F7D50CE0FFF7DBFD0646A4
:101C100005E000BFFFF7D6FD801B6428F0D82868D8
:101C20008003F7D42078DFF8AC8280074FF0000AF9
:101C30003ED5A748001D016811F00C0F08D00068C0
:101C4000C0F3810002280BD1D9F80000400207D46C
:101C50002868800716D5E068012800D112E033E13A
:101C6000E068B8B10120C8F80000FFF7ABFD0646F8
:101C700005E000BFFFF7A6FD801B0228C0D828683A
:101C80008007F7D52868216920F0F80040EAC100F4
:101C900028600DE0C8F800A0FFF794FD064604E0B8
:101CA000FFF790FD801B02281FD828688007F7D413
:101CB0002078000722D5864F87486169703771B157
:101CC00001210160FFF77EFD064604E0FFF77AFD83
:101CD000801B022809D838688007F7D50EE0C0F8C5
:101CE00000A0FFF76FFD064605E082E0FFF76AFD02
:101CF000801B02287DD838688007F7D420784007F9
:101D000068D5DFF8CCB100270BF13C0BDBF8000005
:101D1000C0000BD4DBF8001041F08051CBF800106C
:101D2000DBF80000012700F0805000906B4E306817
:101D3000C00510D4306840F480703060FFF742FD79
:101D4000009005E0FFF73EFD0099401A022850D8A8
:101D50003068C005F6D55E4EA0686C3601280FD0FD
:101D60000528306810D020F001003060306820F085
:101D700004003060A068B8B1FFF724FD00900FE0C8
:101D8000306840F00100F4E740F004003060F7E70D
:101D9000FFF718FD0099411A41F28830814266D858
:101DA00030688007F4D50EE0FFF70CFD009007E0E7
:101DB000FFF708FD0099411A41F28830814256D858
:101DC00030688007F4D42FB1DBF8001021F0805187
:101DD000CBF80010A069C8B33D49091D0968C1F3DB
:101DE000810102294AD00228504607D0C8F8600075
:101DF00000E03CE0FFF7E6FC04463BE04746C8F85D
:101E00006000FFF7DFFC064605E000BFFFF7DAFCE5
:101E1000801B02282BD828688001F7D4D4E9070159
:101E20000843A16A2E4A490802EB0141626A41EA6D
:101E30008211084394F82C1040EA0161C9F800109F
:101E400001203866FFF7BEFC044606E03EE000BF16
:101E5000FFF7B8FC001B022809D828688001F7D5D5
:101E600034E000BFFFF7AEFC001B022802D90320BC
:101E7000BDE8F88F28688001F4D427E00128F7D066
:101E8000D9F80000E26900F4800191421CD1226A75
:101E900000F03F01914217D147F6C071626A0140DC
:101EA000B1EB821F10D1A26A4FF0FF3300F4403132
:101EB00003EB5202B1EB024F06D194F82C1000F064
:101EC0007060B0EB016F01D00120D1E70020CFE7B7
:101ED0000438024000004742800E47420070004034
:101EE0000000FFFF7047704710B5040003D094F85E
:101EF0003D0010B107E0012010BD002084F83C0037
:101F0000204600F01EF8022084F83D00211D2068C4
:101F100000F0F8FF012084F8460084F83E0084F8C1
:101F20003F0084F8400084F8410084F8420084F8BF
:101F3000430084F8440084F8450084F83D00002004
:101F400010BD704790F83D10012901D00120704765
:101F5000022180F83D100168CA6842F00102CA609F
:101F600000681149884214D0B0F1804F11D00F4958
:101F700088420ED00E4988420BD00E49884208D0C4
:101F80000D49884205D00D49884202D00C4988424B
:101F900004D1816801F00701062903D0016841F0EE
:101FA0000101016000207047000001400004004072
:101FB00000080040000C00400004014000400140C7
:101FC00000180040704770B50446006801694FF082
:101FD0000005C943890715D4C168C943890711D4CD
:101FE000E91E016101202077206880698007204672
:101FF00002D0FFF7E7FF04E000F098F8204600F079
:1020000096F8257720680169C943490717D4C16844
:10201000C943490713D46FF00401016102202077FE
:102020002068806910F4407F204602D0FFF7CAFF85
:1020300004E000F07BF8204600F079F8257720686E
:102040000169C943090716D4C168C943090712D4F5
:102050006FF008010161042020772068C0698007C3
:10206000204602D0FFF7AEFF04E000F05FF8204604
:1020700000F05DF8257720680169C943C90617D4C7
:10208000C168C943C90613D46FF01001016108206B
:1020900020772068C06910F4407F204602D0FFF707
:1020A00091FF04E000F042F8204600F040F8257768
:1020B00020680169C943C90708D1C168C943C90774
:1020C00004D1891E0161204600F032F820680169C0
:1020D000C943090609D4C168C943090605D46FF08C
:1020E000800101612046FFF7FDFE20680169C943B8
:1020F000490609D4C168C943490605D46FF04001B7
:102100000161204600F01EF820680169C943890674
:102110000BD4C168C943890607D46FF0200101615F
:102120002046BDE87040FFF7DEBE70BD70477047C7
:1021300000680349884201D1FFF74ABB704700009D
:10214000001000407047704770470000F8B5016804
:1021500004460868CA684B6910F00F0F4FF000057D
:1021600059D003F0010602F49077374365D0C107D8
:1021700005D0D10503D5216C41F00101216441074F
:1021800005D5D90703D0216C41F0020121648107F4
:1021900005D5D90703D0216C41F004012164010762
:1021A00007D502F02001314303D0216C41F0080132
:1021B0002164216C00293AD0800604D5900602D50E
:1021C000204600F032FF20684069216CC0F3801087
:1021D000090700D460B3204600F000FF2068406982
:1021E000400621D52068143050E8001F21F040013E
:1021F00040E80012002AF5D1A06BA8B16C49016536
:10220000A06BFFF79BF8002811D0A06B016D01B007
:10221000BDE8F040084783060FD593060DD520464C
:10222000BDE8F84000F001BF2046FFF78DFFF8BD84
:102230002046FFF789FF2564F8BD266B2023012E79
:1022400079D1C60677D5D60675D508684868009056
:102250004869400640D5A16B086840680004000C3E
:10226000EAD0A28D8242E7D9E085C869B0F5807FC7
:102270002DD020680C3050E8001F21F4807140E818
:102280000012002AF5D12068143050E8001F21F018
:10229000010140E80012002AF5D12068143050E80E
:1022A000001F21F0400140E80012002AF5D184F817
:1022B0003E30256320680C3050E8001F21F01001EB
:1022C00040E80012002AF5D1A06BFEF7EEFFA08DCA
:1022D000E18D401A81B229E0A08DE18D401A81B2D2
:1022E000E08D0028A8D00029A6D020680C3050E846
:1022F000002F22F4907240E80026002EF5D12068CD
:10230000143050E8002F22F0010240E80026002E91
:10231000F5D184F83E30256320680C3050E8002F5A
:1023200022F0100240E80023002BF5D12046FFF7F1
:102330000AFFF8BDFFE705062BD5150629D594F849
:102340003D002128F5D1A068B0F5805F01D120695A
:10235000B0B1206A411C2162216800784860E08C9D
:10236000401E0004000CE084E3D12068C16821F025
:102370008001C1602068C16841F04001C160D8E7B8
:10238000206A0088C0F308004860206A801C206230
:10239000E5E74006CDD55006CBD5CA68204622F0E9
:1023A0004002CA6084F83D3000F0DAF8C1E700006E
:1023B000CD2F000870B5040004D094F83D0000252E
:1023C00010B106E0012070BD84F83C50204600F0BA
:1023D00023F8242084F83D002068C16821F40051CE
:1023E000C160204600F082FE2068016921F490411E
:1023F00001612068416921F02A0141612068C168BA
:1024000041F40051C1602564202084F83D0084F827
:102410003E00002070BD0000F0B587B006461421D4
:102420006846FEF72AF8364F306800253549022203
:1024300003230724B84221D132481430066846F0FD
:1024400010060660006800F010000590086840F073
:10245000010008600868694600F001000590580214
:102460008DE82500CDE903342748FFF7B3F80022B3
:1024700005212520FFF744FA25203DE0234FB842EF
:102480003CD120481030076847F480270760006877
:1024900000F480200590086840F002000860086899
:1024A000694600F0020005904FF440608DE8250079
:1024B000CDE903341648FFF78DF8174C1548206016
:1024C0004FF00060C4E901054014C4E903506561A0
:1024D0004FF44030A561C4E9075020466562FFF71C
:1024E0000FF808B1FEF7C0FAB463002205212720D7
:1024F000A663FFF705FA2720FFF7F4F907B0F0BD50
:102500000010014030380240000002400048004006
:102510000004024028600240F403002090F83E309E
:10252000202B0ED159B152B190F83C30012B08D07C
:10253000012380F83C300023036300F05DBE0120DE
:10254000704702207047000000680349884202D1AA
:10255000024800F0C7BB704700100140C44D002086
:102560007047FEE770B504462DED088B406804F017
:1025700017F941EC180B206800EE100AA06800EE75
:10258000900A30EE200A10EE100A04F009F941EC2E
:10259000100BB0EE481AF0EE681A01F04DF851EC4D
:1025A000100B03F0EFFAE0619FED45ABB0EE4A0A85
:1025B000F0EE6A0A01F0CCFFA068B0EE408AF0EEBF
:1025C000608A054604F0ECF853EC182B03F0F2FD9A
:1025D0009FED3D9B53EC192B03F0ECFD41EC180BE8
:1025E000606804F0DDF853EC182B03F0EFFF41ECCA
:1025F000180B206801EE105A02EE100AB6EE00BA6F
:1026000001EE4B2A12EE100A04F0CAF841EC100B4E
:10261000B0EE481AF0EE681A01F00EF851EC100B0B
:1026200003F0B0FA2062B0EE4A0AF0EE6A0A01F056
:102630008FFFA568B0EE408AF0EE608A284604F06D
:10264000AFF853EC182B03F0B5FD53EC192B03F046
:10265000B1FD41EC180B606804F0A2F853EC182BA4
:1026600003F0C2FA41EC180B206800EE905A00EE1D
:10267000100A00EECB0A10EE100A04F091F841ECBB
:10268000100BB0EE481AF0EE681A00F0D5FF51ECCE
:10269000100B03F077FA60625FF0000504EB85062B
:1026A000F06900EE100A02F0C1FEB1EE400A10EE31
:1026B000100A6D1CF061032DF0DBBDEC088B70BDC2
:1026C0000000000000000840000000000000E03FA3
:1026D0000F4810B50D4901600321416000214FF4FE
:1026E000C0228160C0E903124FF4A002426101766A
:1026F00041768176C17601774177FEF730FC00287C
:1027000003D0BDE81040FEF7AFB910BD0064004033
:102710001C0300200F4810B50D49016003214160E2
:1027200000214FF410228160C0E903124FF400121F
:102730004261017641768176C17601774177FEF775
:102740000EFC002803D0BDE81040FEF78DB910BD87
:102750000068004044030020094808B5016841F4BE
:10276000001101600068002200F4001000900521B3
:102770000C20FFF7C5F8BDE808400C20FFF7B2B801
:102780003038024000B587B01C2206496846FDF784
:1027900042FE0021684602F0F5FB0349086007B0DD
:1027A00000BD00008869000800000020114808B53D
:1027B000016841F080010160016801F08001009131
:1027C000016841F002010160016801F0020100911D
:1027D000016841F001010160016801F0010100910F
:1027E000016841F008010160006800F008000090F5
:1027F00008BD0000303802400C4810B50A4901609D
:102800004FF4E1314160002181600C22C160C0E9D8
:1028100004128161C161FFF7CDFD002803D0BDE83E
:102820001040FEF721B910BD001001406C030020DC
:102830000D4810B50B4901600C49416000214FF46F
:1028400080628160C0E903120422C0E90521C161F0
:10285000FFF7B0FD002803D0BDE81040FEF704B933
:1028600010BD000000480040B0030020A086010019
:10287000FEE7000070B5174D00234FF07E5600BFF5
:1028800000EB83010A6CCC6C00EE102A00EE904A3B
:1028900030EE600A10EE104A8C6500EE104AB0EE81
:1028A000C00A10EE104AAC420CDB00EE102ADFED3D
:1028B0000A0A30EE200A10EE102A0A64074AC260A3
:1028C0000A6C00E00A64CA645B1CC660032BD7DB99
:1028D00070BD00000000B44200003443000080BF1F
:1028E00070B51C4D1C4C9FED1D1A0021F7EE000A1F
:1028F00000EB8103DA6900EE102A9A6A01EE902A51
:1029000030EE610A10EE102A5A63AA4206D304EB95
:10291000810292ED000A30EE200A08E0104EB24229
:1029200007DB04EB810292ED000A30EE600A82EDD3
:10293000000ADA6904EB810600EE102AD6ED001ACF
:10294000491C032901EE810A10EE106A1E649A6286
:10295000CEDB70BD000034C3B84D00200000B4438E
:1029600000003443FEE7000070B506462DED028BF3
:102970005FF0000406EB8405A86D03F011FF41EC45
:10298000100B00F059FFB0EE408AF0EE608A286923
:1029900003F006FF53EC182B03F00CFC03F0F2F8E5
:1029A000641C2861032CE5DBBDEC028B70BD0000CC
:1029B000A0B1D0ED101AC0ED111A90ED0F1A80EDF4
:1029C000101AC0ED060A80ED070A30EEC00A80ED4D
:1029D0000F0A017829B101293BD078E09FED3D0A2B
:1029E0007047D0ED010A60EE801AC0ED091AD0EDF3
:1029F0000A0A90ED022A42EE000A30EE410AC0EDCA
:102A00000A0A90ED0D2A80ED0E2A90ED0C2A80ED39
:102A10000D2A80ED0C0A90ED031A21EE001A80EDCC
:102A20000B1A90ED050AF4EEC00AF1EE10FA09DC7B
:102A3000B1EE400AF4EEC00AF1EE10FA02D390EDC6
:102A40000A0A01E080ED0A0A31EE800A30EE010A3E
:102A50002BE070EE410A90ED012A20EE822A80EDF3
:102A6000092AD0ED020A60EE800AC0ED0A0AD0ED14
:102A70000D2A72EE200AC0ED0E2AD0ED0C2AC0ED10
:102A80000D2AF0EE002A01EE620A30EE210A80EDF6
:102A90000C0A90ED031A21EE000A80ED0B0A30EECD
:102AA000800AD0ED080A30EE200A80ED080AD0ED49
:102AB000040AB4EEE00AF1EE10FA06DCF1EE600A68
:102AC000B4EEE00AF1EE10FA01D2C0ED080A90ED82
:102AD000080A70470000000010B5044600F098F89E
:102AE0002046BDE8104000F0AFB800002DE9F041ED
:102AF0002A4D00242DED048B05F51076DFED248A98
:102B00009FED249ADFED249A9FED258A04EBC407FC
:102B100005EBC700F0EE480AB0EE680A214A002132
:102B200000F048F81F4A06EBC700F0EE490AB0EE85
:102B3000690A0C32002100F03DF8641C032CE5DB2F
:102B40000324DFED198A9FED199ADFED199A00BF72
:102B5000144A04EBC40705EBC700F0EE480AB0EED8
:102B6000680A1832002100F025F80E4A06EBC7006B
:102B7000F0EE490AB0EE690A2432002100F01AF89A
:102B8000641C062CE4DBBDEC048BBDE8F081000086
:102B900000401C46000096430000C843C843002084
:102BA0000080BB458C00002000A00C460000FA44C9
:102BB0000000FA45002828D0002A26D0017092EDA6
:102BC000001A80ED011A92ED011A80ED021A92EDC1
:102BD000021A80ED031A80ED040A9FED0C0AC0ED85
:102BE000050A80ED0E0A80ED0D0A80ED0C0A80EDDD
:102BF000080A80ED0B0A80ED0A0A80ED090A80EDD3
:102C0000110A80ED100A80ED0F0A704700000000E5
:102C10000B4AC0EBC00110B502EB8101F0EE400A97
:102C200011ED040A00EBC0010648B8EEC00A00EB43
:102C3000C104A4F14800FFF7BBFE14ED0A0A10BD61
:102C4000F0410020084600200C4AC0EBC00110B53E
:102C500002EB8101F0EE400A31F91A1C00EE101A65
:102C600000EBC0010648B8EEC00A00EBC104A4F1B5
:102C70004800FFF79DFE14ED0A0A10BDF041002048
:102C8000C843002030B5144B1C68656945F0400509
:102C900065611B68DC6844F01004DC600F4B1C6845
:102CA000256825F0010525601C682568ED07F7D12A
:102CB0001D680B4CAC601C68E06018680161186806
:102CC00042601868016841F4802101601868016859
:102CD00041F00101016030BDB0030020F403002089
:102CE0000448004030B5194C05460021A52802D102
:102CF000685C5A2808D0685C491C1429F6DBE08817
:102D0000295CA52919D102E0491EE180F7E7284492
:102D100041785A2911D181782170C278091D6270D9
:102D2000C9B2FDF7AFFC6080E38822789918294486
:102D3000898849BAA180884201D0002030BDE918B5
:102D40006078091DFDF772FD012030BDBE00002036
:102D500003782848B0F9042073B3012B49D100EE61
:102D6000102A9FED251AF8EEC00A10EE902A0A608C
:102D7000B0F9063000EE103AF8EEC00A10EE903AC4
:102D800000EE902A4B60B0F9000060EE810A00EE80
:102D9000100A10EE900A00EE903A0860B8EEC00AF1
:102DA00060EE810A10EE900ADFED140A486020EE12
:102DB000200A10EE100A1BE000EE102AB0EE081AEE
:102DC000F8EEC00A10EE902A0A60B0F9060000EE94
:102DD000902A00EE100A60EE810AB8EEC00A10EEEA
:102DE000900A20EE010A086010EE100A48600448BC
:102DF00088607047584D00206666A640CDCC4C4098
:102E000000807744064901228B7AC97A032B03D0CC
:102E1000012B01D0022B02D1032900D1027070478F
:102E2000584D00207047000010B5502080F31188E5
:102E3000BFF34F8FBFF36F8F02F0D0FD18B104497D
:102E40004FF080500860002080F3118810BD000012
:102E500004ED00E030B593B030216846FDF70DFB7E
:102E600014210CA8FDF709FB1D480025016841F05D
:102E700080510160006800F080501190194801688D
:102E800041F4804101600068022400F48040119008
:102E900001200090000401908001CDE9064008AABD
:102EA0000420A82182E813000B906846FEF764FE18
:102EB00008B172B6FEE70CA90F2081E831004FF48B
:102EC000A0500F904FF48050109005210CA8FEF7F1
:102ED00049FD002801D072B6FEE713B030BD0000F6
:102EE00040380240007000400248016841F470011F
:102EF0000160704788ED00E00148FFF764B800000A
:102F000054040020F0B50268254C264D264E274F6C
:102F1000274B4FF0804CA04209D0604507D0A84213
:102F200005D0B04203D0B84201D0984204D122F07B
:102F3000700E4A6842EA0E02A0421BD0604519D0CA
:102F4000A84217D0B04215D0B84213D0984211D041
:102F5000184DA8420ED0184DA8420BD0174DA842CC
:102F600008D0174DA84205D0164DA84202D0164DE4
:102F7000A84203D122F44075CA682A434D6922F061
:102F800080022A4302608A68C2620A688262A042A2
:102F900001D0984201D10969016301214161F0BD6D
:102FA000000001400004004000080040000C004008
:102FB000000401400040014000440140004801403D
:102FC00000180040001C00400020004010B5806B3D
:102FD0000021C185C184FFF7B7F810BD01680C312D
:102FE00051E8002F22F4907241E80023002BF5D124
:102FF0000168143151E8002F22F0010241E800235A
:10300000002BF5D1016B012909D101680C3151E880
:10301000002F22F0100241E80023002BF5D12021DF
:1030200080F83E1000210163704708B590F83E100B
:10303000222901D0022008BD82684FF480539A42B1
:1030400001D1016921B1816A9A421BD04AB10AE0DB
:103050000268816A5268C2F308020A80816A891C88
:1030600008E0026972B10268526802F07F020A70D9
:10307000816A491C8162C18D491E0904090CC18500
:1030800003D019E002685268F1E70168CA6822F0CB
:103090002002CA600168CA6822F48072CA600168AE
:1030A0004A6922F001024A61202180F83E10016B3A
:1030B000012903D0FFF748FA002008BD0021016371
:1030C00001680C3151E8002F22F0100241E8002382
:1030D000002BF5D101680A68D20602D50A68496852
:1030E0000091818DFFF72FF8E6E7000070B50446E8
:1030F00000680169E26821F44051114301612169CE
:10310000A068E26908436169114308432168CA68FD
:1031100049F20C639A430243CA6020684169A2697C
:1031200021F440711143416131492068884202D045
:103130003049884202D1FEF7DFFC01E0FEF7CCFC0B
:10314000E2690023192164253226B2F5004F626836
:1031500028D0A0FB0101930F9200FDF7E5F801468E
:10316000B0FBF5F06FF01802504301EB800006EB66
:103170000010B0FBF5F000F0F002B1FBF5F002EB4F
:103180000012B1FBF5F06FF01803584301EB80001B
:1031900006EB0010B0FBF5F000F00F0021681044C2
:1031A000886070BDA0FB010192185B41FDF7BCF87F
:1031B0000146B0FBF5F00201B1FBF5F06FF018032A
:1031C000584301EB800006EBC000B0FBF5F000F0C7
:1031D000F80002EB4002B1FBF5F0584301EB800030
:1031E00006EBC000B0FBF5F000F00700D6E70000EA
:1031F000001001400014014081628285C2850021D7
:103200000164222280F83E2080F83C10016921B13F
:103210000168CA6842F48072CA6001684A6942F073
:1032200001024A610068C16841F02001C1600020CC
:103230007047000010B50548FEF788FFBDE8104054
:10324000142203490148FFF769B900006C0300200C
:10325000C44D0020264818B400680168890604D5CA
:1032600001684068009018BC704722490968C90687
:10327000F9D501684068204A0090106801684FF055
:1032800024030C031D49046824F00104046016D4CF
:1032900010684468C4F12404A4B20C804360106830
:1032A000016841F4002101601068016841F00101EA
:1032B0000160122CD7D1124901F1160015E01468F3
:1032C0006068C0F1240080B2088063600D498B6A99
:1032D00023F400238B6211680A6842F001020A603D
:1032E0001228C0D1064901F13A0018BC02F0BAB860
:1032F000B003002000480040F4030020BC00002080
:10330000584D002000600240FEE703B401984100E0
:10331000009850EAC12018BF04204A0D18BF40F0A1
:10332000010040F2FF72B2EB515F08BF40F00200B3
:10333000012808BF052002B070470907090E0028C0
:1033400004DB00F1E02080F80014704700F00F006B
:1033500000F1E02080F8141D70470000000000001C
:1033600070B59B482DED020B2DED068B079D25F0CA
:103370000044A04218DC9748844202DC0AD1069837
:1033800040B19DED060BBDEC068B02B0BDE8704070
:1033900001F01EBD002DCCBF9FED8F0B9FED900B5C
:1033A000BDEC068B02B070BD8F48A04215DD8F4882
:1033B000A042D8BF4FF0FF3458DD9DED060B51EC15
:1033C000100BFFF7A2FF042808BF01F035FD9DEDAB
:1033D000060BBDEC068B02B070BD9DED060B51ECEB
:1033E000100B01F05DFDCDE9060181489FED828B58
:1033F000A0423CDD8248A0421FDD00249FED82AB4D
:103400009DED060B53EC1A2B51EC100B02F0ECFB6C
:103410009DED060B41EC190B53EC1A2B51EC100BE4
:1034200002F0C8FE53EC182B03F0D0F853EC192B24
:1034300002F096FCCDE9060149E09DED060B012462
:1034400053EC182B51EC100B02F0CEFB9DED060B4C
:1034500041EC190B53EC182B51EC100B03F0B6F8A0
:1034600053EC192B02F07CFCCDE906012FE06848F3
:10347000A0421FDD02249FED689B9DED060B53ECDF
:10348000192B51EC100B02F095FE53EC182B02F0A7
:10349000ABFB9DED060B41EC180B53EC192B51ECDB
:1034A000100B03F093F853EC182B02F059FCCDE904
:1034B00006010CE09DED060B032453EC102B9FED51
:1034C000580B51EC100B02F04BFCCDE906019DEDC1
:1034D000060B53EC102B51EC100B02F06BFE41EC81
:1034E000180B53EC182B02F065FE41EC190B4E48FB
:1034F0000621B0EE490AF0EE690A784401F03CFB7F
:1035000053EC182B51EC100B02F054FE41EC180B4D
:103510004648B0EE490AF0EE690A0521784401F008
:103520002BFB53EC192B51EC100B02F043FE41EC3A
:10353000100B51EC180B53EC102B002C0EDA02F090
:1035400053FB9DED061B53EC112B02F033FE9DED5A
:10355000061B53EC112B02F061FF35E002F044FB37
:103560009DED061B53EC112B02F024FE41EC100BD9
:103570002F48784400EBC40090ED001B51EC100B79
:1035800053EC112B03F022F89DED061B53EC112B8D
:1035900003F01CF841EC100B2648784400EBC40003
:1035A00090ED001B51EC100B53EC112B02F036FF89
:1035B00041EC100B002DA2BFBDEC068B02B070BD1C
:1035C00051EC100B02F0D2FA41EC100B01E70000B5
:1035D000000010440000F07F182D4454FB21F93FF7
:1035E000182D4454FB21F9BF0000DC3F0000203EB1
:1035F0000000F33F00000000000000000000F03F6A
:103600000000E63F00000000000000000000004055
:103610000080034000000000000000000000F83FB0
:10362000000000000000F0BFBA3500007035000057
:10363000FA340000B234000070B56F4E2DED040B6B
:103640002DED048B82B0DDF824C0DDE907235C4258
:103650002CF000411C4341EAD474069D22F0004046
:10366000B44205D86C422C4340EAD474B4420BD91E
:103670009DED081B9DED060B02B0BDEC048B04B064
:10368000BDE8704001F0AEBBACF14054A4F17F64E2
:103690001C430BD0022404EAAC7444EAD274054300
:1036A0009FED578B9FED582B07D015E09DED060B36
:1036B00051EC100B01F0D0FB42E0002C11BF012CAB
:1036C0009DED060B02B0BDEC048B04BF04B070BDD1
:1036D000022C38D0032C3BD00B439FED4D1B9FEDAC
:1036E0004E0B0AD0B14218D1B04209D121F080412D
:1036F00020F08040099107900FE0002A15DA10E0D1
:10370000474B7B44002C08BF93ED000B0DD0012CE0
:1037100010D0022C17D0032C1AD0B0421DD1002A91
:1037200003DAB0EE410AF0EE610A02B0BDEC048BA0
:1037300004B070BD93ED000B51EC100B02F016FAC3
:1037400041EC100BF1E7B0EE480AF0EE680AECE746
:10375000B0EE420AF0EE620AE7E7401A00159FED6C
:10376000329B3C28C8BF8DED000B17DCBCF1000F6D
:10377000BCBF10F13C0F8DED009B0FDB9DED080BE6
:1037800053EC102B9DED060B51EC100B02F0E8FAF8
:1037900001F086FB01F060FBCDE90001B4B1012C22
:1037A00010D0022C9FED220B53EC102B9DED000B43
:1037B00051EC100B19D002F009FF53EC182B02F05A
:1037C00005FFBDE7019880F0004001909DED000BE2
:1037D00053EC192B51EC100B02F01AFC04BF022021
:1037E000FCF77AFE9DED000B9FE702F0EFFE53EC35
:1037F000182B02F013FEA3E70000F07F000000008A
:10380000182D4454FB210940182D4454FB2109C0B4
:10381000182D4454FB21F9BF182D4454FB21F93FC6
:103820001234000000000000000000000000000052
:10383000075C143326A6A13C10B52F499FED2C1B25
:103840002DED020B84B0059820F000408842D8BFCF
:103850009DED040B2DDD2949884209D1049840B91A
:103860004FF00100FCF738FE01F0C6FA06B010BDBB
:1038700005DB9DED040B01F0ABFA06B010BD684608
:103880009DED040B00F0A4FE10F0030004BF9DEDBD
:10389000021B9DED000B0CD001280ED09DED021BEC
:1038A0009DED000B022817D0012001F0E1F906B0D0
:1038B00010BD01F0A9F806B010BD9DED021B9DEDF5
:1038C000000B012001F0D4F951EC100B02F04EF97D
:1038D00006B041EC100B10BD01F096F851EC100B46
:1038E00002F044F906B041EC100B10BD00000000DE
:1038F0000000000000000000FB21E93F0000F07F15
:103900002DE9F04D2DED040B2DED0E8B96B0DDE97C
:103910002550279CDDF890A025F0004624F00048B3
:10392000BAF1000F14BF0121002101EB4502FC494F
:1039300053184A1093422AD3002814BF01230023AE
:1039400003EB44030B44F7498B4220D358EA0001B0
:103950009FEDF59B76D0DFF8D8B35D4503D1BAF182
:10396000000F05D188E0BAF1000F08BF002100D098
:10397000012101EB450111F5001F08D8002814BFF3
:103980000121002101EB440111F5001F0BD99DED30
:10399000261B9DED240B16B0BDEC0E8B04B0BDE8CC
:1039A000F04D01F01FBA0027002DBCBFE14988454A
:1039B00021DAE1498845A8BF02271CDAC3451ADC91
:1039C000DE4901EB2851142908DDC1F1340220FA47
:1039D00002F101FA02F282420DD108E058B9C1F1B8
:1039E000140228FA02F101FA02F2424503D101F071
:1039F0000101C1F1020756EA0A0124D1002C22DAA2
:103A0000002D18BF022F01D0012F0AD00220FCF791
:103A100063FD16B0BDEC0E8B04B0BDE8F04D01F0B7
:103A2000BFB90220FCF758FD01F0BAF951EC100BB8
:103A300002F09CF841EC100B16B0BDEC0E8B04B0FC
:103A4000BDE8F08D18E09FEDBEAB9FEDBF8B002869
:103A500071D1B848804522D105F1804010F5801021
:103A600008BFBAF1000F07D0B3450ADC002CA8BF8D
:103A70009DED260BE0DA0DE0B0EE490AF0EE690AA2
:103A8000DAE7002C06DA9DED260B51EC100B02F064
:103A90006DF86FE0AE48784490ED000BCCE7D84568
:103AA0004DD1002C48DA2EB186423AD1BAF1000F3E
:103AB00042D126E0BAF1000F13D00220FCF70CFD32
:103AC00001F0AAF98DED020B9DED240B8DED000B9D
:103AD00010EE900A039961F31E0003909DED020B16
:103AE000AAE78DED02AB9DED240B1AEE901A10EEB5
:103AF000900A8DED000B61F31E0003909DED020B0B
:103B00009AE78DED028B9DED240B18EE901A10EEC6
:103B1000900A8DED000B61F31E0003909DED020BEA
:103B20008AE709DA9DED240B51EC190B53EC102BAD
:103B300002F016F91EE020E09DED240B7CE78642A2
:103B40001BDAB4F1804F0DD0A4F10050B0F1FF505A
:103B500013D1002D11DB9DED240B51EC100B01F066
:103B6000DBFC07E09DED240B53EC102B51EC100B0C
:103B700000F0C2BC41EC100B5EE79DED240B51EC54
:103B8000100B01F08DF9BAF1000FCDE90E0142D111
:103B90009FED710B46B3A6F1E040B0F17F600CD011
:103BA0005E4538D1002D00DAA7B3022F0CBF0120EB
:103BB0004FF0FF3002F097FADCE7002D01DD002C1A
:103BC0000DDA002D01DD002C1FDB002D16DA002C94
:103BD00014DB012F08BF9FED620B3FF42DAFB0EE59
:103BE0004A0AF0EE6A0A27E7022F18BF002D0CD010
:103BF000012F0AD1002DFFF61FAF06E0002DB8BF40
:103C0000002C08DA012F3FF417AFB0EE480AF0EEAF
:103C1000680A11E71BE0012000EBE57050EA07019C
:103C200015D0791EB0EE498AF0EE698A084308BFC4
:103C30009FED4D8B4E480025804570DD4D494E4827
:103C4000884514DDB0420DDB002C19DB2FE001208C
:103C5000FCF742FC16B0BDEC0E8B04B0BDE8F04D95
:103C600001F0CAB8B34502DC002C09DC1FE0864233
:103C700002DA002C1BDA03E05E452BDD002C16DD9A
:103C80000220FCF729FC01F0C7F88DED020B53EC84
:103C90001A2B51EC180B02F08DFACDE900010399B3
:103CA000019861F31E0003909DED020BC4E6022013
:103CB000FCF712FC01F0C0F810EE901A18EE900A12
:103CC0008DED020B8DED008B61F31E0003909DEDD9
:103CD000020BB1E69DED0E0B53EC192B51EC100BC2
:103CE00002F074FC9FED260BCDE9080153EC102B7C
:103CF0009DED080B51EC100B02F05CFA9FED221BBE
:103D000053EC112B02F08AFB9DED081B53EC112B99
:103D100002F050FA9FED1E1B53EC112B3CE08CE09F
:103D2000FFFF1F00FFFF0F00000000000000F03F3A
:103D30000000F03F0000F07F0000404301FCFFFF67
:103D4000000000000000F07F000000000000000004
:103D50007E30000000000000000000000000008035
:103D6000000000000000F0FF000000000000F0BFB5
:103D70000000E0410000F043FFFFEF3F00000000C3
:103D8000000000000000D03F555555555555D53F12
:103D9000000000000000E03F02F040FB9DED080B3A
:103DA00041EC1A0B53EC102B51EC100B02F002FA01
:103DB00053EC1A2B02F0FEF941EC1A0B9FEDFE0BAF
:103DC00053EC102B9DED080B51EC100B02F0F2F9A7
:103DD00041EC1B0B9FEDFA0B51EC1A0B53EC102B23
:103DE00002F0E8F941EC1A0B9FEDF70B53EC102BA6
:103DF0009DED080B51EC100B02F0DCF953EC1A2B83
:103E000002F0E4FB41EC1A0B51EC1B0B53EC1A2BA8
:103E100001F0EAFE0690CDE906519DED060B53EC4C
:103E20001B2B51EC100B02F0D1FB53EC1A2B02F0C0
:103E3000F5FA41EC100B00F0A1B90020B6F5801F97
:103E40000EDA9FEDE30B53EC102B9DED0E0B51ECB6
:103E5000100B02F0AFF9CDE90E016FF034000E4601
:103E600000EB2650A0F2FF37C6F31300DA4940F00A
:103E70007F6646F040568842D8BF002408DDD74907
:103E80008142C8BF012403DC0024A6F580167F1CF4
:103E9000D348784400EBC4000F9690ED00CB9DED25
:103EA0000E0B53EC1C2B51EC100B02F08FFB9DED15
:103EB0000E0B41EC1B0B53EC1C2B51EC100B01F0C7
:103EC00093FE41EC100B51EC190B53EC102B01F04D
:103ED00047FF41EC1D0B51EC1B0B53EC1D2B02F06B
:103EE00069F941EC1A0BBF488DED10AB7844109581
:103EF00090ED000B4FF0005040EA660000EB84406C
:103F00008DED080B00F5002009909DED080B53EC9A
:103F10001C2B51EC100B02F059FB9DED0E1B53ECCA
:103F2000112B02F07BFA41EC100B53EC102B9DEDA2
:103F3000100B51EC100B02F03DF99DED080B41EC1C
:103F40001C0B53EC102B9DED100B51EC100B02F0E1
:103F500031F953EC1B2B02F061FA53EC1C2B02F0ED
:103F600035FB53EC1D2B02F025F941EC1C0B53ECF7
:103F70001A2B51EC1A0B02F01DF941EC1B0B9A485D
:103F80000621B0EE4B0AF0EE6B0A784400F0F4FD27
:103F9000B0EE401AF0EE601AB0EE41DAF0EE61DAFF
:103FA00053EC1B2B51EC1B0B02F004F953EC1D2BB3
:103FB00002F000F99DED100B41EC1B0B53EC1A2B9A
:103FC00051EC100B01F010FE53EC1C2B02F0F2F838
:103FD00053EC1B2B01F008FE9DED100B41EC1B0B6D
:103FE00053EC102B51EC100B02F0E4F841EC1D0BDC
:103FF0009FED7FEB53EC1E2B01F0F6FD53EC1B2BDA
:1040000001F0F2FD0890CDE908519DED080B53EC4D
:104010001E2B51EC100B02F0D9FA53EC1D2B02F0C1
:10402000D5FA53EC1B2B02F0F9F99DED080B41EC8E
:104030001D0B53EC102B9DED100B51EC100B02F0EF
:10404000B9F841EC1B0B53EC1A2B51EC1D0B02F091
:10405000B1F89DED080B41EC1A0B53EC102B51EC11
:104060001C0B02F0A7F853EC1A2B01F0BDFD41EC3C
:104070001A0B51EC1B0B53EC1A2B01F0B5FD0C90F5
:10408000CDE90C519DED0C0B53EC1B2B51EC100B9F
:1040900002F09CFA53EC1A2B02F0C0F941EC1B0B16
:1040A0009FED550B53EC102B9DED0C0B51EC100BB1
:1040B00002F080F841EC1A0B9FED510B51EC1B0BF9
:1040C00053EC102B02F076F841EC1B0B9FED4E0BDE
:1040D00053EC102B9DED0C0B51EC100B02F06AF819
:1040E00053EC1B2B01F080FD41EC100B4848784449
:1040F00000EBC40090ED001B51EC100B53EC112BA6
:1041000001F072FD41EC1B0B384601F0ECFFCDE9EC
:10411000080153EC1B2B51EC1A0B01F065FD41EC2F
:10412000100B3C48784400EBC40090ED00CB51EC00
:10413000100B53EC1C2B01F057FD9DED081B53ECAD
:10414000112B01F051FD0690CDE906519DED080BB4
:1041500053EC102B9DED060B51EC100B02F036FAD0
:1041600053EC1C2B02F032FA53EC1A2B02F02EFA0D
:1041700053EC1B2B02F052F941EC100B9DED261B6A
:1041800053EC102B8DED001B00959DED260B51EC93
:10419000100B02F00FF89DED000B41EC1A0B53ECE5
:1041A000102B9DED260B51EC100B02F00FFA9DED3C
:1041B000061B53EC112B2FE0000000604715F73F62
:1041C000FE822B654715F73F44DF5DF80BAE543E8A
:1041D00000000000000040438E9803007AB60B00F8
:1041E000322B0000282C00006A2A0000000000008A
:1041F0000000000000000840000000E009C7EE3F9A
:10420000FD033ADC09C7EE3FF5015B14E02F3EBE2B
:10421000F6280000B028000001F0CCFF53EC1A2B68
:1042200001F0E2FC9DED060B41EC1A0B53EC102B58
:104230009DED000B51EC100B01F0BCFFCDE90C0122
:104240009DED0C0B51EC1A0B53EC102B01F0CCFC38
:10425000CDE902010C46AA498C422FDB611A0843C2
:1042600018D19DED0C0B53EC102B9DED020B51EC76
:10427000100B02F0ABF941EC1B0B9FEDA30B51ECC3
:104280001A0B53EC102B01F0AFFC53EC1B2B02F07C
:104290008FF82DD20220FCF71FF900F0BDFD10EEC3
:1042A000901A18EE900A8DED020B8DED008B61F3E4
:1042B0001E0003909DED020BFFF7BEBB944A24F055
:1042C0000041914214D39349214408437FF4EFAC59
:1042D0009DED0C0B53EC102B9DED020B51EC100BD4
:1042E00002F074F953EC1A2B02F062F87FF6DFAC9F
:1042F00024F000408849894A002601EB205182427F
:104300002BDA481C4FF4801121FA00F02044844A33
:10431000C0F30A517A44A1F2FF3192ED000B814AB9
:104320008DED080BCA4020EA0202C0F3130040F4EE
:104330008010C1F1140120FA01F60992002CB8BFD7
:1043400076429DED080B53EC102B9DED0C0B51ECC0
:10435000100B02F03BF9CDE90C019DED0C0B51EC7B
:104360001A0B53EC102B01F03FFC9FED6F0B0890E4
:10437000CDE9085153EC102B9DED080B51EC100BBF
:1043800001F018FF41EC1B0B9FED690B53EC102B58
:104390009DED080B51EC100B01F00CFF9DED0C0B8B
:1043A00041EC1C0B53EC102B9DED080B51EC100B4A
:1043B00002F00CF953EC1A2B02F030F89FED5E1B63
:1043C00053EC112B01F0F6FE53EC1C2B01F00CFC0E
:1043D00041EC1A0B51EC1B0B53EC1A2B01F004FCB3
:1043E000CDE902019DED020B53EC1B2B51EC100BA0
:1043F00002F0ECF853EC1A2B02F010F89DED020BD2
:1044000041EC1A0B53EC102B51EC100B01F0D2FEC7
:10441000CDE908014A489DED080B0521784400F0DC
:10442000ABFB9DED081B51EC100B53EC112B01F075
:10443000C1FE9DED021B53EC112B01F0EFFFCDE906
:1044400006019DED020B53EC1A2B51EC100B01F001
:10445000B1FE53EC1A2B01F0C7FB9FED3B0B41EC77
:104460001A0B53EC102B9DED060B51EC100B02F0C8
:10447000ADF89DED060B41EC1B0B53EC102B9DEDA5
:10448000020B51EC100B01F095FE53EC1B2B01F0CD
:1044900067FC53EC1A2B02F099F89DED021B53ECCC
:1044A000112B02F093F853EC192B01F0B7FFCDE973
:1044B000020101EB065001150029C8BF039015DC6D
:1044C0009DED020B324651EC100B02F016FAFEF78E
:1044D0001CFF042808BF00F0AFFC32469DED020B24
:1044E00051EC100B02F009FACDE902019DED020B2F
:1044F00051EC180B53EC102B01F05CFEFFF73ABBAC
:104500000000904000000000FE822B654715973C9C
:1045100000CC904000346F3F01FCFFFF0000E03F03
:1045200000280000FFFF0F0000000000432EE63FC0
:10453000396CA80C615C20BEEF39FAFE422EE63FD2
:1045400008260000000000000000000000000040FD
:1045500000B52DED048BB0EE409AF0EE609A83B07A
:1045600051EC190B01F066FF41EC180B18EE100A24
:1045700018EE901A8DED008B002818BF012008431B
:1045800020F00040C0F17F6000F1E040C00F14D087
:1045900019EE101A19EE900A8DED009B002918BF34
:1045A0000121084320F00040C0F17F6000F1E040AD
:1045B000C00F04BF0120FBF78FFFB0EE480A03B025
:1045C000F0EE680ABDEC048B00BD000000000000A6
:1045D0002DE9F14F04462DED020B2DED088B8AB02D
:1045E0009FEDE70B80ED020B139EE74826F0004598
:1045F00085420ADC9DED120B002084ED000B0AB011
:10460000BDEC088B03B0BDE8F08FE0489FEDE0AB58
:104610009FEDE1BBA84247DDE14F9FEDE39B9FED9E
:10462000E48B9DED120B53EC1A2B51EC100B002E6A
:104630001CDD01F0CBFF41EC100BBD4208D053EC68
:104640001B2B51EC100B01F0C1FFC4E900010BE082
:1046500053EC192B51EC100B01F0B8FF53EC182B55
:1046600001F0B4FFC4E900010120C8E701F0BCFA81
:1046700041EC100BBD4208D053EC1B2B51EC100B3E
:1046800001F0B2FAC4E900010BE053EC192B51EC34
:10469000100B01F0A9FA53EC182B01F0A5FAC4E9AC
:1046A00000014FF0FF30AAE7C348A84279DB9DED37
:1046B000120B51EC100B00F0F3FB41EC180B9FEDCB
:1046C000C00B53EC102B01F075FD9FEDBF1B53EC9D
:1046D000112B01F089FA01F0D7FC074601F003FD28
:1046E00041EC190B53EC1A2B01F064FD53EC182B21
:1046F00001F094FE41EC180B53EC1B2B51EC190B01
:1047000001F058FDDFF8C8A241EC100B4FEA155834
:104710000125FA4453EC102B51EC180B01F056FF15
:10472000032DC4E900013DD0C1F30A5005EB45114A
:10473000A8EB00001139814234DA0AEB051BB0EE18
:1047400048AA9BED000BF0EE68AA53EC102B51EC3D
:10475000190B01F02FFD41EC1B0B51EC1A0B53EC24
:104760001B2B01F033FF41EC180B51EC1A0B53ECEF
:10477000182B01F02BFF53EC1B2B01F027FF9BEDB7
:10478000020B41EC1A0B53EC102B51EC190B01F0FE
:1047900011FD53EC1A2B01F019FF41EC100B6D1CAD
:1047A000B8E70EE0002EA8BF3846BFF628AF94ED5C
:1047B000000B51EC100B01F0D9F9C4E9000178426B
:1047C0001DE7C6F3130040F4801EC6F30A50A0F2A2
:1047D000F530471100F01F05C5F12000DDF848B0A5
:1047E00008900020069007900520EC467949002D9E
:1047F00007EB0002794408BF51F8221009D051F8A4
:10480000223001EB8201AB404A68089922FA01F19B
:104810001943A1FB0E26A1FB0B131A449A4234BF85
:104820000123002303EB06080CEB8003D3E901A668
:104830000E448E4234BF0121002192448A4411B1BA
:10484000924502D903E0924501D2012100E0002106
:10485000C3E901A641444CF82010011EA0F101005B
:10486000C4DC029800F10050850F0298DDE903676F
:104870008000DDF8148001F036FC41EC1A0B304664
:1048800001F048FC9FED541B53EC112B01F092FCFE
:1048900041EC1B0B384601F03DFC9FED511B53ECE6
:1048A000112B01F087FC41EC180B404601F032FC63
:1048B0009FED4D1B53EC112B01F07CFC41EC190BCF
:1048C00051EC180B53EC192B01F08EF953EC1B2B08
:1048D00001F08AF953EC1A2B01F086F9CDE90801B1
:1048E000002008909DED080B53EC1A2B51EC100B97
:1048F00001F06CFE53EC1B2B01F068FE53EC182BFF
:1049000001F064FE53EC192B01F088FD9FED381B7C
:1049100053EC112B01F04EFC9FED370B41EC180BC3
:1049200053EC102B9DED080B51EC100B01F042FCE9
:1049300053EC182B01F058F99FED310B41EC180B9B
:1049400053EC102B9DED080B51EC100B01F032FCD9
:1049500053EC182B01F048F941EC100B139810F0B0
:10496000004F06D06D4251EC100B01F0FFF841EC06
:10497000100B284684ED000B41E60000000000000B
:104980000000000000000000FB21E93F7CD902404C
:1049900000004054FB21F93F3163621A61B4D03DFD
:1049A000FB21F93F000000000000601A61B4D03D17
:1049B0007370032E8A19A33BFB21394100000000CC
:1049C00083C8C96D305FE43F000000000000E03F95
:1049D0000A24000058230000000000000000103EE0
:1049E000000000000000103C000000000000103A31
:1049F000182D4454FB21F93D3326A611460B113CDA
:104A000000000054FB21F93D10B52DED040B2DEDF8
:104A1000088B82B0B0EE419AF0EE619A0B9820F0CC
:104A200000449FED4BABB4F1795F11DA9DED0A0BB9
:104A300051EC100B01F028FB002801BFB0EE4A0A30
:104A4000F0EE6A0A02B0BDEC088B04BF04B010BDE2
:104A50009DED0A0B53EC102B51EC100B01F0AAFB4F
:104A600041EC180B3C480621B0EE480AF0EE680A0B
:104A7000784400F081F853EC182B51EC100B01F046
:104A800099FB9DED0A0B41EC1B0B53EC192B51ECE0
:104A9000100B01F08FFB41EC190B53EC1B2B51EC6D
:104AA000180B01F087FB53EC192B01F08FFD9FEDE4
:104AB0002C0B41EC190B53EC102B51EC180B01F0A3
:104AC00079FB41EC100B2848844210DA53EC192B87
:104AD00051EC100B01F07AFD53EC1A2B01F09EFC07
:104AE00041EC100B02B0BDEC088B04B010BD1F48A8
:104AF000A042BCBF9FED1E1B8DED001B06DBA4F585
:104B000000100190002000909DED001B51EC100B57
:104B100053EC112B01F05AFD9DED000B41EC180BED
:104B200053EC102B51EC1A0B01F050FD41EC1A0B19
:104B300053EC192B51EC180B01F048FD53EC1A2BD8
:104B400001F06CFC41EC100BCCE700000000000011
:104B5000000000000000F03F742000000000000092
:104B6000000000000000E03F3333D33F0000E93F86
:104B7000000000000000D23F70B504462DED028B0E
:104B80004D1E00EBC500B0EE408AF0EE608A90ED5D
:104B9000000B35F0060017D053EC182B51EC100B1E
:104BA00001F008FB41EC100B6D1E04EBC50090ED0D
:104BB000001B51EC100B53EC112B01F015F841ECDC
:104BC000100B35F00600E7D1022D36D0042D1CD095
:104BD000062D1CBFBDEC028B70BD53EC182B51ECA5
:104BE000100B01F0E7FA94ED0A1B53EC112B00F0C7
:104BF000FBFF53EC182B01F0DDFA94ED081B53EC8E
:104C0000112B00F0F1FF41EC100B53EC182B51EC81
:104C1000100B01F0CFFA94ED061B53EC112B00F0B2
:104C2000E3FF53EC182B01F0C5FA94ED040B53ECA1
:104C3000102B00F0D9FF41EC100B53EC182B51EC6A
:104C4000100B01F0B7FA94ED021B53EC112B00F09E
:104C5000CBFF53EC182B01F0ADFA94ED001B53EC95
:104C6000112B00F0C1FFBDEC028B41EC100B70BDAD
:104C700031B504462DED040B2DED0A8BB0EE41BA93
:104C8000F0EE61BA0B989DED0A0B20F00040B0F1F8
:104C9000795F0DDA51EC100BFEF737FB042808BFE3
:104CA00000F0CAF89DED0A0BBDEC0A8B05B030BDD3
:104CB00053EC102B51EC100B01F07CFA41EC180B6B
:104CC0009DED0A0B53EC182B51EC100B01F072FA0E
:104CD00041EC190B2C48B0EE480AF0EE680A0521A9
:104CE0007844FFF749FF9FED2ACBB0EE40AAF0EEE3
:104CF00060AA9CB353EC1C2B51EC190B01F05AFA2F
:104D000041EC1C0B53EC1A2B51EC190B01F052FA2D
:104D10009FED210B41EC190B53EC102B51EC1B0BAD
:104D200001F048FA53EC192B01F050FC53EC182B0E
:104D300001F040FA53EC1B2B01F048FC53EC1C2B08
:104D400001F044FC9DED0A1B53EC112B01F066FBB6
:104D5000BDEC0A8B05B041EC100B30BDFFE753EC06
:104D60001A2B51EC180B01F025FA53EC1C2B00F018
:104D70003BFF53EC192B01F01DFA9DED0A1B53EC80
:104D8000112B00F031FFE3E7041F000000000000DA
:104D9000495555555555C5BF000000000000E03F7E
:104DA0009FED070B10B553EC102B9FED070B51EC4B
:104DB000100B00F0D5FF41EC100B10BD00000000FF
:104DC0000000000000000000000000000000F03FB4
:104DD00010B553EC102B51EC100B00F005FF41EC1B
:104DE000100B10BD10B553EC112B51EC100B00F053
:104DF000FBFE41EC100B10BD9FED050B10B553EC05
:104E0000102B51EC100B00F0ABFF41EC100B10BD60
:104E100000000000000000009FED050B10B553ECF2
:104E2000102B51EC100B01F0C5F941EC100B10BD2B
:104E300000000000000000709FED050B10B553EC62
:104E4000102B51EC100B01F0B5F941EC100B10BD1B
:104E5000000000000000001010B541EC100BFEF740
:104E60007FFA51EC100B10BD40F2651000F052FCBF
:104E7000FDF73CFE0848FDF7C5FF08490648FDF769
:104E800067FFFDF7CFFF0548FBF77AFCFBF716FC41
:104E9000012000F06BF8EDE7800000208C4100203D
:104EA00082B0CDE9000121F0004001909DED000BA2
:104EB00002B051EC100B7047098849BA0180818219
:104EC000704710B5B0F9003003810A8852BA0280E9
:104ED0004C88D31A64BA44808C88B3F5805F64BA76
:104EE000848089798171016901DD491E03E013F530
:104EF000805F01DA491C016102EB4131828A891A23
:104F0000C16010BDFCF76CFCFDF7A4FFFDF74EFC83
:104F1000FDF722FCFDF7DCFBFDF7FCFBFDF788FC51
:104F2000FDF76AFC00F096FAFBF762FBFBF77CFBEF
:104F30000748FBF797FB0748FBF794FB1422064949
:104F40000648FDF7EBFAFDF71DFC00F016F8FEE74A
:104F50001C03002044030020C44D00206C030020EB
:104F600001460020842900D0C81C704710B500B944
:104F7000012000F0CFFB002010BD10B500F0F0FBC9
:104F8000002010BD7FB50D4604464169B0F9080008
:104F900081B1A16971B1FFF7E3FFD4E905128DE892
:104FA0000700D4E900102B46226900F0ECFC0390C6
:104FB00004B070BDFFF7D4FF03A9CDE90001208A3A
:104FC0002B4682B2D4E9001000F0B0FC012801D0D9
:104FD0000020EDE70398EBE72DE9F041184C0F4670
:104FE0000546E6682068001D00F0CDFA38B9206853
:104FF00090F82C1001208840216981432161681CB0
:1050000007D137B12168BDE8F0410E48091D00F015
:10501000FDBA20683544B5424560216805D2A06BD1
:10502000BDE8F041091D00F0D9BA606B091D00F020
:10503000D5FAA06A854200D2A562BDE8F0810000E1
:1050400018000020780500202DE9F041054600F009
:10505000E9FA2E4CA068401CA06020682C4F10B1CB
:10506000606940B32DE02560A068012829D10026A1
:1050700006EB860007EB800000F0A2FA761C072EF4
:10508000F6D323488C3000F09BFA2148A03000F082
:1050900097FA1F48B43000F093FA1D48C83000F06A
:1050A0008FFA1B48DC3000F08BFA19488C306063B3
:1050B0001430A06305E02068E96AC06A884200D81D
:1050C0002560606A401C6062E96A012022698840AC
:1050D0001043206101EB810007EB8000291D00F0E7
:1050E00095FA00F0BFFA606900280CD02068E96AE0
:1050F000C06A884207D207494FF080500860BFF36A
:105100004F8FBFF36F8FBDE8F081000018000020C3
:105110009C04002004ED00E010B5044690F8510016
:1051200058B101280CD002280FD0502080F31188EC
:10513000BFF34F8FBFF36F8FFEE7206B00F0A6FA2F
:105140002046BDE8104000F0A1BA10BD10484FF451
:105150007051420706D0C01D0D4920F00700411ACA
:10516000C1F570510B4A00230144C2E9000308391C
:10517000183A21F0070111604B600B600B1AC0E96F
:10518000001393604FF0004053605061704700007F
:105190008C0500206C000020144E154CA6F1C807A9
:1051A0004FF08058DFF84C9012E000BF00F03AFA60
:1051B000F068C568281D00F0E6F9A068401EA060F0
:1051C0006068401E606000F04DFA2846FFF7A4FFBB
:1051D00060680028EAD138680128F9D9C9F8008048
:1051E000BFF34F8FBFF36F8FF2E70000640500201D
:1051F0001800002004ED00E02DE9F0479A46DDE9B3
:10520000098481466FF00303206B03EB8202104494
:10521000089E20F00707780707D0502080F31188F8
:10522000BFF34F8FBFF36F8FFEE7002561B1002002
:1052300023180A5C83F834200A5C12B1401C102841
:10524000F6D384F8435001E084F83450072E00D39D
:105250000626E662C4E91165201D00F0BCF904F1E0
:10526000180000F0B8F92461C6F107006462A0617B
:10527000E56484F8505052464946384600F0C0F87C
:105280002060B8F1000F01D0C8F80040BDE8F087F9
:1052900030B5114900E011460A688242FBD34B68E1
:1052A0005C18844203D1406818444860084643684B
:1052B0001C18944209D1084C183C2468A24209D019
:1052C00052681A4442600A6812680260814200D043
:1052D000086030BD0460F9E76C0000200648416BAF
:1052E000096829B1416BC968C9684968816270471A
:1052F0004FF0FF31FAE7000018000020084840682E
:10530000401C4FF0500080F3118804D0BFF34F8F42
:10531000BFF36F8FFEE7BFF34F8FBFF36F8FFEE7D3
:10532000740000202DE9F0410546002700F04EFAF8
:10533000324E306808B9FFF709FF706905424ED157
:10534000C5B3083568070ED005F00700C0F10800A6
:105350000544680707D0502080F31188BFF34F8FB2
:10536000BFF36F8FFEE72DB37068854237D82348AF
:10537000183001460C6801E020460C466168A942DD
:1053800002D221680029F7D131688C4227D0076802
:105390002168016060680837411B10290FD9601926
:1053A000420708D0502080F31188BFF34F8FBFF31E
:1053B0006F8FFEE713E041606560FFF769FF61688A
:1053C0007068401A7060B268904200D2B060706934
:1053D00001430020C4E90001F068401CF06000F0C7
:1053E00063FB780707D0502080F31188BFF34F8FFD
:1053F000BFF36F8FFEE73846BDE8F0815400002010
:1054000010B5031F4FF080741C601B1F21F00101B9
:105410001960191F044B0B6014390A60091F6FF0E3
:10542000020244380A6010BDFD52000810B510EEAB
:10543000100A01F0B5F99FED051B53EC112B00F09C
:10544000B9FE00F09FFB00EE100A10BD46DF617E42
:10545000DCA54C4002492422A1F12400FDF712BC36
:10546000924D0020F0B5002855D0002953D0027885
:10547000437842EA0322C2F30A020A80437884781E
:10548000DB0843EA4413C3F30A034B808478C578EE
:10549000A40944EA8504057944EA8524C4F30A048E
:1054A0008C80057946796D0845EAC615C5F30A056D
:1054B000CD804679C6F301168E724679B609CE7252
:1054C0008679C77946EA07268E81067A477A46EAC0
:1054D0000726CE81867AC77A46EA07260E82067BA1
:1054E0008E74467BCE74867BC77B46EA07268E8207
:1054F000067C407CA2F580620A80A3F580634B8025
:10550000A4F5806446EA00208C80A5F58065CD80F6
:10551000A0F580600881F0BD00B52DED048B83B04F
:1055200041EC190B00F086FF41EC180B18EE100A45
:1055300018EE901A8DED008B002818BF012008434B
:1055400020F00040C0F17F6000F1E040C00F14D0B7
:1055500019EE101A19EE900A8DED009B002918BF64
:105560000121084320F00040C0F17F6000F1E040DD
:10557000C00F04BF0120FAF7AFFF51EC180B03B0C6
:10558000BDEC048B00BDD0E9013201699A60D0E91D
:1055900001235A604A68824201D182684A6000222F
:1055A00002610868401E086008687047034B03608A
:1055B00003F154000860802010607047C80000208C
:1055C00000F108014FF0FF32C0E90112C160016132
:1055D00000210160704700210161704730B50B6800
:1055E0005A1C02D000F1080202E0026904E02246DF
:1055F000546825689D42FAD953684B6099608A6067
:10560000516008610168491C016030BD42684A6010
:1056100093688B6093685960916008610168491CC8
:1056200001607047502080F31188BFF34F8FBFF3A4
:105630006F8F0A494868401C486001280CD108480F
:10564000006810F0FF0F07D0502080F31188BFF3DF
:105650004F8FBFF36F8FFEE770470000740000208C
:1056600004ED00E00849486828B1401E486001D1B7
:1056700080F311887047502080F31188BFF34F8F5B
:10568000BFF36F8FFEE700007400002070B50028A4
:105690002AD0164DA0F1080460686969084207D154
:1056A000502080F31188BFF34F8FBFF36F8FFEE759
:1056B00022683AB1502080F31188BFF34F8FBFF3B7
:1056C0006F8FFEE78843606000F080F8606869686B
:1056D000084468602046FFF7DBFD2869401C28610C
:1056E000BDE8704000F0E0B970BD0000540000203B
:1056F0004FF0E02000210161816105494FF47A7289
:105700000968B1FBF2F1491E41610721016170474F
:105710001400002010B5020014D00F48006B38B1FF
:10572000502080F31188BFF34F8FBFF36F8FFEE7D8
:1057300000F04CF800211046FFF74EFC00F0B4F9E1
:10574000002807D105494FF080500860BFF34F8F04
:10575000BFF36F8F10BD00001800002004ED00E0C3
:1057600010B586B00024039405AA04A903A80494E4
:10577000FFF71CFFDDE903010094CDE901100023D0
:105780000EA11048059A00F0FEF80F490028C862E3
:1057900011D0502080F31188BFF34F8FBFF36F8F6C
:1057A0004FF0FF30886201204861CC6006B0BDE850
:1057B000104000F041B806B010BD000049444C450F
:1057C0000000000099510008180000200248016BF9
:1057D000491C016370470000180000201448016B49
:1057E00011B10121C16170470021C1610169B1FAA4
:1057F00081F1C1F11F0101EB81020E4951F8223004
:105800006BB101EB820101F108034A6852684A60FA
:105810009A4201D152684A60D168016070475020B5
:1058200080F31188BFF34F8FBFF36F8FFEE7000047
:10583000180000209C0400201CB537480168374A36
:10584000914207D1502080F31188BFF34F8FBFF3EF
:105850006F8FFEE700683149491E884207D150200A
:1058600080F31188BFF34F8FBFF36F8FFEE72C4992
:1058700008780190FF20087008788DF800009DF8E6
:1058800000009DF8002000F0F000904207D050206A
:1058900080F31188BFF34F8FBFF36F8FFEE79DF842
:1058A0000000204C00F0500020700720A06005E0B0
:1058B0009DF8002052008DF80020401E9DF8002029
:1058C0001206F5D4A060032807D0502080F3118879
:1058D000BFF34F8FBFF36F8FFEE74FF44070A060B0
:1058E000019808700C482030016841F47001016093
:1058F000016841F070410160FFF7FAFE002060602E
:10590000FAF7B6FC0848016841F040410160FAF737
:105910009BFC00201CBD000000ED00E071C20F41A7
:1059200000E400E07400002034EF00E02DE9FF5FA8
:105930008346DDE90E87994616468A469000FFF7B2
:10594000F1FC05001CD05420FFF7ECFC040014D03F
:105950000020256384F85100CDE90240CDE900879D
:105960004B46324651465846FFF746FC2046FFF765
:105970006BFB012004B0BDE8F09F2846FFF786FED0
:105980004FF0FF30F6E7F0B585B0DDE90B640A9D16
:10599000A6B1DCB1542700972663022684F8516033
:1059A000002604AFCDE90246CDE90057FFF724FCFD
:1059B0002046FFF749FB049805B0F0BD502080F366
:1059C0001188BFF34F8FBFF36F8FFEE7502080F336
:1059D0001188BFF34F8FBFF36F8FFEE72DE9F041C2
:1059E0002F4C0026206B28B1A069401CA0613046D6
:1059F000BDE8F081E5686D1CE56013D1606B00685F
:105A000038B1502080F31188BFF34F8FBFF36F8FF1
:105A1000FEE7606BA16B6163A063206A401C20629B
:105A2000FFF75CFCA06ADFF87C80854209D3606BDD
:105A30000068A0B1606BC068C7687868854211D201
:105A4000A0622068C06A00EB800158F8210001289C
:105A500000D90126E0690028C9D00126C7E74FF028
:105A6000FF30EDE7381DFFF78EFDB86A18B107F17A
:105A70001800FFF788FDF96A012022698840104369
:105A8000206101EB810108EB8100391DFFF7BEFDAC
:105A9000F86A2168C96A8842C9D30126C7E70000AD
:105AA000180000209C0400202DE9F0472C4D002414
:105AB0002746286B38B1FFF7B5FD286B401E2863D9
:105AC000286B40B146E0502080F31188BFF34F8F20
:105AD000BFF36F8FFEE7A968224E0120D1B3A6F174
