:020000040800F2
:1000000068160020B5010008AD100008E10F0008D7
:10001000A910000871020008651100080000000026
:1000200000000000000000000000000001110008B6
:100030007502000800000000B1100008251100083A
:10004000CF010008CF010008CF010008CF01000850
:10005000CF010008CF010008CF010008CF01000840
:10006000CF010008CF010008CF010008CF01000830
:10007000CF010008CF010008CF010008CF01000820
:10008000CF010008CF010008CF010008CF01000810
:10009000CF010008CF010008CF010008CF01000800
:1000A000CF010008CF010008CF010008CF010008F0
:1000B000CF010008CF01000859110008CF01000846
:1000C000CF010008CF010008CF010008CF010008D0
:1000D000CF010008CF010008CF010008CF010008C0
:1000E000CF010008CF010008CF01000800F002F89E
:1000F00000F050F814A696E8000CB244B344DA4578
:1001000001D100F047F8BAE80F000FA696E83000DA
:10011000A5EB040504EB0607AAEB0704A7F101070A
:100120004FEA15154FEA3414A4F10104AC4201D38F
:1001300000F030F813F0010F18BFFB1A43F0010371
:1001400000F001F8DBE718478C200000AC2000002D
:10015000103A24BF78C878C1FAD8520724BF30C8F3
:1001600030C144BF04680C60704700007047000055
:100170000023002400250026103A28BF78C1FBD8B0
:10018000520728BF30C148BF0B6070471FB51FBD65
:1001900010B510BD00F031F81146FFF7F7FF01F080
:1001A00063F900F04FF803B4FFF7F2FF03BC00F06F
:1001B00057F800000948804709480047FEE7FEE776
:1001C000FEE7FEE7FEE7FEE7FEE7FEE7FEE7FEE707
:1001D00004480549054A064B7047000055110008C0
:1001E000ED0000086810002068160020681200204A
:1001F00068120020704770477047754600F02CF871
:10020000AE4605006946534620F00700854618B003
:1002100020B5FFF7DDFFBDE820404FF000064FF0AE
:1002200000074FF000084FF0000BAC46ACE8C009E7
:10023000ACE8C009ACE8C009ACE8C00921F007018E
:100240008D46704710B50446AFF300802046BDE8E8
:100250001040FFF7A8BF00000048704710000020C2
:1002600001491820ABBEFEE72600020070470000DF
:10027000FEE70000704700002DE9F04F82B00E68E5
:10028000002E00F0FD8041F20042C4F2010204237E
:1002900040F2004E904208BF03234FF6FF7CC4F2A9
:1002A000010E009300240123C1F2100C4FF0000A4C
:1002B0004FF0000944E000BF012704F00C030F22B7
:1002C0009A402BEA020207FA03F34FEA9A051A430F
:1002D00046F825204E6840F20C45F202DEF8082070
:1002E00054BF22EA080242EA0802C4F20105CEF82D
:1002F00008202A68B30254BF22EA080242EA080230
:100300002A60B303DEF8042054BF22EA080242EA5E
:100310000802F303CEF80420DEF800204FF00103BA
:1003200054BF22EA080242EA0802CEF800200E6812
:100330000AF1010A36FA0AF204F1040400F0A0807E
:1003400003FA0AFB16EA0B08F1D04E68664511DC89
:10035000122E55D8DFE806F0340A44485454545459
:100360005454545454545454544C5000D1F80C9098
:1003700046E000BF4FF6FF72C1F2210296420FDC49
:100380000022C1F2110296421AD00022C1F21202DA
:10039000964215D00022C1F22102964210D02FE0E1
:1003A0000022C1F2220296420AD00022C1F231029A
:1003B000964205D00022C1F23202964220D100BFFF
:1003C0008A684AB1012A14BFC0F814B0C0F810B04E
:1003D0004FF0080914E000BF4FF0040910E000BF1F
:1003E000CA6802F108090BE04FF0000908E000BFFD
:1003F000CA6802F1040903E0CA6802F10C0900BFEF
:1004000022460646B8F5807F24BF203A0436376876
:100410000F25954027EA050509FA02F22A433260C2
:10042000CA79D2067FF583AF41F21803C4F2020302
:100430001A68AEF57E7642F001021A601A6802F080
:1004400001020192019A2AF0030256F802B040F626
:100450000002C4F20102904210D040F60042C4F201
:10046000010290423FF428AF41F20002C4F20102BF
:10047000009F904208BF02271FE700BF00271CE72C
:1004800002B0BDE8F08F0000C26802EA01039143A8
:1004900041EA034101617047002A08BF0904016174
:1004A0007047000040F61060C2F20000006870471C
:1004B00040F2000040F61061C2F20000C2F20001FA
:1004C00000780A68104408607047000080B542F266
:1004D0000000C4F20200016841F010010160032035
:1004E00000F0CCF80F2000F005F800F061F80020D3
:1004F00080BD0000B0B586B041F21C01C4F202011B
:100500000A68044642F004020A60096801A801F082
:10051000040101910199694600F0A2F9049D002DA2
:1005200018BF012500F0BEF94DF68361A840C4F262
:100530001B31A0FB01014FF0FF3000EB914140F275
:100540003C1040F60002C2F20000C4F2000240F289
:10055000E7330025C0E90021C0E902530561856148
:1005600000F0C4FB054618B1284606B0B0BD00BF78
:1005700040F23C10C2F2000000F030FC05460028BA
:10058000F2D11E2000F03CF80F2C0DD81E20214681
:100590000022002500F046F840F20400C2F20000FC
:1005A0000460284606B0B0BD0125284606B0B0BD9F
:1005B00080B582B041F21800C4F202000168002246
:1005C00041F001010160016801F00101019101990F
:1005D000416841F08051416040680F2100F0805037
:1005E000009000986FF0010000F01CF80420C4F2A5
:1005F00001000168022262F31A61016002B080BD4D
:10060000002848BF704700F01F01012202FA01F1E3
:100610001C2202EAD0004EF20012CEF200028150FB
:100620007047000010B54EF60C5CCEF2000CDCF802
:100630000030C3F3022E8EF00704042C28BF0424DC
:10064000BEF103034FF0FF3E0EFA04F438BF00235F
:10065000A14399400EFA03F39A43114300F00F02AD
:1006600000F160430901043A03F564436244002841
:1006700048BF02F10C03197010BD00004EF60C517A
:10068000CEF200010A684FF6FF031A4060F30A2217
:1006900042F0806040F0FD7008607047002804BFA1
:1006A000012070472DE9F04381B042F20008C4F206
:1006B00002080446D8F800000D4600F00700884202
:1006C0000CD2D8F8000020F007002843C8F800003A
:1006D000D8F8000000F00700A8426CD1206841F271
:1006E00004098107C4F2020917D5410705D5D9F8D5
:1006F000001041F4E061C9F80010010705D5D9F8F0
:10070000001041F46051C9F80010D9F80010A26837
:1007100021F0F0011143C9F80010C00742D1D8F808
:10072000000000F00700A8420CD9D8F8000020F023
:1007300007002843C8F80000D8F8000000F00700C0
:10074000A84238D12068410707D5D9F80010E268DF
:1007500021F4E0611143C9F80010000708D5D9F869
:100760000000216920F4605040EAC100C9F800008F
:10077000D9F8002002F00C00082841F20020C0F255
:100780007A0051D142F2B813C2F38341C0F600039C
:10079000595CD2033CD440F60010C0F23D004843FF
:1007A00042E000BF606802280AD001282AD159F827
:1007B000041C890308D4012001B0BDE8F08300BF08
:1007C00059F8041C8901F6D5D9F8001021F003016D
:1007D0000843C9F80000FFF765FE064641F2883776
:1007E000D9F80000616800F00C00B0EB810F96D0E2
:1007F000FFF758FE801BB842F2D9032001B0BDE8D4
:10080000F08300BF59F8041C8907D4D5DCE700BF8A
:10081000D9F8002042F2B613C2F34042C0F60003FA
:100820009A5C4843B0FBF2F0D9F8001042F29E12F5
:10083000C1F30311C0F60002515C40F2080220FA35
:1008400001F140F20400C2F200000068C2F20002AE
:100850001160FFF74FFE002001B0BDE8F0830000FB
:100860000F22026041F20402C4F20202136803F094
:1008700003034360136803F0F0038360136803F419
:10088000E063C36012684FF4E06303EAD2020261DE
:1008900042F20000C4F20200006800F007000860A5
:1008A0007047000040F2080041F20401C2F200006B
:1008B000C4F202010068096842F2AE12C1F30221DB
:1008C000C0F60002515CC84070470000002804BF19
:1008D000012070472DE9F04182B00446007841F2D2
:1008E0000006C007C4F202060CD0706800F00C00CD
:1008F000042840F081803068800303D560680028B8
:1009000000F04E81207880071BD5706810F00C0F26
:1009100009D0706800F00C00082840F08B807068E7
:10092000C00300F187803068800703D52069012863
:1009300040F036813068616920F0F80040EAC1007B
:1009400030602078000713D4207840072CD4E56964
:10095000002D00F02081706800F00C00082840F0A5
:10096000AF80012D40F00C81012002B0BDE8F08184
:10097000A069002800F08C800020C4F242200121F0
:10098000C0F88014FFF78EFD054600BF706A80072F
:1009900000F1BA80FFF786FD401B0228F6D903203C
:1009A00002B0BDE8F08100BFF0695FEAC00808D47A
:1009B000F06940F08050F061F06900F080500090E4
:1009C000009847F20007C4F200073868C0054DD40C
:1009D000386840F480703860FFF764FD054600BF5A
:1009E0003868C00542D4FFF75DFD401B6428F7D985
:1009F000032002B0BDE8F081706800F00C00082808
:100A000003D17068C0033FF576AF6068002800F03E
:100A10000981B0F5A02F00F01D81B0F5803F00F0F6
:100A20001D81306820F480303060306820F48020F0
:100A300017E100BF2069002840F20000C4F2422004
:100A400000F08C8001210160FFF72CFD054600BFFE
:100A5000306880073FF56EAFFFF724FD401B02288A
:100A6000F6D9032002B0BDE8F08100BFE06800289D
:100A700000F09A80052800F0B180012800F0B280D3
:100A8000306A20F001003062306A20F00400ACE0EF
:100A90000020C4F242200021C0F88014FFF702FDBC
:100AA000054600BF706A80077FF54EAFFFF7FAFC7E
:100AB000401B0228F6D9032002B0BDE8F08100BF38
:100AC0000027C4F2422700203866FFF7EBFC022D16
:100AD00005460DD13068800140F1D680FFF7E2FC79
:100AE000401B02284FF00300F4D902B0BDE8F081AA
:100AF000306880014FD5FFF7D5FC401B02284FF02E
:100B00000300F5D9F1E700BF40F20800C2F200008F
:100B1000006844F6D351C1F26201A0FB0101480A0A
:100B2000019000BF00BF0198411E002801913FF4D1
:100B30000BAF00BF0198411E002801913FF404AFA4
:100B400000BF0198411E002801913FF4FDAE00BF97
:100B50000198411E00280191E4D1F5E600210160D1
:100B6000FFF7A0FC054600BF306880077FF5E9AEBF
:100B7000FFF798FC401B02284FF00300F4D9B4E7BC
:100B80007068216A00F480328A4209D1616A00F4F7
:100B90007010884204D1002002B0BDE8F08100BF8F
:100BA000012002B0BDE8F081306A20F0010030621F
:100BB000306A20F004003062FFF774FC054641F211
:100BC000883700BF306A800722D5FFF76BFC401BD7
:100BD000B8424FF00300F5D987E700BF306A40F014
:100BE00004003062306A40F001003062FFF75AFCC6
:100BF000054641F2883700BF306A800708D4FFF706
:100C000051FC401BB842F7D9032002B0BDE8F08187
:100C1000B8F1000F3FF59BAEF06920F08050F06115
:100C200095E600BF306820F480303060306820F4F2
:100C300080203060FFF736FC054600BF3068800337
:100C40007FF560AEFFF72EFC401B64284FF00300D9
:100C5000F4D94AE7306840F480203060306840F4CE
:100C600080303060FFF71EFC054600BF306880030F
:100C70003FF548AEFFF716FC401B6428F6D9032069
:100C800002B0BDE8F08100BF206AB0F5803F05D119
:100C90007168A26821F40031114371607168626A61
:100CA00021F4741111430843706001203866FFF786
:100CB000F9FB0446306880013FF56DAFFFF7F2FBAA
:100CC000001B02284FF00300F4D90EE74EF210018A
:100CD000CEF200010A68042822F0040208BF0432A0
:100CE0000A6070477047000070470000002804BF8A
:100CF0000120704710B5044690F83D0028B9002047
:100D000084F83C00204600F067F8022084F83D009B
:100D1000206840F2FF730268C4F2000342F6004C00
:100D20009842C4F2010C15DCB0F1804F1AD040F2A9
:100D30000041C4F20001884214D0984218DCB0F19E
:100D4000804F1DD040F20041C4F20001884217D00C
:100D50001AE000BF604505D040F60001C4F2000172
:100D60008842EAD1A16822F070020A439842E6DD87
:100D7000604505D040F60001C4F20001884203D16D
:100D8000216922F440720A43A36922F08001D4F859
:100D900004E0E268194360450160C262C0F828E0DF
:100DA00002D16169CCF8301001214161002084F842
:100DB000461084F83E1084F83F1084F8401084F800
:100DC000411084F8421084F8431084F8441084F8E9
:100DD000451084F83D1010BD7047000090F83D109C
:100DE00001291CBF01207047022180F83D100068D6
:100DF00040F2FF72C168C4F20002904241F001016A
:100E0000C16009DCB0F1804F12D040F20041C4F261
:100E1000000188420CD012E042F60041C4F2010108
:100E2000884205D040F60001C4F20001884206D194
:100E3000816801F00701062904BF0020704701689E
:100E400041F0010101600020704700007047000080
:100E500010B5016804460869800744BFC8685FEAA6
:100E6000807039D40869400744BFC8685FEA4070A1
:100E70003ED40869000744BFC8685FEA007045D4E3
:100E80000869C00644BFC8685FEAC0604AD4086900
:100E9000C0071CBFC8685FEAC07051D1086900066E
:100EA00044BFC8685FEA006052D40869400644BF86
:100EB000C8685FEA406053D40869800646BFC868C6
:100EC0005FEA806010BD6FF0200220460A61BDE835
:100ED0001040FFF709BF00BF6FF00200086101205A
:100EE00020778869800743D02046FFF7AFFF45E0B1
:100EF0006FF00400086102202077886910F4407FB9
:100F000040D02046FFF7A2FF42E000BF6FF008008C
:100F1000086104202077C86980073DD02046FFF78C
:100F200095FF3FE06FF01000086108202077C86946
:100F300010F4407F3AD02046FFF788FF3CE000BF26
:100F40006FF001000861204600F03EF82168A5E737
:100F50006FF0800008612046FFF7C4FE2168A4E717
:100F60006FF040000861204600F038F82168A3E7E0
:100F7000204600F025F8204600F024F821680020E3
:100F800020776FE7204600F01BF8204600F01AF8A3
:100F90002168002020776CE7204600F011F82046F9
:100FA00000F010F821680020207769E7204600F063
:100FB00007F8204600F006F821680020207766E751
:100FC0007047000070470000006840F60001C4F25E
:100FD0000001884218BF7047FFF76ABA70470000E7
:100FE000FEE7000080B588B00B4802AF01900AA070
:100FF00000F1040E9EE80E50806987E80E500790BD
:1010000001A8002100F070FA40F23011C2F2000194
:10101000086008B080BD00BFC82100085514000852
:101020000000000000000000800000000000000040
:101030000000000070B584B041F21800C4F2020054
:10104000016841F2000441F0100101600168C4F23E
:10105000010401F01001009100990168012241F0A2
:101060002001016001684FF4005501F0200100915A
:1010700000990168012641F00401016000684FF405
:10108000005100F00400009000982046FFF704FA99
:10109000002002900220039069462046CDE90056C8
:1010A000FFF7EAF804B070BDFEE70000FEE70000BD
:1010B000EFF30980BFF36F8F0D4B1A6820E9F00F33
:1010C00010602DE908404FF0500080F3118800F0C7
:1010D00033FE4FF0000080F31188BDE80840196826
:1010E0000868B0E8F00F80F30988BFF36F8F70478E
:1010F0007000002000000000000000000000000060
:10110000074B19680868B0E8F00F80F30988BFF34F
:101110006F8F4FF0000080F311884EF00D0E704776
:101120007000002080B54FF0500080F31188BFF3AD
:101130006F8FBFF34F8F00F039FF30B14EF6045080
:10114000CEF200004FF080510160002080F3118842
:1011500080BD00007047000040F23C10C2F2000069
:10116000FFF776BEFEE7000041F20000C4F2010086
:101170004FF40051FFF788B970B5CA0842F2C503B1
:101180005A43130D4FF47A724EF2100003FB121CF7
:1011900040F2341ECEF20000B1F57A7FC2F2000EAA
:1011A0005ED344F24022C0F20F0213F00304A3F115
:1011B000010153D0DEF8005055434560002585609D
:1011C000056845F001050560056805F00115012D6C
:1011D0000ED1056805F00115012D09D1056805F04E
:1011E0000115012D04D1056805F00115012DEBD085
:1011F0000568012C25F0010505604FF000058560AC
:1012000004D1013B03292BD381E000BFDEF800604D
:10121000564346608560056845F00105056000BFDE
:10122000056805F00115012D0ED1056805F00115C1
:10123000012D09D1056805F00115012D04D10568BE
:1012400005F00115012DEBD00568022C25F00105F4
:1012500005604FF00005856032D1023B032956D26C
:101260005FEA0C4108BF70BDDEF800101FFA8CF277
:1012700051434FF47A72514341600021816001680B
:1012800041F00101016000BF016801F00111012975
:101290000ED1016801F00111012909D1016801F0A5
:1012A0000111012904D1016801F001110129EBD0DC
:1012B000016821F0010101600021816070BD00BF63
:1012C000DEF80040544344608560046844F0010443
:1012D000046000BF046804F00114012C0ED10468FE
:1012E00004F00114012C09D1046804F00114012C4C
:1012F00004D1046804F00114012CEBD00468033B12
:1013000024F001040460002484600329A8D3002190
:1013100007E000BF0468043B24F00104046081601E
:101320009ED0DEF80040544344608160046844F07D
:1013300001040460046804F00114012C0ED1046857
:1013400004F00114012C09D1046804F00114012CEB
:1013500004D1046804F00114012CEBD0046824F0DB
:10136000010404608160DEF8004054434460816001
:10137000046844F001040460046804F00114012CC2
:101380000ED1046804F00114012C09D1046804F0A2
:101390000114012C04D1046804F00114012CEBD0D9
:1013A000046824F0010404608160DEF800405443C6
:1013B00044608160046844F001040460046804F03F
:1013C0000114012C0ED1046804F00114012C09D180
:1013D000046804F00114012C04D1046804F0011421
:1013E000012CEBD0046824F0010404608160DEF875
:1013F0000040544344608160046844F00104046088
:10140000046804F00114012C7FF484AF046804F034
:101410000114012C7FF47EAF046804F00114012C48
:101420007FF478AF046804F00114012CE8D071E770
:1014300010B54EF210000C46CEF200000021016003
:101440000020FFF743FC40F23411E008C2F2000133
:10145000086010BD41F20004C4F2010420464FF4BC
:101460000051FFF711F8F9E790B0FFF72FF80024CB
:101470000120CDE90B44CDE9094406900A904FF4D0
:10148000E0104FF4803102250F9006A8CDE9071433
:10149000CDE90D51FFF71AFA20B1EFF3108072B6C3
:1014A000FEE700BF0F20CDE901054FF48060CDE9D4
:1014B000040401A802210394FFF7F0F820B1EFF330
:1014C000108072B6FEE700BFFFF7B4FD00F0B8FA77
:1014D000FFF788FD00F002F8FEE7000080B500F09D
:1014E000BFFB002080BD0000B0B584B043698E46CC
:1014F00093B1846984B10589D0E9001C026928B2DE
:10150000843D18BFC51CCDE9005360467346029464
:1015100000F012FD04B0B0BD0589D0E90013028AC5
:1015200028B2843D18BFC51C03AC18467346CDE9EC
:10153000005400F0D1FC0399012818BF002108468F
:1015400004B0B0BD2DE9F041044600F0CDFA40F200
:101550007006C2F20006306940F284150130306135
:101560003068C2F2000548B17069002840D1306887
:10157000E16AC06A884298BF346039E034603069FB
:10158000012835D1284600F091FA05F1140000F049
:101590008DFA05F1280000F089FA05F13C0000F011
:1015A00085FA05F1500000F081FA05F1640000F0C1
:1015B0007DFA05F1780000F079FA40F20818C2F2DD
:1015C0000008404600F072FA08F11407384600F0AF
:1015D0006DFA06F1640000F069FA06F13C0000F0D3
:1015E00065FA06F1500000F061FAC6F830807763C2
:1015F0007068B16801220131B160E16A8A4010432C
:10160000706001EB810005EB8000211D00F05EFAA7
:1016100000F08EFA706988B13068E16AC06A884269
:1016200028BFBDE8F0814EF60450CEF200004FF026
:1016300080510160BFF34F8FBFF36F8FBDE8F08122
:1016400040F2700540F284164EF60458C2F20005CE
:10165000C2F20006CEF200084FF0805703E000BF50
:10166000204600F07DFAE868D0B100F03DFAA86CA1
:10167000C468201D00F0FAF9286901382861E8687B
:101680000138E86000F054FA94F851000228EAD0DA
:101690000128E5D070B9206B00F062FAE0E700BFE6
:1016A00030680228DFD3C8F80070BFF34F8FBFF354
:1016B0006F8FD8E74FF0500080F31188BFF36F8F22
:1016C000BFF34F8FFEE700002DE9F0470A9F8246E7
:1016D000386BDDF8248000EB82000A78089C87F8DC
:1016E00034200A7804389946002A20F007064BD0A7
:1016F000487887F835004878002845D0887887F8FA
:101700003600887800283FD0C87887F83700C87836
:10171000D0B3087987F838000879A8B3487987F8F2
:101720003900487980B3887987F83A00887958B3C6
:10173000C87987F83B00C87930B3087A87F83C004D
:10174000087A08B3487A87F83D00487AE0B1887A89
:1017500087F83E00887AB8B1C87A87F83F00C87A1F
:1017600090B1087B87F84000087B68B1487B87F818
:101770004100487B40B1887B87F84200887B002885
:101780001CBFC87B87F843000025381D87F84350ED
:10179000062C28BF0624FC62C7E9114500F092F927
:1017A00007F1180000F08EF984F00700B8613046A8
:1017B00051464A463F617F62FD6487F8505000F011
:1017C0002FF9B8F1000F386018BFC8F80070BDE8F5
:1017D000F087000006480068006880F3088862B659
:1017E00061B6BFF34F8FBFF36F8F00DF00BF000004
:1017F00008ED00E081B00020009040F20C00C2F241
:10180000000000684FF0500181F31188BFF36F8F23
:10181000BFF34F8F013007D0FEE700BF009830B90B
:10182000009820B9009810B900980028F6D001B0AF
:101830007047000070B5044600F076FA40F2E80CFC
:10184000C2F2000CDCF8040050B19CF80000002843
:1018500018BF4FF000404FF0000554BB85E000BFBB
:1018600040F21020C2F20000420700F5406200F191
:10187000070122F0070218BF21F007000021A2F1A2
:101880000803CCF81000CCF81410CCF8043042E96E
:101890000211DCF80420191AC0E9002101208CF89B
:1018A00000004FF00040CCE90211002C4FF0000581
:1018B0005BD0204059D124F0070000F110026007EE
:1018C00008BF04F10802DCF80800511E81424CD226
:1018D000604650F810EFDEF8045095422BD2DEF847
:1018E0000010B9B174464D68954217D20B68ABB180
:1018F0005D68954216D21868A0B14568954215D228
:1019000004689CB16568954214D22168A6460029F6
:10191000E9D110E00CF110000DE000BF8E4620462A
:1019200009E000BF9E46084605E000BF864618460F
:1019300001E000BFA646DCF804108E4514D0016813
:10194000DEF80040AB1A112B04604CD30EEB0205FD
:10195000680719D04FF0500080F31188BFF36F8FE4
:10196000BFF34F8FFEE700BF002500F0A3FB680721
:1019700054D04FF0500080F31188BFF36F8FBFF346
:101980004F8F00BFFEE700BF0CF110006B60CEF878
:10199000042000BF0368AB420AD21868A8420BD2E9
:1019A0000368AB4204D218681A46A842F2D304E096
:1019B0000246184601E000BF1A4654686B681619C3
:1019C000AE4202D1234415465360EC18844206D13E
:1019D000DCF80440A04202D011C823446B60AA4244
:1019E000286018BF1560DEF80400DCE9022301F16D
:1019F0000805111A9942CCF8081038BFCCF80C1021
:101A00009CF8001000294FF0000118BF40F0004082
:101A1000CEE9001000F04EFB6807AAD1284670BD41
:101A2000034641F2F570C0F600004FF0807C21F0D3
:101A3000010103E90310A3F1400043F8202C704793
:101A400040F23814C2F2000420464821FFF7F0FCAF
:101A500040F23B15C2F200052846FFF785FB204601
:101A60004FF4FA71FFF788FBF6E70000D0E9013286
:101A700001699A60D1F804C082688445536008BF48
:101A80004A600022026108680138086008687047EF
:101A900041F21403C2F20003036040F61460C2F284
:101AA0000000086080201060704700004FF0FF3198
:101AB000024642F8081F00214260C0E9032201608B
:101AC000704700000021016170470000D0F800C09D
:101AD000436808619A684B608A609A6899605160AF
:101AE0000CF10101016070474FF0500080F3118844
:101AF000BFF36F8FBFF34F8F40F20C00C2F20000B4
:101B000001684A1C026009B1704700BF4EF60450DC
:101B1000CEF200000068000608BF70474FF050008A
:101B200080F31188BFF36F8FBFF34F8FFEE7000084
:101B300040F20C00C2F20000016839B101390160C5
:101B400018BF7047002080F3118870474FF0500095
:101B500080F31188BFF36F8FBFF34F8FFEE7000054
:101B600070B5002808BF70BD40F2E806C2F200065A
:101B70000446307854F8041C002818BF4FF0004089
:101B800008420DD0A4F108052A689AB14FF0500020
:101B900080F31188BFF36F8FBFF34F8FFEE700BF55
:101BA0004FF0500080F31188BFF36F8FBFF34F8F5A
:101BB000FEE700BF21EA000044F8040C00F0B4F88E
:101BC00054F8041CB0680844B06006F1100000BF6F
:101BD0000368AB420AD21868A84221D20368AB421C
:101BE00004D218681A46A842F2D301E00246184609
:101BF0005368D418AC4202D11944154651606B1891
:101C0000834205D17368984202D009C819446960BB
:101C1000AA42286018BF1560BDE8704000F04ABABB
:101C20001A465368D418AC42E9D1E5E74EF21000E9
:101C3000CEF2000000210160816040F20801C2F292
:101C40000001096844F6D352C1F26202A1FB0212FC
:101C50004FF0FF3101EB92114160072101607047A5
:101C6000B0B588B00020CDE9050006A805A904AAF2
:101C7000FFF70EFF0598A8B3069C002C3CD054211A
:101C8000049A07910799542940D12063022084F8CF
:101C9000510007A80025CDE9005041F24160C0F68F
:101CA00000001FA100230294FFF70EFD2046FFF75E
:101CB00049FC079940F27000C2F20000016279B15C
:101CC0004FF0500181F31188BFF36F8FBFF34F8F37
:101CD0004FF0FF31416201214161C56100F064F8BC
:101CE00008B0B0BD4FF0500080F31188BFF36F8F84
:101CF000BFF34F8FFEE700BF4FF0500080F3118815
:101D0000BFF36F8FBFF34F8FFEE700BF4FF0500060
:101D100080F31188BFF36F8FBFF34F8FFEE700BFD3
:101D200049444C450000000040F27000C2F200003F
:101D3000816901318161704740F27000C2F2000098
:101D4000816900291EBF01218162704700218162E3
:101D50004168B1FA81F1C9B2C1F11F0140F28412A8
:101D600001EB8101C2F2000252F8213063B102EBB3
:101D7000810252F8041F4968131D994211600DD069
:101D8000C9680160704700BF4FF0500080F31188B0
:101D9000BFF36F8FBFF34F8FFEE700BF496811603D
:101DA000C968016070470000B0B584B04EF2004CC5
:101DB000CEF2000C9CF800100291FF218CF800106C
:101DC0009CF800108DF807109DF8071001F05002E4
:101DD00040F20011C2F200010A7007224A609DF928
:101DE0000720B2F1FF3F61DC032200BFD31C4B6030
:101DF0009DF8070040008DF807009DF90700B0F13D
:101E0000FF3F24DC931C4B609DF8070040008DF8D9
:101E100007009DF90700B0F1FF3F18DC531C4B6031
:101E20009DF8070040008DF807009DF90700B0F10C
:101E3000FF3F0CDC4A609DF80700043A40008DF833
:101E400007009DF90700B0F1FF3FCFDD131D032B05
:101E50002CD14FF44070486002988CF80000DCF8F8
:101E6000200940F47000CCF82009DCF8200940F08B
:101E70007040CCF82009FFF7D9FE40F20C04C2F202
:101E8000000400252560FFF7A5FCFFF755FF03952B
:101E900020684FF0500181F31188BFF36F8FBFF3BB
:101EA0004F8F013012D000BFFEE700BF4FF050004F
:101EB00080F31188BFF36F8FBFF34F8FFEE700BF32
:101EC000039830B9039820B9039810B903980028F3
:101ED000F6D0002004B0B0BD2DE9F04383B0074632
:101EE0009000984615468946FFF7A4FCF8B10646CF
:101EF0005420FFF79FFCB8B10446DDE90A10002228
:101F0000266384F85120CDE90010384649462A4618
:101F100043460294FFF7D8FB2046FFF713FB01204E
:101F200003B0BDE8F08300BF3046FFF719FE4FF065
:101F3000FF3003B0BDE8F08370B586B00B9CBCB138
:101F40000C9EFEB154250495049D542D24D10A9D68
:101F50003463022486F8514005ACCDE90054029662
:101F6000FFF7B2FB3046FFF7EDFA059806B070BDFB
:101F70004FF0500080F31188BFF36F8FBFF34F8F86
:101F8000FEE700BF4FF0500080F31188BFF36F8F62
:101F9000BFF34F8FFEE700BF4FF0500080F3118872
:101FA000BFF36F8FBFF34F8FFEE700002DE9F047BF
:101FB00040F27006C2F20006B06928B1F06A00244F
:101FC0000130F0626EE000BFF06910F1010AC6F85E
:101FD0001CA020D3306B006850B14FF0500080F34C
:101FE0001188BFF36F8FBFF34F8F00BFFEE700BFB5
:101FF000306B716B31637063B06B0130B063306B09
:10200000006828B1306BC068C068406802E000BF5B
:102010004FF0FF307062706A40F284188245C2F25D
:10202000000801D2002434E0306B0024006868B35B
:102030004FF0010916E000BFF86A716809FA00F272
:10204000114300EB8000716008EB80002946FFF728
:102050003DFDF86A3168C96A326B8842106828BF52
:102060004C4698B1306BC068C7683D4655F8040FC0
:1020700082450DD32846FFF7F9FCB86A0028DBD06B
:1020800007F11800FFF7F2FCD6E700BF4FF0FF3072
:1020900070623068C06A00EB800058F820000128A8
:1020A00088BF0124B06A002818BF01242046BDE87B
:1020B000F08700002DE9F04140F27005C2F2000502
:1020C000A86968B1FFF710FDA8690138A861A8697F
:1020D00080B10024FFF72CFD2046BDE8F08100BF51
:1020E0004FF0500080F31188BFF36F8FBFF34F8F15
:1020F000FEE700BF28690028EBD0686E78B340F295
:1021000084180126C2F20008286FC76807F118007A
:10211000FFF7ACFC3C1D2046FFF7A8FCF86A696895
:1021200006FA00F2114300EB8000696008EB8000C2
:102130002146FFF7CBFCF86A2968C96A884228BFA4
:10214000AE62686E0028DFD1286B006820B1286B72
:10215000C068C068406801E04FF0FF306862EC6A18
:102160004CB10126FFF722FF002818BFAE62013CE8
:10217000F8D10020E862A86A0028AAD04EF60450E0
:10218000CEF200004FF080510160BFF34F8F012469
:10219000BFF36F8FFFF7CCFC2046BDE8F081000055
:1021A0000000000000000102030406070809000007
:1021B00000000102030401020203040506070809E6
:1021C0000A0B0C0D0E0F10104C45445F5441534B3D
:1021D00000000000F82100080000002010000000AE
:1021E00050010008082200081000002058160000C6
:1021F0007001000800000000010000001000000055
:082200000024F400AAAAAAAA16
:04000005080000ED02
:00000001FF
