:020000040800F2
:10000000E0130020490200087F2F0008692D000836
:100010007D2F0008611400088136000800000000F0
:100020000000000000000000000000004133000854
:10003000C915000800000000DD3200084333000845
:1000400063020008630200086302000863020008FC
:1000500063020008630200086302000863020008EC
:1000600063020008630200086302000863020008DC
:1000700041150008630200086302000863020008DB
:1000800063020008630200086302000863020008BC
:10009000911400086302000863020008630200086C
:1000A000630200086302000863020008630200089C
:1000B000630200086302000863020008630200088C
:1000C000630200086302000863020008630200087C
:1000D000630200086302000863020008CD350008CF
:1000E000630200086302000863020008630200085C
:1000F000630200086302000863020008630200084C
:10010000630200086302000863020008630200083B
:100110006302000863020008ED3300086302000870
:10012000630200086302000863020008630200081B
:10013000630200086302000863020008630200080B
:100140001515000863020008630200086302000836
:1001500063020008630200086302000863020008EB
:1001600063020008630200086302000863020008DB
:100170006302000863020008630200080000000038
:10018000630200086302000800F002F800F04CF877
:100190000AA090E8000C82448344AAF10107DA45E2
:1001A00001D100F041F8AFF2090EBAE80F0013F0E8
:1001B000010F18BFFB1A43F001031847943B0000DE
:1001C000B43B0000103A24BF78C878C1FAD852076F
:1001D00024BF30C830C144BF04680C6070470000C1
:1001E0000023002400250026103A28BF78C1FBD840
:1001F000520728BF30C148BF0B607047662903F023
:100200004B85642900F0F880002070471FB503F08B
:100210003EFD00F0D3FB04000020002103F0AAFC07
:10022000E0601FBD10B510BD00F0E4FC1146FFF703
:10023000EDFF03F097FA00F002FD03B4FFF7F2FFC1
:1002400003BC03F046FA000009488047094800470C
:10025000FEE7FEE7FEE7FEE7FEE7FEE7FEE7FEE776
:10026000FEE7FEE704480549054A064B70470000D3
:10027000DD33000889010008E00D0020E0130020B4
:10028000E00F0020E00F0020704753EA020C00F05E
:1002900069802DE9F04B4FF00006002B1FBFB3FA29
:1002A00083F503FA05F424FA05F65E4012BF1643FF
:1002B000B2FA82F502FA05F4C5F120051EBF22FA52
:1002C00005FC44EA0C04203556EA044C4FEA144479
:1002D00018BF641C4FF000084FF00009904271EB0A
:1002E000030C39D3002919BFB1FA81F701FA07F6D7
:1002F000B0FA80F700FA07F6C7F120071EBF20FA10
:1003000007FC46EA0C062037B6FBF4FCA7EB050712
:10031000103F07F01F0BCBF120060CFA0BFB2CFA59
:1003200006F644BFB3460026202FA4BF5E464FF01A
:10033000000B5BEA060C08BF4FF0010B19EB0B0931
:10034000ABFB027C48EB0608C01B06FB02CC0BFB98
:1003500003CC71EB0C01C1E70B460246414648460F
:10036000BDE8F08B13B54FF000004FF00001AFF384
:100370000080BDE81C4070470FB4044910B503AAC3
:10038000029800F009FB10BC5DF814FBAC000020E3
:100390002DE9F0410E460446002020622046E16827
:1003A000884730B3252805D0D4E901219047206A39
:1003B000401CF2E7E168204600278847050018D076
:1003C000A5F14100192802D820354FF400673246C4
:1003D000294620462760FFF711FF40B1012804D0CD
:1003E000F61D26F007060836D8E7361DD6E728465C
:1003F000DAE7206ABDE8F0812DE9F04106460024E5
:1004000010687529314616A510D0AFF3008000287A
:1004100002DA404213A507E031688A0701D512A528
:1004200002E0490704D511A5012401E0AFF30080E3
:1004300000210A2206F1240709E0B0FBF2FCB0FB20
:10044000F2F302FB1C00303078541846491C002897
:10045000F3D123462A463046BDE8F04100F033B8D8
:10046000000000002D0000002B0000002000000014
:100470004FF0000200B5134694469646203922BF3D
:10048000A0E80C50A0E80C50B1F12001BFF4F7AF88
:10049000090728BFA0E80C5048BF0CC05DF804EB6A
:1004A000890028BF40F8042B08BF704748BF20F8D8
:1004B000022B11F0804F18BF00F8012B70477047D6
:1004C0007047704770472DE9F0470D4699469246B0
:1004D000044600F124080168880604D5E06921F08B
:1004E0001001216000E00120A84201DD471B00E06F
:1004F0000027A1697A1902EB0900081AA061207887
:10050000C00602D42046AFF30080002608E0D4E9FC
:1005100001211AF806009047206A401C761C2062D0
:100520004E45F4DB2078C0060AD52046AFF30080A4
:1005300006E0D4E9012130209047206A401C206267
:10054000381EA7F10107F4DC07E0D4E9012118F80F
:1005500005009047206A401C2062281EA5F1010575
:10056000F3DC2046AFF300802078000602D502209D
:10057000BDE8F0870120FBE770472DE9FF4F0C46EF
:100580001E464FF0FF378BB0D2E90001DDF86080E6
:100590000A908A46C1F30A5505B93D46002108462E
:1005A0004FF00000BAF1000F00F4400005DA00EB54
:1005B00080004FF4400101EA50004FEA9059B9F130
:1005C000010F00DDB9460A9850EA4A000ED044F601
:1005D0001050A5F2FF3545432F14B8F1000F1ED07F
:1005E0007542291E1EDDC9F100021CE0B8F1010FA1
:1005F0004FF0000001D0302103E0F24305E0215428
:10060000401CB042FBDB30460022002121540B99F4
:10061000C1F80880C1E900200FB0BDE8F08FBD1B14
:100620006D1CDEE74A4600DA694206A800F068FA67
:1006300006AB93E8070003AB83E8070050460A992E
:1006400000F046FB8DE80700A0F500501F38009031
:100650000398002D0ADD42F21F014A460844002398
:1006600003A90390684600F0AFFD09E0A0F5005033
:100670004A461F38002303A90390684600F0B9FDDD
:100680008DE807000004000C03D04FF0FF30410854
:1006900000E01046B8F1000F03D00022009215468A
:1006A0001EE0751E05D400F08DF9303262556D1EC6
:1006B000F9D5B3460122084302D000227F1C04E092
:1006C0002078302801D100227F1E002A099784D08B
:1006D0001DE0112D07DA00F075F9303262556D1CFE
:1006E00050EA0102F5D1084302D00098C8B10EE0EB
:1006F0000021681E05E0235C625C63542254401EA6
:10070000491C8142F7DBAB46A81B401E0990002024
:1007100004F80B000B98099AC0F80880C0E9002B78
:100720007AE711264FF0000857E72DE9F04F884689
:100730000446D21D22F0070191B0D1E90001CDE9B4
:100740000A0102F09EFF02460B98C00F01D02D2037
:1007500007E02068810701D52B2002E0202101EA73
:10076000C000032A099001D0072A05DB0346414651
:10077000204600F085F90BE12078800601D5E0697C
:1007800000E00620B8F1650F814606D0B8F1660F8B
:1007900018D0B8F1670F70D131E00020B9F1110F16
:1007A000009001DB112301E009F101030AAA01A96C
:1007B0000CA8FFF7E2FEDDE90C70002609F1010547
:1007C000834647E001204B4600904FF000470AAABD
:1007D00001A90CA8FFF7D1FEDDE90DB00C995D462B
:1007E000002610B909F101000D18B9EB050003D47A
:1007F000C0F1FF3609F10105A5EB09002BE0B9F1C5
:10080000010F01DA4FF001090020B9F1110F00903A
:10081000484601DD112300E003460AAA01A90CA8FD
:10082000FFF7ABFEDDE90C704D46002683462078CD
:1008300000070AD4AB4500DA5D4601A8012D04DDAE
:10084000411911F8011C302907D04F4502DA17F180
:10085000040F04DA012082460FE06D1EEEE7002F40
:1008600002DCED1B3E4403E0781CA84200DD7D1C49
:10087000B81B00F1010A4FF000472078000703D4AD
:10088000AA4501DB4FF0FF3A0021B7F1004F0DF10F
:1008900043088DF8431024D002202B23002F01DAC7
:1008A0007F422D230A21021EA0F1010000DC5FB16E
:1008B00097FBF1FC97FBF1F201FB1C7C17460CF156
:1008C000300C08F801CDEEE7A8F101000370218893
:1008D000090501D5452100E06521A0F1010800F8D6
:1008E000011C09980FA9A1EB0807FF1D00B1012009
:1008F000411901EBEA70A1693844081A401EA06151
:100900002078C00602D42046AFF30080099828B1B1
:10091000D4E901219047206A401C20622078C0065B
:1009200022D52046AFF300801EE0002E04DBB34545
:1009300002DD01A8805D00E03020D4E9012190476C
:10094000206A401C2062761CAAF101005FEA000ABE
:100950000AD100F033F8C0680168405CD4E9012195
:100960009047206A401C2062281EA5F10105DCDCAE
:1009700007E0D4E9012118F8010B9047206A401CD8
:100980002062381EA7F10107F3DC2046AFF3008098
:10099000032011B041E60000074B70B50D467B44C3
:1009A00000F05BF80446284600F01CF910B14FF047
:1009B000FF3070BD204670BD632D000000487047B9
:1009C000A00D002030B5B0F10A024FEA900E71F18F
:1009D00000034EEA817EB0EB0E0061EB91014FEA1D
:1009E000101E4EEA017E10EB0E0041EB11114FEA92
:1009F000102E4EEA016E10EB0E0041EB11214FEA72
:100A0000104E4EEA014E10EB0E0041EB1141401822
:100A100041F100014FEAD00040EA41704FEAD101B4
:100A200010EB80054FEA810444EA907444EB010422
:100A30006D1944EB0404521BA3414FF0000348BF5F
:100A40000A3200D530BD401C41F1000130BD00002C
:100A500001694A1C02610878704700B58FB0CDE982
:100A600001310021059105497944CDE90310114672
:100A70006846FFF78DFC0FB000BD0000E5FFFFFFEB
:100A80002DE9F0411F46044603260168072A01F4B8
:100A9000006004DB08B116A505E016A503E008B167
:100AA00015A500E015A521F010002060A069C01E6A
:100AB000A0610FB1401EA0612046AFF300804FB18E
:100AC000D4E9012138469047206A401C2062C01CAE
:100AD000206206E0206AFAE7D4E9012115F8010B4B
:100AE0009047761EF8D22046AFF30080BDE8F08133
:100AF0004E414E006E616E00494E4600696E6600C2
:100B00002DE9F047814616468AB0354878440DC82D
:100B10008DE80D0032487844801C03AC0DC884E891
:100B20000D0041F69B300844372190FBF1F290FB19
:100B3000F1F5A5F1800501FB12041B3C02D56442CE
:100B4000012000E00020DFF898A080460027FA444A
:100B5000AAF1BE0A0EE0E0070AD03246684607EB6B
:100B6000470101230AEB810100F043FB8DE80700F8
:100B700064107F1C002CEED1194F7F44AE3F19E06A
:100B8000E80715D007EB04100DF1180A90E80E00E5
:100B90008AE80E00C068F04201D1981908903246E8
:100BA000012306A903A800F024FB03AB83E8070098
:100BB0006D10641C002DE3D14FF0010332466946ED
:100BC000B8F1000F03A802D000F0FEFA01E000F037
:100BD00010FBC9E90001C9F808200AB0BDE8F08798
:100BE00028320000007B00F080007047004870470A
:100BF000800D00207546FFF7F9FFAE4605006946F7
:100C0000534620F00700854618B020B5FFF72AFBB1
:100C1000BDE820404FF000064FF000074FF00008FD
:100C20004FF0000B21F00701AC46ACE8C009ACE87E
:100C3000C009ACE8C009ACE8C0098D46704710B5E2
:100C40000446AFF300802046BDE81040FFF7F5BA38
:100C50004FF0013C50F8042B51F8043B9A4221D14B
:100C6000A2EB0C03934313EACC1317D150F8042BD7
:100C700051F8043B9A4215D1A2EB0C03934313EABB
:100C8000CC130BD150F8042B51F8043B9A4209D1F4
:100C9000A2EB0C03934313EACC13DBD04FF000001C
:100CA000704700BFD01A01BAB1FA81F101F0180102
:100CB00022FA01F0CB40C1F12001DBB2C0B2C01A70
:100CC0002CFA01F3D11A914311EAC311E6D170470E
:100CD0005FEA400C08BF91F0000F4FEA8C234FEA07
:100CE000C12243EA51514FEA1C5018BF00F5F040B1
:100CF0004FEA300018BF41F000415FEA6C5C00F041
:100D00002980BCF1FF3F08BF40F080407047130CC2
:100D100006BF12044FF0100C4FF0000C130E04BF6E
:100D200012020CF1080C130F04BF12010CF1040C99
:100D3000930F04BF92000CF1020CD30F04BF5200BA
:100D40000CF1010C11464FF00002A0F11F00A0EBC6
:100D50000C00704711F0004F08BF704731F00041A0
:100D60003FF4D5AF0B0C06BF09044FF0100C4FF049
:100D7000000C0B0E04BF09020CF1080C0B0F04BF92
:100D800009010CF1040C8B0F04BF89000CF1020C5B
:100D9000CB0F04BF49000CF1010CCCF12003A0EBF8
:100DA0000C0022FA03F302FA0CF241EA030100F10B
:100DB0000100704720F07F4C80EA030023F07F475A
:100DC000ACEB070303F57C5300F0004003F1FF0395
:100DD0002DE980494FEA154B09B44FEA144325EA3F
:100DE0000B4E24EA03480FF2042606EB13274908AA
:100DF0003E785FEA320203FB0667C7F5000707FB90
:100E000006F64FEA54374FEAD64606F1020607FBCC
:100E1000066CCCF1005C4FEA1C472CEA074C07FB40
:100E200006F40CFB06F504EB15464FEA961634BFA4
:100E300000204FF000404FEAD13706FB07FC4FEA95
:100E40001C4C0CFB0BF7D21B03FB0CF761EB0701EF
:100E50000CFB0EF7B0EB074072EB17420CFB08F7E8
:100E600034BFA2EB0742B2EB074261EB17414FEAF6
:100E70000C444FEA910706FB07FC4FEA1C4C0CFBA5
:100E80000BF7B0EBC74072EB573203FB0CF734BFE4
:100E9000A2EBC742B2EBC74261EB57310CFB0EF736
:100EA000B0EBC70072EB57720CFB08F734BFA2EB34
:100EB000C702B2EBC70261EB5771039F4FEA816132
:100EC00041EA921104EBCC044FEAD1374FEA826237
:100ED00006FB07FC42EA90124FEA80604FEA1C4C86
:100EE0000CFB0BF7D21B03FB0CF761EB07010CFBB0
:100EF0000EF7B0EB074072EB17420CFB08F734BF5C
:100F0000A2EB0742B2EB074261EB17414FEA8C5567
:100F10004FEA910704EB9C2406FB07FC4FEA1C4CAC
:100F20000CFB0BF7B0EBC74072EB573203FB0CF72F
:100F300034BFA2EBC742B2EBC74261EB57310CFBA7
:100F40000EF7B0EBC70072EB57720CFB08F734BF1B
:100F5000A2EBC702B2EBC70261EB577115EB4C2550
:100F60004FEA816141EA92114FEA82624FEAD1373A
:100F700042EA901206FB07FC44F100044FEA80604D
:100F80004FEA1C4C0CFB0BF7D21B03FB0CF761EB7D
:100F900007010CFB0EF7B0EB074072EB17420CFB9E
:100FA00008F734BFA2EB0742B2EB074261EB1741EF
:100FB00015EB1C154FEA813141EA92414FEA82322A
:100FC00042EA90424FEA80304FEA0C7644F1000446
:100FD00048EA03434EEA0B484FF0000EB2EB080C10
:100FE00071EB030724BF624639464EEB0E0E4FF0FD
:100FF000000B0018524149414BEB0B0BB2EB080CB4
:1010000071EB03077BF1000B24BF624639464EEBC0
:101010000E0E4FF0000B0018524149414BEB0B0BE9
:10102000B2EB080C71EB03077BF1000B24BF6246A7
:1010300039464EEB0E0E51EA020718BF46F0010684
:1010400016EB0E7655F1000254F1000103D5BDE810
:101050008901BDE80088BDE88901BDE80048B619EE
:10106000524141EB0101A3F10103704780807F7E73
:101070007D7C7B7A7978777676757473727171700E
:101080006F6E6E6D6C6C6B6A6A69686867666665C0
:101090006464636362616160605F5F5E5E5D5D5C4E
:1010A0005C5B5B5A5A5959585857575656555555BF
:1010B0005454535352525251515050504F4F4F4E1F
:1010C0004E4D4D4D4C4C4C4B4B4B4A4A4A4949496D
:1010D00048484847474747464646454545444444AF
:1010E000444343434342424242414141002B9C46D8
:1010F00030D477002BD01CB54FEA370703B44FF03C
:1011000010004FF01001BAF1000F06D0BCF1000F33
:10111000DCBF40F0080040F008014FF000000FBCB9
:10112000BDE810400BF1010BBBF1010F08BF5FEAF6
:10113000170722BF12F1010211F101014FF0004126
:1011400043F1000300F0004043EA00007047F9D388
:101150005708D0E746EA064613F1400F4FEA164615
:101160001FDD13F1200FDFBF16430A460021203395
:101170005B42BED0C3F1200746EA064602FA07F7F3
:101180004FEA164646EA0706C3F1200722FA03F2A1
:1011900001FA07F721FA03F14FF0000342EA0702D0
:1011A000A7E746EA020646EA06464FEA164646EA38
:1011B0000106BCBF46EA0646360C4FF000034FF06E
:1011C00000024FF0000194E72DE9804C9A469346C7
:1011D00070B491E8380007C831EA400C48BF34EADF
:1011E000430C03D5FFF7E6FDFFF780FFF0BCBDE839
:1011F000008C2DE9804C9A46934670B491E83800F3
:1012000007C810F0804F08BF13F0804F03D100F0E3
:1012100005F8FFF76BFFF0BCBDE8008C20F07F47BE
:1012200080EA030023F07F4C07EB0C03A3F57C530B
:1012300000F00040A3F1FE0392F0000F00F0B38035
:1012400095F0000F00F077802DE901494FEA114039
:101250004FEA144621EA004800FB06FC24EA064750
:1012600008FB06F607FB08F800FB07F718EB064833
:101270004CEB164C4FEA124B18EB07484FEA154659
:101280004CEB174022EA0B4E0BFB06FC25EA064707
:101290000EFB06F607FB0EFE0BFB07F71EEB064EDA
:1012A0004CEB164C4FF000061EEB074E4CEB174B69
:1012B00018EB0B0840F1000018EB0E0B58EB000880
:1012C00040F100008F1A4FF000013CBFC943661B7C
:1012D00014BFB5EB040C00213CBFC943F61B4FEA19
:1012E00017444EEA8E0E27EA04454FEA1C4704FBDA
:1012F00007622CEA074C05FB07F70CFB05F604FB1D
:101300000CFC16EB074642EB174216EB0C4642EB81
:101310001C421BEB060658EB0202414146EA9E06C0
:1013200001D5BDE80189B619524141EB0101A3F194
:101330000103BDE801894FEA14454FEA114724EA49
:10134000054621EA074C05FB07F406FB07F70CFBF3
:1013500006F105FB0CFC11EB074144EB17444FEA87
:10136000124711EB0C4144EB1C4422EA074C05FBED
:1013700007F206FB07F70CFB06F605FB0CFC16EB69
:10138000074642EB174216EB0C4642EB1C456A1827
:1013900054F1000148BF7047B619524141EB0101B9
:1013A000A3F10103704795F0000F37D04FEA1142C7
:1013B0004FEA144721EA024624EA074C02FB07F1F0
:1013C00006FB07F70CFB06F402FB0CFC14EB0744CE
:1013D00041EB17414FEA154714EB0C4441EB1C411C
:1013E00025EA074C02FB07F506FB07F70CFB06F6A0
:1013F00002FB0CFC16EB074645EB174516EB0C46BB
:1014000045EB1C42121951F1000148BF7047B61953
:10141000524141EB0101A3F1010370474FEA14452A
:101420004FEA114724EA054621EA074C05FB07F17C
:1014300006FB07F70CFB06F24FF0000605FB0CFC61
:1014400012EB074241EB174112EB0C4251EB1C41EE
:1014500048BF7047921841EB0101A3F101037047A7
:10146000FEE7000000B58BB000200121CDE90601A8
:1014700008910090019002900390059004906946B5
:10148000024800F025F90BB000BD0000C8000020A4
:10149000014800F018BA0000C800002038B50E4C12
:1014A00040F2FF1525600025A560E560082525614F
:1014B0000A4C050A25706070080AA070E170100AD5
:1014C00020716271180AA071E3716B4622460249CD
:1014D000034800F08EF838BD0804002016000020F4
:1014E000F000002000B58BB001210020CDE90601FD
:1014F00008910E21009009910190029005910390AE
:1015000004906946024800F0E3F80BB000BD00000B
:10151000F0000020014800F0D6B90000F0000020E3
:1015200010B5044600F040FC0221204600F04FF8C0
:10153000002803D0BDE8104000F047B810BD0000FF
:10154000014800F065BC0000E80100200168182394
:10155000CAB2103AB2FBF3F2054B6FF30901032A4A
:101560009B5CC36500D9091D816508467047000072
:101570009C3C000810B5014600208B698A6A4FF038
:10158000C07453B1B3F5005F15D072B1012A0CD00D
:10159000022A0AD0032A09D104E01AB1012A06D08E
:1015A000022A03D1C96AC90100D5012010BDC96A48
:1015B000A142FAD010BD002AF7D0012AF2D0022AA7
:1015C000F3D0032AF3D010BD704772B6FEE790F84F
:1015D0002020012A07D0022A05D0416A41F4802147
:1015E000416201207047006842690A43426100205D
:1015F0007047F0B590F820500468A468012D05D01C
:10160000022D03D0416A41F480215DE014F0406F67
:1016100001D1E50055D5C4F30164022C03D9416A18
:1016200041F4000150E00125A5401D608D684FF494
:10163000C0739DB1CE6835434E6845EAC60506685D
:1016400003EB0417F5514FF4C275076805EB041559
:101650000E697E51097D012905D009E00E88CD680B
:1016600045EA4655EBE701684E5946F480764E51FF
:101670001179D579567941EA056195792D0445EAC4
:10168000062529434FF4C676056806EB0416A951D2
:101690001178D57841EA0561957852782D0445EAAC
:1016A000022211434FF4C475026805EB0415515131
:1016B000006803EB0411425842F00102425000203E
:1016C000F0BD416A41F4001141620120F0BD00000B
:1016D00010B590F82020012A07D0022A05D0416ACF
:1016E00041F480214162012010BD3B48D0F8002226
:1016F00042F00102C0F80022D0F8002222F47C520D
:10170000C0F80022D0F800224B6A42EA0322C0F857
:1017100000220A7D02F01F0301229A40D0F81C32F9
:101720009343C0F81C32CB69B3B9D0F80C32934361
:10173000C0F80C328C894B6864F31F434C6900EB92
:10174000C404C4F840320C890B6864F31F434C692D
:1017500000EBC404C4F84432CB69012B16D1D0F895
:101760000C321343C0F80C320C884B6864F31F43EF
:101770004C6900EBC404C4F840320C89CB6864F3B4
:101780001F434C6900EBC404C4F844328B69002B3E
:10179000D0F804320ED01343C0F804320B69002B8A
:1017A000D0F8143208D01343C0F81432096A012962
:1017B00004D008E09343EFE79343F5E7D0F81C1219
:1017C0001143C0F81C12D0F8001221F00101C0F83A
:1017D0000012002010BD000000640040704730B5CA
:1017E00090F82040012C05D0022C03D0416A41F42E
:1017F00080215DE00468002955D02469A40754D0F5
:101800004FF4D874056804EB01142D5915F0040544
:10181000956005682D594ED0ED08556005682C5926
:1018200004F00204D4604FF4DA74056804EB011488
:101830002D5905F00F05156105682D59C5F30725CC
:10184000956105682C59240C54614FF4DC720468CE
:1018500002EB0112A4581C700468A458240A5C709E
:101860000468A458240C9C700468A258120EDA7004
:101870004FF4DE72046802EB0112A4581C71046874
:10188000A458240A5C710468A458240C9C71046850
:10189000A258120EDA71006881B1016941F020018D
:1018A0000161002030BDE468A8E7416A41F40011FD
:1018B0004162012030BD6D0D1560AFE7C16841F098
:1018C0002001C160EDE72DE9F05F054600680024C6
:1018D0004669D0F804908768D0F80CB0D0F810A012
:1018E000D0F81880F10748D0F90714D001218160A1
:1018F000B80703D5284600F084FA0CE0780702D533
:101900004FF4006407E0380702D54FF4805402E03A
:10191000284600F075FAF80516D529684FF480704E
:101920008860B80503D5284600F06DFA0CE078050C
:1019300002D544F4005407E0380502D544F480444D
:1019400002E0284600F05EFAF80316D529684FF445
:1019500080308860B80303D5284600F056FA0CE0C2
:10196000780302D544F4004407E0380302D544F478
:10197000803402E0284600F047FA300707D55FEAD6
:10198000CB6004D52968102044F40074C860700747
:101990004FF0080707D55FEA0B7004D52868C760C9
:1019A000284600F099F9B00706D52868C068800776
:1019B00002D0284600F092F9700607D55FEACA60A7
:1019C00004D52968102044F480640861B00607D566
:1019D0005FEA0A7004D528680761284600F0E0F93C
:1019E000F00606D528680069800702D0284600F076
:1019F000D8F9B00308D55FEAC96005D52968102079
:101A00004860284600F0CEF9F00307D55FEA097078
:101A100004D528684760284600F0F8F9300446D518
:101A20005FEA497040D5F00504D55FEAC87001D07F
:101A300044F00104B00504D55FEA887001D544F094
:101A40000204700504D55FEA487001D544F004042F
:101A5000300529D518F0700F26D008F07000402806
:101A600015D006DC102809D020280AD0302816D13D
:101A70000AE050280ED0602811D10EE044F008048E
:101A80000DE044F010040AE044F0200407E044F0C4
:101A9000400404E044F0800401E044F480742868C9
:101AA000816921F070018161296804204860002C5F
:101AB00005D0686A204368622846FFF78FFEBDE8BC
:101AC000F09F70B5040003D094F8200010B104E03A
:101AD000012070BD204600F081F82068016841F0C7
:101AE0000101016000F0DEFB0546052604E000F080
:101AF000D9FB401B0A2811D820684068C007F6D0DF
:101B00002068016821F00201016000F0CBFB05466E
:101B10000BE000F0C7FB401B0A2806D9606A40F4BE
:101B20000030606284F82060D2E720684068800757
:101B3000EFD4207E0128206801683DD021F080018B
:101B40000160607E01282068016838D021F04001E2
:101B50000160A07E01282068016833D021F02001B7
:101B60000160E07E0128206801682ED041F010015C
:101B70000160207F01282068016829D021F0080138
:101B80000160607F01282068016824D021F00401F1
:101B90000160D4E902010843D4E904121143084367
:101BA0006168491E08432168C86100206062012005
:101BB00084F82000002070BD41F08001C0E741F0B2
:101BC0004001C5E741F02001CAE721F01001CFE74D
:101BD00041F00801D4E741F00401D9E7F0B587B03E
:101BE000044614216846FEF743FC364B3648DFF8BE
:101BF000D0E01968D4F800C0334A0325022609272B
:101C000010300024491CF44522D11960012907D164
:101C1000016841F000710160006800F000700590FB
:101C2000106840F0080010601068CDE9005600F020
:101C30000800CDE9047069462448CDE9024500F06A
:101C400033FA01220021142000F09CFB142033E021
:101C5000DFF87CE0F44531D1D0F800C04CF0806C66
:101C6000C0F800C0D0F800C001290CF0806CCDF89D
:101C700014C0196007D1016841F00071016000686B
:101C800000F000700590106840F0020010601068CD
:101C900002AB00F0020005904FF44050CDE9000681
:101CA00083E8B00069460B4800F0FEF901220021EC
:101CB000402000F067FB402000F056FB07B0F0BD6D
:101CC000006400400000002030380240000C024058
:101CD00000680040000402407047000070B50546EF
:101CE00000682B492B4C8CB0884224D107AB6A4644
:101CF00000212846FFF773FD0098A0F20120062876
:101D000019D8C0B22070244EC0EBC00006EB800092
:101D100081694A1C3229826107A902D801F0FCFCC2
:101D200001E001F0FEFC207807A9C0EBC00006EB43
:101D3000800001F0F6FC19492868884225D109ABDA
:101D40006A4600212846FFF74AFD0098A0F20120CC
:101D500006281AD8C0B2104D6070C0EBC000E03544
:101D600005EB800081694A1C3229826109A902D8E9
:101D700001F0D2FC01E001F0D4FC607809A9C0EBCD
:101D8000C00005EB800001F0CCFC0CB070BD000081
:101D90000064004014000020480200200068004059
:101DA000704770477047000070B5044690F82000F7
:101DB000012804D0606A40F40020606218E002202C
:101DC00084F820002068016821F00101016000F022
:101DD00069FA05460EE000BF00F064FA401B0A28CD
:101DE00008D9606A40F400306062052084F8200061
:101DF000012070BD20684068C007EDD1606270BDF1
:101E000070477047704770477047704770470000D1
:101E10002DE9F84304464FF00009CDF800906348DF
:101E20004FF41651A56D0068B0FBF1F72E6894F8D9
:101E30005C10082000FA01F131420FD021680A68D5
:101E400052070BD50A6822F004020A6094F85C106D
:101E50008840A860606D40F00100606594F85C10F7
:101E60004FF0010808FA01F0304208D021684969B2
:101E7000090604D5A860606D40F00200606594F822
:101E80005C1004208840304208D021680968890726
:101E900004D5A860606D40F00400606594F85C10A3
:101EA00010208840304218D021680968090714D5ED
:101EB000A86020680168490304D50068000308D5BC
:101EC000A16C07E00168C90503D4016821F008018D
:101ED0000160216C09B12046884794F85C102020ED
:101EE0008840304231D021680968C9062DD5A860E4
:101EF00094F8350005282068016806D0490347D5C5
:101F0000006800031DD4616C1CE021F01601016023
:101F10002068416921F080014161206C08B9A06C02
:101F200020B12068016821F00801016094F85C107C
:101F30003F208840A86084F8358084F83490216D73
:101F40001FE0E16B09B120468847606D00282BD067
:101F5000606DC00714D0052084F835002068016842
:101F600021F0010101600098401C0090B84203D8A4
:101F700020680068C007F6D184F8358084F8349072
:101F8000E16C002910D001B02046BDE8F0430847BD
:101F90000168C905D5D4016821F01001016084F8F9
:101FA000358084F83490CCE7BDE8F8831000002039
:101FB0002DE9F041044600F075F906465CB10220B7
:101FC00084F83500002584F834502068016821F039
:101FD000010101600DE00120BDE8F08100F062F92F
:101FE000801B052805D920206065032084F8350072
:101FF000F2E720680068C007F0D122681168204825
:102000000140D4E901031843D4E9033633431843AC
:1020100063691843A3691843E3691843236A1843A3
:102020000843616A042903D1D4E90B131943084317
:10203000106020684069666A20F0070130460E4350
:10204000012704280CD1A06A0643E06A40B120466B
:10205000FFF790FA20B14020606584F83570BAE748
:10206000206846612046FFF771FA94F85C203F2112
:1020700091408160656584F835700020ACE7000010
:102080003F8010F070B5044600F00CF90546601C66
:1020900002D004480078044400F004F9401BA04238
:1020A000FAD370BD040000202DE9F84FDFF8BCA181
:1020B0000022012503264FF00F090AF1040BAAF1B3
:1020C000040E00BF0B6805FA02F42340A34270D14E
:1020D0000F7907F00307012F01D0022F16D187686F
:1020E0004FEA420806FA08FC27EA0C07D1F80CC0B0
:1020F0000CFA08FC4CEA070CC0F808C04768A74374
:102100000C79C4F3001494403C4344600C79E443DC
:10211000A4070AD0C4684FEA420C06FA0CF7BC4385
:102120008F6807FA0CF72743C7600C7904F00304A3
:10213000022C12D1D40800EB840CDCF820405707A5
:10214000FF0E09FA07F824EA0804D1F8108008FA0B
:1021500007F848EA0408CCF8208004684FEA420CEB
:1021600006FA0CF7BC430F7907F0030707FA0CF7E0
:10217000274307604C6814F4403F70D03C4C2768FC
:1021800047F480472760246822F0030704F4804462
:102190000094384C07EB040CDCF8084897074FEA2A
:1021A000177809FA08F7BC43334FB84202D1002729
:1021B00024E054E0314FB84201D101271EE0304FF6
:1021C000B84201D1022719E02E4FB84201D10327AE
:1021D00014E02D4FB84201D104270FE02B4FB84235
:1021E00001D105270AE02A4FB84201D1062705E0B0
:1021F000284FB84201D1072700E0082707FA08F75F
:102200002743CCF80878DAF800405746D1F804C0E4
:102210009C435FEACC2C00D51C433C60DBF80040BB
:102220005F46D1F804C09C435FEA8C2C00D51C4368
:102230003C60DEF800407746D1F804C09C435FEA7A
:102240008C3C00D51C433C60084F083F3C68D1F8EB
:1022500004C09C435FEACC3C00D51C433C60521C4C
:10226000102AFFF42FAFBDE8F88F0000083C0140B2
:1022700044380240003001400000024000040240A7
:1022800000080240000C024000100240001402400E
:1022900000180240001C02400069084000D00120E4
:1022A000704700000148806870470000040000206B
:1022B0000248816802781144816070470400002060
:1022C0000B4810B5016841F400710160016841F4E8
:1022D00080610160016841F480710160032000F0B9
:1022E00071F80F2000F006F800F024F8002010BD6F
:1022F000003C024070B50D4D04464FF47A712878C9
:10230000B1FBF0F00A490968B1FBF0F000F00CFBFA
:1023100048B9102C07D200222146501E00F032F896
:1023200000206C6070BD012070BD00000400002022
:10233000100000200B4882B0016841F48041016028
:10234000006800F4804000900648001F016841F0DA
:1023500080510160006800F080500090052002B0BC
:1023600000F030B844380240002809DB00F01F02BA
:10237000012191404009800000F1E020C0F80011E7
:1023800070470000F0B40E4B1B680C46C3F30223E9
:10239000C3F10705042D00D90425191D072901D211
:1023A000002300E0DB1E012606FA05F1491E21404C
:1023B00099409E40761E16403143F0BC01F079B939
:1023C0000CED00E0064900F0070208684FF6FF0335
:1023D000184040EA0220034A10430860704700009A
:1023E0000CED00E00000FA052DE9F0470E4605006F
:1023F00065D0DFF81481D8F80000F7B200F00700CC
:10240000B04207D288F80070D8F8000000F007004A
:10241000B04254D128683D4C810712D5400703D5FE
:10242000206840F4E05020602878000703D5206839
:1024300040F4604020602068A96820F0F000084364
:1024400020602878C0072DD03049686808390128F5
:1024500012D0022813D0032811D009688907002957
:102460002DDA216821F0030101432160FFF71AFFF3
:10247000814641F2883A0EE009688903EFE709686E
:102480008901ECE7FFF70EFFA0EB0901514502D9E6
:102490000320BDE8F0872068696800F00C00B0EB0D
:1024A000810FEFD1D8F80010404601F00701B1428A
:1024B00007D90770006800F00700B04201D0012082
:1024C000E7E72878400705D52068E96820F4E05060
:1024D000084320602878000706D52068296920F481
:1024E000604040EAC100206000F038F82168084AE6
:1024F000C1F30311515CC8400649086006480068F2
:10250000FFF7F8FE0020C4E7003C02400838024014
:10251000A43C0008100000200800002004480549E1
:1025200000680968044AC1F38221515CC8407047C1
:102530001000002008380240B43C00080448054957
:1025400000680968044AC1F34231515CC8407047D1
:102550001000002008380240B43C0008154810B5AF
:10256000006810F00C02144813D04110042A0FD058
:10257000082A0ED10F4C241F2268236802F03F0264
:102580005B0207D52068C0F38810A0FB010106E0BC
:10259000084610BD2168C1F38811A1FB000100238A
:1025A000FDF773FE2168C1F30141491C4900B0FBEE
:1025B000F1F010BD083802400024F4002DE9F84F76
:1025C00004006ED02078DFF84C93C007A9F1040511
:1025D0004AD009F104000168C1F38101012908D042
:1025E0000068C0F3810002280AD1D9F80000400237
:1025F00006D52868800337D560680028E1D033E02D
:102600006068B0F5803F10D0B0F5A02F286810D0DA
:1026100020F480302860286820F4802028606068DA
:10262000A8B1FFF73FFE06460DE0286840F4803071
:10263000F4E740F480202860F7E700BFFFF732FEA0
:10264000801B642873D828688003F7D50CE0FFF757
:1026500029FE064605E000BFFFF724FE801B642824
:10266000F0D828688003F7D42078DFF8AC828007A0
:102670004FF0000A3ED5A748001D016811F00C0F6D
:1026800008D00068C0F3810002280BD1D9F80000FF
:10269000400207D42868800716D5E068012800D1D9
:1026A00012E033E1E068B8B10120C8F80000FFF79C
:1026B000F9FD064605E000BFFFF7F4FD801B022888
:1026C000C0D828688007F7D52868216920F0F8006D
:1026D00040EAC10028600DE0C8F800A0FFF7E2FD65
:1026E000064604E0FFF7DEFD801B02281FD828689D
:1026F0008007F7D42078000722D5864F8748616984
:10270000703771B101210160FFF7CCFD064604E08E
:10271000FFF7C8FD801B022809D838688007F7D565
:102720000EE0C0F800A0FFF7BDFD064605E082E020
:10273000FFF7B8FD801B02287DD838688007F7D4E2
:102740002078400768D5DFF8CCB100270BF13C0BAF
:10275000DBF80000C0000BD4DBF8001041F0805122
:10276000CBF80010DBF80000012700F0805000904B
:102770006B4E3068C00510D4306840F48070306013
:10278000FFF790FD009005E0FFF78CFD0099401ADF
:10279000022850D83068C005F6D55E4EA0686C3669
:1027A00001280FD00528306810D020F001003060DB
:1027B000306820F004003060A068B8B1FFF772FD07
:1027C00000900FE0306840F00100F4E740F00400B2
:1027D0003060F7E7FFF766FD0099411A41F2883053
:1027E000814266D830688007F4D50EE0FFF75AFDC5
:1027F000009007E0FFF756FD0099411A41F288303A
:10280000814256D830688007F4D42FB1DBF800102D
:1028100021F08051CBF80010A069C8B33D49091DD3
:102820000968C1F3810102294AD00228504607D025
:10283000C8F8600000E03CE0FFF734FD04463BE0F0
:102840004746C8F86000FFF72DFD064605E000BFCB
:10285000FFF728FD801B02282BD828688001F7D4B9
:10286000D4E907010843A16A2E4A490802EB014155
:10287000626A41EA8211084394F82C1040EA01612F
:10288000C9F8001001203866FFF70CFD044606E089
:102890003EE000BFFFF706FD001B022809D82868AC
:1028A0008001F7D534E000BFFFF7FCFC001B0228D5
:1028B00002D90320BDE8F88F28688001F4D427E00E
:1028C0000128F7D0D9F80000E26900F480019142B4
:1028D0001CD1226A00F03F01914217D147F6C07126
:1028E000626A0140B1EB821F10D1A26A4FF0FF3340
:1028F00000F4403103EB5202B1EB024F06D194F8E1
:102900002C1000F07060B0EB016F01D00120D1E716
:102910000020CFE70438024000004742800E4742C3
:10292000007000400000FFFF10B5401EB0F1807F36
:1029300001D3012010BD4FF0E02460610F2160172A
:1029400000F0B7FE0020A06107202061002010BD2C
:102950007047704770B590F83C20012A32D00124AE
:1029600080F83C40022280F83D2003685A689D6848
:1029700022F070060A6832435A60134B02689A428A
:1029800014D0B2F1804F11D0104B9A420ED0104BA0
:102990009A420BD00F4B9A4208D00F4B9A4205D067
:1029A0000E4B9A4202D00E4B9A4204D1496825F050
:1029B00080031943916080F83D40002180F83C106D
:1029C000084670BD022070BD0000014000040040B8
:1029D00000080040000C004000040140004001409D
:1029E0000018004010B5040003D094F83D0010B169
:1029F00007E0012010BD002084F83C00204600F0D4
:102A00001FF8022084F83D00211D206800F0F4FC2E
:102A1000012084F8460084F83E0084F83F0084F8E2
:102A2000400084F8410084F8420084F8430084F8B0
:102A3000440084F8450084F83D00002010BD0000EB
:102A400008B500680B49884212D10B48016841F073
:102A5000100101600068012200F0100000900021C8
:102A60003620FFF78FFCBDE808403620FFF77CBC1E
:102A700008BD00000010004040380240704770B5AB
:102A80000446006801694FF00005C943890715D461
:102A9000C168C943890711D4E91E0161012020776B
:102AA000206880698007204602D0FFF7E7FF04E036
:102AB00000F098F8204600F096F825772068016924
:102AC000C943490717D4C168C943490713D46FF0F4
:102AD00004010161022020772068806910F4407FA2
:102AE000204602D0FFF7CAFF04E000F07BF8204642
:102AF00000F079F8257720680169C943090716D4E1
:102B0000C168C943090712D46FF0080101610420AC
:102B100020772068C0698007204602D0FFF7AEFF0B
:102B200004E000F05FF8204600F05DF825772068AB
:102B30000169C943C90617D4C168C943C90613D47A
:102B40006FF010010161082020772068C06910F43F
:102B5000407F204602D0FFF791FF04E000F042F8EA
:102B6000204600F040F8257720680169C943C9076D
:102B700008D1C168C943C90704D1891E0161204633
:102B800000F032F820680169C943090609D4C16818
:102B9000C943090605D46FF0800101612046FFF7A3
:102BA000D7FE20680169C943490609D4C168C943F1
:102BB000490605D46FF040010161204600F015F888
:102BC00020680169C94389060BD4C168C9438906D5
:102BD00007D46FF0200101612046BDE87040FFF787
:102BE000B8BE70BD704770477047704770B504003D
:102BF00004D094F83D00002510B106E0012070BD1E
:102C000084F83C50204600F023F8242084F83D004E
:102C10002068C16821F40051C160204600F050FCDA
:102C20002068016921F4904101612068416921F027
:102C30002A0141612068C16841F40051C1602564E6
:102C4000202084F83D0084F83E00002070BD000084
:102C5000F0B587B0064614216846FDF709FC3B49EC
:102C6000394B3268002539481039022403279A422B
:102C70002AD1026842F480120260006800F48010D9
:102C80000590086840F004000860086800F004003F
:102C90000590086840F0080008600868082600F001
:102CA00008000590881404968DE8B100694628480C
:102CB000FFF7FAF9042004968DE8B100694625482B
:102CC000FFF7F2F907B0F0BD234B9A42FAD1026840
:102CD00042F480220260006800F4802005900868B9
:102CE00040F0020008600868694600F002000590A4
:102CF0004FF440608DE8B100072004901748FFF7BB
:102D0000D3F9184C164820604FF00060C4E9010563
:102D10004014C4E9035065614FF44030A561C4E933
:102D2000075020466562FFF743F908B1FEF74DFCF6
:102D3000B463012200212720A663FFF723FB27208D
:102D4000FFF712FBBEE70000005000404038024091
:102D500000080240000C024000480040000402400D
:102D600028600240E8010020FEE700000F4810B58F
:102D70000D4901600321416000214FF41022816060
:102D8000C0E903124FF40012426101764176817668
:102D9000C17601774177FEF794FE002803D0BDE8A5
:102DA0001040FEF712BC10BD00640040C8000020B7
:102DB0000F4810B50D4901600321416000214FF417
:102DC00010228160C0E903124FF4001242610176C3
:102DD00041768176C17601774177FEF772FE002851
:102DE00003D0BDE81040FEF7F0BB10BD0068004006
:102DF000F0000020094808B5016841F400110160A5
:102E00000068012200F40010009000210C20FFF760
:102E1000B9FABDE808400C20FFF7A6BA30380240E6
:102E200030B587B014216846FDF722FB2148002405
:102E3000016841F020010160016801F02001059165
:102E4000016841F080010160016801F08001059195
:102E5000016841F004010160016801F0040105917D
:102E6000016841F002010160016801F00201059171
:102E7000016841F001010160016801F00101059163
:102E8000016841F0080101600068012500F00800B8
:102E900005904FF4A0608DE8310069460648FFF7C1
:102EA00003F90A208DE8310069460448FFF7FCF871
:102EB00007B030BD30380240001402400008024024
:102EC0001CB500240E4800940C4901940160532164
:102ED000C0E9011440F2CF718461C160FFF782FD47
:102EE00008B1FEF772FB0094694605480194FFF7AC
:102EF00031FD002801D0FEF768FB1CBD001000402A
:102F0000180100200C4810B50A4901604FF4E13166
:102F10004160002181600C22C160C0E9041281611E
:102F2000C161FFF763FE002803D0BDE81040FEF743
:102F30004CBB10BD00500040600100200D4810B592
:102F40000B4901600C49416000214FF480628160AF
:102F5000C0E903120422C0E90521C161FFF746FE62
:102F6000002803D0BDE81040FEF72FBB10BD0000C5
:102F700000480040A4010020A0860100FEE7FEE713
:102F8000A0B1D0ED101AC0ED111A90ED0F1A80ED1E
:102F9000101AC0ED060A80ED070A30EEC00A80ED77
:102FA0000F0A017829B101293BD078E09FED3D0A55
:102FB0007047D0ED010A60EE801AC0ED091AD0ED1D
:102FC0000A0A90ED022A42EE000A30EE410AC0EDF4
:102FD0000A0A90ED0D2A80ED0E2A90ED0C2A80ED64
:102FE0000D2A80ED0C0A90ED031A21EE001A80EDF7
:102FF0000B1A90ED050AF4EEC00AF1EE10FA09DCA6
:10300000B1EE400AF4EEC00AF1EE10FA02D390EDF0
:103010000A0A01E080ED0A0A31EE800A30EE010A68
:103020002BE070EE410A90ED012A20EE822A80ED1D
:10303000092AD0ED020A60EE800AC0ED0A0AD0ED3E
:103040000D2A72EE200AC0ED0E2AD0ED0C2AC0ED3A
:103050000D2AF0EE002A01EE620A30EE210A80ED20
:103060000C0A90ED031A21EE000A80ED0B0A30EEF7
:10307000800AD0ED080A30EE200A80ED080AD0ED73
:10308000040AB4EEE00AF1EE10FA06DCF1EE600A92
:10309000B4EEE00AF1EE10FA01D2C0ED080A90EDAC
:1030A000080A7047000000002DE9F04700252DEDCB
:1030B000068B9FED5AAA5A4E06F510779FED599A46
:1030C0009FED598ADFED598A06F5906906F5D864B7
:1030D000DFED579A05EBC50806EBC800F0EE490A8C
:1030E000B0EE480A534A002100F0ACF8514A07EB11
:1030F000C800F0EE680AB0EE4A0A0C32002100F077
:10310000A1F84C4A09EBC800F0EE490AB0EE480AB3
:103110001832002100F096F8464A04EBC800F0EEA1
:10312000680AB0EE690A2432002100F08BF86D1CA9
:10313000042DCFDBB846B0EE49AA0425B246F0EE26
:1031400048AAB0EE689A4F46B0EE4A8AF0EE6A8A14
:1031500005EBC5060AEBC600F0EE480AB0EE680AB9
:10316000344A002100F06EF8324A08EBC600F0EE57
:10317000490AB0EE690A0C32002100F063F82D4ACA
:1031800007EBC600F0EE480AB0EE680A18320021DC
:1031900000F058F8274A04EBC600F0EE490AB0EEFA
:1031A000690A2432002100F04DF86D1C082DCBDB9C
:1031B0005FF004051F4A05EBC50607EBC600F0EEFD
:1031C000480AB0EE680A3032002100F03BF8194A94
:1031D00004EBC600F0EE490AB0EE690A3C32002169
:1031E00000F030F86D1C062DE4DB124AF0EE480AC0
:1031F000B0EE680A483200210F4800F023F8B0EE24
:10320000690ABDEC068BBDE8F0470A4ADFED0B0A00
:10321000543200210A4800F015B800000000C843ED
:10322000200400200080BB4500401C46000096435F
:1032300000C05A4520000020500A00200000E14351
:10324000900C0020002828D0002A26D0017092ED92
:10325000001A80ED011A92ED011A80ED021A92ED2A
:10326000021A80ED031A80ED040A9FED0C0AC0EDEE
:10327000050A80ED0E0A80ED0D0A80ED0C0A80ED46
:10328000080A80ED0B0A80ED0A0A80ED090A80ED3C
:10329000110A80ED100A80ED0F0A7047000000004F
:1032A0000C4AC0EBC00110B502EB8101F0EE400A00
:1032B00031F91A1C00EE101A00EBC0010648B8EEF6
:1032C000C00A00EBC104A4F14800FFF759FE14ED59
:1032D0000A0A10BD28030020A00800207047000043
:1032E00030B5144B1C68656945F0400565611B6885
:1032F000DC6844F01004DC600F4B1C68256825F086
:10330000010525601C682568ED07F7D11D680B4C89
:10331000AC601C68E0601868016118684260186859
:10332000016841F4802101601868016841F00101E1
:10333000016030BDA4010020E801002004480040E5
:103340007047FEF7B5BF000030B593B03021684636
:10335000FDF78EF814210CA8FDF78AF81D4800250A
:10336000016841F080510160006800F080501190C8
:103370001948016841F4804101600068022400F4AA
:103380008040119001200090000401908001CDE95F
:10339000064008AA0420A82182E813000B90684682
:1033A000FFF70CF908B172B6FEE70CA90F2081E80F
:1033B00031004FF4A0500F904FF480501090052131
:1033C0000CA8FFF711F8002801D072B6FEE713B081
:1033D00030BD0000403802400070004002480168E3
:1033E00041F470010160704788ED00E00148FFF78B
:1033F00046BB000018010020F0B50268254C264DA0
:10340000264E274F274B4FF0804CA04209D06045F5
:1034100007D0A84205D0B04203D0B84201D09842AC
:1034200004D122F0700E4A6842EA0E02A0421BD07C
:10343000604519D0A84217D0B04215D0B84213D079
:10344000984211D0184DA8420ED0184DA8420BD06A
:10345000174DA84208D0174DA84205D0164DA842D6
:1034600002D0164DA84203D122F44075CA682A43FF
:103470004D6922F080022A4302608A68C2620A68AB
:103480008262A04201D0984201D109690163012101
:103490004161F0BD00000140000400400008004010
:1034A000000C004000040140004001400044014085
:1034B0000048014000180040001C0040002000406F
:1034C00070B5044600680169E26821F44051114377
:1034D00001612169A068E2690843616911430843F9
:1034E0002168CA6849F20C639A430243CA602068A3
:1034F0004169A26921F44071114341613149206859
:10350000884202D03049884202D1FFF717F801E023
:10351000FFF704F8E2690023192164253226B2F589
:10352000004F626828D0A0FB0101930F9200FCF7C6
:10353000ACFE0146B0FBF5F06FF01802504301EB12
:10354000800006EB0010B0FBF5F000F0F002B1FBDC
:10355000F5F002EB0012B1FBF5F06FF018035843E1
:1035600001EB800006EB0010B0FBF5F000F00F005F
:1035700021681044886070BDA0FB010192185B4176
:10358000FCF783FE0146B0FBF5F00201B1FBF5F05C
:103590006FF01803584301EB800006EBC000B0FB4E
:1035A000F5F000F0F80002EB4002B1FBF5F05843F3
:1035B00001EB800006EBC000B0FBF5F000F0070067
:1035C000D6E700000010014000140140264818B45E
:1035D00000680168890604D501684068009018BC3D
:1035E000704722490968C906F9D501684068204A30
:1035F0000090106801684FF024030C031D49046813
:1036000024F00104046016D410684468C4F1240452
:10361000A4B20C8043601068016841F4002101608D
:103620001068016841F001010160122CD7D11249E4
:1036300001F1160015E014686068C0F1240080B242
:10364000088063600D498B6A23F400238B62116844
:103650000A6842F001020A601228C0D1064901F14D
:103660003A0018BC00F0E6B8A40100200048004071
:10367000E801002080000020200D002000600240B2
:10368000FEE703B401984100009850EAC12018BF3A
:1036900004204A0D18BF40F0010040F2FF72B2EB67
:1036A000515F08BF40F00200012808BF052002B0AA
:1036B00070470907090E002804DB00F1E02080F8BC
:1036C0000014704700F00F0000F1E02080F8141D96
:1036D00070477047C0EE201A094890ED041A61EE59
:1036E000810AF4EE400AF1EE10FA05D0B7EE000AB6
:1036F00031EE000A80ED040AB0EE600A7047000067
:103700008400002003490A685206FCD5C2B24A6010
:103710007047000000500040098849BA018081824A
:10372000704710B5B0F9003003810A8852BA0280A0
:103730004C88D31A64BA44808C88B3F5805F64BA2D
:10374000848089798171016901DD491E03E013F5E7
:10375000805F01DA491C016102EB4131828A891ADA
:10376000C16010BD88B0FEF7ABFDFFF7EDFDFFF7C0
:1037700057FBFFF73FFBFFF7F9FAFFF719FBFFF7DE
:10378000DDFBFFF7BFFBFFF79BFB00F04BF8FFF7FC
:103790008BFCFDF767FEFDF7A5FE1948FDF7C0FE9F
:1037A0001848FDF7BDFEDFF86080DFF8609000BFCD
:1037B00000F09AF8D8F8080000F0F8F906460F462D
:1037C000D8F8040000F0F2F904460D46D8F80000DD
:1037D00000F0ECF941EC100BB9F98E20B9F9AA1000
:1037E000B9F97200CDE9040206918DE8F00053ECBE
:1037F000102B07A0FCF7C0FD0120FEF743FCD7E724
:10380000C8000020F0000020B000002028030020A5
:1038100025662C25662C25662C25642C25642C25F4
:10382000640D0A0002492422A1F12400FFF758BDCB
:103830005A0D0020F0B5002855D0002953D0027849
:10384000437842EA0322C2F30A020A80437884786A
:10385000DB0843EA4413C3F30A034B808478C5783A
:10386000A40944EA8504057944EA8524C4F30A04DA
:103870008C80057946796D0845EAC615C5F30A05B9
:10388000CD804679C6F301168E724679B609CE729E
:103890008679C77946EA07268E81067A477A46EA0C
:1038A0000726CE81867AC77A46EA07260E82067BED
:1038B0008E74467BCE74867BC77B46EA07268E8253
:1038C000067C407CA2F580620A80A3F580634B8071
:1038D000A4F5806446EA00208C80A5F58065CD8043
:1038E000A0F580600881F0BD2DE9F047944C954F1C
:1038F00001262DED028B4FF00208A0889FED928AE1
:10390000924D022817D14FF4806949463846FEF798
:10391000C3FC80B90A20FEF7B5FB49463846FEF7DE
:10392000BBFC40B994ED020A85ED020A84ED048ADD
:10393000A680A4F802806088022813D14FF4807911
:1039400049463846FEF7A8FC60B90A20FEF79AFB04
:1039500049463846FEF7A0FC20B985ED028A84ED81
:10396000048A66807A494FF4FA797A4AB1F90600F6
:1039700048450CDA6369934209DD94ED020AB1EE21
:10398000400A85ED020A84ED048AA4F80480724F8F
:10399000724BB84209DDD4F814C09C4505D994EDAA
:1039A000020A85ED020A84ED048A00EE100AB8EEE0
:1039B000C00A84ED050A95ED020ADFED690AFFF7FA
:1039C00089FE84ED090AB1F9020048450BDAD4F802
:1039D00018C0944507DD94ED070AF7EE000A30EEB3
:1039E000200A84ED070A8846B84204DDA06998429F
:1039F00001D984ED078AD4ED080A94ED070AF4EEA4
:103A0000C00AF1EE10FA0CD210EE100A55498842A5
:103A100007DC94ED030AF1EE400AC5ED000A85EDDE
:103A2000010A514F02213846FEF736FC48B90A20F8
:103A3000FEF728FB02213846FEF72EFC08B985ED7B
:103A4000008A08213846FEF727FC48B90A20FEF70D
:103A500019FB08213846FEF71FFC08B985ED018ADD
:103A600094ED070AB5EEC00AF1EE10FA0FD1D4EDCD
:103A7000080AF5EEC00AF1EE10FA08D0D4ED030AF8
:103A8000C5ED000AF1EE600AC5ED010A2680208826
:103A9000012819D13548C16F09B985ED008AD0F8E0
:103AA000980008B985ED018AD5ED000AF5EEC00A47
:103AB000F1EE10FA08D1D5ED010AF5EEC00AF1EEEB
:103AC00010FA01D10020208084ED080AB8F9020024
:103AD000274F00EE100A0026B8EEC00A84ED060A51
:103AE00005EB860090ED000A701DFFF7D9FB07EB90
:103AF0008600761C80ED000A022EF1DB072094ED93
:103B0000090AFFF7CDFB87ED020ABDEEC00A0023CC
:103B100010EE100A97ED010A02B2BDEEC00A10EED7
:103B2000100A97ED000ABDEC028BBDEEC00ABDE89D
:103B3000F04701B210EE100A00B2FDF7AFBC000072
:103B4000840000200014024000000000B0000020AB
:103B5000200D00200000FA430CFEFFFF0000FAC316
:103B60000000FA4300002041000802402803002022
:103B7000BC00002010B500290AD00878002807D022
:103B800005487844FDF764F8002801D0002010BDF6
:103B90000248784410BD0000EE010000E60100007C
:103BA0000808A0F500114FEA3101704743004FEAC1
:103BB000D30C4FEA3C0C43401FBF40070CF160514F
:103BC00013F0FE4F70471CF0006F03D100200CF083
:103BD000004170470CF0004343EA507010B540EAD2
:103BE000CC0000F00EF800BF000000924FEA000188
:103BF000FFF7D6BF4FF000414FF00000A1F50021C4
:103C000070470EF1020E2EF0030E5EF8044B2442B4
:103C100004D44FEA4102B2F17F4F11D84FEA40037A
:103C2000B3F17F4F0CD80ED14FEAD07CB2F17F4F69
:103C30000CEB4C0C0CF1020C08BF4CEBD17C04E0FB
:103C40004FF0080C01E04FEAD17C0CEB4C0324FA56
:103C500003F404F00704B4F1040C06D20EEB840C58
:103C6000BDE810404CF0010C6047DFE80CF007089D
:103C700002024FF00040A0F5800010BD084642004F
:103C800018BFD2F1807288BF00F0004010BD4FF025
:103C90004070E1EE100A7047FCF747BD00061016B1
:103CA00000061016000000000000000001020304DE
:103CB000060708090000000001020304024000009A
:103CC000000000A00000000005400000000000C847
:103CD000000000000C4000000000409C00000000BC
:103CE000194000000020BCBE00000000344000006D
:103CF000BFC91B8E00000004B5400000504BCFD060
:103D00006607E2CF010000006C4100003E8251AA2C
:103D1000DFEEA73401000000D9420000DCB5A0E2CC
:103D20003A301F97FFFFFFFFB4450000FD25A0C8F4
:103D3000E9A3C14FFFFFFFFFFF3F0000000000802D
:103D400000000000FF3F00000000008000000000B5
:103D50008C3D000800000020B0000000C4010008F5
:103D60003C3E0008B000002030130000E0010008D5
:103D70001C00000043000000F8FFFFFF0C000000E3
:103D80000E0000000F0000002E00000000000000E8
:103D90000100000010000000000000000024F400FA
:103DA0000000000000000000000000000000704162
:103DB0000000000000000000CDCC4C3E00000000E0
:103DC0000000803F000030410AD7233C0000000083
:103DD000CDCC4C3E0AD7A33B0000000000001041B0
:103DE000CDCCCC3D9A99993ECDCC4C3E0AD7A33B45
:103DF00000000000000070416F12833A00000000D4
:103E00000000803E0AD7A33C0AD7233C00000000F4
:103E1000000000000000000000007A450000484457
:103E20000000000000000000000000000000000092
:0C3E300000000000000000000000000086
:040000050800018965
:00000001FF
