:020000040800F2
:100000000813002055020008F91B0008C11A000857
:10001000F51B00084D0400081D1E0008000000002C
:10002000000000000000000000000000011C0008AB
:100030006904000800000000FD1B0008051C000802
:100040006F0200086F0200086F0200086F020008CC
:100050006F0200086F0200086F0200086F020008BC
:100060006F0200086F0200086F0200086F020008AC
:100070006F0200086F0200086F0200086F0200089C
:100080006F0200086F0200086F0200086F0200088C
:10009000510400086F0200086F0200086F02000898
:1000A0006F0200086F0200086F0200086F0200086C
:1000B0006F0200086F0200086F0200086F0200085C
:1000C0006F0200086F0200086F0200086F0200084C
:1000D0006F0200086F0200086F0200086F0200083C
:1000E0006F0200086F0200086F0200086F0200082C
:1000F0006F0200086F0200086F0200086F0200081C
:100100006F0200086F0200086F0200086F0200080B
:100110006F0200086F0200086F020008C51C00088B
:100120006F0200086F0200086F0200086F020008EB
:100130006F0200086F0200086F0200086F020008DB
:100140005D0400086F0200086F0200086F020008DB
:100150006F0200086F0200086F0200086F020008BB
:100160006F0200086F0200086F0200086F020008AB
:100170006F0200086F0200086F0200080000000014
:100180006F0200086F02000800F002F800F052F859
:1001900014A696E8000CB244B344DA4501D100F04D
:1001A00049F8BAE80F000FA696E83000A5EB040561
:1001B00004EB0607AAEB0704A7F101074FEA1515A0
:1001C0004FEA3414A4F10104AC4201D300F032F838
:1001D00013F0010F18BFFB1A43F0010300F001F800
:1001E000DBE71847F026000010270000103A24BF74
:1001F00078C878C1FAD8520724BF30C830C144BF8C
:1002000004680C6070470000704700000023002461
:1002100000250026103A28BF78C1FBD8520728BF16
:1002200030C148BF0B6070471FB502F03DFB1FBDDA
:1002300010B510BD00F0D0F81146FFF7F5FF02F041
:10024000ADFA00F0EEF803B4FFF7F2FF03BC00F0E4
:10025000F5F800000948804709480047FEE7FEE737
:10026000FEE7FEE7FEE7FEE7FEE7FEE7FEE7FEE766
:1002700004480549054A064B70470000B11C0008B8
:1002800089010008080D002008130020080F002035
:10029000080F002053EA020C00F069802DE9F04BB2
:1002A0004FF00006002B1FBFB3FA83F503FA05F4E5
:1002B00024FA05F65E4012BF1643B2FA82F502FA3E
:1002C00005F4C5F120051EBF22FA05FC44EA0C0422
:1002D000203556EA044C4FEA144418BF641C4FF012
:1002E00000084FF00009904271EB030C39D300294C
:1002F00019BFB1FA81F701FA07F6B0FA80F700FAF0
:1003000007F6C7F120071EBF20FA07FC46EA0C06D5
:100310002037B6FBF4FCA7EB0507103F07F01F0BD7
:10032000CBF120062CFA06F60CFA0BFB44BFB346C1
:100330000026202FA4BF5E464FF0000B5BEA060CA0
:1003400008BF4FF0010B19EB0B0948EB0608ABFB9C
:10035000027C06FB02CC0BFB03CCC01B71EB0C0137
:10036000C1E70B46024641464846BDE8F08B13B54F
:10037000084318BF4FF0FF300146AFF30080BDE8DF
:100380001C4070474FF0000200B513469446964655
:10039000203922BFA0E80C50A0E80C50B1F1200198
:1003A000BFF4F7AF090728BFA0E80C5048BF0CC046
:1003B0005DF804EB890028BF40F8042B08BF7047A4
:1003C00048BF20F8022B11F0804F18BF00F8012B16
:1003D0007047704770477047754600F02BF8AE467F
:1003E00005006946534620F00700854618B020B541
:1003F000FFF73EFFBDE820404FF000064FF000073A
:100400004FF000084FF0000BAC46ACE8C009ACE878
:10041000C009ACE8C009ACE8C00921F007018D466D
:10042000704710B50446AFF300802046BDE8104089
:10043000FFF709BF004870476000002001491820FD
:10044000ABBEFEE72600020070470000FEE700009A
:1004500040F29020C2F2000000F080B940F2B820D3
:10046000C2F2000000F07AB97047000072B600BF17
:10047000FEE7000090F82020013A012A08D8006821
:1004800000F114020020136819431160704700BF87
:1004900000F1240201204FF48021136819431160F8
:1004A0007047000010B590F820E0D0F800C0AEF121
:1004B000010EBEF1010FDCF808E011D81EF0E05F7C
:1004C00018D0CEF3016E012000FA0EF018608B6890
:1004D000D3B14868CC6844EAC000034318E000BFC9
:1004E00000F1240101204FF480220B681A430A60B6
:1004F00010BD00BF00F1240101204FF400120B6871
:100500001A430A6010BD00BF0868CB6843EA405335
:100510000CEB0E10C0F880310B69C0F88431097DF6
:10052000012905D100F5C2710B6843F480730B609B
:100530005168C0F88C11126800F5C071C0F88821AC
:10054000002001220B681A430A6010BD90F8202099
:10055000013A012A30D8B0B546F20060C4F200007A
:10056000026842F001020260026822F47C520260DA
:10057000D1F814E0CC694A6A0368012C43EA0222EC
:1005800002600EF01F024FF0010303FA02F2C3698A
:100590006FEA020C23EA0203C36113D02CBBC368C9
:1005A00003EA0C03C360CB688C8844EA034300EB86
:1005B000CE0423640B4611E0416A41F4802141627C
:1005C00001207047C3681343C3600B688C8844EAFA
:1005D000034300EBCE04236401F10C038C681B88F9
:1005E00043EA044300EBCE04636443688D6943EA45
:1005F0000204D1F810E0096A002D08BF03EA0C04D8
:1006000044604369BEF1000F43EA020408BF03EAF5
:100610000C040129446102D1C1691143C16101681F
:1006200021F0010101600020B0BD00007047000012
:1006300010B590F82040013C012C7BD8D0F800C0C8
:1006400000290CBFDCF80C40DCF81040A4077BD07C
:100650000CEB011CDCF8B0410CF5D87E14F004045E
:100660009460DCF8B04119BFE4085460640D146074
:10067000DEF800400CF5DA7E04F00204D460DCF809
:10068000B44124075ABFDEF8004004F00F040824E8
:100690001461DEF800400029C4F307249461DEF8F9
:1006A00000404FEA14445461DCF8B8211A70026823
:1006B00002EB0112D2F8B8214FEA12225A700268F6
:1006C00002EB0112D2F8B8214FEA12429A70026886
:1006D00002EB0112D2F8B8214FEA1262DA70026816
:1006E00002EB0112D2F8BC211A71026802EB01126E
:1006F000D2F8BC214FEA12225A71026802EB0112B1
:10070000D2F8BC214FEA12429A71026802EB011240
:10071000D2F8BC214FEA1262DA7100680CBF00F116
:100720000C0100F11001002020220B681A430A601E
:1007300010BD00BF00F1240101204FF480220B689E
:100740001A430A6010BD00BF00F1240101204FF4DC
:1007500000120B681A430A6010BD00002DE9F04F2B
:1007600081B0044600684669D0F804908768D0F8E4
:100770000CB0D0F810A0D0F81880F10704D10025F3
:1007800030071DD424E000BFF90710D00121BA07BB
:10079000816009D4780700F1AF80380700F1B68096
:1007A000204600F05BFB02E0204600F059FB0025EC
:1007B000F80500F18780F80300F1B180300707D514
:1007C0001BF0100004D0206845F400751021C160B2
:1007D000700708D51BF0080005D020680821C1600B
:1007E000204600F0F5F9B00706D52068C0688007FC
:1007F00002D0204600F0EEF9700607D51AF010007E
:1008000004D0206845F4806510210161B00608D548
:100810001AF0080005D0206808210161204600F088
:10082000E9FAF00606D520680069800702D0204664
:1008300000F0E2FAB00308D519F0100005D02068E6
:1008400010214160204600F0D9FAF00308D519F0D4
:10085000080005D0206808214160204600F00AFB0E
:10086000300440F19B805FEA497040F1948006F4C7
:10087000807008EA102028435FEA8871014648BF6B
:1008800041F00201B20558BF01465FEA48700D46CB
:1008900048BF45F00405700558BF0D46300540F1CE
:1008A0007A8018F0700000F0768010380009052872
:1008B0006CD8DFE800F003595D61656945F0080513
:1008C00064E000BF20684FF48071BA0581600BD4EA
:1008D000780515D438051DD4204600F0C3FAF80376
:1008E0007FF56CAF1BE000BF204600F0BDFAF803B7
:1008F0007FF564AF13E000BF4FF4006558E700BF19
:1009000005F50055F8037FF559AF08E04FF4805521
:100910004EE700BF05F58045F8037FF54FAF20682F
:100920004FF48031BA0381600AD4780310D43803BD
:1009300014D4204600F09AFA30073FF541AF47E75C
:10094000204600F095FA30073FF53AAF40E700BF88
:1009500005F5004530073FF533AF39E705F580353C
:1009600030073FF52DAF33E745F010050EE000BF2F
:1009700045F020050AE000BF45F0400506E000BF55
:1009800045F0800502E000BF45F48075206881696C
:1009900021F07001816120680421416055B1606AD5
:1009A00040EA05012046616201B0BDE8F04FFFF763
:1009B0003DBE00BF01B0BDE8F08F0000002804BFBD
:1009C00001207047B0B5044690F8200010B92046C9
:1009D00000F06EF82068016841F00101016000F04C
:1009E0001BFB054620684168C90705D100F014FBD0
:1009F000401B0B28F6D310E0016821F002010160D2
:100A000000F00AFB054600BF2068416889070DD544
:100A100000F002FB401B0B28F6D3606A052140F46E
:100A200000306062012084F82010B0BD217E026891
:100A3000012922F0800208BF80320260617E0268D4
:100A4000012922F0400208BF40320260A17E026804
:100A5000012922F0200208BF20320260E17E0268F4
:100A6000012922F0100218BF10320260217F0268B3
:100A7000012922F0080208BF08320260617F026883
:100A8000012922F0040208BF04320260D4E901C245
:100A9000D4E9033561691A432A431143ACF10102D9
:100AA0001143C16100200121606284F82010B0BDB3
:100AB00010B586B0006846F60002C4F200020021BC
:100AC0009042CDE90411CDE90211019134D046F2F2
:100AD0000041C4F20001884277D140F2C001C2F265
:100AE00000010A6843F64000C4F20200531C0B6088
:100AF00052B900210091016841F000710160016864
:100B000001F00071009100990021009150F8101C33
:100B1000142441F0080140F8101C50F8100C032177
:100B200000F008000090009840F20040C4F202007B
:100B300000F5006035E000BF43F64000C4F202005B
:100B40000091016841F080610160016801F08061FD
:100B50000091009940F2C001C2F200010A68531CE2
:100B60000B6052B900210091016841F000710160F1
:100B7000016801F00071009100990021009150F886
:100B8000101C402441F0020140F8101C50F8100CD9
:100B9000602100F002000090009840F20040C4F292
:100BA000020001910221029100210391032104918D
:100BB0000921059101A900F05FF9204600210022DA
:100BC00000F0ACFA204600F097FA06B010BD000025
:100BD000704700002DE9F0438BB00446006846F2F0
:100BE0000045C4F20005A84208D005F5806188429E
:100BF00000F080800BB0BDE8F08300BF04AA02AB18
:100C000020460021FFF714FD0498A0F201210629D7
:100C10006AD80138C0B240F2CC0CC0EBC002C2F2BC
:100C2000000C0CEB820081694B1C3229836113D8C4
:100C3000BDF80810BDF80A30BDF80C6009BA1BBA3F
:100C4000090C9DF80EE04FEA134833BA81824FEA4F
:100C500013490F4629E000BFBDF808103CF9229067
:100C6000BDF80A70BDF80C300EBA310C3FBA1BBA91
:100C70009DF80EE0C9EB16464FEA1748B6F5805FBF
:100C80004FEA134904DD0369013B036108E000BF3B
:100C9000074657F8103F16F5805FBCBF01333B6035
:100CA000878A01EB4333DB1BC3602CF822100AB2A6
:100CB0008E1AB6F5805F0181A0F80280A0F804903A
:100CC00080F806E004DD0269013A026108E000BF35
:100CD000034653F8102F16F5805FBCBF01321A602F
:100CE00001EB4231C91BC160206805F58061884273
:100CF0007FF480AF04AA6B4620460021FFF798FCE2
:100D00000498A0F2012106293FF674AF0138C0B261
:100D100040F2CC01C0EBC000C2F2000101EB800048
:100D2000D0F8F8104A1C3229C0F8F82012D8BDF8C3
:100D30000010BDF80230BDF8047009BA090C9DF826
:100D400006201BBA3FBAA0F8F4101B0C3E0C0F464D
:100D50002BE000BFBDF80010BDF80220B0F9E07034
:100D6000BDF804500EBA12BA130C2DBA9DF8062025
:100D7000C7EB1644310CB4F5805F4FEA154605DD2C
:100D8000D0F8F0707D1EC0F8F05007E0074657F825
:100D9000F05F14F5805FBCBF01353D60B0F8F470C2
:100DA00001EB4535ED1BC0F8EC50A0F8E2300BB27A
:100DB000A0F8E460CE1AB6F5805FA0F8E810A0F8BD
:100DC000E01080F8E62005DDD0F8F020013AC0F808
:100DD000F02007E0034653F8F02F16F5805FBCBF04
:100DE00001321A6001EB4231C91BC0F8EC100BB0A4
:100DF000BDE8F083704700007047000070470000B6
:100E0000B0B5044690F8200001281DD1022084F8D6
:100E100020002068016821F00101016000F0FCF869
:100E2000054600BF20684068C00713D000F0F4F802
:100E3000401B0B28F6D3606A40F400306062052046
:100E400084F820000120B0BD606A40F40020606298
:100E50000120B0BD00206062B0BD000070470000FE
:100E600070470000704700007047000070470000A6
:100E700070470000704700002DE9F04F82B000F18C
:100E80003E4707F1FF77860546EA972741F6004679
:100E9000C4F20206082243F6004EB04208BF072201
:100EA000C4F2010E072F38BF3A46002600274FF044
:100EB0000008009209E000BF08F101080237B8F10C
:100EC000100F06F1040600F0A3800D68012202FA5B
:100ED00008F415EA0409EFD0D1F804B003220BF0AE
:100EE000030CACF10105BA40012D6FEA020A0FD8DC
:100EF0008268CD6802EA0A02BD402A4382604268E5
:100F0000A243CBF3001404FA08F42243426005E044
:100F1000BCF1030F02D14FF0030C1EE0C2688C68D5
:100F200002EA0A02BC402243BCF1020FC26014D1A3
:100F30006FF0030202EA58020244D2F820C006F021
:100F40001C040F230D69A3402CEA0303A5402B4387
:100F50001362D1F804B00BF0030C02680CFA07F32B
:100F600002EA0A021A431BF4403F0260A4D00022A6
:100F700043F644030192C4F202031A684FF6084C88
:100F800042F480421A601A68CFF6FF7C02F4804275
:100F90000192019A28F00302724452F80C3006F0D4
:100FA0000C050F24AC40A343009C04FA05F52B4329
:100FB00042F80C30DEF808204B6842EA090543F697
:100FC0000C4CDC0258BF22EA0905CEF80850C4F2E6
:100FD000010CDCF800209C0242EA090558BF22EA15
:100FE0000905CCF80050DEF804209C0342EA09050C
:100FF00058BF22EA0905CEF80450DEF80020DB03D2
:1010000042EA090558BF22EA0905CEF8005053E725
:1010100002B0BDE8F08F000040F60450C2F20000BC
:101020000068704740F2000040F60451C2F2000030
:10103000C2F2000100780A6810440860704700009E
:1010400080B543F60040C4F20200016841F400712B
:101050000160016841F480610160016841F48071C0
:101060000160032000F086F80F2000F005F800F082
:1010700027F8002080BD000070B540F20006C2F2E3
:10108000000640F25C013278C2F200014FF47A733C
:101090000968B3FBF2F20446B1FBF2F1084600F036
:1010A00045FB0F2C4FF0010508D838B94FF0FF3041
:1010B00021460022002500F031F87460284670BDFA
:1010C00082B0002043F640010190C4F202014A6858
:1010D00042F480424A604A6802F480420192019AD6
:1010E0000090086840F080500860086800F0805068
:1010F0000090009802B07047002848BF704700F089
:101100001F01012202FA01F11C2202EAD0004EF274
:101110000012CEF2000281507047000010B54EF66A
:101120000C5CCEF2000CDCF80030C3F3022E8EF023
:101130000704042C28BF0424BEF103034FF0FF3E34
:101140000EFA04F438BF0023A14399400EFA03F3CA
:101150009A43114300F00F0200F160430901043A81
:1011600003F564436244002848BF02F10C03197080
:1011700010BD00004EF60C51CEF200010A684FF689
:10118000FF031A4060F30A2242F0806040F0FD70D5
:1011900008607047002804BF012070472DE9F04126
:1011A00043F60808C4F202080446D8F8F8030D46CE
:1011B00000F00700884207D288F8F853D8F8F803FF
:1011C00000F00700A84277D12068810717D54107B2
:1011D00005D5D8F8001041F4E051C8F80010010717
:1011E00005D5D8F8001041F46041C8F80010D8F8CF
:1011F0000010A26821F0F0011143C8F80010C007E8
:1012000040D1D8F8F80300F00700A84207D988F8C1
:10121000F853D8F8F80300F00700A8424CD1206832
:10122000410707D5D8F80010E26821F4E0511143D6
:10123000C8F80010000708D5D8F80000216920F48C
:10124000604040EAC100C8F8000000F055F8D8F846
:10125000001042F6C202C1F30311C0F60002515C55
:1012600040F25C0220FA01F140F20400C2F20000F8
:101270000068C2F200021160FFF7FEFE0020BDE828
:10128000F08100BF6068811E022907D258F8081C4F
:1012900089015CBF0120BDE8F08111E0012807D180
:1012A00058F8081C89035CBF0120BDE8F08107E005
:1012B00058F8081C890703D40120BDE8F08100BF5D
:1012C000D8F8001021F003010843C8F80000FFF728
:1012D000A3FE064641F28837D8F80000616800F0A6
:1012E0000C00B0EB810F8CD0FFF796FE801BB8424C
:1012F000F2D90320BDE8F08110B543F60404C4F22E
:101300000204606800F00C0008280BD0042819BF04
:1013100042F20040C0F2F40041F60030C0F2B700E3
:1013200010BD00BF206821682368490241F60031E2
:10133000C0F2B70100F03F02C3F388105CBF42F275
:101340000041C0F2F401A1FB00010023FEF7A2FF5F
:1013500021680222C1F3014102EB4101B0FBF1F02F
:1013600010BD0000002804BF012070472DE9F041A6
:1013700082B00446007843F60006C007C4F20206B5
:101380000CD0B06800F00C00042840F08180306878
:10139000800303D56068002800F06A812078800708
:1013A0001BD5B06810F00C0F09D0B06800F00C002D
:1013B000082840F087807068400200F18380306820
:1013C000800703D5E068012840F052813068216928
:1013D00020F0F80040EAC10030602078000713D404
:1013E000207840072AD4A569002D00F03C81B06820
:1013F00000F00C00082840F0A180012D40F0108181
:10140000012002B0BDE8F0816069002840F20000D0
:10141000C4F2472000F07E800121C0F8801EFFF753
:10142000FBFD0546706F8007DAD4FFF7F5FD401B22
:101430000228F7D9032002B0BDE8F081306C5FEAE2
:10144000C0080AD400200190306C40F08050306415
:10145000306C00F080500190019847F20007C4F210
:1014600000073868C00547D4386840F48070386099
:10147000FFF7D2FD054600BF3868C0053CD4FFF732
:10148000CBFD401B0228F7D9032002B0BDE8F08154
:10149000B06800F00C00082803D1706840023FF5E6
:1014A00076AF6068B0F5803F07D0B0F5A02F40F070
:1014B0009B80306840F480203060306840F4803099
:1014C00030609BE0E06800285CD00020C4F2472038
:1014D00001210160FFF7A0FD054600BF30688007CD
:1014E0003FF574AFFFF798FD401B0228F6D90320A3
:1014F00002B0BDE8F08100BFA068012805D0052832
:1015000054D1306F40F004003067306F40F001007C
:10151000306755E00021C0F8801EFFF77DFD0546CD
:10152000706F80077FF55CAFFFF776FD401B0228E8
:10153000F6D9032002B0BDE8F08100BF0027C4F255
:10154000472700203866FFF767FD022D05460DD1BD
:101550003068800140F19080FFF75EFD401B02285B
:101560004FF00300F4D902B0BDE8F081306880018B
:1015700079D5FFF751FD401B02284FF00300F5D944
:10158000F1E700BF0020C4F2472000210160FFF70F
:1015900043FD0546306880077FF51FAFFFF73CFD30
:1015A000401B02284FF00300F4D9DCE7316F00281C
:1015B00021F001013167316F21F0040131677DD0E5
:1015C000FFF72AFD054641F2883700BF306F8007DC
:1015D00000F18680FFF720FD401BB842F6D90320BA
:1015E00002B0BDE8F08100BF3168002821F48031ED
:1015F0003160316821F4802131607BD0FFF70CFD30
:10160000054600BF306880033FF5C8AEFFF704FD14
:10161000401B6428F6D9032002B0BDE8F08100BF6A
:101620007068E16900F480028A4221D1216A00F0E9
:101630003F028A421CD147F6C071626A0140B1EB99
:10164000821F15D1A16A4FF6FF73C903994300F4B5
:101650004032A1F580318A420AD1E16A00F070601F
:10166000B0EB016F04D1002002B0BDE8F08100BFF3
:10167000012002B0BDE8F08104F11C052FCD084324
:1016800040EA8210D9034FF6FF729143A1F58031F1
:1016900040EA05600843706001203866FFF7BCFC33
:1016A000044600BF30688001DDD4FFF7B5FC001BA5
:1016B00002284FF00300F5D955E700BFFFF7ACFC57
:1016C000054641F2883700BF306F800708D5FFF725
:1016D000A3FC401BB8424FF00300F5D943E700BF1D
:1016E000B8F1000F3FF57FAE306C20F080503064D1
:1016F00079E600BFFFF790FC054600BF3068800325
:101700007FF54CAEFFF788FC401B64284FF00300C8
:10171000F4D928E74EF21001CEF200010A6804283D
:1017200022F0040208BF04320A607047411E002004
:10173000B0EB116F1CBF012070474EF21002CEF2C9
:10174000000251604EF62351CEF20001F0230B70DF
:1017500007219060116070477047000070470000DB
:1017600090F83C20012A4FF0020254D010B580F8C6
:101770003D200268D2F804E0D2F808C00C682EF0D0
:101780007003234341F2FF74C4F20004A242536089
:101790000EDC40F2FF73C4F200039A4216DCB2F191
:1017A000804F2BD040F20043C4F2000324E000BF7E
:1017B00040F2FF33C4F201039A4213DC41F6000306
:1017C000C4F200039A4219D0002313E040F600034C
:1017D000C4F200039A4211D040F60043C4F2000361
:1017E0000AE000BF44F20003C4F201039A4205D0AC
:1017F00040F20043C4F201039A4204D149682CF03C
:101800008003194391600121002280F83D1080F887
:101810003C20BDE81040104670470000002804BF7F
:101820000120704710B5044690F83D0028B900200B
:1018300084F83C00204600F01FF8022084F83D00A8
:101840002068211D00F044FA012084F8460084F845
:101850003E0084F83F0084F8400084F8410084F89A
:10186000420084F8430084F8440084F8450084F87A
:101870003D00002010BD0000006841F20041C4F2AC
:101880000001884218BF704780B582B000200190E7
:1018900043F64000C4F202000168002241F020013A
:1018A00001600068002100F02000019001983720BD
:1018B000FFF734FC372002B0BDE88040FFF71CBCC6
:1018C0007047000070B504460068C5680669B10736
:1018D00016D515F0020113D06FF00201016101214C
:1018E00021778069800703D02046FFF7E9FF05E0F4
:1018F000204600F08FF8204600F08EF80020207778
:10190000700719D515F0040016D020686FF0040197
:10191000016102212177806910F4407F04D02046C4
:10192000FFF7CEFF06E000BF204600F073F8204628
:1019300000F072F800202077300717D515F0080066
:1019400014D020686FF00801016104212177C0697B
:10195000800703D02046FFF7B3FF05E0204600F0E4
:1019600059F8204600F058F800202077F00619D5E5
:1019700015F0100016D020686FF0100101610821E9
:101980002177C06910F4407F04D02046FFF798FF0C
:1019900006E000BF204600F03DF8204600F03CF88D
:1019A00000202077F00718BF15F0010002D13006A3
:1019B00009D412E020686FF001010161204600F0B7
:1019C0002DF8300609D515F0800006D020686FF09C
:1019D000800101612046FFF7BFFE700609D515F0B2
:1019E000400006D020686FF040010161204600F001
:1019F00065F8B00658BF70BD15F0200008D021680A
:101A00006FF0200220460A61BDE87040FFF7A6BED5
:101A100070BD00007047000070470000006841F290
:101A20000041C4F20001884218BF70472DE9F0411F
:101A300082B040F2CC00C2F2000000F5E1744FF039
:101A40000008204640F2DC5100220023CDF800803F
:101A500000F01CFD40F22830C2F20000451C9FED52
:101A6000140A2846042100F0A5FCBDEEC00A10EEC1
:101A7000106A9FED100A2846052100F09BFCBDEE80
:101A8000C00A10EE107A9FED0C0A2846062100F0DD
:101A90006FFCBDEEC00A10EE103A204631463A46C1
:101AA000CDF8008000F01EFD02B0BDE8F08100BF5F
:101AB0000000FA430000164400007A457047000019
:101AC000FEE7000080B540F2902046F20041C2F2ED
:101AD0000000C4F200010322002380E80E0000F1A0
:101AE0000C014FF4C02C4FF4A00E81E80850836124
:101AF0008383FEF763FF002808BF80BDBDE88040F8
:101B0000FEF7B4BC80B540F2B82046F60001C2F240
:101B10000000C4F200010322002380E80E0000F15F
:101B20000C014FF4102C4FF4001E81E80850836123
:101B30008383FEF743FF002808BF80BDBDE88040D7
:101B4000FEF794BC81B0002043F630010090C4F24F
:101B500002010A6842F002020A600A6802F0020208
:101B60000092009A00900A6842F001020A600A6836
:101B700002F001020092009A00900A6842F0080206
:101B80000A600A6802F008020092009A0090086851
:101B900040F080000860086800F080000090009825
:101BA00001B0704780B582B040F2E02041F20042BF
:101BB0000021C2F20000C4F20002532340F2E73CCD
:101BC000CDE90011C0E90023C0E9021C8161FFF7E3
:101BD00025FE002818BFFEF749FC40F2E020C2F2C3
:101BE00000006946FFF7BCFD002818BFFEF73EFC69
:101BF00002B080BDFEE70000FEE700007047000075
:101C000070470000FFF70EBAB0B592B0002443F65B
:101C10004000CDE90A44CDE908440594CDE90344E8
:101C2000CDE901440094C4F202000168022541F0AC
:101C300080510160006800F080500090009847F2E9
:101C400000000094C4F20000016841F4804101608A
:101C5000006800F4804000900098012006904FF446
:101C6000803007904FF480000D9006200E90A82041
:101C7000CDE90F050420119006A80C95FFF772FB23
:101C800010B172B6FEE700BF0F20CDE901054FF499
:101C9000A05004904FF48050059001A805210394B2
:101CA000FFF778FA10B172B6FEE700BF12B0B0BD10
:101CB0004EF68850CEF20000016841F470010160D8
:101CC0007047000040F2E020C2F20000FFF7FABDCA
:101CD00010B540F6FF3E0368C4F2000E40F2004C1F
:101CE0007045C4F2010C27DCB0F1804F31D040F2D6
:101CF0000042C4F2000290422BD040F60002C4F22F
:101D00000002904225D041F6FF72C4F200029042D8
:101D100029DC70453CDCB0F1804F5FD040F20042DE
:101D2000C4F20002904259D040F60002C4F2000210
:101D3000904253D056E000BF40F60042C4F2000289
:101D4000904206D0604504D00022C4F201029042C5
:101D5000D9D14A6823F07003134341F6FF72C4F2ED
:101D600000029042D5DD43F6FF72C4F201029042B8
:101D700022DC42F20002C4F2000290422ED0002285
:101D8000C4F20102904229D0604527D02AE000BF6A
:101D900040F60042C4F2000290421FD041F6000219
:101DA000C4F20002904219D041F60042C4F200028F
:101DB000904213D016E000BF44F20002C4F20102C8
:101DC00090420BD044F60002C4F20102904205D0CA
:101DD00044F20042C4F20102904203D1CA6823F4E3
:101DE0004073134323F080024B69D1F800E08C6804
:101DF0001A430260C46240F48062C0F828E0624581
:101E000004BF09690163012141610169C90708BF74
:101E100010BD016921F00101016110BDFEE7000064
:101E20002DE9F04F81B02DED0E8B40F63C0B40F2CA
:101E300008059FEDE78A9FEDE79AC2F2000BC2F218
:101E40000005594600222B46B0EE480AF0EE490A3A
:101E5000044600F075FA9FEDE0BA9FEDE0AA05F1A7
:101E60000C0940F22C31C2F20001204600224B4600
:101E7000B0EE4B0AF0EE4A0A00F062FA40F67C2817
:101E80009FEDD7DA05F11806C2F200082046414658
:101E900000223346B0EE4D0AF0EE490A00F050FA47
:101EA00040F26C5A9FEDCFEA9FEDCFCA05F12407AF
:101EB000C2F2000A2046514600223B46B0EE4E0ACE
:101EC000F0EE4C0A00F03CFA0BF1480120460022EB
:101ED0002B46B0EE480AF0EE490AAB4600F030FA65
:101EE00040F22C30C2F2000000F1480120460022EE
:101EF0004B46B0EE4B0AF0EE4A0A00F021FA08F128
:101F00004801204600223346B0EE4D0AF0EE490A61
:101F1000454600F015FA0AF14801204600223B46EA
:101F2000B0EE4E0AF0EE4C0A00F00AFA40F63C0819
:101F3000C2F2000808F19001204600225B46B0EE94
:101F4000480AF0EE490A00F0FBF940F22C3BC2F2DD
:101F5000000B0BF19001204600224B46B0EE4B0ADD
:101F6000F0EE4A0A00F0ECF905F19001204600225B
:101F70003346B0EE4D0AF0EE490A00F0E1F90AF1FD
:101F80009001204600223B46B0EE4E0AF0EE4C0A8D
:101F900000F0D6F940F2080308F1D80120460022EB
:101FA000C2F20003B0EE480AF0EE490A00F0C8F9A8
:101FB0000BF1D801204600224B46B0EE4B0AF0EE62
:101FC0004A0A00F0BDF905F1D80120460022334647
:101FD000B0EE4D0AF0EE490A00F0B2F90AF1D8016C
:101FE000204600223B46B0EE4E0AF0EE4C0A00F0CE
:101FF000A7F940F2080308F5907120460022C2F2CA
:102000000003B0EE480AF0EE490A00F099F90BF52A
:102010009071204600224B46B0EE4B0AF0EE4A0A81
:1020200000F08EF905F59071204600223346B0EE9F
:10203000480AF0EE490A00F083F90AF5907120464B
:1020400000223B46B0EE4C0AF0EE4A0A00F078F966
:1020500040F2080308F5B47120460022C2F20003E2
:10206000B0EE480AF0EE490A00F06AF90BF5B471D7
:10207000204600224B46B0EE4B0AF0EE4A0A00F032
:102080005FF905F5B471204600223346B0EE480AE8
:10209000F0EE490A00F054F90AF5B4712046002226
:1020A0003B46B0EE4C0AF0EE4A0A00F049F940F225
:1020B000080308F5D87120460022C2F20003B0EEF2
:1020C000480AF0EE490A984600F03AF90BF5D87143
:1020D000204600224B46B0EE4B0AF0EE4A0A00F0D2
:1020E0002FF905F5D871204600223346B0EE480A94
:1020F000F0EE490A00F024F90AF5D87120460022D2
:102100003B46B0EE4C0AF0EE4A0A00F019F940F6F0
:102110003C00C2F2000000F5FC712046002243465C
:10212000B0EE480AF0EE490A00F00AF90BF5FC712E
:10213000204600224B46B0EE4B0AF0EE4A0A00F071
:10214000FFF805F5FC71204600223346B0EE480A40
:10215000F0EE490A00F0F4F80AF5FC71204600227E
:102160003B46B0EE4C0AF0EE4A0A00F0E9F89FED6B
:10217000208A40F6BC419FED1D0A08F13003C2F2EF
:10218000000120460022F0EE480A00F0D9F840F2A3
:10219000AC7108F13C03C2F2000120460022B0EE0F
:1021A000480AF0EE480A00F0CBF840F2F47108F16A
:1021B0004803C2F2000120460022B0EE480AF0EEC9
:1021C000480ABDEC0E8B01B0BDE8F04F00F0B8B886
:1021D00000401C460080BB450000C84300009643F9
:1021E00000A00C460000FA450000FA4400803B4580
:1021F0000080BB4400294FD0087891ED0F1A91ED73
:10220000102A81ED070A30EEC00A0028C1ED060A47
:1022100081ED0F0A81ED101A81ED112A40D00128BD
:1022200040F0888091ED015A91ED026A30EE414A0A
:1022300031EE011A91ED037A24EE054A20EE065A9A
:1022400030EE410A32EE000AD1E90C2081ED0C0A91
:1022500020EE070A34EE051A91ED082A91ED043AB2
:1022600081ED0B0A31EE000A32EE000AB4EE430AA9
:10227000F1EE10FA81ED094A81ED0A5AC1E90D200B
:1022800081ED080AC2BF81ED083AB0EE430A7047FB
:10229000B1EE431A43E000BF9FED280A704700BF2C
:1022A00091ED024A91ED0A6A91ED012A91ED053A0C
:1022B00024EE004A91ED035A34EE064A20EE022A3B
:1022C000D1E90C2030EE410AB4EE434A81ED0C0A0C
:1022D00020EE050AF1EE10FA81ED092A81ED0A4A95
:1022E000C1E90D2081ED0B0A06DCB1EE433AB4EEF4
:1022F000434AF1EE10FA03DAB0EE434A81ED0A3AAE
:1023000032EE042A91ED041A30EE020AB4EE410ACC
:10231000F1EE10FA81ED080A07DCB1EE411AB4EED5
:10232000410AF1EE10FAA8BF7047B0EE410A81ED04
:10233000081A704791ED080A704700BF00000000BE
:10234000002918BF002B01D1704700BF80B50A706B
:102350001868486058688860986881ED040AC86009
:10236000C1ED050A01F120002821FEF70BF880BD20
:1023700010B540F2CC0201EBC100C1EBC101C2F2C9
:10238000000202EB810140F22C32F0EE400AC2F270
:10239000000291ED030A02EBC00440F22830B8EECF
:1023A000C00AC2F200002146FFF724FF94ED080A9C
:1023B00010BD000010B540F2CC0201EBC100C1EB32
:1023C000C101C2F2000202EB810140F63C02B1F908
:1023D0000210C2F20002F0EE400A02EBC00400EE6E
:1023E000101A40F22830B8EEC00AC2F200002146AE
:1023F000FFF700FF94ED080A10BD000080B58AB019
:10240000086846F60002C4F20002904212D046F27A
:102410000042C4F20002904221D101200022089023
:10242000CDE90620CDE90022CDE90222CDE9042242
:102430000DE000BF012000220890CDE906200E200B
:10244000CDE90022CDE902220990CDE904206A46B7
:1024500008461146FEF77AF808B1FEF707F80AB009
:1024600080BD000010B508460C46FEF7C9FC0028E8
:1024700018BFFDF7FBFF20460221FDF7FBFF0028F8
:1024800008BF10BDBDE81040FDF7F0BF80B58AB0B1
:102490004FF4007004900020CDE906000820089059
:1024A000080ADDF830C08DF80800100A8DF80A001F
:1024B000180A8DF80C004FEA1C208DF80E0040F22F
:1024C00090208DF809108DF80B208DF80D30C2F298
:1024D000000004A902AA01AB8DF80FC0FDF7E2FFCE
:1024E0000AB080BD80B58AB040F2FF100190002094
:1024F000CDE9030008200590080ADDF830C08DF80A
:102500002000100A8DF82200180A8DF824004FEAE6
:102510001C208DF8260040F290208DF821108DF8B7
:1025200023208DF82530C2F2000001A908AA07ABCC
:102530008DF827C0FDF7B6FF0AB080BD2DE9F04148
:1025400047F65D124A43130E4FF407724EF218001D
:1025500003FB121840F2C40CCEF20000B1F5077F65
:10256000C2F2000C50D3DCF8001043F66052C0F207
:102570000802514313F00304A3F1010E41D050F8B7
:10258000045C0268002607E01644F61B974228BF49
:102590002E448E423A460DD207689742F4D107681E
:1025A0009742F1D107689742EED107689742F3D07E
:1025B000EAE700BF012C05D1013BBEF1030F71D248
:1025C00022E000BF50F8045C0768002608E000BF66
:1025D0003E44B61ABA4228BF2E448E4217460DD248
:1025E0000268BA42F4D10268BA42F1D10268BA4232
:1025F000EED10268BA42F3D0EAE700BF022C2DD137
:10260000023BBEF1030F4DD25FEA084108BFBDE8AF
:10261000F08150F8041CDCF800201FFA88F35A43BC
:102620004FF47A7306685A43002307E03344DB1BF8
:10263000B74228BF0B4493423E460DD20768B742CB
:10264000F4D10768B742F1D10768B742EED1076805
:10265000B742F3D0EAE700BFBDE8F08150F8044C80
:102660000668002508E000BF3544AD1AB24228BF15
:1026700025448D4216460DD20268B242F4D102685A
:10268000B242F1D10268B242EED10268B242F3D056
:10269000EAE700BF033BBEF1030F03D2B4E700BF7C
:1026A000043BB1D050F8045C0768002608E000BF86
:1026B0003E44B61ABA4228BF2E448E4217460DD267
:1026C0000268BA42F4D10268BA42F1D10268BA4251
:1026D000EED10268BA42F3D0EAE700BF50F8045CDA
:1026E0000768002608E000BF3E44B61ABA4228BF79
:1026F0002E448E4217460DD20268BA42F4D10268C7
:10270000BA42F1D10268BA42EED10268BA42F3D0BD
:10271000EAE700BF50F8045C0768002608E000BF45
:102720003E44B61ABA4228BF2E448E4217460DD2F6
:102730000268BA42F4D10268BA42F1D10268BA42E0
:10274000EED10268BA42F3D0EAE700BF50F8045C69
:102750000768002608E000BF3E44B61ABA4228BF08
:102760002E448E4217469BD20268BA42F4D10268C8
:10277000BA42F1D10268BA42EED10268BA42F3D04D
:10278000EAE7000010B504200C46FEF7C3FF40F254
:10279000C400C2F20000046010BD0000FEF750FC4F
:1027A000FFF732FAFFF7CEF9FFF78CF9FFF7AAF936
:1027B000FFF7F8F900F002F8FEE7000082B040F2FF
:1027C000C800C2F2000000F101094846A821FFF745
:1027D000D9FF40F22838C2F200084046FFF720FB3C
:1027E00040F2CC04C2F2000440F2902704F5E075F8
:1027F000C2F2000728463946FFF700FE40F2B8262D
:10280000C2F2000628463146FFF7F8FD2846394651
:10281000FFF728FE28463146FFF724FE9FED1F8A6A
:102820009FED1F9A9FED1FAA4FF0000A04F5E17576
:1028300008F10106284640F2DC5100220023CDF8C1
:1028400000A0FFF723FE3046B0EE480A0421FFF750
:10285000B1FDBDEEC00A10EE107A3046B0EE490A66
:102860000521FFF7A7FDBDEEC00A10EE104A304665
:10287000B0EE4A0A0621FFF77BFDBDEEC00A10EE5E
:10288000103A284639462246CDF800A0FFF72AFE26
:1028900048460121FFF752FECCE700BF0000FA4393
:1028A0000000164400007A45F1EE100A4FF6FF7161
:1028B000C0F2C03120EA010040F04070E1EE100AA1
:1028C000704700000000000000000102030406073A
:1028D00008090000F828000800000020600000003F
:1028E000EC0100085829000860000020A812000030
:1028F0000C020008000000000100000010000000B1
:1029000000007041000000009A99993FCDCC4C3EE8
:10291000000000000000803F000020410000000097
:1029200000000000713D8A3E5839B43C9A99993EA6
:102930000000F04200000000CDCCCC3D0000C040C3
:1029400000000000000000000000C0400000000087
:08295000000000000024F40067
:040000050800018965
:00000001FF
