:020000040800F2
:100000006856002029030008672B000833270008E2
:10001000652B00080B0600082936000800000000C8
:10002000000000000000000000000000690200085D
:100030007509000800000000C5020008E130000852
:100040004303000843030008430300084303000878
:100050004303000843030008430300084303000868
:100060004303000843030008430300084303000858
:10007000ED08000843030008430300084303000899
:100080004303000843030008430300084303000838
:10009000C90600084303000843030008430300089F
:1000A0004303000843030008430300084303000818
:1000B0004303000843030008430300084303000808
:1000C00043030008430300084303000843030008F8
:1000D0004303000855350008430300087535000840
:1000E00043030008430300084303000843030008D8
:1000F00043030008430300084303000843030008C8
:1001000043030008430300084303000843030008B7
:100110004303000843030008B1310008430300080B
:100120004303000843030008430300084303000897
:100130004303000843030008430300084303000887
:100140004D07000843030008430300084303000869
:100150004303000843030008430300084303000867
:100160004303000843030008430300084303000857
:100170004303000843030008430300080000000095
:10018000430300084303000800F002F800F05CF8A5
:100190000AA090E8000C82448344AAF10107DA45E2
:1001A00001D100F051F8AFF2090EBAE80F0013F0D8
:1001B000010F18BFFB1A43F001031847CC5300008E
:1001C000EC5300000A444FF0000C10F8013B13F010
:1001D000070408BF10F8014B1D1108BF10F8015BA0
:1001E000641E05D010F8016B641E01F8016BF9D193
:1001F00013F0080F1EBF10F8014BAD1C0C1B09D1EA
:100200006D1E58BF01F801CBFAD505E014F8016B5B
:1002100001F8016B6D1EF9D59142D6D370470000ED
:100220000023002400250026103A28BF78C1FBD8FF
:10023000520728BF30C148BF0B6070471FB505F09B
:10024000E9F81FBD10B510BD00F0A6F91146FFF783
:10025000F5FF03F031FC00F0C4F903B4FFF7F2FF3F
:1002600003BC00F0CBF900002C4B19680868B0E81B
:10027000F04F80F30988BFF36F8F4FF0000080F3D9
:10028000118870470000000008480068006880F38B
:1002900008884FF0000080F3148862B661B6BFF39F
:1002A0004F8FBFF36F8F00DF00BF00BF08ED00E08E
:1002B000DFF80C00016841F470010160704700BF75
:1002C00088ED00E0EFF30980BFF36F8F134B1A68DE
:1002D0001EF0100F08BF20ED108A20E9F04F1060CB
:1002E00009B44FF0500080F31188BFF34F8FBFF374
:1002F0006F8F04F005FB4FF0000080F3118809BCFC
:1003000019680868B0E8F04F1EF0100F08BFB0EC95
:10031000108A80F30988BFF36F8F70474800002070
:10032000EFF30580704700000948804709480047FF
:10033000FEE7FEE7FEE7FEE7FEE7FEE7FEE7FEE795
:10034000FEE7FEE704480549054A064B70470000F2
:10035000A13100088901000868500020685600207B
:10036000685200206852002053EA020C00F06980B5
:100370002DE9F04B4FF00006002B1FBFB3FA83F5B9
:1003800003FA05F424FA05F65E4012BF1643B2FAEA
:1003900082F502FA05F4C5F120051EBF22FA05FC1C
:1003A00044EA0C04203556EA044C4FEA144418BFC2
:1003B000641C4FF000084FF00009904271EB030CF1
:1003C00039D3002919BFB1FA81F701FA07F6B0FA5B
:1003D00080F700FA07F6C7F120071EBF20FA07FCD6
:1003E00046EA0C062037B6FBF4FCA7EB0507103FE6
:1003F00007F01F0BCBF120060CFA0BFB2CFA06F6CC
:1004000044BFB3460026202FA4BF5E464FF0000B2A
:100410005BEA060C08BF4FF0010B19EB0B09ABFBB5
:10042000027C48EB0608C01B06FB02CC0BFB03CC8E
:1004300071EB0C01C1E70B46024641464846BDE858
:10044000F08B13B54FF000004FF00001AFF30080C8
:10045000BDE81C407047032A40F2308010F0030CC6
:1004600000F0158011F8013BBCF1020F624498BF07
:1004700011F801CB00F8013B38BF11F8013BA2F1A4
:10048000040298BF00F801CB38BF00F8013B11F01F
:10049000030300F02580083AC0F0088051F8043BBF
:1004A000083A51F804CBA0E80810F5E7121D5CBF2C
:1004B00051F8043B40F8043BAFF30080D20724BF5F
:1004C00011F8013B11F801CB48BF11F8012B24BFF3
:1004D00000F8013B00F801CB48BF00F8012B704742
:1004E00010B5203AC0F00B80B1E81850203AA0E8CF
:1004F0001850B1E81850A0E81850BFF4F5AF5FEA03
:10050000027C24BFB1E81850A0E8185044BF18C9B5
:1005100018C0BDE810405FEA827C24BF51F8043B5C
:1005200040F8043B08BF7047D20728BF31F8023BB0
:1005300048BF11F8012B28BF20F8023B48BF00F844
:10054000012B70474FF0000200B5134694469646C3
:10055000203922BFA0E80C50A0E80C50B1F12001D6
:10056000BFF4F7AF090728BFA0E80C5048BF0CC084
:100570005DF804EB890028BF40F8042B08BF7047E2
:1005800048BF20F8022B11F0804F18BF00F8012B54
:100590007047704770477047754600F02BF8AE46BD
:1005A00005006946534620F00700854618B020B57F
:1005B000FFF7C8FEBDE820404FF000064FF00007EF
:1005C0004FF000084FF0000B21F00701AC46ACE8FB
:1005D000C009ACE8C009ACE8C009ACE8C0098D4668
:1005E000704710B50446AFF300802046BDE81040C8
:1005F000FFF733BE0048704708500020014918201B
:10060000ABBEFEE7260002007047FEE738B50E4C91
:100610004FF4007525600025A560E560082525617B
:100620000A4C050A25706070080AA070E170100A73
:1006300020716271180AA071E3716B46224602496B
:10064000034800F023FA38BD78440020B2000020AF
:100650000004002038B50E4C40F2FF15256000253F
:10066000A560E560082525610A4C050A25706070C3
:10067000080AA070E170100A20716271180AA07156
:10068000E3716B4622460249034800F0FFF938BD8A
:1006900078440020B20000200004002000B58BB098
:1006A00000200121CDE906010891009001900290FF
:1006B0000390059004906946024800F055FA0BB08B
:1006C00000BD000000040020014800F048BB00000D
:1006D0000004002038B50E4C4FF40075256000254D
:1006E000A560E560082525610A4C050A2570607043
:1006F000080AA070E170100A20716271180AA071D6
:10070000E3716B4622460249034800F0BFF938BD49
:1007100078440020B20000202804002000B58BB0EF
:1007200001210020CDE9060108910E2100900991D8
:10073000019002900591039004906946024800F0F0
:1007400013FA0BB000BD000028040020014800F09F
:1007500006BB00002804002010B5044600F070FD20
:100760000221204600F080F9002803D0BDE81040A7
:1007700000F001B910BD000070B5304E002406F144
:10078000680500BF96ED0B0A02F0EEF905EB840058
:10079000641C80ED000A042CF4DB02F046FF274EB7
:1007A000D5ED000A4836012096ED000A30EE200A09
:1007B00002F0CEFB06F11004022084ED000A96ED53
:1007C000010AD5ED010A30EE200A02F0C1FB84EDEA
:1007D000010A96ED020AD5ED020A032030EE200A46
:1007E00002F0B6FB84ED020A96ED030AD5ED030A8A
:1007F000042030EE200A02F0ABFB84ED030ABDEECC
:10080000C00A10EE100A94ED020A03B2BDEEC00A4F
:1008100010EE100A94ED010A02B2BDEEC00A10EE0D
:10082000100A94ED000ABDE87040BDEEC00A01B2A6
:1008300010EE100A00B2FFF7E9BE00009C44002051
:10084000134910B591ED000A01F10C0010EE102AC9
:10085000026091ED010A10EE102A426091ED020A49
:1008600010EE101A81600B494A6A00EE102AB1EEB0
:10087000400A80ED030A8A6A0261C96A416100F098
:10088000D7F800F0BBF8BDE8104000F077B80000E2
:10089000904400204A4F002070EE801A1248B5EEB6
:1008A000C01A71EE811AC0ED001A70EE601A71EE76
:1008B000811AC0ED011AF1EE601A71EEC01A30EE25
:1008C000C00A71EE811A30EE010AC0ED021AF1EE93
:1008D00010FA80ED030A06D04838816A00EE101A3B
:1008E00010EE101AC1627047E4440020014800F085
:1008F00035BD00002005002001681823CAB2103A57
:10090000B2FBF3F2054B6FF30901032A9B5CC3654D
:1009100000D9091D8165084670470000245500086C
:1009200010B5014600208B698A6A4FF0C07453B13C
:10093000B3F5005F15D072B1012A0CD0022A0AD09B
:10094000032A09D104E01AB1012A06D0022A03D1F0
:10095000C96AC90100D5012010BDC96AA142FAD0F7
:1009600010BD002AF7D0012AF2D0022AF3D0032AC0
:10097000F3D010BD704772B6FEE7000030B51B48DB
:100980001B4D0246016AC36900EE101A00EE903A50
:10099000526A30EE600A10EE104AB7EE000AAC421E
:1009A00004D900EE902A30EE800A0EE000EE901A94
:1009B00001EE103A0F4C70EEC10A10EE903AA342CD
:1009C00006DD00EE902A30EEC00A10EE102A4262D8
:1009D00000EE101A416A9FED081A00EE901A00EE20
:1009E000810A10EE101A816230BD00009C44002084
:1009F000000096C3000096430000B4430A4A0B4926
:100A00001378C868012B02D18861002313700A6A29
:100A1000CA6100EE100A886900EE900A30EE600AA2
:100A200010EE100A086270479C0100209C440020D0
:100A30000A48DFED0B0A816800EE101A094980EEC2
:100A4000201A91ED020AC16A00EE901A21EE000A06
:100A500030EE800A10EE101AC16270479C440020EC
:100A6000000025449C01002090F82020012A07D096
:100A7000022A05D0416A41F4802141620120704779
:100A8000006842690A43426100207047F0B590F85F
:100A900020500468A468012D05D0022D03D0416ABE
:100AA00041F480215DE014F0406F01D1E50055D59F
:100AB000C4F30164022C03D9416A41F4000150E0FF
:100AC0000125A5401D608D684FF4C0739DB1CE68AF
:100AD00035434E6845EAC605066803EB0417F55131
:100AE0004FF4C275076805EB04150E697E51097D48
:100AF000012905D009E00E88CD6845EA4655EBE7A7
:100B000001684E5946F480764E511179D57956795F
:100B100041EA056195792D0445EA062529434FF4FC
:100B2000C676056806EB0416A9511178D57841EA16
:100B30000561957852782D0445EA022211434FF45D
:100B4000C475026805EB04155151006803EB0411EC
:100B5000425842F0010242500020F0BD416A41F487
:100B6000001141620120F0BD10B590F82020012A4B
:100B700007D0022A05D0416A41F480214162012058
:100B800010BD3B48D0F8002242F00102C0F800221C
:100B9000D0F8002222F47C52C0F80022D0F80022C3
:100BA0004B6A42EA0322C0F800220A7D02F01F03CA
:100BB00001229A40D0F81C329343C0F81C32CB6912
:100BC000B3B9D0F80C329343C0F80C328C894B681F
:100BD00064F31F434C6900EBC404C4F840320C8931
:100BE0000B6864F31F434C6900EBC404C4F844323F
:100BF000CB69012B16D1D0F80C321343C0F80C325C
:100C00000C884B6864F31F434C6900EBC404C4F8C0
:100C100040320C89CB6864F31F434C6900EBC40479
:100C2000C4F844328B69002BD0F804320ED0134341
:100C3000C0F804320B69002BD0F8143208D01343EB
:100C4000C0F81432096A012904D008E09343EFE7A1
:100C50009343F5E7D0F81C121143C0F81C12D0F8EA
:100C6000001221F00101C0F80012002010BD0000A8
:100C700000640040704730B590F82040012C05D04A
:100C8000022C03D0416A41F480215DE00468002910
:100C900055D02469A40754D04FF4D874056804EBE8
:100CA00001142D5915F00405956005682D594ED095
:100CB000ED08556005682C5904F00204D4604FF427
:100CC000DA74056804EB01142D5905F00F05156160
:100CD00005682D59C5F30725956105682C59240C25
:100CE00054614FF4DC72046802EB0112A4581C70CA
:100CF0000468A458240A5C700468A458240C9C70EE
:100D00000468A258120EDA704FF4DE72046802EB27
:100D10000112A4581C710468A458240A5C71046868
:100D2000A458240C9C710468A258120EDA71006851
:100D300081B1016941F020010161002030BDE4680A
:100D4000A8E7416A41F400114162012030BD6D0DF8
:100D50001560AFE7C16841F02001C160EDE72DE902
:100D6000F05F0546006800244669D0F80490876863
:100D7000D0F80CB0D0F810A0D0F81880F10748D007
:100D8000F90714D001218160B80703D5284600F087
:100D900084FA0CE0780702D54FF4006407E03807C6
:100DA00002D54FF4805402E0284600F075FAF805A9
:100DB00016D529684FF480708860B80503D5284699
:100DC00000F06DFA0CE0780502D544F4005407E019
:100DD000380502D544F4804402E0284600F05EFA6B
:100DE000F80316D529684FF480308860B80303D51E
:100DF000284600F056FA0CE0780302D544F400448B
:100E000007E0380302D544F4803402E0284600F0BD
:100E100047FA300707D55FEACB6004D52968102070
:100E200044F40074C86070074FF0080707D55FEA04
:100E30000B7004D52868C760284600F099F9B00700
:100E400006D52868C068800702D0284600F092F9CD
:100E5000700607D55FEACA6004D52968102044F4FB
:100E600080640861B00607D55FEA0A7004D5286877
:100E70000761284600F0E0F9F00606D52868006909
:100E8000800702D0284600F0D8F9B00308D55FEA01
:100E9000C96005D5296810204860284600F0CEF9C1
:100EA000F00307D55FEA097004D528684760284633
:100EB00000F0F8F9300446D55FEA497040D5F005F6
:100EC00004D55FEAC87001D044F00104B00504D530
:100ED0005FEA887001D544F00204700504D55FEA2A
:100EE000487001D544F00404300529D518F0700F7E
:100EF00026D008F07000402815D006DC102809D054
:100F000020280AD0302816D10AE050280ED06028B8
:100F100011D10EE044F008040DE044F010040AE0A2
:100F200044F0200407E044F0400404E044F080046E
:100F300001E044F480742868816921F070018161C6
:100F4000296804204860002C05D0686A2043686244
:100F50002846FFF78FFEBDE8F09F70B5040003D070
:100F600094F8200010B104E0012070BD204600F08C
:100F700081F82068016841F00101016000F026FC61
:100F80000546052604E000F021FC401B0A2811D884
:100F900020684068C007F6D02068016821F002018F
:100FA000016000F013FC05460BE000F00FFC401B55
:100FB0000A2806D9606A40F40030606284F8206034
:100FC000D2E7206840688007EFD4207E012820689F
:100FD00001683DD021F080010160607E0128206819
:100FE000016838D021F040010160A07E012820680E
:100FF000016833D021F020010160E07E01282068E3
:1010000001682ED041F010010160207F0128206886
:10101000016829D021F008010160607F0128206863
:10102000016824D021F004010160D4E902010843E1
:10103000D4E90412114308436168491E084321683A
:10104000C86100206062012084F82000002070BD8B
:1010500041F08001C0E741F04001C5E741F02001C7
:10106000CAE721F01001CFE741F00801D4E741F0D1
:101070000401D9E7F0B587B0044614216846FFF7AC
:1010800061FA364B3648DFF8D0E01968D4F800C072
:10109000334A03250226092710300024491CF44551
:1010A00022D11960012907D1016841F00071016066
:1010B000006800F000700590106840F008001060B3
:1010C0001068CDE9005600F00800CDE904706946CB
:1010D0002448CDE9024500F07BFA002205211420C6
:1010E00000F012FC142032E0DFF87CE0F44530D14F
:1010F000D0F800C04CF0806CC0F800C0D0F800C040
:1011000001290CF0806CCDF814C0196007D101687A
:1011100041F000710160006800F0007005901068F7
:1011200040F002001060106802AB00F00200059071
:101130006020CDE9000683E8B00069460B4800F066
:1011400047FA00220521402000F0DEFB402000F09D
:10115000CDFB07B0F0BD000000640040340000206B
:1011600030380240000C0240006800400004024099
:101170007047000070B5054600682B492B4C8CB0B9
:10118000884224D107AB6A4600212846FFF773FD49
:101190000098A0F20120062819D8C0B22070244E71
:1011A000C0EBC00006EB800081694A1C32298261D5
:1011B00007A902D802F04EFC01E002F050FC2078B2
:1011C00007A9C0EBC00006EB800002F048FC1949FB
:1011D0002868884225D109AB6A4600212846FFF7D6
:1011E0004AFD0098A0F2012006281AD8C0B2104D7E
:1011F0006070C0EBC000E03505EB800081694A1CDF
:101200003229826109A902D802F024FC01E002F02F
:1012100026FC607809A9C0EBC00005EB800002F055
:101220001EFC0CB070BD000000640040B000002047
:10123000B8420020006800407047704770470000C7
:1012400070B5044690F82000012804D0606A40F48C
:101250000020606218E0022084F820002068016805
:1012600021F00101016000F0B1FA05460EE000BF77
:1012700000F0ACFA401B0A2808D9606A40F400303C
:101280006062052084F82000012070BD206840685D
:10129000C007EDD1606270BD7047704770477047FE
:1012A0007047704770472DE9F0410446876D00F0A4
:1012B0008DFA064694F835000025022806D08020D5
:1012C000606584F834500120BDE8F0812068016831
:1012D00021F0160101602068416921F0800141611F
:1012E000206C08B9A06C20B12068016821F00801C9
:1012F00001602068016821F0010101600CE000F04C
:1013000065FA801B052807D920206065032084F832
:10131000350084F83450D7E720680068C007EED164
:1013200094F85C103F208840B860012084F83500B4
:1013300084F834500020C7E790F83510022903D014
:101340008021416501207047052180F83510006833
:10135000016821F001010160002070472DE9F84388
:1013600004464FF00009CDF8009063484FF4165141
:10137000A56D0068B0FBF1F72E6894F85C100820AA
:1013800000FA01F131420FD021680A6852070BD5EB
:101390000A6822F004020A6094F85C108840A86091
:1013A000606D40F00100606594F85C104FF001083A
:1013B00008FA01F0304208D021684969090604D5CD
:1013C000A860606D40F00200606594F85C10042035
:1013D0008840304208D021680968890704D5A86090
:1013E000606D40F00400606594F85C101020884047
:1013F000304218D021680968090714D5A860206810
:101400000168490304D50068000308D5A16C07E012
:101410000168C90503D4016821F008010160216C4D
:1014200009B12046884794F85C102020884030425B
:1014300031D021680968C9062DD5A86094F8350017
:1014400005282068016806D0490347D500680003D5
:101450001DD4616C1CE021F0160101602068416917
:1014600021F080014161206C08B9A06C20B1206896
:10147000016821F00801016094F85C103F20884069
:10148000A86084F8358084F83490216D1FE0E16B0A
:1014900009B120468847606D00282BD0606DC007D9
:1014A00014D0052084F835002068016821F001017E
:1014B00001600098401C0090B84203D82068006882
:1014C000C007F6D184F8358084F83490E16C0029A7
:1014D00010D001B02046BDE8F04308470168C905B7
:1014E000D5D4016821F01001016084F8358084F8BA
:1014F0003490CCE7BDE8F883440000202DE9F041AA
:10150000044600F063F906465CB1022084F8350019
:10151000002584F834502068016821F00101016041
:101520000DE00120BDE8F08100F050F9801B052896
:1015300005D920206065032084F83500F2E7206893
:101540000068C007F0D12268116820480140D4E942
:1015500001031843D4E9033633431843636918433E
:10156000A3691843E3691843236A18430843616A6F
:10157000042903D1D4E90B131943084310602068F0
:101580004069666A20F0070130460E4301270428AF
:101590000CD1A06A0643E06A40B12046FFF7C0F9CB
:1015A00020B14020606584F83570BAE72068466154
:1015B0002046FFF7A1F994F85C203F21914081601B
:1015C000656584F835700020ACE700003F8010F0BE
:1015D0002DE9F84FDFF8BCA10022012503264FF0CA
:1015E0000F090AF1040BAAF1040E00BF0B6805FAFB
:1015F00002F42340A34270D10F7907F00307012FB3
:1016000001D0022F16D187684FEA420806FA08FC7B
:1016100027EA0C07D1F80CC00CFA08FC4CEA070CBE
:10162000C0F808C04768A7430C79C4F3001494407D
:101630003C4344600C79E443A4070AD0C4684FEAF1
:10164000420C06FA0CF7BC438F6807FA0CF72743E5
:10165000C7600C7904F00304022C12D1D40800EB0B
:10166000840CDCF820405707FF0E09FA07F824EA3B
:101670000804D1F8108008FA07F848EA0408CCF802
:10168000208004684FEA420C06FA0CF7BC430F793D
:1016900007F0030707FA0CF7274307604C6814F4B8
:1016A000403F70D03C4C276847F48047276024684F
:1016B00022F0030704F480440094384C07EB040C38
:1016C000DCF8084897074FEA177809FA08F7BC438F
:1016D000334FB84202D1002724E054E0314FB842E2
:1016E00001D101271EE0304FB84201D1022719E095
:1016F0002E4FB84201D1032714E02D4FB84201D13B
:1017000004270FE02B4FB84201D105270AE02A4FEA
:10171000B84201D1062705E0284FB84201D107277A
:1017200000E0082707FA08F72743CCF80878DAF82A
:1017300000405746D1F804C09C435FEACC2C00D54A
:101740001C433C60DBF800405F46D1F804C09C437A
:101750005FEA8C2C00D51C433C60DEF800407746E5
:10176000D1F804C09C435FEA8C3C00D51C433C602C
:10177000084F083F3C68D1F804C09C435FEACC3C6A
:1017800000D51C433C60521C102AFFF42FAFBDE86B
:10179000F88F0000083C014044380240003001400E
:1017A000000002400004024000080240000C024019
:1017B000001002400014024000180240001C0240C9
:1017C0000AB1816170470904FBE7000001488068A5
:1017D00070470000380000200248816802781144F8
:1017E00081607047380000200B4810B5016841F453
:1017F00000710160016841F480610160016841F499
:1018000080710160032000F09FF80F2000F006F8BF
:1018100000F050F8002010BD003C024030B50546F5
:101820001F4887B00024016841F010010160006882
:1018300006A900F01000009001A800F031F904980A
:10184000A8B100F04DF940001649174AB0FBF1F17C
:101850001648491E026040F2E732C0E90324C0E99D
:101860000114846100F08EFB040003D015E000F049
:1018700037F9E9E70D4800F0C7FB04000DD1362029
:1018800000F034F8102D07D200222946362000F04F
:101890003BF80748056000E0012407B0204630BD52
:1018A0004038024040420F000010004080050020F8
:1018B0003C0000200C4882B0016841F48041016086
:1018C000006800F4804000900748001F016841F064
:1018D000805101600068002200F0805000900F21CC
:1018E000901E02B000F010B844380240002809DB16
:1018F00000F01F02012191404009800000F1E0202A
:10190000C0F8001170470000F0B40E4B1B680C4685
:10191000C3F30223C3F10705042D00D90425191DC3
:10192000072901D2002300E0DB1E012606FA05F19B
:10193000491E214099409E40761E16403143F0BC1E
:1019400001F074BE0CED00E0064900F007020868E3
:101950004FF6FF03184040EA0220034A1043086094
:10196000704700000CED00E00000FA052DE9F0479B
:101970000E46050065D0DFF81481D8F80000F7B2F4
:1019800000F00700B04207D288F80070D8F80000D5
:1019900000F00700B04254D128683D4C810712D5B1
:1019A000400703D5206840F4E05020602878000705
:1019B00003D5206840F4604020602068A96820F0CA
:1019C000F000084320602878C0072DD030496868AF
:1019D0000839012812D0022813D0032811D0096831
:1019E000890700292DDA216821F0030101432160D4
:1019F000FFF7ECFE814641F2883A0EE00968890360
:101A0000EFE709688901ECE7FFF7E0FEA0EB0901C9
:101A1000514502D90320BDE8F0872068696800F0CD
:101A20000C00B0EB810FEFD1D8F80010404601F068
:101A30000701B14207D90770006800F00700B04203
:101A400001D00120E7E72878400705D52068E9683C
:101A500020F4E050084320602878000706D520686D
:101A6000296920F4604040EAC100206000F058F885
:101A70002168084AC1F30311515CC8400649086057
:101A800006480068FFF7CAFE0020C4E7003C024099
:101A9000083802402C550008440000203C0000207B
:101AA0000F2202600C4A136803F0030343601368BB
:101AB00003F0F0038360136803F4E053C36012681B
:101AC0004FF4E05303EAD20202610448006800F0D8
:101AD000070008607047000008380240003C0240E0
:101AE0000448054900680968044AC1F38221515C31
:101AF000C840704744000020083802403C550008A8
:101B00000448054900680968044AC1F34231515C40
:101B1000C840704744000020083802403C55000887
:101B2000154810B5006810F00C02144813D0144981
:101B3000042A0FD0082A0ED10F4C241F22682368D4
:101B400002F03F025B0207D52068C0F38810A0FBBB
:101B5000010106E0084610BD2168C1F38811A1FB10
:101B600000010023FEF700FC2168C1F30141491C7C
:101B70004900B0FBF1F010BD083802400024F40029
:101B8000001BB7002DE9F84F04006ED02078DFF875
:101B90004C93C007A9F104054AD009F1040001687B
:101BA000C1F38101012908D00068C0F38100022837
:101BB0000AD1D9F80000400206D52868800337D53D
:101BC00060680028E1D033E06068B0F5803F10D055
:101BD000B0F5A02F286810D020F480302860286845
:101BE00020F4802028606068A8B1FFF7EFFD06466A
:101BF0000DE0286840F48030F4E740F4802028604D
:101C0000F7E700BFFFF7E2FD801B642873D8286860
:101C10008003F7D50CE0FFF7D9FD064605E000BFCD
:101C2000FFF7D4FD801B6428F0D828688003F7D420
:101C30002078DFF8AC8280074FF0000A3ED5A74835
:101C4000001D016811F00C0F08D00068C0F381007E
:101C500002280BD1D9F80000400207D42868800779
:101C600016D5E068012800D112E033E1E068B8B190
:101C70000120C8F80000FFF7A9FD064605E000BFF7
:101C8000FFF7A4FD801B0228C0D828688007F7D57D
:101C90002868216920F0F80040EAC10028600DE0C2
:101CA000C8F800A0FFF792FD064604E0FFF78EFD9E
:101CB000801B02281FD828688007F7D420780007E7
:101CC00022D5864F87486169703771B10121016063
:101CD000FFF77CFD064604E0FFF778FD801B022835
:101CE00009D838688007F7D50EE0C0F800A0FFF7E4
:101CF0006DFD064605E082E0FFF768FD801B0228C7
:101D00007DD838688007F7D42078400768D5DFF899
:101D1000CCB100270BF13C0BDBF80000C0000BD46A
:101D2000DBF8001041F08051CBF80010DBF8000028
:101D3000012700F0805000906B4E3068C00510D431
:101D4000306840F480703060FFF740FD009005E09F
:101D5000FFF73CFD0099401A022850D83068C005B2
:101D6000F6D55E4EA0686C3601280FD00528306885
:101D700010D020F001003060306820F004003060A6
:101D8000A068B8B1FFF722FD00900FE0306840F086
:101D90000100F4E740F004003060F7E7FFF716FDBC
:101DA0000099411A41F28830814266D83068800734
:101DB000F4D50EE0FFF70AFD009007E0FFF706FDFF
:101DC0000099411A41F28830814256D83068800724
:101DD000F4D42FB1DBF8001021F08051CBF80010C3
:101DE000A069C8B33D49091D0968C1F381010229F1
:101DF0004AD00228504607D0C8F8600000E03CE016
:101E0000FFF7E4FC04463BE04746C8F86000FFF7F4
:101E1000DDFC064605E000BFFFF7D8FC801B02286A
:101E20002BD828688001F7D4D4E907010843A16AB8
:101E30002E4A490802EB0141626A41EA82110843D5
:101E400094F82C1040EA0161C9F8001001203866AE
:101E5000FFF7BCFC044606E03EE000BFFFF7B6FC1F
:101E6000001B022809D828688001F7D534E000BF9C
:101E7000FFF7ACFC001B022802D90320BDE8F88F55
:101E800028688001F4D427E00128F7D0D9F80000B1
:101E9000E26900F4800191421CD1226A00F03F0106
:101EA000914217D147F6C071626A0140B1EB821FBF
:101EB00010D1A26A4FF0FF3300F4403103EB52021D
:101EC000B1EB024F06D194F82C1000F07060B0EB2B
:101ED000016F01D00120D1E70020CFE70438024094
:101EE00000004742800E4742007000400000FFFFA4
:101EF0007047704770B590F83C20012A32D0012419
:101F000080F83C40022280F83D2003685A689D68B2
:101F100022F070060A6832435A60134B02689A42F4
:101F200014D0B2F1804F11D0104B9A420ED0104B0A
:101F30009A420BD00F4B9A4208D00F4B9A4205D0D1
:101F40000E4B9A4202D00E4B9A4204D1496825F0BA
:101F500080031943916080F83D40002180F83C10D7
:101F6000084670BD022070BD000001400004004022
:101F700000080040000C0040000401400040014007
:101F80000018004010B5040003D094F83D0010B1D3
:101F900007E0012010BD002084F83C00204600F03E
:101FA0001FF8022084F83D00211D206801F006F989
:101FB000012084F8460084F83E0084F83F0084F84D
:101FC000400084F8410084F8420084F8430084F81B
:101FD000440084F8450084F83D00002010BD000056
:101FE00008B500680649884208D10648016841F0F2
:101FF00001010160006800F00100009008BD0000D0
:10200000000001404438024090F83D10012901D001
:1020100001207047022180F83D100168CA6842F033
:102020000102CA6000681149884214D0B0F1804FA3
:1020300011D00F4988420ED00E4988420BD00E496C
:10204000884208D00D49884205D00D49884202D007
:102050000C49884204D1816801F00701062903D0A8
:10206000016841F00101016000207047000001405B
:102070000004004000080040000C00400004014043
:10208000004001400018004070B5044690F83C0044
:102090000025012817D0012684F83C60022084F82E
:1020A0003D002068826822F0770222F47F4282603D
:1020B0000868502838D00DDC20284FD005DC90B3BC
:1020C000102811D14AE0022070BD302846D04028A7
:1020D0000AD13BE060282FD070280DD0B0F5805F8A
:1020E00003D0B0F5005F12D0012584F83D600020D8
:1020F00084F83C00284670BDCB68D1E901212068F6
:1021000001F0C0F82068816841F0770109E0CB68F0
:10211000D1E90121206801F0B5F82068816841F417
:1021200080418160E1E719E0CA684968206801F0F0
:10213000BBF85021206806E0CA684968206801F0B1
:10214000C4F86021206801F0A7F8CEE7CA684968A2
:10215000206801F0A9F840212068F4E722680146D0
:102160001046F0E7704770B50446006801694FF00B
:102170000005C943890715D4C168C943890711D42B
:10218000E91E0161012020772068806980072046D0
:1021900002D0FFF7E7FF04E000F098F8204600F0D7
:1021A00096F8257720680169C943490717D4C168A3
:1021B000C943490713D46FF004010161022020775D
:1021C0002068806910F4407F204602D0FFF7CAFFE4
:1021D00004E000F07BF8204600F079F825772068CD
:1021E0000169C943090716D4C168C943090712D454
:1021F0006FF008010161042020772068C069800722
:10220000204602D0FFF7AEFF04E000F05FF8204662
:1022100000F05DF8257720680169C943C90617D425
:10222000C168C943C90613D46FF0100101610820C9
:1022300020772068C06910F4407F204602D0FFF765
:1022400091FF04E000F042F8204600F040F82577C6
:1022500020680169C943C90708D1C168C943C907D2
:1022600004D1891E0161204600F032F8206801691E
:10227000C943090609D4C168C943090605D46FF0EA
:10228000800101612046FFF733FE20680169C943E0
:10229000490609D4C168C943490605D46FF0400115
:1022A0000161204600F01EF820680169C9438906D3
:1022B0000BD4C168C943890607D46FF020010161BE
:1022C0002046BDE87040FFF714BE70BD70477047F0
:1022D00000680349884201D1FFF77EBA70470000C9
:1022E000001000407047704770470000F8B5016863
:1022F00004460868CA684B6910F00F0F4FF00005DC
:1023000059D003F0010602F49077374365D0C10736
:1023100005D0D10503D5216C41F0010121644107AD
:1023200005D5D90703D0216C41F002012164810752
:1023300005D5D90703D0216C41F0040121640107C0
:1023400007D502F02001314303D0216C41F0080190
:102350002164216C00293AD0800604D5900602D56C
:10236000204600F0F3FF20684069216CC0F3801024
:10237000090700D460B3204600F0C1FF206840691F
:10238000400621D52068143050E8001F21F040019C
:1023900040E80012002AF5D1A06BA8B16C49016594
:1023A000A06BFEF7C9FF002811D0A06B016D01B032
:1023B000BDE8F040084783060FD593060DD52046AB
:1023C000BDE8F84000F0C2BF2046FFF78DFFF8BD22
:1023D0002046FFF789FF2564F8BD266B2023012ED8
:1023E00079D1C60677D5D60675D5086848680090B5
:1023F0004869400640D5A16B086840680004000C9D
:10240000EAD0A28D8242E7D9E085C869B0F5807F25
:102410002DD020680C3050E8001F21F4807140E876
:102420000012002AF5D12068143050E8001F21F076
:10243000010140E80012002AF5D12068143050E86C
:10244000001F21F0400140E80012002AF5D184F875
:102450003E30256320680C3050E8001F21F0100149
:1024600040E80012002AF5D1A06BFEF71CFFA08DFA
:10247000E18D401A81B229E0A08DE18D401A81B230
:10248000E08D0028A8D00029A6D020680C3050E8A4
:10249000002F22F4907240E80026002EF5D120682B
:1024A000143050E8002F22F0010240E80026002EF0
:1024B000F5D184F83E30256320680C3050E8002FB9
:1024C00022F0100240E80023002BF5D12046FFF750
:1024D0000AFFF8BDFFE705062BD5150629D594F8A8
:1024E0003D002128F5D1A068B0F5805F01D12069B9
:1024F000B0B1206A411C2162216800784860E08CFC
:10250000401E0004000CE084E3D12068C16821F083
:102510008001C1602068C16841F04001C160D8E716
:10252000206A0088C0F308004860206A801C20628E
:10253000E5E74006CDD55006CBD5CA68204622F047
:102540004002CA6084F83D3000F0F2F8C1E70000B4
:10255000EF32000870B5040004D094F83D00002567
:1025600010B106E0012070BD84F83C50204600F018
:1025700023F8242084F83D002068C16821F400512C
:10258000C160204600F042FF2068016921F49041BB
:1025900001612068416921F02A0141612068C16818
:1025A00041F40051C1602564202084F83D0084F886
:1025B0003E00002070BD0000F0B587B00546142134
:1025C0006846FDF7BFFF414B2968002440480226BA
:1025D00003270722994236D13D49254614310B681D
:1025E00043F010030B60096801F0100105910168C8
:1025F00041F002010160016801F0020105910168EA
:1026000041F0010101600068029500F001000590B1
:102610008020CDE90006CDE90372144669462D48B5
:10262000FEF7D6FF3002CDE900060295CDE903742E
:1026300069462948FEF7CCFF002205212520FFF737
:1026400063F925203EE0254B99423DD120491031C8
:102650000B6843F480230B60096801F48021059125
:10266000016841F0040101600068029400F0040078
:1026700005904FF44060CDE90006CDE9037269464C
:102680001748FEF7A5FF184E164830604FF000605F
:10269000C6E901044014C6E9034074614FF44030B8
:1026A000B461C6E9074030467462FEF727FF08B1FF
:1026B000FEF761F9AE63002205212720B563FFF71D
:1026C00023F92720FFF712F907B0F0BD00100140F1
:1026D0003038024000040240000002400048004040
:1026E00000080240286002402005002090F83E309B
:1026F000202B0ED159B152B190F83C30012B08D0AB
:10270000012380F83C300023036300F005BF012063
:10271000704702207047000000680349884202D1D8
:10272000024800F007B87047001001408E4F0020AB
:102730007047FEE730B52F4C05460021552802D1E1
:10274000685C53280AD0685C491C7929F6DB00BF15
:10275000B4F90000295C552911D102E0491E2180FD
:10276000F6E728444178532909D10A2100F06EFF89
:102770006080B4F9001029448A7A824201D0002096
:1027800030BDB1F90200DFED1D1A00EE100A1A4843
:102790009FED1B1AF8EEC00A10EE903AC362B1F931
:1027A000042000EE102AF8EEC00A10EE902A00EE87
:1027B000903A8262B1F9061060EEA10A00EE101A9A
:1027C00060EE810AB8EEC00A10EE901A00EE902A70
:1027D00020EE210AC16260EEA10A20EE010A60EE3D
:1027E000810A10EE901A816210EE101A41620120E7
:1027F00030BD0000A80100204A4F00200000003832
:10280000000034430F4810B50D49016003214160B9
:1028100000214FF4C0228160C0E903124FF4A002EE
:102820004261017641768176C17601774177FEF784
:1028300094FB002803D0BDE81040FEF79CB810BD03
:1028400000640040000400200F4810B50D490160ED
:102850000321416000214FF410228160C0E903127E
:102860004FF400124261017641768176C17601779C
:102870004177FEF772FB002803D0BDE81040FEF759
:102880007AB810BD0068004028040020094808B547
:10289000016841F4001101600068002200F400109A
:1028A000009005210C20FFF72FF8BDE808400C2010
:1028B000FFF71CB83038024030B5C5B0002541954F
:1028C000012141A8429501F058F9444C0121E062F0
:1028D000439543A8449501F050F9414D20630DF113
:1028E000C40C95E80F008CE80F00002131A801F01E
:1028F00031F91035E06195E80F000DF1D40C103D71
:102900008CE80F00002135A801F024F92035206261
:1029100095E80F000DF1E40C203D8CE80F0000213C
:1029200039A801F017F93035606295E80F003DAD28
:1029300085E80F0000213DA801F00CF92849A062AC
:102940001C2240316846FDF7CBFD0021684601F0AE
:1029500033F9234920601C225C3107A8FDF7C0FD34
:10296000002107A801F028F91D4960601C22783178
:102970000EA8FDF7B5FD00210EA801F01DF91849BC
:10298000A0601C22943115A8FDF7AAFD002115A80E
:1029900001F012F91249E0601C22B0311CA8FDF7C9
:1029A0009FFD00211CA801F007F90D4920611C22A0
:1029B000CC3123A8FDF794FD002123A801F0FCF8F9
:1029C000074960611C22E8312AA8FDF789FD002132
:1029D0002AA801F0F1F8A06145B030BD0000002048
:1029E0002054000870B586B014216846FDF7AAFD92
:1029F00022480024016841F002010160016801F0F1
:102A000002010591016841F001010160016801F0D6
:102A100001010591016841F008010160016801F0C0
:102A200008010591016841F004010160016801F0AD
:102A300004010591016841F080010160016801F025
:102A400080010591016841F01001016000680C4EA1
:102A500000F010004FF40075059000222946304622
:102A6000FEF7AEFE01200095CDE90104694630462F
:102A70000394FEF7ADFD06B070BD00003038024093
:102A80000010024010B586B000241748009401944D
:102A9000029403940494134905940160A721C0E9AA
:102AA000011444F61F61C0E9031444618461FFF717
:102AB00069FA08B1FDF75FFF4FF480500090694656
:102AC0000948FFF7E1FA08B1FDF755FF049404A99E
:102AD00005480594FFF70EFA002801D0FDF74BFFDB
:102AE00006B010BD00000140500400200C4810B595
:102AF0000A4901604FF4E1314160002181600C22FC
:102B0000C160C0E904128161C161FFF723FD0028A3
:102B100003D0BDE81040FDF72EBF10BD00100140EE
:102B2000980400200D4810B50B4901600C49416024
:102B300000214FF480628160C0E903120422C0E9E1
:102B40000521C161FFF706FD002803D0BDE8104054
:102B5000FDF711BF10BD000000480040DC0400205C
:102B6000A0860100FEE7FEE7064810B5806AF0EE99
:102B7000400A00EE100A044800F008F8024890ED00
:102B8000080A10BD9C440020144E0020A0B1D0EDD6
:102B9000101AC0ED111A90ED0F1A80ED101AC0ED49
:102BA000060A80ED070A30EEC00A80ED0F0A0178B0
:102BB00029B101293BD078E09FED3D0A7047D0ED67
:102BC000010A60EE801AC0ED091AD0ED0A0A90EDF4
:102BD000022A42EE000A30EE410AC0ED0A0A90EDE8
:102BE0000D2A80ED0E2A90ED0C2A80ED0D2A80ED45
:102BF0000C0A90ED031A21EE001A80ED0B1A90EDED
:102C0000050AF4EEC00AF1EE10FA09DCB1EE400A52
:102C1000F4EEC00AF1EE10FA02D390ED0A0A01E0D8
:102C200080ED0A0A31EE800A30EE010A2BE070EEE8
:102C3000410A90ED012A20EE822A80ED092AD0ED8A
:102C4000020A60EE800AC0ED0A0AD0ED0D2A72EE8B
:102C5000200AC0ED0E2AD0ED0C2AC0ED0D2AF0EEB0
:102C6000002A01EE620A30EE210A80ED0C0A90ED96
:102C7000031A21EE000A80ED0B0A30EE800AD0ED37
:102C8000080A30EE200A80ED080AD0ED040AB4EEFE
:102C9000E00AF1EE10FA06DCF1EE600AB4EEE00AAA
:102CA000F1EE10FA01D2C0ED080A90ED080A704763
:102CB0000000000010B5044600F02EF92046BDE8E3
:102CC000104000F063B900002DE9F04700252DED1C
:102CD000068B9FED6BAADFED6BAADFF8AC9109F5CF
:102CE0001074DFED6A9A9FED6A8ADFED6A8A9FEDC4
:102CF0006A9A04F5107604F5906700BF05EBC508E5
:102D000009EBC800F0EE480AB0EE680A634A0021F9
:102D100000F0D4F8614A04EBC800F0EE490AB0EEC6
:102D2000690A0C32002100F0C9F85C4A06EBC800C1
:102D3000F0EE480AB0EE4A0A1832002100F0BEF860
:102D4000564A07EBC800F0EE6A0AB0EE680A243271
:102D5000002100F0B3F86D1C042DCFDBCA4604251A
:102D6000B146B84605EBC50657460AEBC600F0EE7D
:102D7000480AB0EE680A494A002100F09FF8474A25
:102D800004EBC600F0EE490AB0EE690A0C320021ED
:102D900000F094F809EBC600F0EE480AB0EE680ABD
:102DA0003E4A002100F08AF83C4A08EBC600F0EEEB
:102DB000490AB0EE690A0C32002100F07FF86D1C60
:102DC000082DCFDB5FF0040505EBC50607EBC60059
:102DD000F0EE480AB0EE680A304A002100F06EF8C2
:102DE0002E4A04EBC600F0EE490AB0EE690A0C3236
:102DF000002100F063F86D1C062DE5DB0024DFEDFB
:102E0000289A4E46254A04EBC40506EBC500F0EEB1
:102E1000480AB0EE680A3C32002100F04FF81F4A21
:102E200008EBC500F0EE490AB0EE690A483200210D
:102E300000F044F8641C022CE4DB184AF0EE480A67
:102E4000B0EE680A54320021164800F037F8134AF1
:102E5000DFED150A9FED150A60320021144800F0DD
:102E60002DF8B0EE690ABDEC068BBDE8F0470B4AC1
:102E7000DFED100A303200210F4800F01FB80000CB
:102E800000A00C460000FA44144500200000C8438E
:102E90000080BB4500401C46000096432C010020EA
:102EA00000007A45244A00200000000000806D45A3
:102EB000644C00200080A244144E0020002828D03A
:102EC000002A26D0017092ED001A80ED011A92EDD1
:102ED000011A80ED021A92ED021A80ED031A80EDBC
:102EE000040A9FED0C0AC0ED050A80ED0E0A80ED84
:102EF0000D0A80ED0C0A80ED080A80ED0B0A80EDCA
:102F00000A0A80ED090A80ED110A80ED100A80EDB1
:102F10000F0A7047000000000B4AC0EBC00110B55B
:102F200002EB8101F0EE400A11ED040A00EBC00152
:102F30000648B8EEC00A00EBC104A4F14800FFF750
:102F400025FE14ED0A0A10BD98430020D44B002042
:102F50000C4AC0EBC00110B502EB8101F0EE400A53
:102F600031F91A1C00EE101A00EBC0010648B8EE49
:102F7000C00A00EBC104A4F14800FFF707FE14EDFE
:102F80000A0A10BDB8420020144500200C4AC0EBCC
:102F9000C00110B502EB8101F0EE400A31F91A1CB4
:102FA00000EE101A00EBC0010648B8EEC00A00EBB4
:102FB000C104A4F14800FFF7E9FD14ED0A0A10BDB1
:102FC000984300209449002030B5144B1C68656973
:102FD00045F0400565611B68DC6844F01004DC6066
:102FE0000F4B1C68256825F0010525601C682568C5
:102FF000ED07F7D11D680B4CAC601C68E0601868E9
:103000000161186842601868016841F4802101601C
:103010001868016841F00101016030BDDC04002046
:1030200020050020044800402249234AB1EE080A46
:103030000B78B2F9041023B3012B3AD100EE901AA9
:10304000F2EE001AB8EEE02A80ED002AB2F906107E
:1030500022EE212A00EE901AB8EEE01A80ED011A55
:10306000B2F9081021EE211A00EE901A80ED002A24
:1030700080ED011AF8EEE00AF1EE600A20EE800A17
:1030800015E000EE901AB8EEE01A80ED001AB2F9E1
:10309000061021EE001A00EE901A80ED001AF8EEEC
:1030A000E00A20EE800A80ED010A9FED040A80ED1F
:1030B000020A7047BA000020EC4E00200040CEC447
:1030C0000548817A032905D1C07A032802D1034932
:1030D0000120087070470000EC4E0020BA0000206C
:1030E00010B5502080F31188BFF34F8FBFF36F8F5F
:1030F00001F0FCFF18B104494FF080500860002037
:1031000080F3118810BD000004ED00E030B593B0ED
:1031100030216846FDF716FA14210CA8FDF712FAC3
:103120001D480025016841F080510160006800F0F1
:10313000805011901948016841F480410160006895
:10314000022400F4804011900120009000040190BE
:103150008001CDE9064006200890A820CDE90904A9
:1031600004200B906846FEF70DFD08B172B6FEE72D
:103170000CA90F2081E831004FF4A0500F904FF4BC
:103180008050109005210CA8FEF7F0FB002801D01C
:1031900072B6FEE713B030BD403802400070004008
:1031A0000248016841F470010160704788ED00E059
:1031B0000148FEF7D8BF000080050020F0B5026886
:1031C000254C264D264E274F274B4FF0804CA042D2
:1031D00009D0604507D0A84205D0B04203D0B8421C
:1031E00001D0984204D122F0700E4A6842EA0E02E1
:1031F000A0421BD0604519D0A84217D0B04215D0CC
:10320000B84213D0984211D0184DA8420ED0184D94
:10321000A8420BD0174DA84208D0174DA84205D0A0
:10322000164DA84202D0164DA84203D122F4407593
:10323000CA682A434D6922F080022A4302608A68E4
:10324000C2620A688262A04201D0984201D1096933
:10325000016301214161F0BD000001400004004014
:1032600000080040000C0040000401400040014004
:10327000004401400048014000180040001C00408C
:103280000020004010B5846842EA032224F47F4401
:103290000A432243826010BD826822F070020A4312
:1032A00042F007018160704710B5036A046A24F098
:1032B00001040462846924F0F00444EA021423F057
:1032C0000A020A438461026210BD10B5036A23F04A
:1032D000100303628369046A23F4704343EA0232F1
:1032E00024F0A00343EA01118261016210BD10B510
:1032F000806B0021C185C184FEF7F6FF10BD016817
:103300000C3151E8002F22F4907241E80023002B89
:10331000F5D10168143151E8002F22F0010241E893
:103320000023002BF5D1016B012909D101680C3173
:1033300051E8002F22F0100241E80023002BF5D1C4
:10334000202180F83E1000210163704708B590F8F5
:103350003E10222901D0022008BD82684FF480531C
:103360009A4201D1016921B1816A9A421BD04AB1C6
:103370000AE00268816A5268C2F308020A80816A20
:10338000891C08E0026972B10268526802F07F028B
:103390000A70816A491C8162C18D491E0904090CA9
:1033A000C18503D019E002685268F1E70168CA6874
:1033B00022F02002CA600168CA6822F48072CA60E2
:1033C00001684A6922F001024A61202180F83E101A
:1033D000016B012903D0FFF79FF9002008BD0021F0
:1033E000016301680C3151E8002F22F0100241E81E
:1033F0000023002BF5D101680A68D20602D50A68BD
:1034000049680091818DFEF76EFFE6E770B50446CE
:1034100000680169E26821F44051114301612169AA
:10342000A068E26908436169114308432168CA68DA
:1034300049F20C639A430243CA6020684169A26959
:1034400021F440711143416131492068884202D022
:103450003049884202D1FEF753FB01E0FEF740FB02
:10346000E2690023192164253226B2F5004F626813
:1034700028D0A0FB0101930F9200FCF775FF0146D5
:10348000B0FBF5F06FF01802504301EB800006EB43
:103490000010B0FBF5F000F0F002B1FBF5F002EB2C
:1034A0000012B1FBF5F06FF01803584301EB8000F8
:1034B00006EB0010B0FBF5F000F00F00216810449F
:1034C000886070BDA0FB010192185B41FCF74CFFC6
:1034D0000146B0FBF5F00201B1FBF5F06FF0180307
:1034E000584301EB800006EBC000B0FBF5F000F0A4
:1034F000F80002EB4002B1FBF5F0584301EB80000D
:1035000006EBC000B0FBF5F000F00700D6E70000C6
:10351000001001400014014081628285C2850021B3
:103520000164222280F83E2080F83C10016921B11C
:103530000168CA6842F48072CA6001684A6942F050
:1035400001024A610068C16841F02001C1600020A9
:103550007047000010B50548FEF7C8FEBDE81040F2
:10356000792203490148FFF7C1B800009804002000
:103570008E4F0020264818B400680168890604D5DB
:1035800001684068009018BC704722490968C90664
:10359000F9D501684068204A0090106801684FF032
:1035A00024030C031D49046824F00104046016D4AC
:1035B00010684468C4F12404A4B20C80436010680D
:1035C000016841F4002101601068016841F00101C7
:1035D0000160122CD7D1124901F1160015E01468D0
:1035E0006068C0F1240080B2088063600D498B6A76
:1035F00023F400238B6211680A6842F001020A601A
:103600001228C0D1064901F13A0018BC00F066BE8C
:10361000DC04002000480040200500209801002024
:10362000EC4E002000600240FEE770470907090EDB
:10363000002804DB00F1E02080F80014704700F05F
:103640000F0000F1E02080F8141D704710B503460C
:103650000022104604E09C5C521C2044C0B212B20E
:103660008A42F8DB10BD000000F068FADFF804A120
:103670004FF000080AF10806A6F1500505F1340BD9
:1036800005F1580705F138093B480122394900681E
:1036900001F026FB6861012809D19AED000AF1EEDC
:1036A000400AC6ED000A86ED010AC5F814803348C9
:1036B00001223049006801F013FBA861012809D1FB
:1036C0009AED000AF1EE400AC6ED000A86ED010A05
:1036D000C5F818805FF0000406EB840090ED000A46
:1036E000601CFFF7E7FA07EB8400641C80ED000A1A
:1036F000022CF1DB22481F4901221439006801F035
:10370000EFFAE861012805D19BED000A89ED000A76
:10371000C5F81C801B48174901221439006801F0C4
:10372000DFFA2862012805D19BED000A89ED000A25
:10373000C5F8208099ED000A0320FFF7BBFA0D4879
:1037400000230C3880ED000ABDEEC00A10EE100A0E
:1037500097ED010A02B2BDEEC00A10EE100A97ED15
:10376000000A01B2BDEEC00A10EE100A00B2FCF76A
:10377000B1FF89E7140100201C0000202000002078
:1037800024000020280000202DED048B4FF4C87980
:10379000C9F1000A944EDFF854B2954FF7EE009A43
:1037A000DFED948A9FED948A944D9FED959ADFF812
:1037B0005482A5F1400400BFB6F9000048451ADA6A
:1037C0009149E06A884216DDB6F90200C730B0F5CB
:1037D000C77F10D894ED000A10EE101A59450ADA86
:1037E00030EE290A8948002384ED000A1A4619465A
:1037F000006801F0C5F9B6F90000504514DD844AAF
:10380000E16A914210D9B6F90210C731B1F5C77F0C
:103810000AD894ED000AB5EEC00AF1EE10FA03DD05
:103820009FED7C0A84ED000A00EE100AB8EEC00A93
:1038300084ED0B0A94EC020AB4EE600AF1EE10FA81
:103840007ED0D4ED020A10EE100A60EEA81A60EEE7
:10385000890AB84281EE881A21EE001A85ED001A15
:1038600080EE881A61EE000AC5ED010A11DDD4ED83
:10387000030A60EEA81A60EE890A81EE881A21EE2A
:10388000001A85ED001A80EE881A61EE000AC5ED77
:10389000010A10EE100A584511D1D4ED040A60EE69
:1038A000A81A60EE890A81EE881A21EE001A85EDC9
:1038B000001A80EE881A21EE000A85ED010A012324
:1038C0001A464E49D8F8000001F05AF94FF47A70C0
:1038D00000F028F9D4ED000AF5EEC00AF1EE10FA76
:1038E00048D094ED021A10EE900A21EE280A21EE3B
:1038F000091AB842C0EE081A30EEE90A61EE801AE1
:10390000C5ED001AC1EE081A21EE801A85ED011AE4
:1039100011DD94ED031A21EE282A21EE091AC2EED8
:10392000081A61EE801AC5ED001AC1EE081A21EEE0
:10393000801A85ED011A10EE900A584513D100E067
:103940004DE0D4ED040A20EEA81A60EE890AC1EE1B
:10395000081A21EE801A85ED001A80EE881A21EEF1
:10396000000A85ED010A2C4801231A462349006804
:1039700001F006F94FF4966000F0D4F8D4ED020A95
:1039800020EEA80A80EE081A94ED000A10EE100A44
:10399000B84221EE001A85ED001A20EE891AC1EE18
:1039A000080A60EE800AC5ED010A11DDD4ED030AB4
:1039B00020EEA81A60EE890AC1EE081A21EE801ADC
:1039C00085ED001A80EE881A21EE000A85ED010AC5
:1039D00001231A460949D8F8000001F0D1F894ED06
:1039E000000A84ED010AE7E6EC4E002000002041C9
:1039F0000000A040000090C8000014420C0100200C
:103A0000000090481C0000200000C8432C0000204B
:103A10000000C8C3000000002000002040F2651034
:103A200000F0F8FDFFF750F9094C00BFFFF748FB25
:103A30000748FFF7F9FAFCF703FF94EC030AFCF7D9
:103A40002BFFFCF799FE022000F06CF8EEE7000077
:103A500090440020098849BA01808182704710B5DE
:103A6000B0F9003003810A8852BA02804C88D31A18
:103A700064BA44808C88B3F5805F64BA84808979A5
:103A80008171016901DD491E03E013F5805F01DAF0
:103A9000491C016102EB4131828A891AC16010BD63
:103AA00010B5012000F03EF8FBE7EFF30580002899
:103AB00000D0012070470000FDF796FEFFF726FBBF
:103AC000FEF790FFFEF7E2FEFEF79CFEFEF7BCFE5F
:103AD000FFF728F8FFF70AF8FEF7D4FF00F0F6FB2F
:103AE0000948FCF739FE0948FCF736FEFCF7D6FD1D
:103AF000FCF714FE792206490648FEF7F7FDFEF7AB
:103B0000DBFE00F016F8FEE7000400202804002089
:103B10008E4F00209804002001460020842900D008
:103B2000C81C704710B500B9012000F073FD0020DB
:103B300010BD10B500F048FE002010BD10B5FFF715
:103B4000B4FF18B1BDE8104001F0C8BABDE810409C
:103B500001F0BEBA38B5D0E9011204683AB1C368C1
:103B60002BB100200090204600F093FF38BD204686
:103B7000BDE83840002200F06BBF38B543684BB158
:103B8000012909D10320002200901146012000F0F4
:103B900080FF38BD012901D0002038BD032200215B
:103BA000012000F055FF040004D000231A461946F6
:103BB00000F0E6FF204638BD7FB50D46044641695A
:103BC000B0F9080081B1A16971B1FFF7A5FFD4E98F
:103BD00005128DE80700D4E900102B46226901F098
:103BE0003EFA039004B070BDFFF796FF03A9CDE93C
:103BF0000001208A2B4682B2D4E9001001F002FABB
:103C0000012801D00020EDE70398EBE7002000F049
:103C100011FE114F114E4FF496744FF40075B87A9F
:103C2000032801D00128FAD12046FFF77BFF0122AB
:103C300029463046FDF7C4FD2046FFF773FF0022FA
:103C400029463046FDF7BCFD2046FFF76BFF0020FC
:103C500000F0F0FDE3E70000EC4E00200010024011
:103C60002DE9F041184C0F460546E6682068001D16
:103C700000F0DEFB38B9206890F82C100120884055
:103C8000216981432161681C07D137B12168BDE8F2
:103C9000F0410E48091D00F00FBC20683544B542C4
:103CA0004560216805D2A06BBDE8F041091D00F018
:103CB000EBBB606B091D00F0E7FBA06A854200D2F8
:103CC000A562BDE8F081000048000020A4060020A5
:103CD0002DE9F041054600F0FBFB2E4CA068401C8E
:103CE000A06020682C4F10B1606940B32DE02560C2
:103CF000A068012829D1002606EB860007EB80008A
:103D000000F0B4FB761C072EF6D323488C3000F06D
:103D1000ADFB2148A03000F0A9FB1F48B43000F0F3
:103D2000A5FB1D48C83000F0A1FB1B48DC3000F0AB
:103D30009DFB19488C3060631430A06305E0206857
:103D4000E96AC06A884200D82560606A401C6062E7
:103D5000E96A0120226988401043206101EB81005B
:103D600007EB8000291D00F0A7FB00F0D1FB606984
:103D700000280CD02068E96AC06A884207D2074947
:103D80004FF080500860BFF34F8FBFF36F8FBDE8D7
:103D9000F081000048000020C805002004ED00E08C
:103DA00030B4026C0B46002A0BD0C1681144C160CC
:103DB0008468A14201D30168C16030BC1846FCF799
:103DC0004ABB30BC70472DE9F041856B174604466D
:103DD0000026026C82B1C7B1E068FCF73CFBE168E9
:103DE000206C091AE1602268914202D2A168081A87
:103DF000E060022F16D017E02068A8B9A06801F093
:103E0000DBF906460020A0600EE06068FCF723FBAB
:103E1000216C606808446060A168884204D320680F
:103E2000606001E005B16D1E6D1CA5633046BDE804
:103E3000F08110B5044690F8510058B101280CD01B
:103E400002280FD0502080F31188BFF34F8FBFF3AB
:103E50006F8FFEE7206B00F06FFB2046BDE810403F
:103E600000F06ABB10BD000010484FF470514207CB
:103E700006D0C01D0D4920F00700411AC1F5705150
:103E80000B4A00230144C2E900030839183A21F023
:103E9000070111604B600B600B1AC0E900139360BF
:103EA0004FF000405360506170470000B80600209A
:103EB0009C000020144E154CA6F1C8074FF0805806
:103EC000DFF84C9012E000BF00F002FBF068C5681C
:103ED000281D00F0ADFAA068401EA0606068401E7A
:103EE000606000F015FB2846FFF7A3FF606800281C
:103EF000EAD138680128F9D9C9F80080BFF34F8F9B
:103F0000BFF36F8FF2E7000090060020480000200A
:103F100004ED00E00346009829B10260C0E90F31CA
:103F2000012100F0E9BD0060F8E72DE9F0479A466D
:103F3000DDE9098481466FF00303206B03EB820205
:103F40001044089E20F00707780707D0502080F320
:103F50001188BFF34F8FBFF36F8FFEE7002561B16C
:103F6000002023180A5C83F834200A5C12B1401C3C
:103F70001028F6D384F8435001E084F83450072E1B
:103F800000D30626E662C4E91165201D00F079FA27
:103F900004F1180000F075FA2461C6F107006462AC
:103FA000A061E56484F8505052464946384600F016
:103FB00077F92060B8F1000F01D0C8F80040BDE8E3
:103FC000F087000030B5114900E011460A688242CE
:103FD000FBD34B685C18844203D1406818444860A6
:103FE000084643681C18944209D1084C183C2468C0
:103FF000A24209D052681A4442600A6812680260FC
:10400000814200D0086030BD0460F9E79C000020C8
:1040100010B5044600F05CFAA06B28B15FF0000414
:1040200000F076FA204610BD0124F9E70648416BFE
:10403000096829B1416BC968C968496881627047DC
:104040004FF0FF31FAE700004800002008484068C0
:10405000401C4FF0500080F3118804D0BFF34F8F05
:10406000BFF36F8FFEE7BFF34F8FBFF36F8FFEE796
:10407000A4000020002150B10A4B42699A420FD19E
:10408000806AA3F1280290420AD040B108E0502093
:1040900080F31188BFF34F8FBFF36F8FFEE70121CD
:1040A00008467047A40600202DE9F041044600F0C0
:1040B0000FFA94F9455004F1240609E0606A48B10A
:1040C000304601F00BF908B100F0D2FA6D1E6DB266
:1040D000002DF3DC4FF0FF3684F8456000F018FA4D
:1040E00000F0F6F994F9445004F1100709E0206952
:1040F00048B1384601F0F2F808B100F0B9FA6D1E87
:104100006DB2002DF3DC84F84460BDE8F04100F0AE
:10411000FFB900002DED048B4FF0FF3A40F2EE2B7B
:104120001C4C1A4EDFED1A8A9FED1B9A1B4F9FED18
:104130001C8ADFF87080DFF8709004F12805514682
:10414000306800F069FE5846FFF7ECFCC4ED0C8ABD
:10415000104985ED009A01231A462831386800F08D
:104160000FFD4FF47A70FFF7DDFC84ED0C8A0949EE
:1041700085ED008A01231A462831D8F8000000F0A6
:10418000FFFCD9F8000000F0E1FAD8E72C0000208D
:1041900000008C42CC000020000060C724000020FA
:1041A0000000000028000020180000202DE9F04148
:1041B0000546002700F09CFB324E306808B9FFF737
:1041C00053FE706905424ED1C5B3083568070ED05D
:1041D00005F00700C0F108000544680707D050202B
:1041E00080F31188BFF34F8FBFF36F8FFEE72DB3BE
:1041F0007068854237D82348183001460C6801E0C2
:1042000020460C466168A94202D221680029F7D1F4
:1042100031688C4227D007682168016060680837E0
:10422000411B10290FD96019420708D0502080F394
:104230001188BFF34F8FBFF36F8FFEE713E041602C
:104240006560FFF7BFFE61687068401A7060B26811
:10425000904200D2B060706901430020C4E90001BF
:10426000F068401CF06001F073F8780707D0502028
:1042700080F31188BFF34F8FBFF36F8FFEE738468F
:10428000BDE8F081840000200449086818B108687E
:10429000826C521C8264086870470000480000204D
:1042A00010B5031F4FF080741C601B1F21F001012B
:1042B0001960191F044B0B6014390A60091F6FF055
:1042C000020244380A6010BD4D4000080249242211
:1042D000A1F12400FEF778BE264F0020F0B500289B
:1042E00055D0002953D00278437842EA0322C2F322
:1042F0000A020A8043788478DB0843EA4413C3F354
:104300000A054D808378C4789B0943EA84030479C5
:1043100043EA8423C3F30A038B8004794679640853
:1043200044EAC614C4F30A04CC804679C6F30116E5
:104330008E724679B609CE728679C77946EA072623
:104340008E81067A477A46EA0726CE81867AC77A30
:1043500046EA07260E82067B8E74467BCE74867BE9
:10436000C77B46EA07268E82067C407CA2F2554235
:104370000A80A5F580654D80A3F2AA3346EA0020A5
:104380008B80A4F2DD34CC80A0F580600881F0BD84
:10439000214C204E04F10805F07A012804D00228AF
:1043A00009D003280ED013E09FED1C0A84ED000A0B
:1043B0009FED1B0A0AE09FED1B0A84ED000A9FEDAA
:1043C0001A0A03E09FED190A84ED000A84ED010A40
:1043D00094ED000A0520FEF7BBFD85ED000A94ED83
:1043E000010A0620FEF7B4FD85ED010ABDEEC00A04
:1043F00000231A4610EE100A95ED000A01B2BDEE38
:10440000C00A10EE100A00B2FCF724F90220FFF7F0
:1044100089FBC1E7EC4E0020BC00002000007AC5FB
:1044200000007A4500401CC500401C45000000000B
:10443000D0E9013201699A60D0E901235A604A68E3
:10444000824201D182684A60002202610868401EEF
:104450000860086870470000034B036003F15400D4
:104460000860802010607047AC01002000F1080156
:104470004FF0FF32C0E90112C1600161002101600B
:10448000704700210161704730B50B685A1C02D09B
:1044900000F1080202E0026904E02246546825683F
:1044A0009D42FAD953684B6099608A6051600861F7
:1044B0000168491C016030BD42684A6093688B60A6
:1044C00093685960916008610168491C01607047F8
:1044D000502080F31188BFF34F8FBFF36F8F0A49CD
:1044E0004868401C486001280CD10848006810F05A
:1044F000FF0F07D0502080F31188BFF34F8FBFF319
:104500006F8FFEE770470000A400002004ED00E07C
:104510000849486828B1401E486001D180F31188DD
:104520007047502080F31188BFF34F8FBFF36F8F18
:10453000FEE70000A400002070B500282AD0164D28
:10454000A0F1080460686969084207D1502080F32F
:104550001188BFF34F8FBFF36F8FFEE722683AB128
:10456000502080F31188BFF34F8FBFF36F8FFEE7AA
:104570008843606000F0BCF960686968084468605E
:104580002046FFF71FFD2869401C2861BDE87040E8
:1045900000F0DEBE70BD0000840000204FF0E0207F
:1045A00000210161816105494FF47A720968B1FB0C
:1045B000F2F1491E4161072101617047440000206A
:1045C00010B5FBF7ADFE114910280ED300F1E02025
:1045D00090F8F0030A78904207D2502080F31188B7
:1045E000BFF34F8FBFF36F8FFEE7094800688968FC
:1045F00000F4E060884207D9502080F31188BFF3AF
:104600004F8FBFF36F8FFEE710BD0000A4000020A6
:104610000CED00E010B5020014D00F48006B38B16B
:10462000502080F31188BFF34F8FBFF36F8FFEE7E9
:1046300000F05EF900211046FFF712FB00F088FE43
:10464000002807D105494FF080500860BFF34F8F15
:10465000BFF36F8F10BD00004800002004ED00E0A4
:1046600002490A6A0260C968416070474800002038
:1046700001490120C86170474800002010B50C4670
:1046800050B1094909681831FFF7FEFE2046BDE820
:1046900010400121FFF7E4BA502080F31188BFF3E6
:1046A0004F8FBFF36F8FFEE74800002070B5040006
:1046B00047D0A26CA2B1606C884200D30146E06A88
:1046C00088423ED0012A3CD11E4D2A6894420FD127
:1046D000502080F31188BFF34F8FBFF36F8FFEE739
:1046E000502080F31188BFF34F8FBFF36F8FFEE729
:1046F000E162A269002A02DBC1F10701A161124E49
:1047000000EB8000616906EB8000814219D1201D19
:10471000FFF78EFE012130B994F82C002A6901FAC6
:1047200000F082432A61E06A2A69814011432961CD
:1047300000EB800006EB8000211DBDE87040FFF714
:10474000BBBE70BD48000020C805002070B5040045
:104750002BD01A4D286884422FD0FFF7B9FE20468F
:10476000FFF788FCE8B1201DFFF762FEE06A012137
:104770002A69814011432961114900EB800001EB56
:104780008000211DFFF798FEE06A2968C96A884207
:1047900007D30C494FF080500860BFF34F8FBFF331
:1047A0006F8FBDE87040FFF7B3BE502080F31188D3
:1047B000BFF34F8FBFF36F8FFEE770BD480000203F
:1047C000C805002004ED00E010B586B00024039475
:1047D00005AA04A903A80494FFF73EFEDDE903013E
:1047E0000094CDE9011000230EA11048059A00F0B5
:1047F00036FC0F490028C86211D0502080F3118880
:10480000BFF34F8FBFF36F8F4FF0FF3088620120EF
:104810004861CC6006B0BDE8104000F09FB806B01B
:1048200010BD000049444C4500000000B53E0008A2
:104830004800002070B50446FFF74AFE294D04B930
:104840002C68201DFFF7F4FD58B9E06A264A00EBFA
:10485000800152F8211021B9012181402869884343
:104860002861A06A18B104F11800FFF7E1FD1E48A5
:10487000211DDC30FFF720FE94F8500000260128AF
:1048800001D184F85060FFF743FE686928B1FFF753
:104890001FFEFFF7CBFBFFF73BFE2868844213D1D6
:1048A000686990B1286B38B1502080F31188BFF34C
:1048B0004F8FBFF36F8FFEE70C494FF080500860B9
:1048C000BFF34F8FBFF36F8F70BD0748DC300068B8
:1048D000A968884201D12E6070BDBDE8704000F02B
:1048E0000FB8000048000020C805002004ED00E0DB
:1048F0000248016B491C016370470000480000201A
:104900001448016B11B10121C16170470021C161DF
:104910000169B1FA81F1C1F11F0101EB81020E4978
:1049200051F822306BB101EB820101F108034A68B2
:1049300052684A609A4201D152684A60D168016067
:104940007047502080F31188BFF34F8FBFF36F8FF4
:10495000FEE7000048000020C80500201CB53748CD
:104960000168374A914207D1502080F31188BFF384
:104970004F8FBFF36F8FFEE700683149491E8842B1
:1049800007D1502080F31188BFF34F8FBFF36F8F93
:10499000FEE72C4908780190FF20087008788DF810
:1049A00000009DF800009DF8002000F0F00090420B
:1049B00007D0502080F31188BFF34F8FBFF36F8F64
:1049C000FEE79DF80000204C00F05000207007200A
:1049D000A06005E09DF8002052008DF80020401EE8
:1049E0009DF800201206F5D4A060032807D05020BF
:1049F00080F31188BFF34F8FBFF36F8FFEE74FF443
:104A00004070A060019808700C482030016841F4A3
:104A100070010160016841F070410160FFF7BEFD67
:104A200000206060FBF744FC0848016841F0404109
:104A30000160FBF729FC00201CBD000000ED00E038
:104A400071C20F4100E400E0A400002034EF00E058
:104A5000F8B517460E46050013D005FB06F04830A2
:104A6000FFF7A4FB04000AD0002084F8460004F1FC
:104A700048023B46314628460094FFF74BFA204651
:104A8000F8BD502080F31188BFF34F8FBFF36F8FB5
:104A9000FEE738B5049D18B153B1CAB181B120E029
:104AA000502080F31188BFF34F8FBFF36F8FFEE765
:104AB000502080F31188BFF34F8FBFF36F8FFEE755
:104AC000502080F31188BFF34F8FBFF36F8FFEE745
:104AD00039B1502080F31188BFF34F8FBFF36F8F30
:104AE000FEE748241C46012384F846302B460094F8
:104AF000FFF710FA204638BD70B50D46040025D0EA
:104B0000FFF7E6FCD4E90F20216802FB0011A16049
:104B10000021A163216861600A46D4E90F01401EAB
:104B200000FB0121E16021464FF0FF3001F8440F06
:104B3000487004F110008DB1FFF798FC04F12400D7
:104B4000FFF794FCFFF7E4FC012070BD502080F3D8
:104B50001188BFF34F8FBFF36F8FFEE721690029E4
:104B6000F0D000F0BBFB0028ECD004494FF080509F
:104B70000860BFF34F8FBFF36F8FE3E704ED00E0F2
:104B80002DE9FF4782B01D468A464FF00008040019
:104B900003D0BAF1000F08D011E0502080F3118843
:104BA000BFF34F8FBFF36F8FFEE7206C38B15020FB
:104BB00080F31188BFF34F8FBFF36F8FFEE7022D95
:104BC0000AD1E06B012807D0502080F31188BFF391
:104BD0004F8FBFF36F8FFEE700F06CFA3F4F4FF03F
:104BE00000094FF0805648B9049838B1502080F33E
:104BF0001188BFF34F8FBFF36F8FFEE7FFF768FC9D
:104C0000A06BE16B884207D3022D05D00498D0B188
:104C1000B8F1000F1AD01EE02A4651462046FFF791
:104C2000D2F8616A19B104F1240000F057FB20B1F9
:104C30003E60BFF34F8FBFF36F8FFFF769FC01201A
:104C400006B0BDE8F087FFF763FC22E06846FFF797
:104C500007FD4FF00108FFF75BFCFFF749FEFFF788
:104C600037FC94F94400401C01D184F8449094F935
:104C70004500401C01D184F84590FFF749FC04A988
:104C8000684600F085F930B12046FFF70DFA00F0D4
:104C90005FFB0020D4E7FFF71BFCA06BE16B8842B1
:104CA00013D1FFF735FC04F110000499FFF7E6FC7F
:104CB0002046FFF7F9F900F04BFB00289ED13E603B
:104CC000BFF34F8FBFF36F8F98E7FFF721FC2046AC
:104CD000FFF7EAF900F03CFB90E7000004ED00E08C
:104CE0002DE9F747002683B08A46040003D0BAF1C5
:104CF000000F08D011E0502080F31188BFF34F8FD0
:104D0000BFF36F8FFEE7206C38B1502080F311881D
:104D1000BFF34F8FBFF36F8FFEE700F0CBF9DFF8E3
:104D2000F4804FF000094FF0805748B9059838B12A
:104D3000502080F31188BFF34F8FBFF36F8FFEE7D2
:104D4000FFF7C6FBA56BC5B151462046FFF728F813
:104D50006D1EA563206950B104F1100000F0BEFA89
:104D600028B1C8F80070BFF34F8FBFF36F8FFFF704
:104D7000CFFB012006B0BDE8F087059808B11EB151
:104D800006E0FFF7C5FB27E06846FFF769FC012650
:104D9000FFF7BEFBFFF7ACFDFFF79AFB94F9440069
:104DA000401C01D184F8449094F94500401C01D185
:104DB00084F84590FFF7ACFB05A9684600F0E8F8D9
:104DC000002820460AD0FFF76FF900F0C1FA20460C
:104DD000FFF71EF90028B3D00020CBE7FFF718F942
:104DE00090B104F124000599FFF748FC2046FFF735
:104DF0005BF900F0ADFA0028A2D1C8F80070BFF34B
:104E00004F8FBFF36F8F9BE72046FFF74DF900F000
:104E10009FFA95E704ED00E02DE9F343002683B007
:104E20000400354609D0206C78B1502080F31188F9
:104E3000BFF34F8FBFF36F8FFEE7502080F31188D1
:104E4000BFF34F8FBFF36F8FFEE700F033F9DFF84A
:104E50003C814FF000094FF0805748B9049838B1B1
:104E6000502080F31188BFF34F8FBFF36F8FFEE7A1
:104E7000FFF72EFBA06BC8B1401EA063206810B9DD
:104E8000FFF702FAA060206950B104F1100000F0B1
:104E900025FA28B1C8F80070BFF34F8FBFF36F8FAA
:104EA000FFF736FB012005B0BDE8F083049808B198
:104EB00066B10FE03DB1502080F31188BFF34F8FF2
:104EC000BFF36F8FFEE7FFF723FB5DE06846FFF758
:104ED000C7FB0126FFF71CFBFFF70AFDFFF7F8FAF7
:104EE00094F94400401C01D184F8449094F94500A1
:104EF000401C01D184F84590FFF70AFB04A96846DD
:104F000000F046F80028204612D0FFF7CDF800F058
:104F10001FFA2046FFF77CF80028A9D09DB3FFF7C1
:104F2000D7FA606A50B3206B0068C0F1070126E031
:104F3000FFF76EF8E0B1206838B9FFF7C9FAA0684A
:104F400000F086F90546FFF7E3FA04F1240004991E
:104F5000FFF794FB2046FFF7A7F800F0F9F90028C7
:104F600086D1C8F80070BFF34F8FBFF36F8F7FE714
:104F70002046FFF799F800F0EBF979E70021A068E7
:104F8000FFF794FB9FE7FFE700208CE704ED00E0CC
:104F90002DE9F0410C46050011D0C4B1FFF798FA95
:104FA000174BDA686E682068911B471C17D02F6872
:104FB0001B6A9F4219D0964217D8012410E0502056
:104FC00080F31188BFF34F8FBFF36F8FFEE7502040
:104FD00080F31188BFF34F8FBFF36F8FFEE700247C
:104FE000FFF796FA2046BDE8F081884205D9401ABD
:104FF00020602846FFF734FBF1E700202060DCE763
:10500000480000202DE9FF5F8346DDE90E879946C1
:1050100016468A469000FFF7C9F805001CD05420B8
:10502000FFF7C4F8040014D00020256384F8510071
:10503000CDE90240CDE900874B46324651465846FD
:10504000FEF773FF2046FEF743FE012004B0BDE8E3
:10505000F09F2846FFF770FA4FF0FF30F6E7F0B503
:1050600085B0DDE90B640A9DA6B1DCB15427009739
:105070002663022684F85160002604AFCDE902467B
:10508000CDE90057FEF751FF2046FEF721FE0498B8
:1050900005B0F0BD502080F31188BFF34F8FBFF3F0
:1050A0006F8FFEE7502080F31188BFF34F8FBFF35F
:1050B0006F8FFEE70548416919B1006B18B10020F8
:1050C0007047012070470220704700004800002010
:1050D0000148C068704700004800002010B5FFF785
:1050E0006FFA0148C06810BD480000202DE9F0416A
:1050F0002F4C0026206B28B1A069401CA0613046CF
:10510000BDE8F081E5686D1CE56013D1606B006857
:1051100038B1502080F31188BFF34F8FBFF36F8FEA
:10512000FEE7606BA16B6163A063206A401C206294
:10513000FEF77CFFA06ADFF87C80854209D3606BB4
:105140000068A0B1606BC068C7687868854211D2FA
:10515000A0622068C06A00EB800158F82100012895
:1051600000D90126E0690028C9D00126C7E74FF021
:10517000FF30EDE7381DFFF75BF9B86A18B107F1AA
:105180001800FFF755F9F96A012022698840104399
:10519000206101EB810108EB8100391DFFF78CF9DB
:1051A000F86A2168C96A8842C9D30126C7E70000A6
:1051B00048000020C805002070B504004FF0000131
:1051C00040D0214D2868844207D0502080F31188B8
:1051D000BFF34F8FBFF36F8FFEE7A06C38B1401E57
:1051E000A064636CE26A9A422CD040B12AE050205D
:1051F00080F31188BFF34F8FBFF36F8FFEE7201D41
:10520000FFF716F9114A012150B9E06A00EB80035B
:1052100052F8233023B92B6901FA00F083432B6144
:10522000606CE062C0F10700A061E06A2B69814018
:105230001943296100EB800002EB8000211DFFF77C
:105240003BF90121084670BD48000020C805002038
:1052500070B504004FF0000034D01E4DE16A2A689A
:10526000D26A91422FD2A069002804DB2868C06A64
:10527000C0F10700A061184E01EB8101606906EBE7
:10528000810188421AD1201DFFF7D2F8012130B9DF
:1052900094F82C002A6901FA00F082432A612868F8
:1052A000C06AE0622A6981401143296100EB8000F5
:1052B00006EB8000211DFFF7FFF802E02868C06AB6
:1052C000E062012070BD616C2A68D26A9142F8D315
:1052D00070BD000048000020C80500202DE9F04105
:1052E000C068C468ACB104F118000746FFF7A0F825
:1052F000154D286B0126A0B139461448FFF7DCF89C
:10530000E06A2968C96A88421CD90120EE61BDE8BB
:10531000F081502080F31188BFF34F8FBFF36F8F60
:10532000FEE7201DFFF784F8E16A2A6906FA01F01A
:105330001043286101EB81000449B43901EB80007E
:10534000211DDBE70020E2E7480000207C0600206A
:105350002DE9F0472C4D00242746286B38B1FFF784
:10536000B7F8286B401E2863286B40B146E05020F8
:1053700080F31188BFF34F8FBFF36F8FFEE7A968EB
:10538000224E0120D1B3A6F1B40980463068E8B1BD
:10539000F068C46804F11800FFF74AF8201DFFF711
:1053A00047F8E06A2A6908FA00F11143296100EB25
:1053B000800109EB8100211DFFF77EF8E06A296872
:1053C000C96A8842E2D3C5F81C80DFE70CB1FEF75A
:1053D0002DFEAC6944B14646FFF788FE00B1EE6190
:1053E000641EF9D10020A861E86938B10849012795
:1053F00038070860BFF34F8FBFF36F8FFFF788F850
:105400003846BDE8F0870000480000207C060020F8
:1054100004ED00E04FF04070E1EE100A704700002C
:105420002000000004000000000000000000000058
:105430002000000004000000000000000000000048
:105440002000000004000000000000000000000038
:105450002000000004000000000000000000000028
:105460006C5500081D3A0008000000000000000014
:105470008000000000000000000000007C550008D3
:10548000A13A0008000000000000000080000000B9
:1054900000000000000000005C550008893700088B
:1054A000000000000000000080000000000000007C
:1054B000000000007455000891430008000000003F
:1054C000000000008000000000000000000000005C
:1054D00064550008154100080000000000000000AD
:1054E000800000000000000000000000505500088F
:1054F0006936000800000000000000008000000085
:105500000000000000000000445500080D3C0008A9
:10551000000000000000000080000000000000000B
:105520000000000000061016000610160000000023
:105530000000000001020304060708090000000043
:1055400001020304504E45554D41544943000000AB
:1055500043414E325F434D440000000043415443F9
:105560004800000050555348000000004348415394
:105570005349530053484F4F54000000494D555F65
:105580005245515545535400A855000800000020CD
:10559000AC010000C401000814560008AC01002052
:1055A000BC5400002002000801383201821003615F
:1055B00024F41AAA010910820116000D4EF628A43F
:1055C0004033339B40CDCC9440472041CDCCCC3DA3
:1055D00065CDCC4C3E5E803FCDCC0418180E803F8C
:1055E000713D8A3E5839B43C9A999920A3FC423ABD
:1055F00010242918293C650AD7A33B5F30416F125C
:10560000833A4C191CAFCC3C0AD7233CE219303901
:045610007400000022
:040000050800018965
:00000001FF
