:020000040800F2
:10000000901300204102000897330008CB3100080C
:10001000953300082D130008853B00080000000000
:10002000000000000000000000000000C9360008C9
:10003000951400080000000065360008CB36000863
:100040005B0200085B0200085B0200085B0200081C
:100050005B0200085B0200085B0200085B0200080C
:100060005B0200085B0200085B0200085B020008FC
:100070000D1400085B0200085B0200085B02000828
:100080005B0200085B0200085B0200085B020008DC
:10009000A51300085B0200085B0200085B02000871
:1000A0005B0200085B0200085B0200085B020008BC
:1000B0005B0200085B0200085B0200085B020008AC
:1000C0005B0200085B0200085B0200085B0200089C
:1000D0005B020008B13A00085B020008D13A000850
:1000E0005B0200085B0200085B0200085B0200087C
:1000F0005B0200085B0200085B0200085B0200086C
:100100005B0200085B0200085B0200085B0200085B
:100110005B0200085B020008753700085B020008FC
:100120005B0200085B0200085B0200085B0200083B
:100130005B0200085B0200085B0200085B0200082B
:10014000E11300085B0200085B0200085B02000884
:100150005B0200085B0200085B0200085B0200080B
:100160005B0200085B0200085B0200085B020008FB
:100170005B0200085B0200085B0200080000000050
:100180005B0200085B02000800F002F800F049F88A
:100190000AA090E8000C82448344AAF10107DA45E2
:1001A00001D100F03EF8AFF2090EBAE80F0013F0EB
:1001B000010F18BFFB1A43F001031847443E00002B
:1001C000643E0000103A24BF78C878C1FAD85207BC
:1001D00024BF30C830C144BF04680C6070470000C1
:1001E0000023002400250026103A28BF78C1FBD840
:1001F000520728BF30C148BF0B607047662903F023
:10020000A386002070471FB503F099FE00F03CFB69
:1002100004000020002103F005FEE0601FBD10B5C2
:1002200010BD00F04DFC1146FFF7EDFF03F02CFD73
:1002300000F06BFC03B4FFF7F2FF03BC03F0CBFC50
:100240000948804709480047FEE7FEE7FEE7FEE76A
:10025000FEE7FEE7FEE7FEE7FEE7FEE704480549A6
:10026000054A064B70470000653700088901000801
:10027000900D002090130020900F0020900F002080
:10028000704753EA020C00F069802DE9F04B4FF003
:100290000006002B1FBFB3FA83F503FA05F424FA16
:1002A00005F65E4012BF1643B2FA82F502FA05F473
:1002B000C5F120051EBF22FA05FC44EA0C042035D6
:1002C00056EA044C4FEA144418BF641C4FF000086F
:1002D0004FF00009904271EB030C39D3002919BF8C
:1002E000B1FA81F701FA07F6B0FA80F700FA07F6DB
:1002F000C7F120071EBF20FA07FC46EA0C0620378C
:10030000B6FBF4FCA7EB0507103F07F01F0BCBF182
:1003100020060CFA0BFB2CFA06F644BFB346002667
:10032000202FA4BF5E464FF0000B5BEA060C08BF0F
:100330004FF0010B19EB0B09ABFB027C48EB0608F5
:10034000C01B06FB02CC0BFB03CC71EB0C01C1E71D
:100350000B46024641464846BDE8F08B13B54FF0C8
:1003600000004FF00001AFF30080BDE81C40704773
:100370000FB4044910B503AA029800F073FA10BC38
:100380005DF814FB700000202DE9F0410E46044694
:10039000002020622046E168884730B3252805D038
:1003A000D4E901219047206A401CF2E7E168204629
:1003B00000278847050018D0A5F14100192802D868
:1003C00020354FF400673246294620462760FFF764
:1003D00015FF40B1012804D0F61D26F007060836A7
:1003E000D8E7361DD6E72846DAE7206ABDE8F0816F
:1003F0004FF0000200B5134694469646203922BFBE
:10040000A0E80C50A0E80C50B1F12001BFF4F7AF08
:10041000090728BFA0E80C5048BF0CC05DF804EBEA
:10042000890028BF40F8042B08BF704748BF20F858
:10043000022B11F0804F18BF00F8012B7047704756
:1004400070477047704770472DE9FF4F0C461E46B6
:100450004FF0FF378BB0D2E90001DDF860800A90E1
:100460008A46C1F30A5505B93D46002108464FF0BA
:100470000000BAF1000F00F4400005DA00EB800044
:100480004FF4400101EA50004FEA9059B9F1010FD1
:1004900000DDB9460A9850EA4A000ED044F61050E2
:1004A000A5F2FF3545432F14B8F1000F1ED0754259
:1004B000291E1EDDC9F100021CE0B8F1010F4FF04A
:1004C000000001D0302103E0F24305E02154401C3C
:1004D000B042FBDB30460022002121540B99C1F8C9
:1004E0000880C1E900200FB0BDE8F08FBD1B6D1C76
:1004F000DEE74A4600DA694206A800F067FA06AB72
:1005000093E8070003AB83E8070050460A9900F020
:1005100045FB8DE80700A0F500501F3800900398B8
:10052000002D0ADD42F21F014A460844002303A9B8
:100530000390684600F0AEFD09E0A0F500504A4681
:100540001F38002303A90390684600F0B8FD8DE82A
:1005500007000004000C03D04FF0FF30410800E01A
:100560001046B8F1000F03D00022009215461EE09D
:10057000751E05D400F08CF9303262556D1EF9D528
:10058000B3460122084302D000227F1C04E02078F9
:10059000302801D100227F1E002A099784D01DE057
:1005A000112D07DA00F074F9303262556D1C50EAF3
:1005B0000102F5D1084302D00098C8B10EE0002135
:1005C000681E05E0235C625C63542254401E491C93
:1005D0008142F7DBAB46A81B401E0990002004F8BF
:1005E0000B000B98099AC0F80880C0E9002B7AE745
:1005F00011264FF0000857E72DE9F04F88460446D2
:10060000D21D22F0070191B0D1E90001CDE90A0124
:1006100003F0B9FA02460B98C00F01D02D2007E075
:100620002068810701D52B2002E0202101EAC000CB
:10063000032A099001D0072A05DB034641462046DC
:1006400000F084F90BE12078800601D5E06900E034
:100650000620B8F1650F814606D0B8F1660F18D0B4
:10066000B8F1670F70D131E00020B9F1110F00909F
:1006700001DB112301E009F101030AAA01A90CA879
:10068000FFF7E2FEDDE90C70002609F10105834663
:1006900047E001204B4600904FF000470AAA01A90D
:1006A0000CA8FFF7D1FEDDE90DB00C995D460026E0
:1006B00010B909F101000D18B9EB050003D4C0F120
:1006C000FF3609F10105A5EB09002BE0B9F1010F97
:1006D00001DA4FF001090020B9F1110F00904846EE
:1006E00001DD112300E003460AAA01A90CA8FFF7C7
:1006F000ABFEDDE90C704D460026834620780007EE
:100700000AD4AB4500DA5D4601A8012D04DD41198C
:1007100011F8011C302907D04F4502DA17F1040FF8
:1007200004DA012082460FE06D1EEEE7002F02DCA6
:10073000ED1B3E4403E0781CA84200DD7D1CB81B85
:1007400000F1010A4FF000472078000703D4AA45C2
:1007500001DB4FF0FF3A0021B7F1004F0DF14308E4
:100760008DF8431024D002202B23002F01DA7F4282
:100770002D230A21021EA0F1010000DC5FB197FBCE
:10078000F1FC97FBF1F201FB1C7C17460CF1300CDD
:1007900008F801CDEEE7A8F10100037021880905F2
:1007A00001D5452100E06521A0F1010800F8011CF8
:1007B00009980FA9A1EB0807FF1D00B101204119FD
:1007C00001EBEA70A1693844081A401EA061207844
:1007D000C00602D42046AFF30080099828B1D4E9BE
:1007E00001219047206A401C20622078C00622D553
:1007F0002046AFF300801EE0002E04DBB34502DD8F
:1008000001A8805D00E03020D4E901219047206AF2
:10081000401C2062761CAAF101005FEA000A0AD19E
:1008200000F032F8C0680168405CD4E901219047CB
:10083000206A401C2062281EA5F10105DCDC07E0CF
:10084000D4E9012118F8010B9047206A401C20626E
:10085000381EA7F10107F3DC2046AFF30080032028
:1008600011B041E6074B70B50D467B4400F05BF8D4
:100870000446284600F01CF910B14FF0FF3070BD5F
:10088000204670BDBB330000004870474C0D00206F
:1008900030B5B0F10A024FEA900E71F100034EEA52
:1008A000817EB0EB0E0061EB91014FEA101E4EEA23
:1008B000017E10EB0E0041EB11114FEA102E4EEAB3
:1008C000016E10EB0E0041EB11214FEA104E4EEA83
:1008D000014E10EB0E0041EB1141401841F10001B7
:1008E0004FEAD00040EA41704FEAD10110EB800599
:1008F0004FEA810444EA907444EB01046D1944EB1F
:100900000404521BA3414FF0000348BF0A3200D534
:1009100030BD401C41F1000130BD000001694A1C9E
:1009200002610878704700B58FB0CDE90131002130
:10093000059105497944CDE9031011466846FFF752
:1009400023FD0FB000BD0000E5FFFFFF2DE9F041E2
:100950001F46044603260168072A01F4006004DBF1
:1009600008B116A505E016A503E008B115A500E03D
:1009700015A521F010002060A069C01EA0610FB174
:10098000401EA0612046AFF300804FB1D4E90121A1
:1009900038469047206A401C2062C01C206206E056
:1009A000206AFAE7D4E9012115F8010B9047761E79
:1009B000F8D22046AFF30080BDE8F0814E414E00F2
:1009C0006E616E00494E4600696E66002DE9F04783
:1009D000814616468AB0354878440DC88DE80D002A
:1009E00032487844801C03AC0DC884E80D0041F601
:1009F0009B300844372190FBF1F290FBF1F5A5F113
:100A0000800501FB12041B3C02D56442012000E07A
:100A10000020DFF898A080460027FA44AAF1BE0A19
:100A20000EE0E0070AD03246684607EB4701012393
:100A30000AEB810100F043FB8DE8070064107F1C86
:100A4000002CEED1194F7F44AE3F19E0E80715D0D6
:100A500007EB04100DF1180A90E80E008AE80E006A
:100A6000C068F04201D1981908903246012306A9C6
:100A700003A800F024FB03AB83E807006D10641C9F
:100A8000002DE3D14FF0010332466946B8F1000F63
:100A900003A802D000F0FEFA01E000F010FBC9E963
:100AA0000001C9F808200AB0BDE8F0870C36000044
:100AB000007B00F080007047004870472C0D00203C
:100AC0007546FFF7F9FFAE4605006946534620F02C
:100AD0000700854618B020B5FFF7C0FBBDE82040F1
:100AE0004FF000064FF000074FF000084FF0000BEA
:100AF00021F00701AC46ACE8C009ACE8C009ACE89D
:100B0000C009ACE8C0098D46704710B50446AFF384
:100B100000802046BDE81040FFF78CBB4FF0013C41
:100B200050F8042B51F8043B9A4221D1A2EB0C035C
:100B3000934313EACC1317D150F8042B51F8043B1C
:100B40009A4215D1A2EB0C03934313EACC130BD1B9
:100B500050F8042B51F8043B9A4209D1A2EB0C0344
:100B6000934313EACC13DBD04FF00000704700BF73
:100B7000D01A01BAB1FA81F101F0180122FA01F09C
:100B8000CB40C1F12001DBB2C0B2C01A2CFA01F394
:100B9000D11A914311EAC311E6D170475FEA400CC4
:100BA00008BF91F0000F4FEA8C234FEAC12243EABD
:100BB00051514FEA1C5018BF00F5F0404FEA300089
:100BC00018BF41F000415FEA6C5C00F02980BCF185
:100BD000FF3F08BF40F080407047130C06BF12046F
:100BE0004FF0100C4FF0000C130E04BF12020CF16A
:100BF000080C130F04BF12010CF1040C930F04BF77
:100C000092000CF1020CD30F04BF52000CF1010C46
:100C100011464FF00002A0F11F00A0EB0C0070473E
:100C200011F0004F08BF704731F000413FF4D5AFDD
:100C30000B0C06BF09044FF0100C4FF0000C0B0E0C
:100C400004BF09020CF1080C0B0F04BF09010CF1E1
:100C5000040C8B0F04BF89000CF1020CCB0F04BFF6
:100C600049000CF1010CCCF12003A0EB0C0022FA9E
:100C700003F302FA0CF241EA030100F101007047AC
:100C800020F07F4C80EA030023F07F47ACEB0703A2
:100C900003F57C5300F0004003F1FF032DE9804988
:100CA0004FEA154B09B44FEA144325EA0B4E24EAE8
:100CB00003480FF2042606EB132749083E785FEA43
:100CC000320203FB0667C7F5000707FB06F64FEA8B
:100CD00054374FEAD64606F1020607FB066CCCF104
:100CE000005C4FEA1C472CEA074C07FB06F40CFBA0
:100CF00006F504EB15464FEA961634BF00204FF078
:100D000000404FEAD13706FB07FC4FEA1C4C0CFBB6
:100D10000BF7D21B03FB0CF761EB07010CFB0EF783
:100D2000B0EB074072EB17420CFB08F734BFA2EBA5
:100D30000742B2EB074261EB17414FEA0C444FEA1E
:100D4000910706FB07FC4FEA1C4C0CFB0BF7B0EBC2
:100D5000C74072EB573203FB0CF734BFA2EBC7421C
:100D6000B2EBC74261EB57310CFB0EF7B0EBC7009B
:100D700072EB57720CFB08F734BFA2EBC702B2EB61
:100D8000C70261EB5771039F4FEA816141EA9211FB
:100D900004EBCC044FEAD1374FEA826206FB07FC32
:100DA00042EA90124FEA80604FEA1C4C0CFB0BF7B2
:100DB000D21B03FB0CF761EB07010CFB0EF7B0EB4A
:100DC000074072EB17420CFB08F734BFA2EB074257
:100DD000B2EB074261EB17414FEA8C554FEA91079E
:100DE00004EB9C2406FB07FC4FEA1C4C0CFB0BF7A6
:100DF000B0EBC74072EB573203FB0CF734BFA2EBEA
:100E0000C742B2EBC74261EB57310CFB0EF7B0EBB8
:100E1000C70072EB57720CFB08F734BFA2EBC70296
:100E2000B2EBC70261EB577115EB4C254FEA8161BC
:100E300041EA92114FEA82624FEAD13742EA9012B8
:100E400006FB07FC44F100044FEA80604FEA1C4CAB
:100E50000CFB0BF7D21B03FB0CF761EB07010CFB40
:100E60000EF7B0EB074072EB17420CFB08F734BFEC
:100E7000A2EB0742B2EB074261EB174115EB1C15E1
:100E80004FEA813141EA92414FEA823242EA90428E
:100E90004FEA80304FEA0C7644F1000448EA0343FD
:100EA0004EEA0B484FF0000EB2EB080C71EB030753
:100EB00024BF624639464EEB0E0E4FF0000B001871
:100EC000524149414BEB0B0BB2EB080C71EB0307A2
:100ED0007BF1000B24BF624639464EEB0E0E4FF0FD
:100EE000000B0018524149414BEB0B0BB2EB080CC5
:100EF00071EB03077BF1000B24BF624639464EEBD2
:100F00000E0E51EA020718BF46F0010616EB0E76E8
:100F100055F1000254F1000103D5BDE88901BDE897
:100F20000088BDE88901BDE80048B619524141EB8F
:100F30000101A3F10103704780807F7E7D7C7B7A75
:100F40007978777676757473727171706F6E6E6D75
:100F50006C6C6B6A6A69686867666665646463631B
:100F600062616160605F5F5E5E5D5D5C5C5B5B5AA1
:100F70005A5959585857575656555555545453530E
:100F800052525251515050504F4F4F4E4E4D4D4D69
:100F90004C4C4C4B4B4B4A4A4A49494948484847B4
:100FA00047474746464645454544444444434343F2
:100FB0004342424242414141002B9C4630D477009B
:100FC0002BD01CB54FEA370703B44FF010004FF099
:100FD0001001BAF1000F06D0BCF1000FDCBF40F0E9
:100FE000080040F008014FF000000FBCBDE81040C1
:100FF0000BF1010BBBF1010F08BF5FEA170722BF1E
:1010000012F1010211F101014FF0004143F100031F
:1010100000F0004043EA00007047F9D35708D0E7DA
:1010200046EA064613F1400F4FEA16461FDD13F15C
:10103000200FDFBF16430A46002120335B42BED09B
:10104000C3F1200746EA064602FA07F74FEA1646BA
:1010500046EA0706C3F1200722FA03F201FA07F76E
:1010600021FA03F14FF0000342EA0702A7E746EA3C
:10107000020646EA06464FEA164646EA0106BCBFA5
:1010800046EA0646360C4FF000034FF000024FF0E0
:10109000000194E72DE9804C9A46934670B491E89C
:1010A000380007C831EA400C48BF34EA430C03D586
:1010B000FFF7E6FDFFF780FFF0BCBDE8008C2DE9EF
:1010C000804C9A46934670B491E8380007C810F0F7
:1010D000804F08BF13F0804F03D100F005F8FFF7F1
:1010E0006BFFF0BCBDE8008C20F07F4780EA030076
:1010F00023F07F4C07EB0C03A3F57C5300F000407A
:10110000A3F1FE0392F0000F00F0B38095F0000F02
:1011100000F077802DE901494FEA11404FEA14466B
:1011200021EA004800FB06FC24EA064708FB06F615
:1011300007FB08F800FB07F718EB06484CEB164CCA
:101140004FEA124B18EB07484FEA15464CEB174095
:1011500022EA0B4E0BFB06FC25EA06470EFB06F6C1
:1011600007FB0EFE0BFB07F71EEB064E4CEB164C77
:101170004FF000061EEB074E4CEB174B18EB0B081D
:1011800040F1000018EB0E0B58EB000840F1000096
:101190008F1A4FF000013CBFC943661B14BFB5EB6B
:1011A000040C00213CBFC943F61B4FEA17444EEA2A
:1011B0008E0E27EA04454FEA1C4704FB07622CEA1F
:1011C000074C05FB07F70CFB05F604FB0CFC16EBC4
:1011D000074642EB174216EB0C4642EB1C421BEB58
:1011E000060658EB0202414146EA9E0601D5BDE8DB
:1011F0000189B619524141EB0101A3F10103BDE898
:1012000001894FEA14454FEA114724EA054621EACD
:10121000074C05FB07F406FB07F70CFB06F105FB83
:101220000CFC11EB074144EB17444FEA124711EB5A
:101230000C4144EB1C4422EA074C05FB07F206FB79
:1012400007F70CFB06F605FB0CFC16EB074642EB1A
:10125000174216EB0C4642EB1C456A1854F100018C
:1012600048BF7047B619524141EB0101A3F1010398
:10127000704795F0000F37D04FEA11424FEA1447FC
:1012800021EA024624EA074C02FB07F106FB07F7B6
:101290000CFB06F402FB0CFC14EB074441EB17417A
:1012A0004FEA154714EB0C4441EB1C4125EA074C6F
:1012B00002FB07F506FB07F70CFB06F602FB0CFC2E
:1012C00016EB074645EB174516EB0C4645EB1C4263
:1012D000121951F1000148BF7047B619524141EB54
:1012E0000101A3F1010370474FEA14454FEA11478A
:1012F00024EA054621EA074C05FB07F106FB07F740
:101300000CFB06F24FF0000605FB0CFC12EB07424B
:1013100041EB174112EB0C4251EB1C4148BF7047A7
:10132000921841EB0101A3F101037047FEE70000B1
:1013300038B50E4C40F2FF1525600025A560E5602C
:10134000082525610A4C050A25706070080AA070FE
:10135000E170100A20716271180AA071E3716B4686
:1013600022460249034800F0AAF838BDB403002021
:10137000160000207400002000B58BB00020012171
:10138000CDE906010891009001900290039005902C
:1013900004906946024800F001F90BB000BD00005E
:1013A00074000020014800F0F4B90000740000202F
:1013B00000B58BB001210020CDE9060108910E2176
:1013C0000090099101900290059103900490694664
:1013D000024800F0E3F80BB000BD00009C000020C4
:1013E000014800F0D6B900009C00002010B504466A
:1013F00000F040FC0221204600F04FF8002803D006
:10140000BDE8104000F047B810BD0000014800F0F2
:10141000BFBC00009401002001681823CAB2103A32
:10142000B2FBF3F2054B6FF30901032A9B5CC36522
:1014300000D9091D81650846704700004C3F00082F
:1014400010B5014600208B698A6A4FF0C07453B111
:10145000B3F5005F15D072B1012A0CD0022A0AD070
:10146000032A09D104E01AB1012A06D0022A03D1C5
:10147000C96AC90100D5012010BDC96AA142FAD0CC
:1014800010BD002AF7D0012AF2D0022AF3D0032A95
:10149000F3D010BD704772B6FEE790F82020012A05
:1014A00007D0022A05D0416A41F48021416201201F
:1014B0007047006842690A43426100207047F0B5F6
:1014C00090F820500468A468012D05D0022D03D0A7
:1014D000416A41F480215DE014F0406F01D1E500E4
:1014E00055D5C4F30164022C03D9416A41F40001CB
:1014F00050E00125A5401D608D684FF4C0739DB17B
:10150000CE6835434E6845EAC605066803EB041706
:10151000F5514FF4C275076805EB04150E697E514D
:10152000097D012905D009E00E88CD6845EA4655B8
:10153000EBE701684E5946F480764E511179D57922
:10154000567941EA056195792D0445EA0625294336
:101550004FF4C676056806EB0416A9511178D578C4
:1015600041EA0561957852782D0445EA022211433B
:101570004FF4C475026805EB04155151006803EB84
:101580000411425842F0010242500020F0BD416A6D
:1015900041F4001141620120F0BD000010B590F847
:1015A0002020012A07D0022A05D0416A41F4802177
:1015B0004162012010BD3B48D0F8002242F00102F8
:1015C000C0F80022D0F8002222F47C52C0F8002299
:1015D000D0F800224B6A42EA0322C0F800220A7DBA
:1015E00002F01F0301229A40D0F81C329343C0F846
:1015F0001C32CB69B3B9D0F80C329343C0F80C322B
:101600008C894B6864F31F434C6900EBC404C4F835
:1016100040320C890B6864F31F434C6900EBC4042F
:10162000C4F84432CB69012B16D1D0F80C321343E5
:10163000C0F80C320C884B6864F31F434C6900EB14
:10164000C404C4F840320C89CB6864F31F434C696E
:1016500000EBC404C4F844328B69002BD0F8043288
:101660000ED01343C0F804320B69002BD0F81432AB
:1016700008D01343C0F81432096A012904D008E0E5
:101680009343EFE79343F5E7D0F81C121143C0F8FA
:101690001C12D0F8001221F00101C0F80012002045
:1016A00010BD000000640040704730B590F8204045
:1016B000012C05D0022C03D0416A41F480215DE069
:1016C0000468002955D02469A40754D04FF4D87475
:1016D000056804EB01142D5915F0040595600568A3
:1016E0002D594ED0ED08556005682C5904F00204C0
:1016F000D4604FF4DA74056804EB01142D5905F039
:101700000F05156105682D59C5F307259561056815
:101710002C59240C54614FF4DC72046802EB011262
:10172000A4581C700468A458240A5C700468A45867
:10173000240C9C700468A258120EDA704FF4DE720A
:10174000046802EB0112A4581C710468A458240A0E
:101750005C710468A458240C9C710468A258120E91
:10176000DA71006881B1016941F020010161002056
:1017700030BDE468A8E7416A41F4001141620120EC
:1017800030BD6D0D1560AFE7C16841F02001C1604B
:10179000EDE72DE9F05F0546006800244669D0F8C2
:1017A00004908768D0F80CB0D0F810A0D0F818805A
:1017B000F10748D0F90714D001218160B80703D59B
:1017C000284600F084FA0CE0780702D54FF4006454
:1017D00007E0380702D54FF4805402E0284600F0B5
:1017E00075FAF80516D529684FF480708860B80539
:1017F00003D5284600F06DFA0CE0780502D544F4D4
:10180000005407E0380502D544F4804402E028463D
:1018100000F05EFAF80316D529684FF4803088602E
:10182000B80303D5284600F056FA0CE0780302D539
:1018300044F4004407E0380302D544F4803402E065
:10184000284600F047FA300707D55FEACB6004D599
:101850002968102044F40074C86070074FF008072E
:1018600007D55FEA0B7004D52868C760284600F0EA
:1018700099F9B00706D52868C068800702D02846C5
:1018800000F092F9700607D55FEACA6004D52968AE
:10189000102044F480640861B00607D55FEA0A703E
:1018A00004D528680761284600F0E0F9F00606D55F
:1018B00028680069800702D0284600F0D8F9B003F4
:1018C00008D55FEAC96005D5296810204860284618
:1018D00000F0CEF9F00307D55FEA097004D5286857
:1018E0004760284600F0F8F9300446D55FEA4970B1
:1018F00040D5F00504D55FEAC87001D044F001047A
:10190000B00504D55FEA887001D544F00204700583
:1019100004D55FEA487001D544F00404300529D5A8
:1019200018F0700F26D008F07000402815D006DCA3
:10193000102809D020280AD0302816D10AE05028D3
:101940000ED0602811D10EE044F008040DE044F000
:1019500010040AE044F0200407E044F0400404E0EE
:1019600044F0800401E044F480742868816921F027
:1019700070018161296804204860002C05D0686AE4
:10198000204368622846FFF78FFEBDE8F09F70B5E0
:10199000040003D094F8200010B104E0012070BDD1
:1019A000204600F081F82068016841F001010160E3
:1019B00000F032FC0546052604E000F02DFC401B3B
:1019C0000A2811D820684068C007F6D0206801684E
:1019D00021F00201016000F01FFC05460BE000F061
:1019E0001BFC401B0A2806D9606A40F40030606284
:1019F00084F82060D2E7206840688007EFD4207E1A
:101A00000128206801683DD021F080010160607EDE
:101A100001282068016838D021F040010160A07ED3
:101A200001282068016833D021F020010160E07EA8
:101A30000128206801682ED041F010010160207F4C
:101A400001282068016829D021F008010160607F29
:101A500001282068016824D021F004010160D4E944
:101A600002010843D4E90412114308436168491E86
:101A700008432168C86100206062012084F82000CA
:101A8000002070BD41F08001C0E741F04001C5E792
:101A900041F02001CAE721F01001CFE741F0080131
:101AA000D4E741F00401D9E7F0B587B0044614212A
:101AB0006846FEF79DFC364B3648DFF8D0E01968E3
:101AC000D4F800C0334A0325022609271030002429
:101AD000491CF44522D11960012907D1016841F060
:101AE00000710160006800F000700590106840F01F
:101AF000080010601068CDE9005600F00800CDE93C
:101B0000047069462448CDE9024500F08DFA0022B0
:101B10001146142000F0EEFB142032E0DFF87CE0E8
:101B2000F44530D1D0F800C04CF0806CC0F800C053
:101B3000D0F800C001290CF0806CCDF814C01960F9
:101B400007D1016841F000710160006800F0007089
:101B50000590106840F002001060106802AB00F0C1
:101B6000020005906020CDE9000683E8B0006946D8
:101B70000B4800F059FA00221146402000F0BAFB51
:101B8000402000F0A9FB07B0F0BD00000064004059
:101B90000000002030380240000C02400068004085
:101BA000000402407047000070B5054600682B49EC
:101BB0002B4C8CB0884224D107AB6A4600212846C2
:101BC000FFF773FD0098A0F20120062819D8C0B2D3
:101BD0002070244EC0EBC00006EB800081694A1CD7
:101BE0003229826107A902D802F028F801E002F048
:101BF0002AF8207807A9C0EBC00006EB800002F0AD
:101C000022F819492868884225D109AB6A46002183
:101C10002846FFF74AFD0098A0F2012006281AD8AE
:101C2000C0B2104D6070C0EBC000E03505EB800025
:101C300081694A1C3229826109A902D801F0FEFF9C
:101C400001E002F000F8607809A9C0EBC00005EBE4
:101C5000800001F0F8FF0CB070BD0000006400408F
:101C600014000020F4010020006800407047704715
:101C70007047000070B5044690F82000012804D099
:101C8000606A40F40020606218E0022084F82000BE
:101C90002068016821F00101016000F0BDFA0546ED
:101CA0000EE000BF00F0B8FA401B0A2808D9606AAD
:101CB00040F400306062052084F82000012070BDEF
:101CC00020684068C007EDD1606270BD7047704702
:101CD000704770477047704770472DE9F0410446E0
:101CE000876D00F099FA064694F835000025022821
:101CF00006D08020606584F834500120BDE8F08172
:101D00002068016821F0160101602068416921F016
:101D100080014161206C08B9A06C20B12068016885
:101D200021F0080101602068016821F001010160D3
:101D30000CE000F071FA801B052807D920206065AF
:101D4000032084F8350084F83450D7E72068006811
:101D5000C007EED194F85C103F208840B8600120A5
:101D600084F8350084F834500020C7E790F8351027
:101D7000022903D08021416501207047052180F8A8
:101D800035100068016821F00101016000207047F2
:101D90002DE9F84304464FF00009CDF80090634860
:101DA0004FF41651A56D0068B0FBF1F72E6894F85A
:101DB0005C10082000FA01F131420FD021680A6856
:101DC00052070BD50A6822F004020A6094F85C10EE
:101DD0008840A860606D40F00100606594F85C1078
:101DE0004FF0010808FA01F0304208D02168496933
:101DF000090604D5A860606D40F00200606594F8A3
:101E00005C1004208840304208D0216809688907A6
:101E100004D5A860606D40F00400606594F85C1023
:101E200010208840304218D021680968090714D56D
:101E3000A86020680168490304D50068000308D53C
:101E4000A16C07E00168C90503D4016821F008010D
:101E50000160216C09B12046884794F85C1020206D
:101E60008840304231D021680968C9062DD5A86064
:101E700094F8350005282068016806D0490347D545
:101E8000006800031DD4616C1CE021F016010160A4
:101E90002068416921F080014161206C08B9A06C83
:101EA00020B12068016821F00801016094F85C10FD
:101EB0003F208840A86084F8358084F83490216DF4
:101EC0001FE0E16B09B120468847606D00282BD0E8
:101ED000606DC00714D0052084F8350020680168C3
:101EE00021F0010101600098401C0090B84203D825
:101EF00020680068C007F6D184F8358084F83490F3
:101F0000E16C002910D001B02046BDE8F04308473D
:101F10000168C905D5D4016821F01001016084F879
:101F2000358084F83490CCE7BDE8F88310000020B9
:101F30002DE9F041044600F06FF906465CB102203D
:101F400084F83500002584F834502068016821F0B9
:101F5000010101600DE00120BDE8F08100F05CF9B5
:101F6000801B052805D920206065032084F83500F2
:101F7000F2E720680068C007F0D1226811682048A5
:101F80000140D4E901031843D4E90336334318432D
:101F900063691843A3691843E3691843236A184324
:101FA0000843616A042903D1D4E90B131943084398
:101FB000106020684069666A20F0070130460E43D1
:101FC000012704280CD1A06A0643E06A40B12046EC
:101FD000FFF736FA20B14020606584F83570BAE723
:101FE000206846612046FFF717FA94F85C203F21ED
:101FF00091408160656584F835700020ACE7000091
:102000003F8010F070B5044600F006F90546601CEC
:1020100002D004480078044400F0FEF8401BA042BF
:10202000FAD370BD040000202DE9F84FDFF8BCA101
:102030000022012503264FF00F090AF1040BAAF133
:10204000040E00BF0B6805FA02F42340A34270D1CE
:102050000F7907F00307012F01D0022F16D18768EF
:102060004FEA420806FA08FC27EA0C07D1F80CC030
:102070000CFA08FC4CEA070CC0F808C04768A743F4
:102080000C79C4F3001494403C4344600C79E4435D
:10209000A4070AD0C4684FEA420C06FA0CF7BC4306
:1020A0008F6807FA0CF72743C7600C7904F0030424
:1020B000022C12D1D40800EB840CDCF82040570726
:1020C000FF0E09FA07F824EA0804D1F8108008FA8C
:1020D00007F848EA0408CCF8208004684FEA420C6C
:1020E00006FA0CF7BC430F7907F0030707FA0CF761
:1020F000274307604C6814F4403F70D03C4C27687D
:1021000047F480472760246822F0030704F48044E2
:102110000094384C07EB040CDCF8084897074FEAAA
:10212000177809FA08F7BC43334FB84202D10027A9
:1021300024E054E0314FB84201D101271EE0304F76
:10214000B84201D1022719E02E4FB84201D103272E
:1021500014E02D4FB84201D104270FE02B4FB842B5
:1021600001D105270AE02A4FB84201D1062705E030
:10217000284FB84201D1072700E0082707FA08F7DF
:102180002743CCF80878DAF800405746D1F804C065
:102190009C435FEACC2C00D51C433C60DBF800403C
:1021A0005F46D1F804C09C435FEA8C2C00D51C43E9
:1021B0003C60DEF800407746D1F804C09C435FEAFB
:1021C0008C3C00D51C433C60084F083F3C68D1F86C
:1021D00004C09C435FEACC3C00D51C433C60521CCD
:1021E000102AFFF42FAFBDE8F88F0000083C014033
:1021F0004438024000300140000002400004024028
:1022000000080240000C024000100240001402408E
:1022100000180240001C024001488068704700001E
:1022200004000020024881680278114481607047F0
:10223000040000200B4810B5016841F400710160F2
:10224000016841F480610160016841F480710160BE
:10225000032000F06FF80F2000F006F800F024F8DB
:10226000002010BD003C024070B50D4D04464FF4F7
:102270007A712878B1FBF0F00A490968B1FBF0F0F7
:1022800000F00CFB48B9102C07D200222146501E4A
:1022900000F030F800206C6070BD012070BD0000BF
:1022A00004000020100000200A4808B5016841F42D
:1022B00080410160006800F4804000900548001FE4
:1022C000016841F080510160006800F0805000908A
:1022D00008BD000044380240002809DB00F01F025E
:1022E000012191404009800000F1E020C0F8001178
:1022F00070470000F0B40E4B1B680C46C3F302237A
:10230000C3F10705042D00D90425191D072901D2A1
:10231000002300E0DB1E012606FA05F1491E2140DC
:1023200099409E40761E16403143F0BC01F043BCFC
:102330000CED00E0064900F0070208684FF6FF03C5
:10234000184040EA0220034A10430860704700002A
:102350000CED00E00000FA052DE9F0470E460500FF
:1023600065D0DFF81481D8F80000F7B200F007005C
:10237000B04207D288F80070D8F8000000F00700DB
:10238000B04254D128683D4C810712D5400703D58F
:10239000206840F4E05020602878000703D52068CA
:1023A00040F4604020602068A96820F0F0000843F5
:1023B00020602878C0072DD0304968680839012886
:1023C00012D0022813D0032811D0096889070029E8
:1023D0002DDA216821F0030101432160FFF71CFF82
:1023E000814641F2883A0EE009688903EFE70968FF
:1023F0008901ECE7FFF710FFA0EB0901514502D975
:102400000320BDE8F0872068696800F00C00B0EB9D
:10241000810FEFD1D8F80010404601F00701B1421A
:1024200007D90770006800F00700B04201D0012012
:10243000E7E72878400705D52068E96820F4E050F0
:10244000084320602878000706D52068296920F411
:10245000604040EAC100206000F038F82168084A76
:10246000C1F30311515CC840064908600648006882
:10247000FFF7FAFE0020C4E7003C024008380240A3
:10248000543F0008100000200800002004480549BF
:1024900000680968044AC1F38221515CC840704752
:1024A0001000002008380240643F00080448054935
:1024B00000680968044AC1F34231515CC840704762
:1024C0001000002008380240643F0008154810B58D
:1024D000006810F00C02144813D01449042A0FD0DD
:1024E000082A0ED10F4C241F2268236802F03F02F5
:1024F0005B0207D52068C0F38810A0FB010106E04D
:10250000084610BD2168C1F38811A1FB000100231A
:10251000FDF7B7FE2168C1F30141491C4900B0FB3A
:10252000F1F010BD083802400024F400001BB70091
:102530002DE9F84F04006ED02078DFF84C93C007E7
:10254000A9F104054AD009F104000168C1F3810131
:10255000012908D00068C0F3810002280AD1D9F807
:102560000000400206D52868800337D5606800283F
:10257000E1D033E06068B0F5803F10D0B0F5A02F17
:10258000286810D020F480302860286820F480204B
:1025900028606068A8B1FFF73FFE06460DE0286896
:1025A00040F48030F4E740F480202860F7E700BF73
:1025B000FFF732FE801B642873D828688003F7D5A4
:1025C0000CE0FFF729FE064605E000BFFFF724FEFA
:1025D000801B6428F0D828688003F7D42078DFF8BF
:1025E000AC8280074FF0000A3ED5A748001D016865
:1025F00011F00C0F08D00068C0F3810002280BD145
:10260000D9F80000400207D42868800716D5E06892
:10261000012800D112E033E1E068B8B10120C8F828
:102620000000FFF7F9FD064605E000BFFFF7F4FDE7
:10263000801B0228C0D828688007F7D52868216940
:1026400020F0F80040EAC10028600DE0C8F800A0C2
:10265000FFF7E2FD064604E0FFF7DEFD801B0228DF
:102660001FD828688007F7D42078000722D5864F26
:1026700087486169703771B101210160FFF7CCFDB6
:10268000064604E0FFF7C8FD801B022809D8386819
:102690008007F7D50EE0C0F800A0FFF7BDFD0646A5
:1026A00005E082E0FFF7B8FD801B02287DD838687E
:1026B0008007F7D42078400768D5DFF8CCB1002731
:1026C0000BF13C0BDBF80000C0000BD4DBF8001072
:1026D00041F08051CBF80010DBF80000012700F03A
:1026E000805000906B4E3068C00510D4306840F4C4
:1026F00080703060FFF790FD009005E0FFF78CFDE3
:102700000099401A022850D83068C005F6D55E4EB0
:10271000A0686C3601280FD00528306810D020F052
:1027200001003060306820F004003060A068B8B16B
:10273000FFF772FD00900FE0306840F00100F4E711
:1027400040F004003060F7E7FFF766FD0099411A9A
:1027500041F28830814266D830688007F4D50EE0B7
:10276000FFF75AFD009007E0FFF756FD0099411A68
:1027700041F28830814256D830688007F4D42FB1B6
:10278000DBF8001021F08051CBF80010A069C8B32D
:102790003D49091D0968C1F3810102294AD0022877
:1027A000504607D0C8F8600000E03CE0FFF734FD79
:1027B00004463BE04746C8F86000FFF72DFD06469B
:1027C00005E000BFFFF728FD801B02282BD82868F2
:1027D0008001F7D4D4E907010843A16A2E4A4908C9
:1027E00002EB0141626A41EA8211084394F82C101D
:1027F00040EA0161C9F8001001203866FFF70CFDBE
:10280000044606E03EE000BFFFF706FD001B02287D
:1028100009D828688001F7D534E000BFFFF7FCFC39
:10282000001B022802D90320BDE8F88F2868800128
:10283000F4D427E00128F7D0D9F80000E26900F4C9
:10284000800191421CD1226A00F03F01914217D1D0
:1028500047F6C071626A0140B1EB821F10D1A26AD3
:102860004FF0FF3300F4403103EB5202B1EB024F63
:1028700006D194F82C1000F07060B0EB016F01D01D
:102880000120D1E70020CFE7043802400000474292
:10289000800E4742007000400000FFFF10B5401E50
:1028A000B0F1807F01D3012010BD4FF0E0246061C2
:1028B0000F21601701F07FF90020A061072020613F
:1028C000002010BD7047704770B590F83C20012A79
:1028D00032D0012480F83C40022280F83D20036879
:1028E0005A689D6822F070060A6832435A60134B9A
:1028F00002689A4214D0B2F1804F11D0104B9A4224
:102900000ED0104B9A420BD00F4B9A4208D00F4B6F
:102910009A4205D00E4B9A4202D00E4B9A4204D1F5
:10292000496825F080031943916080F83D400021FB
:1029300080F83C10084670BD022070BD00000140C8
:102940000004004000080040000C0040000401406A
:10295000004001400018004010B5040003D094F876
:102960003D0010B107E0012010BD002084F83C00BC
:10297000204600F01FF8022084F83D00211D206849
:1029800000F0FEFE012084F8460084F83E0084F842
:102990003F0084F8400084F8410084F8420084F845
:1029A000430084F8440084F8450084F83D0000208A
:1029B00010BD000008B500680B49884212D10B48D1
:1029C000016841F0100101600068002200F0100071
:1029D000009011463620FFF78DFCBDE808403620F8
:1029E000FFF77ABC08BD00000010004040380240EC
:1029F00090F83D10012901D001207047022180F894
:102A00003D100168CA6842F00102CA6000681149BD
:102A1000884214D0B0F1804F11D00F4988420ED0B7
:102A20000E4988420BD00E49884208D00D49884291
:102A300005D00D49884202D00C49884204D18168F2
:102A400001F00701062903D0016841F0010101608E
:102A500000207047000001400004004000080040D2
:102A6000000C0040000401400040014000180040FC
:102A7000704770B50446006801694FF00005C9430E
:102A8000890715D4C168C943890711D4E91E0161BA
:102A900001202077206880698007204602D0FFF758
:102AA000E7FF04E000F098F8204600F096F825775C
:102AB00020680169C943490717D4C168C943490758
:102AC00013D46FF00401016102202077206880692F
:102AD00010F4407F204602D0FFF7CAFF04E000F068
:102AE0007BF8204600F079F8257720680169C94312
:102AF000090716D4C168C943090712D46FF0080149
:102B00000161042020772068C0698007204602D038
:102B1000FFF7AEFF04E000F05FF8204600F05DF83C
:102B2000257720680169C943C90617D4C168C9431C
:102B3000C90613D46FF010010161082020772068C6
:102B4000C06910F4407F204602D0FFF791FF04E0F7
:102B500000F042F8204600F040F82577206801692F
:102B6000C943C90708D1C168C943C90704D1891E2F
:102B70000161204600F032F820680169C943090666
:102B800009D4C168C943090605D46FF08001016109
:102B90002046FFF797FE20680169C943490609D41A
:102BA000C168C943490605D46FF040010161204660
:102BB00000F0F0F820680169C94389060BD4C168A8
:102BC000C943890607D46FF0200101612046BDE8A2
:102BD0007040FFF778BE70BD704770472DE9F04137
:102BE00062492DED028B006888426FD160480378FE
:102BF0009FED600A014600F11C044A7891ED011A2C
:102C00000C30012B20D02546022BD5ED010AF1EE28
:102C1000600A1ED0032B24D0042B29D0052B30D0E2
:102C2000102B35D00546B0EE041A95ED000A112B95
:102C300035D0F2EE040A122B36D0132B39D0212BCB
:102C40003FD0222B43D04BE0012A49D0DFED4A0A86
:102C500012E0022A44D09FED491A06E0C4ED010AB1
:102C600013E0032A3CD09FED461A84ED001AF5E7E5
:102C7000042A35D0DFED430AC4ED000A60EEC10A34
:102C8000ECE7052A2CD084EC020A81ED020A27E049
:102C9000102A25D080ED000A9FED3B0A0EE0112A94
:102CA0001ED030EE010A16E0122A19D030EE200AAA
:102CB00011E0132A14D0DFED350AF7E780ED010AA1
:102CC0000EE0212A0CD030EE410A04E04AE0222A2C
:102CD00006D030EE600A80ED000AB1EE400AEDE762
:102CE00094ED000AD0ED000A214D9FED298A14359C
:102CF00030EE200A002405F1100785ED000AB1EE40
:102D0000400A85ED010A4B7005F1180605EB8400B9
:102D1000F0EE480A90ED000A00F05EFF07EB840039
:102D200080ED000A601D00F07FFC06EB8400641C4F
:102D300080ED000A022CE9DB96ED010A00231A4619
:102D4000BDEEC00A10EE100A96ED000ABDEC028B33
:102D5000BDEEC00ABDE8F04101B210EE100A00B2AB
:102D6000FEF7E6BABDEC028BBDE8F0810010004032
:102D70003C000020000000000030404500F02F45DE
:102D80000000614500007A450000008000004842D4
:102D90000080BB447047704770470000F8B5016879
:102DA00004460868CA684B6910F00F0F4FF0000521
:102DB00059D003F0010602F49077374365D0C1077C
:102DC00005D0D10503D5216C41F0010121644107F3
:102DD00005D5D90703D0216C41F002012164810798
:102DE00005D5D90703D0216C41F004012164010706
:102DF00007D502F02001314303D0216C41F00801D6
:102E00002164216C00293AD0800604D5900602D5B1
:102E1000204600F048FD20684069216CC0F3801016
:102E2000090700D460B3204600F016FD2068406911
:102E3000400621D52068143050E8001F21F04001E1
:102E400040E80012002AF5D1A06BA8B16C490165D9
:102E5000A06BFEF78BFF002811D0A06B016D01B0B5
:102E6000BDE8F040084783060FD593060DD52046F0
:102E7000BDE8F84000F017BD2046FFF78DFFF8BD14
:102E80002046FFF789FF2564F8BD266B2023012E1D
:102E900079D1C60677D5D60675D5086848680090FA
:102EA0004869400640D5A16B086840680004000CE2
:102EB000EAD0A28D8242E7D9E085C869B0F5807F6B
:102EC0002DD020680C3050E8001F21F4807140E8BC
:102ED0000012002AF5D12068143050E8001F21F0BC
:102EE000010140E80012002AF5D12068143050E8B2
:102EF000001F21F0400140E80012002AF5D184F8BB
:102F00003E30256320680C3050E8001F21F010018E
:102F100040E80012002AF5D1A06BFEF7DEFEA08D7E
:102F2000E18D401A81B229E0A08DE18D401A81B275
:102F3000E08D0028A8D00029A6D020680C3050E8E9
:102F4000002F22F4907240E80026002EF5D1206870
:102F5000143050E8002F22F0010240E80026002E35
:102F6000F5D184F83E30256320680C3050E8002FFE
:102F700022F0100240E80023002BF5D12046FFF795
:102F80000AFFF8BDFFE705062BD5150629D594F8ED
:102F90003D002128F5D1A068B0F5805F01D12069FE
:102FA000B0B1206A411C2162216800784860E08C41
:102FB000401E0004000CE084E3D12068C16821F0C9
:102FC0008001C1602068C16841F04001C160D8E75C
:102FD000206A0088C0F308004860206A801C2062D4
:102FE000E5E74006CDD55006CBD5CA68204622F08D
:102FF0004002CA6084F83D3000F0E6F8C1E7000006
:103000004938000870B5040004D094F83D0000254C
:1030100010B106E0012070BD84F83C50204600F05D
:1030200023F8242084F83D002068C16821F4005171
:10303000C160204600F098FC2068016921F49041AD
:1030400001612068416921F02A0141612068C1685D
:1030500041F40051C1602564202084F83D0084F8CB
:103060003E00002070BD0000F0B587B00546142179
:103070006846FDF7BDF9414B296800244048022607
:1030800003270722994236D13D49254614310B6862
:1030900043F010030B60096801F01001059101680D
:1030A00041F002010160016801F00201059101682F
:1030B00041F0010101600068029500F001000590F7
:1030C0008020CDE90006CDE90372144669462D48FB
:1030D000FEF7AAFF3002CDE900060295CDE90374A0
:1030E00069462948FEF7A0FF002211462520FFF778
:1030F00001F925203EE0254B99423DD12049103170
:103100000B6843F480230B60096801F4802105916A
:10311000016841F0040101600068029400F00400BD
:1031200005904FF44060CDE90006CDE90372694691
:103130001748FEF779FF184E164830604FF00060D0
:10314000C6E901044014C6E9034074614FF44030FD
:10315000B461C6E9074030467462FEF7E9FE08B183
:10316000FEF799F9AE63002211462720B563FFF7F9
:10317000C1F82720FFF7B0F807B0F0BD00100140FC
:103180003038024000040240000002400048004085
:1031900000080240286002409401002090F83E3070
:1031A000202B0ED159B152B190F83C30012B08D0F0
:1031B000012380F83C300023036300F05BBC012056
:1031C00070470220704770477047FEE70F4810B500
:1031D0000D4901600321416000214FF4C02281604C
:1031E000C0E903124FF4A002426101764176817674
:1031F000C17601774177FEF7CAFB002803D0BDE80E
:103200001040FEF748B910BD006400407400002073
:103210000F4810B50D4901600321416000214FF4B2
:1032200010228160C0E903124FF40012426101765E
:1032300041768176C17601774177FEF7A8FB0028B9
:1032400003D0BDE81040FEF726B910BD006800406D
:103250009C000020094808B5016841F40011016094
:103260000068002200F40010009011460C20FFF7C7
:1032700041F8BDE808400C20FFF72EB83038024076
:10328000154808B5016841F002010160016801F0CC
:1032900002010091016841F001010160016801F043
:1032A00001010091016841F008010160016801F02D
:1032B00008010091016841F004010160016801F01A
:1032C00004010091016841F080010160006800F094
:1032D0008000009008BD0000303802401CB500247A
:1032E0000E4800940C49019401605321C0E9011477
:1032F00040F2E7318461C160FFF72EFB08B1FEF7B1
:10330000CAF80094694605480194FFF7DDFA0028E1
:1033100001D0FEF7C0F81CBD00100040C400002022
:103320000C4810B50A4901604FF4E13141600021B9
:1033300081600C22C160C0E904128161C161FFF7A4
:1033400061FE002803D0BDE81040FEF7A4B810BD10
:10335000001001400C0100200C4810B50A49016022
:103360000B494160002181600422C160C0E9041260
:103370008161C161FFF746FE002803D0BDE810401F
:10338000FEF789B810BD0000004800405001002041
:10339000A0860100FEE7FEE7A0B1D0ED101AC0ED57
:1033A000111A90ED0F1A80ED101AC0ED060A80ED8B
:1033B000070A30EEC00A80ED0F0A017829B1012911
:1033C0003BD078E09FED3D0A7047D0ED010A60EEFA
:1033D000801AC0ED091AD0ED0A0A90ED022A42EED9
:1033E000000A30EE410AC0ED0A0A90ED0D2A80ED88
:1033F0000E2A90ED0C2A80ED0D2A80ED0C0A90ED3E
:10340000031A21EE001A80ED0B1A90ED050AF4EE76
:10341000C00AF1EE10FA09DCB1EE400AF4EEC00A7F
:10342000F1EE10FA02D390ED0A0A01E080ED0A0AEB
:1034300031EE800A30EE010A2BE070EE410A90ED89
:10344000012A20EE822A80ED092AD0ED020A60EEE0
:10345000800AC0ED0A0AD0ED0D2A72EE200AC0EDF6
:103460000E2AD0ED0C2AC0ED0D2AF0EE002A01EE56
:10347000620A30EE210A80ED0C0A90ED031A21EE6B
:10348000000A80ED0B0A30EE800AD0ED080A30EE1B
:10349000200A80ED080AD0ED040AB4EEE00AF1EE4D
:1034A00010FA06DCF1EE600AB4EEE00AF1EE10FA72
:1034B00001D2C0ED080A90ED080A70470000000034
:1034C0002DE9F0473B4E00242DED048B06F51077D7
:1034D00006F590699FED388ADFED388A9FED389ABE
:1034E000DFED389A06F5D86804EBC40506EBC50095
:1034F000F0EE480AB0EE680A334A002100F066F8A0
:10350000314A07EBC500F0EE490AB0EE690A0C3209
:10351000002100F05BF809EBC500F0EE480AB0EEC0
:10352000680A294A002100F051F8274A08EBC50033
:10353000F0EE490AB0EE690A0C32002100F046F8BC
:10354000641C042CD0DBB24604244E4604EBC405B4
:103550000AEBC500F0EE480AB0EE680A1A4A0021EC
:1035600000F034F8184A07EBC500F0EE490AB0EE57
:10357000690A0C32002100F029F806EBC500F0EED4
:10358000480AB0EE680A104A002100F01FF80E4AFF
:1035900008EBC500F0EE490AB0EE690A0C320021D2
:1035A00000F014F8641C082CD0DBBDEC048BBDE8E3
:1035B000F0870000CC0300200080BB4500401C4683
:1035C000000096430000C84320000020002828D0B7
:1035D000002A26D0017092ED001A80ED011A92EDBA
:1035E000011A80ED021A92ED021A80ED031A80EDA5
:1035F000040A9FED0C0AC0ED050A80ED0E0A80ED6D
:103600000D0A80ED0C0A80ED080A80ED0B0A80EDB2
:103610000A0A80ED090A80ED110A80ED100A80ED9A
:103620000F0A7047000000000C4AC0EBC00110B543
:1036300002EB8101F0EE400A31F91A1C00EE101A7B
:1036400000EBC0010648B8EEC00A00EBC104A4F1CB
:103650004800FFF7A1FE14ED0A0A10BDF401002096
:10366000CC0300207047000030B5144B1C6865691E
:1036700045F0400565611B68DC6844F01004DC60BF
:103680000F4B1C68256825F0010525601C6825681E
:10369000ED07F7D11D680B4CAC601C68E060186842
:1036A0000161186842601868016841F48021016076
:1036B0001868016841F00101016030BD500100202F
:1036C00094010020044800407047FEF7ABBD0000A5
:1036D00030B593B030216846FCF78AFE14210CA85F
:1036E000FCF786FE1D480025016841F0805101600D
:1036F000006800F0805011901948016841F4804141
:1037000001600068022400F48040119001200090C4
:10371000000401908001CDE9064006200890A82011
:10372000CDE9090404200B906846FEF701FF08B1BB
:1037300072B6FEE70CA90F2081E831004FF4A050CB
:103740000F904FF48050109005210CA8FEF704FE56
:10375000002801D072B6FEE713B030BD40380240F9
:10376000007000400248016841F470010160704738
:1037700088ED00E00148FFF77CB90000C40000209C
:10378000F0B50268254C264D264E274F274B4FF0AB
:10379000804CA04209D0604507D0A84205D0B04275
:1037A00003D0B84201D0984204D122F0700E4A688A
:1037B00042EA0E02A0421BD0604519D0A84217D0A1
:1037C000B04215D0B84213D0984211D0184DA8423B
:1037D0000ED0184DA8420BD0174DA84208D0174D57
:1037E000A84205D0164DA84202D0164DA84203D1DA
:1037F00022F44075CA682A434D6922F080022A43A8
:1038000002608A68C2620A688262A04201D098425D
:1038100001D10969016301214161F0BD000001404E
:103820000004004000080040000C0040000401407B
:1038300000400140004401400048014000180040A1
:10384000001C00400020004010B5806B0021C185A5
:10385000C184FFF7A1FA10BD01680C3151E8002FB7
:1038600022F4907241E80023002BF5D10168143155
:1038700051E8002F22F0010241E80023002BF5D18E
:10388000016B012909D101680C3151E8002F22F0A8
:10389000100241E80023002BF5D1202180F83E10D2
:1038A00000210163704708B590F83E10222901D02D
:1038B000022008BD82684FF480539A4201D1016909
:1038C00021B1816A9A421BD04AB10AE00268816A3A
:1038D0005268C2F308020A80816A891C08E0026902
:1038E00072B10268526802F07F020A70816A491C54
:1038F0008162C18D491E0904090CC18503D019E0FC
:1039000002685268F1E70168CA6822F02002CA60C2
:103910000168CA6822F48072CA6001684A6922F0AC
:1039200001024A61202180F83E10016B012903D079
:10393000FFF749FC002008BD0021016301680C313C
:1039400051E8002F22F0100241E80023002BF5D1AE
:1039500001680A68D20602D50A6849680091818D1B
:10396000FFF719FAE6E7000070B504460068016940
:10397000E26821F44051114301612169A068E269C4
:1039800008436169114308432168CA6849F20C631E
:103990009A430243CA6020684169A26921F44071D8
:1039A0001143416131492068884202D03049884240
:1039B00002D1FEF77BFD01E0FEF768FDE26900231E
:1039C000192164253226B2F5004F626828D0A0FB89
:1039D0000101930F9200FCF754FC0146B0FBF5F097
:1039E0006FF01802504301EB800006EB0010B0FBB3
:1039F000F5F000F0F002B1FBF5F002EB0012B1FBC4
:103A0000F5F06FF01803584301EB800006EB00104F
:103A1000B0FBF5F000F00F0021681044886070BD25
:103A2000A0FB010192185B41FCF72BFC0146B0FBA7
:103A3000F5F00201B1FBF5F06FF01803584301EB0C
:103A4000800006EBC000B0FBF5F000F0F80002EBE0
:103A50004002B1FBF5F0584301EB800006EBC000DB
:103A6000B0FBF5F000F00700D6E7000000100140C1
:103A70000014014081628285C285002101642222F6
:103A800080F83E2080F83C10016921B10168CA68C5
:103A900042F48072CA6001684A6942F001024A61D8
:103AA0000068C16841F02001C1600020704700003B
:103AB00010B50548FFF772F9BDE81040012203492F
:103AC0000148FFF76BBB00000C0100203C00002008
:103AD000264818B400680168890604D50168406862
:103AE000009018BC704722490968C906F9D50168D9
:103AF0004068204A0090106801684FF024030C03CE
:103B00001D49046824F00104046016D41068446858
:103B1000C4F12404A4B20C8043601068016841F42D
:103B2000002101601068016841F001010160122C60
:103B3000D7D1124901F1160015E014686068C0F190
:103B4000240080B2088063600D498B6A23F400234F
:103B50008B6211680A6842F001020A601228C0D123
:103B6000064901F13A0018BC00F002B950010020EA
:103B7000004800409401002038000020CC0C0020B8
:103B800000600240FEE703B401984100009850EA4B
:103B9000C12018BF04204A0D18BF40F0010040F2B8
:103BA000FF72B2EB515F08BF40F00200012808BF6E
:103BB000052002B070470907090E002804DB00F158
:103BC000E02080F80014704700F00F0000F1E020C2
:103BD00080F8141D70477047C0EE201A114890ED10
:103BE000021A61EE810AF5EEC00AF1EE10FA02DD6A
:103BF000F0EE601A01E0F1EE601AB5EEC00AF1EEE7
:103C000010FA01DCB1EE400AF4EEC01AF1EE10FA3F
:103C100005D8B7EE000A31EE000A80ED020AB0EED8
:103C2000600A70473C00002003490A685206FCD530
:103C3000C2B24A607047000000100140098849BACA
:103C400001808182704710B5B0F9003003810A8885
:103C500052BA02804C88D31A64BA44808C88B3F577
:103C6000805F64BA848089798171016901DD491EB0
:103C700003E013F5805F01DA491C016102EB413179
:103C8000828A891AC16010BDFEF7D4FAFFF720FDC1
:103C9000FFF7F6FAFFF7DEFAFFF742FBFFF75CFBF0
:103CA000FFF794FAFFF7B4FAFFF718FB00F058F8A3
:103CB000FFF706FCFDF760FBFDF77AFB1748FDF701
:103CC00095FB1748FDF792FB012216491648FFF7AE
:103CD00065FA1648FEF78CFE154C164D4FF4FA7631
:103CE00015A0FCF745FB206800F0B8F841EC100B7C
:103CF00015A053EC102BFCF73BFB14A0FCF738FB92
:103D0000286800F0ABF841EC100B0FA053EC102B1F
:103D1000FCF72EFB3046FEF775F9E1E77400002052
:103D20009C0000203C0000200C010020C40000206A
:103D30004800002050000020B5B1C7B064656C7425
:103D400061CAC73A0000000025660000B5B1C7B0DF
:103D5000C9CFC4A6B2C1B9F6CBD9B6C8CAC73A0052
:103D600002492422A1F12400FFF77EBC060D0020A9
:103D7000F0B5002855D0002953D00278437842EAA4
:103D80000322C2F30A020A8043788478DB0843EAFC
:103D90004413C3F30A034B808478C578A40944EA2A
:103DA0008504057944EA8524C4F30A048C800579E6
:103DB00046796D0845EAC615C5F30A05CD804679F2
:103DC000C6F301168E724679B609CE728679C77926
:103DD00046EA07268E81067A477A46EA0726CE818A
:103DE000867AC77A46EA07260E82067B8E74467B61
:103DF000CE74867BC77B46EA07268E82067C407C93
:103E0000A2F580620A80A3F580634B80A4F58064EC
:103E100046EA00208C80A5F58065CD80A0F5806005
:103E20000881F0BD10B500290AD00878002807D015
:103E300005487844FCF772FE002801D0002010BD30
:103E40000248784410BD0000EE010000E6010000C9
:103E50000808A0F500114FEA3101704743004FEA0E
:103E6000D30C4FEA3C0C43401FBF40070CF160519C
:103E700013F0FE4F70471CF0006F03D100200CF0D0
:103E8000004170470CF0004343EA507010B540EA1F
:103E9000CC0000F00EF800BF000000924FEA0001D5
:103EA000FFF7D6BF4FF000414FF00000A1F5002111
:103EB00070470EF1020E2EF0030E5EF8044B244202
:103EC00004D44FEA4102B2F17F4F11D84FEA4003C8
:103ED000B3F17F4F0CD80ED14FEAD07CB2F17F4FB7
:103EE0000CEB4C0C0CF1020C08BF4CEBD17C04E049
:103EF0004FF0080C01E04FEAD17C0CEB4C0324FAA4
:103F000003F404F00704B4F1040C06D20EEB840CA5
:103F1000BDE810404CF0010C6047DFE80CF00708EA
:103F200002024FF00040A0F5800010BD084642009C
:103F300018BFD2F1807288BF00F0004010BD4FF072
:103F40004070E1EE100A7047FCF756BB00061016F1
:103F5000000610160000000000000000010203042B
:103F600006070809000000000102030402400000E7
:103F7000000000A00000000005400000000000C894
:103F8000000000000C4000000000409C0000000009
:103F9000194000000020BCBE0000000034400000BA
:103FA000BFC91B8E00000004B5400000504BCFD0AD
:103FB0006607E2CF010000006C4100003E8251AA7A
:103FC000DFEEA73401000000D9420000DCB5A0E21A
:103FD0003A301F97FFFFFFFFB4450000FD25A0C842
:103FE000E9A3C14FFFFFFFFFFF3F0000000000807B
:103FF00000000000FF3F0000000000800000000003
:104000003C4000080000002074000000C4010008CB
:10401000B0400008740000201C130000E0010008FC
:104020001C00000043000000F8FFFFFF0C00000030
:104030000E0000000F0000002E0000000000000035
:104040000100000010000000000000000024F40047
:1040500000000000000000000000000000007041AF
:10406000000000009A99993FCDCC4C3E0000000022
:104070000000803F0000000000000000FA181C3F14
:104080000000000000000000000000000000000030
:104090000000000000000000000000000000000020
:1040A0000000000000000000000000000000000010
:040000050800018965
:00000001FF
