:020000040800F2
:10000000005E0020590200086126000879220008DD
:10001000E52300089D0500087D2F00080000000072
:10002000000000000000000000000000C1280008DF
:10003000450700080000000081270008712A000819
:1000400073020008730200087302000873020008BC
:1000500073020008730200087302000873020008AC
:10006000730200087302000873020008730200089C
:1000700039070008730200087302000873020008C1
:10008000730200087302000873020008730200087C
:10009000A10500087302000873020008730200083B
:1000A000730200087302000873020008730200085C
:1000B000730200087302000873020008730200084C
:1000C000730200087302000873020008730200083C
:1000D000730200087302000873020008852D0008EF
:1000E000730200087302000873020008730200081C
:1000F000730200087302000873020008730200080C
:1001000073020008730200087302000873020008FB
:100110007302000873020008730200084D2B0008E8
:1001200073020008730200087302000873020008DB
:1001300073020008730200087302000873020008CB
:10014000AD0500087302000873020008730200087E
:1001500073020008730200087302000873020008AB
:10016000730200087302000873020008730200089B
:100170007302000873020008730200080000000008
:10018000730200087302000800F002F800F054F84F
:1001900014A696E8000CB244B344DA4501D100F04D
:1001A0004BF8BAE80F000FA696E83000A5EB04055F
:1001B00004EB0607AAEB0704A7F101074FEA1515A0
:1001C0004FEA3414A4F10104AC4201D300F034F836
:1001D00013F0010F18BFFB1A43F0010300F001F800
:1001E000DBE718473C7700005C770000103A24BF3B
:1001F00078C878C1FAD8520724BF30C830C144BF8C
:1002000004680C6070470000704700000023002461
:1002100000250026103A28BF78C1FBD8520728BF16
:1002200030C148BF0B6070471FB507F06AFA00F095
:1002300023F91FBD10B510BD00F07AF91146FFF784
:10024000F3FF03F037FA00F098F903B4FFF7F2FF79
:1002500003BC00F09BF900000948804709480047AB
:10026000FEE7FEE7FEE7FEE7FEE7FEE7FEE7FEE766
:10027000FEE7FEE704480549054A064B70470000C3
:10028000392B00088901000800580020005E00207A
:10029000005A0020005A002053EA020C00F0698046
:1002A0002DE9F04B4FF00006002B1FBFB3FA83F58A
:1002B00003FA05F424FA05F65E4012BF1643B2FABB
:1002C00082F502FA05F4C5F120051EBF22FA05FCED
:1002D00044EA0C04203556EA044C4FEA144418BF93
:1002E000641C4FF000084FF00009904271EB030CC2
:1002F00039D3002919BFB1FA81F701FA07F6B0FA2C
:1003000080F700FA07F6C7F120071EBF20FA07FCA6
:1003100046EA0C062037B6FBF4FCA7EB0507103FB6
:1003200007F01F0BCBF120062CFA06F60CFA0BFB9C
:1003300044BFB3460026202FA4BF5E464FF0000BFB
:100340005BEA060C08BF4FF0010B19EB0B0948EBF9
:100350000608ABFB027C06FB02CC0BFB03CCC01BEC
:1003600071EB0C01C1E70B46024641464846BDE829
:10037000F08B13B5084318BF4FF0FF300146AFF3C1
:100380000080BDE81C407047032A40F2308010F026
:10039000030C00F0158011F8013BBCF1020F624420
:1003A00098BF11F801CB00F8013B38BF11F8013BB1
:1003B000A2F1040298BF00F801CB38BF00F8013B5E
:1003C00011F0030300F07980083AC0F0088051F87A
:1003D000043B083A51F804CBA0E80810F5E7121DD9
:1003E0005CBF51F8043B40F8043BAFF30080D207F8
:1003F00024BF11F8013B11F801CB48BF11F8012BC4
:1004000024BF00F8013B00F801CB48BF00F8012BE6
:10041000704702F0FF0343EA032242EA024200F07F
:1004200002B84FF0000200B51346944696462039B4
:1004300022BFA0E80C50A0E80C50B1F12001BFF49D
:10044000F7AF090728BFA0E80C5048BF0CC05DF803
:1004500004EB890028BF40F8042B08BF704748BF51
:1004600020F8022B11F0804F18BF00F8012B7047C5
:10047000704770477047000008487CB5784400908A
:1004800007487844009C0546019004E02046016836
:1004900008448047241DAC42F8D17CBDC0740000E4
:1004A000BE74000010B500F03BF8006810BD10B538
:1004B000044600F035F8046010BD10B5203AC0F0D5
:1004C0000B80B1E81850A0E81850B1E81850A0E827
:1004D0001850203ABFF4F5AF5FEA027C24BFB1E8C0
:1004E0001850A0E8185044BF18C918C0BDE8104003
:1004F0005FEA827C24BF51F8043B40F8043B08BF0C
:100500007047D20728BF31F8023B48BF11F8012BD2
:1005100028BF20F8023B48BF00F8012B70470000BD
:1005200000487047700000200048704770000020AD
:100530007546FFF7F9FFAE4605006946534620F0C1
:100540000700854618B020B5FFF794FEBDE82040AF
:100550004FF000064FF000074FF000084FF0000B7F
:10056000AC46ACE8C009ACE8C009ACE8C009ACE8EE
:10057000C00921F007018D46704710B50446AFF35E
:1005800000802046BDE81040FFF75FBE01491820FB
:10059000ABBEFEE72600020070470000FEE7000049
:1005A00040F29840C2F2000000F0E2BA40F2C040CF
:1005B000C2F2000000F0DCBA2DE9F04F81B02DED61
:1005C000088B82B040F21844C2F20004206D9FED07
:1005D0004D9A00EE100A80EE090A9FED4B8A9FEDBE
:1005E0004BAA40F2D8509FED4ABAC2F20000451C17
:1005F0002846042120EE080A20EE0A0A20EE0B0A03
:1006000002F0A6FF2069BDEEC00A10EE108A00EECF
:10061000100A2846002102F077FF606DBDEEC00A87
:1006200001EE100A81EE091A10EE109A28460521F3
:1006300021EE080A20EE0A0A20EE0B0A02F088FFDB
:100640006069BDEEC00A10EE10AA00EE100A28463E
:10065000012102F059FFA06DBDEEC00A01EE100AA3
:1006600081EE091A10EE10BA2846062121EE080A7A
:1006700020EE0A0A20EE0B0A02F06AFFA069BDEE26
:10068000C00A10EE106A00EE100A2846022102F09D
:100690003BFFE06DBDEEC00A01EE100A81EE091AC3
:1006A00010EE107A2846072121EE080A20EE0A0AE9
:1006B00020EE0B0A02F04CFFE069BDEEC00A10EE1E
:1006C000104A00EE100A2846032102F01DFF40F2F6
:1006D0005420C2F2000000F5E175284649465A460A
:1006E0003B46009402F06AFF284641465246334694
:1006F000009402F08FFF02B0BDEC088B01B0BDE8A2
:10070000F08F00BF0000B44300001042000000461C
:100710006666564010B5044600F016F8204602F012
:10072000E3F8204601F0DAFE204601F05DFE2046A7
:10073000BDE8104001F098BF40F2E840C2F200006E
:1007400000F05EBD704700002DE9F0412DED068BF5
:10075000044640F25C08A168C2F2000898ED011A54
:10076000006808EE101A28EE011AB6EE009A00EEA4
:10077000100A21EE091A30EE410A676898ED00AAC6
:1007800010EE100A06F04CFF02460B4606F04EFC37
:1007900028EE0A1A00EE107A21EE091A30EE410A0C
:1007A000054610EE100A0E4606F03AFF02460B46CA
:1007B00006F03CFC02460B462846314606F0CAF9D4
:1007C00041EC100B05F074FFE06825686768A668C7
:1007D000B0EE408AF0EE608A06F022FF02460B4639
:1007E00051EC180B06F022FC06F082F998ED011A84
:1007F00008EE106A28EE011A00EE105A21EE091ACE
:1008000030EE010A206198ED00AA10EE100A06F001
:1008100007FF02460B4606F009FC28EE0A1A00EE16
:10082000107A21EE091A30EE410A054610EE100A40
:100830000E4606F0F5FE02460B4606F0F7FB0246B2
:100840000B462846314606F085F941EC100B05F0C1
:100850002FFFE06825686768A668B0EE408AF0EE72
:10086000608A06F0DDFE02460B4651EC180B06F0DE
:10087000DDFB06F03DF998ED011A08EE106A28EE4E
:10088000011A00EE105A21EE091A30EE010A6061D9
:1008900098ED00AA10EE100A06F0C2FE02460B46C2
:1008A00006F0C4FB28EE0A1A00EE107A21EE091AAF
:1008B00030EE010A054610EE100A0E4606F0B0FEB4
:1008C00002460B4606F0B2FB02460B46284631466E
:1008D00006F040F941EC100B05F0EAFEE0682568EF
:1008E0006768A668B0EE408AF0EE608A06F098FE6F
:1008F00002460B4651EC180B06F098FB06F0F8F890
:1009000098ED011A08EE106A28EE011A00EE105A4E
:1009100021EE091A30EE410AA06198ED00AA10EE0E
:10092000100A06F07DFE02460B4606F07FFB28EE1D
:100930000A1A00EE107A21EE091A30EE010A054675
:1009400010EE100A0E4606F06BFE02460B4606F04D
:100950006DFB02460B462846314606F0FBF841EC9B
:10096000100B05F0A5FEE068B0EE408AF0EE608A5C
:1009700006F056FE02460B4651EC180B06F056FBED
:1009800006F0B6F8E061BDEC068BBDE8F081000032
:1009900072B600BFFEE7000010B590F820E0D0F876
:1009A00000C0AEF1010EBEF1010FDCF808E011D875
:1009B0001EF0E05F18D0CEF301640120A040186063
:1009C0008B68DBB1D1F804E0C86840EACE0040EAA9
:1009D000030E17E000F1240301204FF480211A6870
:1009E0001143196010BD00BF00F1240301204FF432
:1009F00000111A681143196010BD00BF0868CB6868
:100A000043EA405E0CF5C07000EB0413240140F88B
:100A100004E00C69184640F8044F097D012903D110
:100A2000016841F48071016050680121D86010684C
:100A3000986000201A681143196010BD70470000CB
:100A4000B0B590F82040013C012C7DD8D0F800C012
:100A500000290CBFDCF80C40DCF81040A4077DD066
:100A60000CF5D8754FEA011C55F80C4014F004043D
:100A7000946055F80CE005EB011C19BF4FEADE0548
:100A800055604FEA5E551560DCF80050E64605F00B
:100A90000205D5605EF8044F24075ABFDEF8004017
:100AA00004F00F0408241461DEF800400029C4F3A8
:100AB00007249461DEF800504FEA15455561DCF8D3
:100AC00008201A70026802EB0112D2F8B8214FEA2E
:100AD00012225A70026802EB0112D2F8B8214FEAD2
:100AE00012429A70026802EB0112D2F8B8214FEA62
:100AF0001262DA70026802EB0112D2F8BC211A719C
:100B0000026802EB0112D2F8BC214FEA12225A719C
:100B1000026802EB0112D2F8BC214FEA12429A712C
:100B2000026802EB0112D2F8BC214FEA1262DA71BC
:100B300000680CBF00F10C0100F110010020202220
:100B40000B681A430A60B0BD00F1240101204FF484
:100B500080220B681A430A60B0BD00BF00F1240177
:100B600001204FF400120B681A430A60B0BD000068
:100B70002DE9F04F81B0044600684669D0F8049032
:100B80008768D0F80CB0D0F810A0D0F81880F10722
:100B900004D1002530071DD424E000BFF90710D090
:100BA0000121BA07816009D4780700F1AF803807C6
:100BB00000F1B680204600F015FB02E0204600F070
:100BC00013FB0025F80500F18780F80300F1B180E0
:100BD000300707D51BF0100004D0206845F40075DD
:100BE0001021C160700708D51BF0080005D02068EF
:100BF0000821C160204600F0F5F9B00706D520684D
:100C0000C068800702D0204600F0EEF9700607D5D4
:100C10001AF0100004D0206845F4806510210161AD
:100C2000B00608D51AF0080005D020680821016137
:100C3000204600F0D1FAF00606D52068006980074A
:100C400002D0204600F0CAFAB00308D519F010000F
:100C500005D0206810214160204600F0C1FAF00361
:100C600008D519F0080005D0206808214160204609
:100C700000F0C4FA300440F19B805FEA497040F113
:100C8000948006F4807008EA102028435FEA887197
:100C9000014648BF41F00201B20558BF01465FEA74
:100CA00048700D4648BF45F00405700558BF0D4615
:100CB000300540F17A8018F0700000F0768010382E
:100CC000000905286CD8DFE800F003655D6159690B
:100CD00045F0080564E000BF20684FF48071BA0554
:100CE00081600BD4780515D438051DD4204600F05A
:100CF0007DFAF8037FF56CAF1BE000BF204600F0E3
:100D000077FAF8037FF564AF13E000BF4FF4006596
:100D100058E700BF05F50055F8037FF559AF08E027
:100D20004FF480554EE700BF05F58045F8037FF589
:100D30004FAF20684FF48031BA0381600AD4780342
:100D400010D4380314D4204600F054FA30073FF58D
:100D500041AF47E7204600F04FFA30073FF53AAF82
:100D600040E700BF05F5004530073FF533AF39E7F1
:100D700005F5803530073FF52DAF33E745F08005A9
:100D80000EE000BF45F020050AE000BF45F0400539
:100D900006E000BF45F0100502E000BF45F4807595
:100DA0002068816921F0700181612068042141601F
:100DB00055B1606A40EA05012046616201B0BDE8B4
:100DC000F04FFFF73BBE00BF01B0BDE8F08F000061
:100DD000002804BF01207047B0B5044690F82000F9
:100DE00010B9204600F06EF82068016841F001015A
:100DF000016000F069FC054620684168C90705D11B
:100E000000F062FC401B0B28F6D310E0016821F0D3
:100E10000201016000F058FC054600BF20684168EF
:100E200089070DD500F050FC401B0B28F6D3606AF3
:100E3000052140F400306062012084F82010B0BD2C
:100E4000217E0268012922F0800208BF8032026000
:100E5000617E0268012922F0400208BF4032026030
:100E6000A17E0268012922F0200208BF2032026020
:100E7000E17E0268012922F0100218BF10320260E0
:100E8000217F0268012922F0080208BF08320260AF
:100E9000617F0268012922F0040208BF0432026067
:100EA000D4E901C2D4E9033561691A432A431143E5
:100EB000ACF101021143C16100200121606284F89C
:100EC0002010B0BD10B586B0006846F60002C4F22E
:100ED000000200219042CDE90411CDE902110191F7
:100EE00032D046F20041C4F20001884277D140F28C
:100EF0004821C2F200010A6843F64000C4F2020031
:100F0000531C0B6052B900210091016841F000713F
:100F10000160016801F000710091009900210091C9
:100F200050F8101C142441F0010140F8101C50F836
:100F3000100C4FF4C05100F0010000900098002008
:100F4000C4F2020037E000BF43F64000C4F20200E2
:100F50000091016841F080610160016801F08061E9
:100F60000091009940F24821C2F200010A68531C26
:100F70000B6052B900210091016841F000710160DD
:100F8000016801F00071009100990021009150F872
:100F9000101C402441F0020140F8101C50F8100CC5
:100FA0004FF4405100F00200009000980020C4F27D
:100FB000020000F58060019102210291002103915D
:100FC000032104910921059101A900F0ADFA204601
:100FD0000521002200F036FC204600F021FC06B07E
:100FE00010BD0000704700002DE9F0438BB0016890
:100FF00046F20044C4F20004A14207D004F5806226
:10100000914277D00BB0BDE8F08300BF04AA02ABD9
:1010100000218146FFF714FD0498A0F20121062962
:1010200060D80138C0B240F2542CC0EBC002C2F20A
:10103000000C0CEB820081694B1C3229836111D8B2
:10104000BDF80810BDF80A30BDF80C6009BA1BBA2B
:10105000090C9DF80EE04FEA134833BA81821E0C4A
:101060000F4624E0BDF80810BDF80A70B0F9003052
:10107000BDF80C500EBA3FBA4FEA17482DBA9DF88A
:101080000EE0C3EB1647310CB7F5805F4FEA15460B
:1010900002DD0369013B04E0036917F5805F01DAB3
:1010A00001330361878A01EB4333DB1BC3602CF8F8
:1010B00022100AB28B1AB3F5805F0181A0F802807A
:1010C000868080F806E003DD0269013A05E000BF92
:1010D000026913F5805F01DA0132026101EB4231EE
:1010E000C91BC160D9F80010484604F580629142DE
:1010F0007FF488AF04AA6B460021FFF7A1FC049897
:10110000A0F2012106293FF67DAF0138C0B240F2BE
:101110005421C0EBC000C2F2000101EB8000D0F806
:10112000F81000F1E0054A1C3229C0F8F82011D867
:10113000BDF80010BDF80230BDF8047009BA090C02
:101140009DF806201BBA3FBAA9821B0C3C0C0E4628
:1011500025E000BFBDF80010BDF80220B5F9007011
:10116000BDF804400EBA12BA310C130C24BA9DF823
:101170000620C7EB1646B6F5805F4FEA144403DD40
:101180002F69013F05E000BF2F6916F5805F01DA86
:1011900001372F61AE8A01EB4737BF1BEF6020F8A4
:1011A000E01F43800BB2CB1AB3F5805F01818480CE
:1011B000827103DD0269013A05E000BF026913F59F
:1011C000805F01DA0132026101EB4231891BC160AB
:1011D0000BB0BDE8F08300007047000070470000CE
:1011E0007047000070470000704700007047000023
:1011F0007047000070470000704700007047000013
:10120000F0B581B00021009140F26401C2F200010A
:101210000B68D0E9166148F2B51537680822C1F6A7
:101220004E358A403A42A3FB05350CD003681C6852
:10123000640708D51C6824F004041C60B260426D89
:1012400042F00102426501228A403A4208D0036816
:101250005B691B0604D5B260426D42F00202426532
:1012600004228A403A4208D003681B689B0704D5D1
:10127000B260426D42F00402426510228A403A4256
:1012800019D001680B681B0715D5B2600B680A6896
:101290005B0309D4D20509D40A6822F008020A6067
:1012A000016C29B907E000BF110341D4016C11B1F1
:1012B000044688472046C26D202101FA02F33B42D2
:1012C00043D001680F68FF063FD5B36090F83570D2
:1012D0000B68052F1CD123F016030B604B6923F01C
:1012E00080034B61036C0BB9836C1BB10B6823F05B
:1012F00008030B603F219140B160012180F8351057
:10130000016D0022002980F8342054D158E000BF3C
:101310000A685B0310D4D20512D40A6822F01002C6
:101320000A60012180F83510002180F8341007E0B0
:10133000816C0029BCD1BEE7110301D4416C00E0EF
:10134000C16B11B1044688472046416DC1B3416D60
:10135000C9072ED0052180F835100168AA0A0B684C
:1013600023F001030B60009B0133934200931AD8D2
:101370000B68DB0717D0009B01339342009312D810
:101380000B68DB070FD0009B0133934200930AD810
:101390000B68DB0707D0009B01339342009302D810
:1013A0000B68DB07DFD1012180F83510002180F8C0
:1013B0003410C16C21B101B0BDE8F040084700BF56
:1013C00001B0F0BD2DE9F041044600F07DF9ECB12B
:1013D0000546022084F835000020216884F8340096
:1013E000086820F00100086021680868C00711D073
:1013F00000F06AF9401B0528F6D9032520230320B5
:10140000636584F83550BDE8F08100BF0120BDE878
:10141000F08100BF086848F23F02CFF21002D4E921
:10142000013500EA020C04F10C0898E8C10143EA16
:101430000C032B431843D4E9072E304338431043A1
:10144000626A40EA0E00042A40EA08031CD1206BBD
:10145000D4E90A2E40EA0E00184308604869BEF13C
:10146000000F20F0030040EA020040F0040C11D00D
:10147000B8F5005F36D0B8F1000F45D1022A46D04A
:10148000012A3BD032B942E00B60486920F00700E6
:1014900040EA020C01F0F8004AF6AB221038CAF616
:1014A000AA22A0FB02231A0947F60413C1F814C0AC
:1014B000C0F600039A5C40F2FF335F284FF03F0014
:1014C00021EA030100FA02F088BF0431C4E91612D0
:1014D0008860002301250020636584F83550BDE84D
:1014E000F08100BF032AD5D8012540230120DFE881
:1014F00002F0030E030500BF82E700BFAEF1C0702B
:10150000B0FA80F0400904E0032A04D3C2D1CEF33C
:1015100000600028BED0012540230120636584F8C7
:101520003550BDE8F08100002DE9F04F83B000F1A7
:10153000200200F13E4741F60045009207F1FF7797
:10154000C4F2020508224FEAB726A84208BF0722C4
:1015500000254FF000084FF00009072E38BF4FEA72
:10156000B72201920AE000BF09F1010908F102085F
:10157000B9F1100F05F1040500F0A2800F680122F7
:1015800002FA09FE17EA0E0AEED0D1F804C00322CF
:101590000CF003077E1E02FA08F4012E6FEA040B1A
:1015A00012D88468CE6804EA0B0406FA08F63443BD
:1015B0008460446824EA0E06CCF3001404FA09F4AB
:1015C0002643466004E000BF032F01D103271EE03D
:1015D000C6688C6806EA0B0604FA08F42643022F54
:1015E000C66014D16FF00302009E02EA590756F854
:1015F00007C005F01C040F220B69A2402CEA02026E
:10160000A3401A43F251D1F804C00CF0030702685A
:1016100007FA08F302EA0B021A431CF4403F026087
:10162000A2D0002243F644030292C4F202031A68D5
:1016300043F6004442F480421A601A68C4F201047E
:1016400002F480420292029A29F003024FF6084CFB
:101650002244CFF6FF7C52F80C3005F00C070F2621
:10166000BE40B343019E06FA07F73B4342F80C30F5
:10167000A2684B6842EA0A0743F60C4CDE0258BFE8
:1016800022EA0A07A760C4F2010CDCF800209E02DF
:1016900042EA0A0758BF22EA0A07CCF800706268DB
:1016A0009E0342EA0A0758BF22EA0A0767602268D7
:1016B000DB0342EA0A0758BF22EA0A07276053E71A
:1016C00003B0BDE8F08F000045F20410C2F2000044
:1016D0000068704740F2000045F20411C2F20000B9
:1016E000C2F2000100780A681044086070470000E8
:1016F00080B543F60040C4F20200016841F4007175
:101700000160016841F480610160016841F4807109
:101710000160032000F0C2F80F2000F005F800F08F
:101720005DF8002080BD000070B586B0002543F64E
:1017300040010195C4F202010A68044642F0200209
:101740000A60096801A801F0200101910199694628
:1017500000F066F9049E002E18BF012600F080F903
:101760004DF68361B040C4F21B31A0FB01014FF084
:10177000FF3000EB914140F2485041F20042C2F28A
:101780000000C4F2000240F2E733C0E90021C0E9E2
:1017900002530561856100F09BFB08B106B070BD86
:1017A00040F24850C2F2000000F0C2FB0028F5D120
:1017B000372000F035F80F2C0CD8372021460022B6
:1017C00000F040F840F204010020C2F200010C6079
:1017D00006B070BD012006B070BD000082B00020D0
:1017E00043F640010190C4F202014A6842F480428B
:1017F0004A604A6802F480420192019A00900868A7
:10180000002240F08050086008680F2100F08050EE
:10181000009000986FF0010002B000F013B80000D3
:10182000002848BF704700F01F01012202FA01F1B1
:101830001C2202EAD0004EF20012CEF200028150C9
:101840007047000010B54EF60C5CCEF2000CDCF8D0
:101850000030C3F3022E8EF00704042C28BF0424AA
:10186000BEF103034FF0FF3E0EFA04F438BF00232D
:10187000A14399400EFA03F39A43114300F00F027B
:1018800000F160430901043A03F56443624400280F
:1018900048BF02F10C03197010BD00004EF60C5148
:1018A000CEF200010A684FF6FF031A4060F30A22E5
:1018B00042F0806040F0FD7008607047002804BF6F
:1018C000012070472DE9F04143F60808C4F20208F0
:1018D0000446D8F8F8030D4600F00700884207D206
:1018E00088F8F853D8F8F80300F00700A84277D139
:1018F0002068810717D5410705D5D8F8001041F4B5
:10190000E051C8F80010010705D5D8F8001041F4DF
:101910006041C8F80010D8F80010A26821F0F0016A
:101920001143C8F80010C00740D1D8F8F80300F000
:101930000700A84207D988F8F853D8F8F80300F050
:101940000700A8424CD12068410707D5D8F80010FD
:10195000E26821F4E0511143C8F80010000708D5EF
:10196000D8F80000216920F4604040EAC100C8F8BE
:10197000000000F09DF8D8F8001047F6C802C1F347
:101980000311C0F60002515C40F2640220FA01F13A
:1019900040F20400C2F200000068C2F200021160CE
:1019A000FFF7C2FE0020BDE8F08100BF6068811E25
:1019B000022907D258F8081C89015CBF0120BDE844
:1019C000F08111E0012807D158F8081C89035CBF99
:1019D0000120BDE8F08107E058F8081C890703D40E
:1019E0000120BDE8F08100BFD8F8001021F003010C
:1019F0000843C8F80000FFF767FE064641F2883743
:101A0000D8F80000616800F00C00B0EB810F8CD0BA
:101A1000FFF75AFE801BB842F2D90320BDE8F081DF
:101A20000F22026043F60802C4F20202136803F0B8
:101A300003034360136803F0F0038360136803F447
:101A4000E053C360D2F800C04FF4E05303EADC0374
:101A50000361D2F8F80300F0070008607047000047
:101A600040F2640043F60801C2F20000C4F2020131
:101A70000068096847F6D802C1F38221C0F6000267
:101A8000515CC8407047000040F2640043F6080112
:101A9000C2F20000C4F202010068096847F6D802E9
:101AA000C1F34231C0F60002515CC84070470000EB
:101AB00010B543F60404C4F20204606800F00C019F
:101AC00042F200400829C0F2F40007D0042918BFF0
:101AD00010BD41F20020C0F27A0010BD216801F073
:101AE0003F02216823684902C3F3881106D4A1FB91
:101AF00000010023FEF7D0FB07E000BF41F2002009
:101B0000C0F27A004843B0FBF2F021680222C1F330
:101B1000014102EB4101B0FBF1F010BD002804BF10
:101B2000012070472DE9F04182B00446007843F669
:101B30000006C007C4F202060CD0B06800F00C002A
:101B4000042840F081803068800303D56068002855
:101B500000F06881207880071BD5B06810F00C0F6A
:101B600009D0B06800F00C00082840F08780706849
:101B7000400200F183803068800703D5E0680128C7
:101B800040F050813068216920F0F80040EAC1003F
:101B900030602078000713D4207840072AD4A56944
:101BA000002D00F03A81B06800F00C00082840F0E9
:101BB000A580012D40F00E81012002B0BDE8F0812A
:101BC0006069002800F082800020C4F247200121D3
:101BD000C0F8801EFFF778FD054600BF706F8007D4
:101BE000DAD4FFF771FD401B0228F7D9032002B0B9
:101BF000BDE8F081306C5FEAC0080AD40020019093
:101C0000306C40F080503064306C00F080500190B7
:101C1000019847F20007C4F200073868C00547D4AE
:101C2000386840F480703860FFF74EFD054600BF0D
:101C30003868C0053CD4FFF747FD401B0228F7D9A0
:101C4000032002B0BDE8F081B06800F00C00082865
:101C500003D1706840023FF576AF61683068B1F536
:101C6000803F07D0B1F5A02F40F09A8040F480204B
:101C70003060306840F4803030609AE0E0680028DE
:101C800040F20000C4F247205CD001210160FFF760
:101C90001BFD0546306880073FF574AFFFF714FD64
:101CA000401B0228F6D9032002B0BDE8F08100BF36
:101CB000A168306F012905D0052955D140F00400F5
:101CC0003067306F40F00100306756E00020C4F20A
:101CD00047200021C0F8801EFFF7F6FC054600BF34
:101CE000706F80077FF558AFFFF7EEFC401B0228AE
:101CF000F6D9032002B0BDE8F08100BF0027C4F28E
:101D0000472700203866FFF7DFFC022D05460DD17E
:101D10003068800140F18A80FFF7D6FC401B022822
:101D20004FF00300F4D902B0BDE8F08130688001C3
:101D300073D5FFF7C9FC401B02284FF00300F5D90B
:101D4000F1E700BF00210160FFF7BEFC054600BFC0
:101D5000306880077FF51DAFFFF7B6FC401B0228F7
:101D60004FF00300F4D9DEE720F001003067306F58
:101D7000002920F0040030677AD0FFF7A5FC054663
:101D800041F28837306F800700F18480FFF79CFCB8
:101D9000401BB842F6D9032002B0BDE8F08100BF75
:101DA00020F4803030603068002920F480203060DA
:101DB0007AD0FFF789FC0546306880033FF5CAAE4C
:101DC000FFF782FC401B6428F6D9032002B0BDE86F
:101DD000F08100BF7068E16900F480028A4221D17D
:101DE000216A00F03F028A421CD147F6C071626A44
:101DF0000140B1EB821F15D1A16A4FF6FF73C903F1
:101E0000994300F44032A1F580318A420AD1E16A57
:101E100000F07060B0EB016F04D1002002B0BDE8AB
:101E2000F08100BF012002B0BDE8F08104F11C0583
:101E30002FCD084340EA8210D9034FF6FF72914339
:101E4000A1F5803140EA05600843706001203866E2
:101E5000FFF73AFC044600BF30688001DDD4FFF78D
:101E600033FC001B02284FF00300F5D95BE700BFED
:101E7000FFF72AFC054641F2883700BF306F800724
:101E800008D5FFF721FC401BB8424FF00300F5D9FD
:101E900049E700BFB8F1000F3FF581AE306C20F08C
:101EA000805030647BE600BFFFF70EFC054600BFA4
:101EB000306880037FF54EAEFFF706FC401B6428B8
:101EC0004FF00300F4D92EE7704700007047000080
:101ED000002804BF0120704710B5044690F83D006B
:101EE00028B9002084F83C00204600F01FF80220AA
:101EF00084F83D002068211D00F02EFE012084F8AA
:101F0000460084F83E0084F83F0084F8400084F8DE
:101F1000410084F8420084F8430084F8440084F8C7
:101F2000450084F83D00002010BD0000704700000F
:101F300090F83D1001291CBF01207047022180F854
:101F40003D10006841F2FF72C168C4F20002904285
:101F500041F00101C1600DDC40F2FF71C4F20001EB
:101F6000884215DCB0F1804F2AD040F20041C4F223
:101F7000000123E040F2FF31C4F20101884213DC8A
:101F800041F60001C4F20001884219D0002113E09B
:101F900040F60001C4F20001884211D040F6004131
:101FA000C4F200010AE000BF44F20001C4F20101E2
:101FB000884205D040F20041C4F20101884206D1B6
:101FC000816801F00701062904BF002070470168FD
:101FD00041F00101016000207047000070470000DF
:101FE00070B504460068C5680669B10716D515F0D6
:101FF000020113D06FF00201016101212177806994
:10200000800703D02046FFF7E9FF05E0204600F0F7
:102010008FF8204600F08EF800202077700719D541
:1020200015F0040016D020686FF004010161022150
:102030002177806910F4407F04D02046FFF7CEFF5F
:1020400006E000BF204600F073F8204600F072F86A
:1020500000202077300717D515F0080014D020682D
:102060006FF00801016104212177C069800703D066
:102070002046FFF7B3FF05E0204600F059F8204660
:1020800000F058F800202077F00619D515F0100060
:1020900016D020686FF01001016108212177C06916
:1020A00010F4407F04D02046FFF798FF06E000BF01
:1020B000204600F03DF8204600F03CF80020207754
:1020C000F00718BF15F0010002D1300609D412E064
:1020D00020686FF001010161204600F02DF8300604
:1020E00009D515F0800006D020686FF080010161ED
:1020F0002046FFF7E9FE700609D515F0400006D02E
:1021000020686FF040010161204600F01FF8B00622
:1021100058BF70BD15F0200008D021686FF0200274
:1021200020460A61BDE87040FFF7D0BE70BD0000D8
:102130007047000070470000006841F20041C4F29F
:102140000001884218BF7047FFF7C4BA704700000B
:10215000002804BF0120704710B5044690F84100E4
:1021600028B9002084F84000204600F021F82420FF
:1021700084F841002068C16821F40051C160204604
:1021800000F08CFD2068016921F4904101614169F2
:1021900021F02A014161C16841F40051C160002071
:1021A0002021606484F8411084F84210606310BDFF
:1021B00070B586B0044644F600002168C4F2000001
:1021C000002681420596CDE903660296019601D06C
:1021D00006B070BD43F630010096C4F202010A69F0
:1021E00000F5DE3042F480220A610A6902F480229E
:1021F0000092009A00960A6842F002020A6009689A
:1022000001F00201009100994FF440610191022117
:10221000CDE90216032104910721059101A9FFF7D9
:1022200083F940F2E84546F22800C2F20005C4F204
:1022300002004FF0006185E843004FF440304FF456
:102240008062C5E908062846C5E90362C5E9056656
:10225000EE61FFF7B7F8002818BFFEF799FB2720BB
:1022600005210022E563AC63FFF7ECFA2720FFF7B6
:10227000D7FA06B070BD0000FEE7000080B540F25E
:10228000984046F20041C2F20000C4F2000103226D
:10229000002380E80E0000F10C014FF4C02C4FF435
:1022A000A00E81E8085083618383FEF791FD00282A
:1022B00008BF80BDBDE88040FEF76ABB80B540F234
:1022C000C04046F60001C2F20000C4F20001032241
:1022D000002380E80E0000F10C014FF4102C4FF4A5
:1022E000001E81E8085083618383FEF771FD00289A
:1022F00008BF80BDBDE88040FEF74ABB80B582B014
:102300000020019043F63000C4F202000168002270
:1023100041F4001101600068052100F400100190F3
:1023200001980C20FFF78EFA0C2002B0BDE8804027
:10233000FFF776BA80B543F26D6047F6E002C0F66B
:102340000000C0F60002002101F00CFA40F2442126
:10235000C2F20001086080BD83B0002043F6300166
:102360000290C4F202010A6842F080020A600A6820
:1023700002F080020292029A01900A6842F0020280
:102380000A600A6802F002020192019A009008684D
:1023900040F001000860086800F00100009000981B
:1023A00003B0704780B540F2905044F60001C2F28D
:1023B0000000C4F2000148F2A06200234FF0040CB8
:1023C000C0F2010280E80E00C0E90333C0E905C392
:1023D000C361FFF7BDFE002808BF80BDBDE8804097
:1023E000FEF7D6BAFEE70000016D026E01EE101A8C
:1023F00000EE102A31EE402A9FED360A12EE101A36
:10240000B0EEC22AB4EE402AF1EE10FA016706DB04
:102410009FED312A31EE021A11EE101A016511EE0C
:10242000101A0166416D426E01EE101A02EE102A7A
:1024300031EE422A12EE101AB0EEC22AB4EE402A51
:10244000F1EE10FA416706DB9FED232A31EE021A06
:1024500011EE101A416511EE101A4166816D826EFF
:1024600001EE101A02EE102A31EE422A12EE101A74
:10247000B0EEC22AB4EE402AF1EE10FA816706DB14
:102480009FED152A31EE021A11EE101A816511EE38
:10249000101A8166C16DC26E01EE101A02EE102A8A
:1024A00031EE422A12EE101AB0EEC22AB4EE402AE1
:1024B000F1EE10FAC16706DB9FED070A31EE001A54
:1024C00011EE101AC16511EE101AC1664FF07E515F
:1024D000C16070470000B44200003443026A016BDF
:1024E00002EE102A00EE101A32EE401A9FED590A41
:1024F00011EE101A0164B4EE401A40F20C21F1EE14
:1025000010FAC2F200010DDD9FED534A91ED003A41
:10251000B4EE441AF1EE10FA0CDBBFEE001A33EE03
:10252000013A05E091ED001AB7EE003A31EE033AB8
:1025300081ED003A9FED491A026323EE013A33EE32
:10254000022A12EE103A0365426A436B02EE102A29
:1025500003EE103A32EE434AB4EE404A14EE103A1B
:10256000F1EE10FA43640BDD9FED3B5A91ED013A19
:10257000B4EE454AF1EE10FA0ADBBFEE004A03E082
:1025800091ED013AB7EE004A33EE043A81ED013A9B
:1025900023EE013A33EE022A12EE103A436542630B
:1025A000826A836B02EE102A03EE103A32EE434A3F
:1025B000B4EE404A14EE103AF1EE10FA83640BDDEB
:1025C0009FED255A91ED023AB4EE454AF1EE10FA2C
:1025D0000ADBBFEE004A03E091ED023AB7EE004A93
:1025E00033EE043A81ED023A23EE013A33EE022A49
:1025F00012EE103A83658263C26AC36B02EE102A40
:1026000003EE103A32EE433AB4EE403A13EE103A8B
:10261000F1EE10FAC3640BDD9FED0F4A91ED030A52
:10262000B4EE443AF1EE10FA0ADBBFEE003A03E0F2
:1026300091ED030AB7EE003A30EE030A81ED030A8A
:1026400020EE010A30EE020A10EE101AC165C263D4
:10265000704700BF000034C3000034430000B4439F
:10266000FEE7000000000000F0B581B02DED028B08
:1026700004460069276F04F0D3FF00EE107A054688
:102680000E4603F03BF910EE100A04F0C9FF9FED6F
:102690003A8B41EC100BB0EE481AF0EE681A03F0DA
:1026A000D7F951EC100B2A46334604F0BFFC04F076
:1026B0001FFA20616069676F04F0B2FF00EE107AC4
:1026C00005460E4603F01AF910EE100A04F0A8FFB2
:1026D00041EC100BB0EE481AF0EE681A03F0B8F9AE
:1026E00051EC100B2A46334604F0A0FC04F000FA2B
:1026F0006061A069A76F04F093FF00EE107A0546B1
:102700000E4603F0FBF810EE100A04F089FF41ECCE
:10271000100BB0EE481AF0EE681A03F099F951EC7C
:10272000100B2A46334604F081FC04F0E1F9A06165
:10273000E069E76F04F074FF00EE107A05460E467C
:1027400003F0DCF810EE100A04F06AFF41EC100B05
:10275000B0EE481AF0EE681A03F07AF951EC100B5B
:102760002A46334604F062FC04F0C2F9E061BDEC95
:10277000028B01B0F0BD00BF000000000000084067
:10278000EFF30980BFF36F8F154B1A681EF0100F1F
:1027900008BF20ED108A20E9F04F10602DE90900F4
:1027A0004FF0500080F31188BFF34F8FBFF36F8F4E
:1027B00002F04CF84FF0000080F31188BDE80900EA
:1027C00019680868B0E8F04F1EF0100F08BFB0ECB1
:1027D000108A80F30988BFF36F8F704700BF00BF76
:1027E000D0000020007868B3012818BF704740F27D
:1027F000AC10C2F20000B0F90430B0F90020B0F91A
:10280000060000EE103A9FED203AB8EEC00A01EE45
:10281000100AB8EEC11A20EE030A10EE100A21EEDB
:10282000030A02EE102A086010EE100A9FED170A44
:10283000B8EEC22A22EE000A486010EE100A886044
:10284000704700BF40F2AC10C2F20000B0F90420A3
:10285000B0F9060000EE102AB8EEC00A01EE100A28
:10286000B0EE082AB8EEC11A20EE020A10EE100AE5
:1028700021EE020A086010EE100A486048F20000DB
:10288000C4F27740886070476666A640CDCC4C4065
:1028900040F2AC11C2F200018A7A02F0FD03013B62
:1028A00018BF0123023A18BF0122134218BF704714
:1028B000C97A032904BF01210170704770470000E5
:1028C000074B19680868B0E8F04F80F30988BFF338
:1028D0006F8F4FF0000080F31188704700BF00BF7A
:1028E000D0000020000000002DE9F0412DED028B0A
:1028F000044640F25C05A268C2F2000595ED012A8B
:10290000006801EE102A95ED003A616821EE022A76
:10291000B6EE008A00EE100A22EE082A21EE031A13
:1029200030EE420A02EE101A21EE081A72EE410A47
:1029300002F08EFEA26810EE100A95ED012A2062C8
:10294000206801EE102A95ED003A616821EE022A16
:1029500000EE100A22EE082A21EE031A30EE020AD7
:1029600002EE101A21EE081A72EE410A02F070FE11
:10297000A26810EE100A95ED012A6062206801EE4F
:10298000102A95ED003A616821EE022A00EE100A45
:1029900022EE082A21EE031A30EE020A02EE101A85
:1029A00021EE081A72EE010A02F052FEA26810EE41
:1029B000100A95ED012AA062206801EE102A95ED1B
:1029C000003A616821EE022A00EE100A22EE082A7F
:1029D00021EE031A30EE420A02EE101A21EE081A16
:1029E00072EE010A02F034FE206A676AD4F8288089
:1029F000B0EE408A04F014FE9FED1B0B55EC106BFB
:102A000032462B4604F012FB04F072F880F00040CE
:102A10002062384604F004FE32462B4604F006FBE2
:102A200004F066F880F000406062404604F0F8FD73
:102A300032462B4604F0FAFA04F05AF880F00040CF
:102A4000A06218EE100A04F0EBFD32462B4604F0AB
:102A5000EDFA04F04DF880F00040E062BDEC028B2E
:102A6000BDE8F08100BF00BF46DF617EDCA54C40C1
:102A700080B54EF21000CEF20000006802F0D0FBEC
:102A8000012808BF80BDBDE8804002F009B8000001
:102A900070B592B006AC20463021FDF7C2FC00258F
:102AA00043F640000595CDE90355CDE90155009564
:102AB000C4F202000168022641F080510160006802
:102AC00000F080500090009847F200000095C4F29A
:102AD0000000016841F4804101600068A82100F411
:102AE000804000900098012006904FF480300790BD
:102AF0004FF480000D9004200E90119020460C960B
:102B0000CDE90F16FFF70AF810B172B6FEE700BF65
:102B10000F20CDE901064FF4A05004904FF48050EF
:102B2000059001A805210395FEF7C8FE10B172B605
:102B3000FEE700BF12B070BD4EF68850CEF2000026
:102B4000016841F4700101607047000040F2485094
:102B5000C2F20000FFF744BA10B540F6FF3E03682A
:102B6000C4F2000E40F2004C7045C4F2010C25DCAA
:102B7000B0F1804F2FD040F20042C4F200029042E8
:102B800029D040F60002C4F20002904223D041F660
:102B9000FF72C4F20002904227DC70453ADCB0F1CB
:102BA000804F5BD040F20042C4F20002904255D008
:102BB00040F60002C4F200024EE000BF40F60042C0
:102BC000C4F20002904206D0604504D00022C4F254
:102BD00001029042DBD14A6823F07003134341F6AF
:102BE000FF72C4F200029042D7DD43F6FF72C4F2D6
:102BF0000102904220DC42F20002C4F20002904244
:102C00002CD00022C4F20102904227D0604525D08A
:102C100028E000BF40F60042C4F2000290421DD0FE
:102C200041F60002C4F20002904217D041F6004281
:102C3000C4F2000210E000BF44F20002C4F201023C
:102C400090420BD044F60002C4F20102904205D03B
:102C500044F20042C4F20102904203D1CA6823F454
:102C60004073134323F080024B69D1F800E08C6875
:102C70001A430260C46240F48062C0F828E06245F2
:102C800004BF09690163012141610169C90708BFE6
:102C900010BD016921F00101016110BDB0B504460C
:102CA000006804F108030ECB0569194325F440556B
:102CB0002A4302616269E3691143C268194349F218
:102CC0000C639A431143C1604169A26921F44071C8
:102CD00041F20043114340F48062C4F201039A427E
:102CE000416103D1FEF7D0FE02E000BFFEF7B8FE5F
:102CF000E1694FF69C7563681922C0F6FF75B1F55E
:102D0000004FA0FB02011FD15A00DB0FFDF7C4FAF0
:102D100048F21F51C5F2EB11A0FB01235A0905F13E
:102D2000805302FB0300322303EBC000A0FB010130
:102D30004FF4F87000EA111000EB0210C1F34211D9
:102D4000084421688860B0BD9A009B0FFDF7A4FA83
:102D500048F21F51C5F2EB11A0FB01235A0902FBF7
:102D60000500322303EB0010A0FB0101F02000EA74
:102D7000511000EB0210C1F3431108442168886030
:102D8000B0BD00002DE9F04382B040F29050C2F295
:102D9000000000680168890670D444F60001C4F29E
:102DA00000010968C90640F1E58000210091016831
:102DB0002423009140680090009840F2E840C2F25D
:102DC0000000006801680268090322F00102026045
:102DD0004268436091B25BD40268122942F4002237
:102DE0000260026842F00102026040F0C38040F2DB
:102DF000AC10C2F20000817DC77DC67D047E90F8D4
:102E00001880457E90F81A9090F81AE090F81BC050
:102E1000C37EF608C3F301138372C37E64F34A16BC
:102E20009B09C372037F427F67F30A2143EA0222B0
:102E30008281827FC37F4FEA5E0742EA0322C2811A
:102E400090F8202090F8213042EA0322028290F884
:102E50002220AB00827490F8232043EA9813C274B6
:102E600090F8242090F8254069F38A2342EA04224E
:102E7000828290F8262090F8275068E00021019186
:102E80000168019140680190019802B0BDE8F083AB
:102E900046F22802C4F202021368122923F4002326
:102EA0001360026842F00102026063D140F2AC108C
:102EB000C2F2000090F83A1090F83B7090F83B6036
:102EC00090F83C4090F83C8090F83D5090F83E904F
:102ED00090F83EE090F83FC090F83F30F608C3F31A
:102EE0000113837290F83F3064F34A169B09C37252
:102EF00090F8403090F8412067F30A2143EA02221B
:102F0000828190F8422090F843304FEA5E0742EA0F
:102F10000322C28190F8442090F8453042EA03220F
:102F2000028290F84620AB00827490F8472043EA72
:102F30009813C27490F8482090F8494069F38A23A6
:102F400042EA0422828290F84A2090F84B50A1F580
:102F500080610180A6F580616CF3CA174180A3F5FA
:102F6000806142EA05228180A7F58061C180A2F5D7
:102F70008061018102B0BDE8F0830000FEE700003F
:102F800040F25C00C2F2000090ED010A90ED001AE0
:102F900020EE000A21EE011A31EE000AB1EEC00A5D
:102FA000B6EE001A40F25020C2F2000020EE010AF4
:102FB00080ED000A704700002DE9F04F81B02DED43
:102FC0000E8B40F6EC2B40F208059FEDE78A9FED53
:102FD000E79AC2F2000BC2F20005594600222B46C6
:102FE000B0EE480AF0EE490A044600F075FA9FED8B
:102FF000E0BA9FEDE0AA05F10C0940F2DC51C2F203
:103000000001204600224B46B0EE4B0AF0EE4A0A81
:1030100000F062FA40F62C589FEDD7DA05F1180659
:10302000C2F200082046414600223346B0EE4D0A67
:10303000F0EE490A00F050FA40F61C0A9FEDCFEA84
:103040009FEDCFCA05F12407C2F2000A204651467F
:1030500000223B46B0EE4E0AF0EE4C0A00F03CFA7D
:103060000BF14801204600222B46B0EE480AF0EE54
:10307000490AAB4600F030FA40F2DC50C2F20000E0
:1030800000F14801204600224B46B0EE4B0AF0EE1C
:103090004A0A00F021FA08F148012046002233468E
:1030A000B0EE4D0AF0EE490A454600F015FA0AF175
:1030B0004801204600223B46B0EE4E0AF0EE4C0A94
:1030C00000F00AFA40F6EC28C2F2000808F190017C
:1030D000204600225B46B0EE480AF0EE490A00F0B6
:1030E000FBF940F2DC5BC2F2000B0BF190012046D1
:1030F00000224B46B0EE4B0AF0EE4A0A00F0ECF923
:1031000005F19001204600223346B0EE4D0AF0EE64
:10311000490A00F0E1F90AF19001204600223B46FD
:10312000B0EE4E0AF0EE4C0A00F0D6F940F2080379
:1031300008F1D80120460022C2F20003B0EE480A8E
:10314000F0EE490A00F0C8F90BF1D8012046002240
:103150004B46B0EE4B0AF0EE4A0A00F0BDF905F11D
:10316000D801204600223346B0EE4D0AF0EE490A5F
:1031700000F0B2F90AF1D801204600223B46B0EE39
:103180004E0AF0EE4C0A00F0A7F940F2080308F5E9
:10319000907120460022C2F20003B0EE480AF0EE21
:1031A000490A00F099F90BF59071204600224B4630
:1031B000B0EE4B0AF0EE4A0A00F08EF905F5907178
:1031C000204600223346B0EE480AF0EE490A00F0ED
:1031D00083F90AF59071204600223B46B0EE4C0A76
:1031E000F0EE4A0A00F078F940F2080308F5B471ED
:1031F00020460022C2F20003B0EE480AF0EE490A6F
:1032000000F06AF90BF5B471204600224B46B0EE8F
:103210004B0AF0EE4A0A00F05FF905F5B47120465A
:1032200000223346B0EE480AF0EE490A00F054F9A5
:103230000AF5B471204600223B46B0EE4C0AF0EE8F
:103240004A0A00F049F940F2080308F5D87120460F
:103250000022C2F20003B0EE480AF0EE490A984696
:1032600000F03AF90BF5D871204600224B46B0EE3B
:103270004B0AF0EE4A0A00F02FF905F5D871204606
:1032800000223346B0EE480AF0EE490A00F024F975
:103290000AF5D871204600223B46B0EE4C0AF0EE0B
:1032A0004A0A00F019F940F6EC20C2F2000000F5DD
:1032B000FC71204600224346B0EE480AF0EE490A6F
:1032C00000F00AF90BF5FC71204600224B46B0EEE7
:1032D0004B0AF0EE4A0A00F0FFF805F5FC712046B3
:1032E00000223346B0EE480AF0EE490A00F0F4F846
:1032F0000AF5FC71204600223B46B0EE4C0AF0EE87
:103300004A0A00F0E9F89FED208A40F66C719FEDC3
:103310001D0A08F13003C2F2000120460022F0EE3F
:10332000480A00F0D9F840F65C2108F13C03C2F2EB
:10333000000120460022B0EE480AF0EE480A00F0F4
:10334000CBF840F6A42108F14803C2F20001204660
:103350000022B0EE480AF0EE480ABDEC0E8B01B038
:10336000BDE8F04F00F0B8B800401C460080BB45F7
:103370000000C8430000964300A00C460000FA4538
:103380000000FA4400803B450080BB4400294FD038
:10339000087891ED0F1A91ED102A81ED070A30EEB1
:1033A000C00A0028C1ED060A81ED0F0A81ED101A4E
:1033B00081ED112A40D0012840F0888091ED015A1A
:1033C00091ED026A30EE414A31EE011A91ED037A35
:1033D00024EE054A20EE065A30EE410A32EE000A8B
:1033E000D1E90C2081ED0C0A20EE070A34EE051A13
:1033F00091ED082A91ED043A81ED0B0A31EE000AB5
:1034000032EE000AB4EE430AF1EE10FA81ED094AF9
:1034100081ED0A5AC1E90D2081ED080AC2BF81ED94
:10342000083AB0EE430A7047B1EE431A43E000BFDA
:103430009FED280A704700BF91ED024A91ED0A6A9C
:1034400091ED012A91ED053A24EE004A91ED035ADF
:1034500034EE064A20EE022AD1E90C2030EE410A71
:10346000B4EE434A81ED0C0A20EE050AF1EE10FAA3
:1034700081ED092A81ED0A4AC1E90D2081ED0B0A8F
:1034800006DCB1EE433AB4EE434AF1EE10FA03DA49
:10349000B0EE434A81ED0A3A32EE042A91ED041A65
:1034A00030EE020AB4EE410AF1EE10FA81ED080A9C
:1034B00007DCB1EE411AB4EE410AF1EE10FAA8BFF2
:1034C0007047B0EE410A81ED081A704791ED080A85
:1034D000704700BF00000000002918BF002B01D179
:1034E000704700BF80B50A701868486058688860E7
:1034F000986881ED040AC860C1ED050A01F1200059
:103500002821FCF78EFF80BD10B540F2542201EB5C
:10351000C100C1EBC101C2F2000202EB810140F621
:10352000EC22B1F90210C2F20002F0EE400A02EB06
:10353000C00400EE101A40F2D850B8EEC00AC2F231
:1035400000002146FFF722FF94ED080A10BD00009D
:10355000F0B581B040F2542201EBC106C1EBC101CC
:10356000C2F2000240F2DC5002EB8107F0EE400AAA
:10357000C2F2000097ED030A40F2D85500EBC604F2
:10358000C2F20005B8EEC00A28462146FFF7FEFE4B
:1035900040F6EC20B7F90210C2F20000D4ED080AA0
:1035A00000EBC60400EE101AB8EEC00A2846214609
:1035B000FFF7ECFE94ED080A01B0F0BD80B58AB0CB
:1035C0004FF4007004900020CDE906000820089018
:1035D000080ADDF830C08DF80800100A8DF80A00DE
:1035E000180A8DF80C004FEA1C208DF80E0040F2EE
:1035F00098408DF809108DF80B208DF80D30C2F22F
:10360000000004A902AA01AB8DF80FC0FDF7C4F9B0
:103610000AB080BD80B58AB040F2FF100190002052
:10362000CDE9030008200590080ADDF830C08DF8C8
:103630002000100A8DF82200180A8DF824004FEAA5
:103640001C208DF8260040F298408DF821108DF84E
:1036500023208DF82530C2F2000001A908AA07AB8B
:103660008DF827C0FDF798F90AB080BD40F26510CB
:1036700000F0A2FF40F2D850C2F20000FFF79CFC1D
:1036800040F2680440F21845C2F20004C2F200059C
:103690002046FFF7FDF820462946FFF7A3F8FFF77D
:1036A0000DF92846FDF736F8FCF786FF012000F0FB
:1036B00017F8EDE7FEF71CF8FFF7EAF9FEF74CFE06
:1036C000FEF71CFEFEF7DAFDFEF7F8FDFEF76AFED8
:1036D00000F016F8FEF72EFE00F026F8FEE70000D8
:1036E000EFF3058100291CBF6FF00500704700282B
:1036F00004BF0020704780B500F05EFF002080BD51
:10370000EFF3058000281CBF6FF00500704740F202
:103710004C20C2F200000168002911BF4FF0FF30B9
:103720000121016000207047EFF3058000281CBFD5
:103730006FF00500704740F24C20C2F200000168B3
:1037400001291CBF4FF0FF30704780B54EF61F5166
:10375000CEF2000100220A700221016000F0F6FFA3
:10376000002080BDF0B585B08C4600230493EFF3B4
:103770000581B0B3A9BB2AB39469002C08BF1824F3
:10378000382C2ED81179C9072BD15669D2E90257A6
:103790004FEA960E1168002E734608BF80231DB3B2
:1037A0005C2F25D312690023002A18BF002E18D0E1
:1037B000CDE9004272466346029501F0F5FC05B082
:1037C000F0BD00BF80231824002104AF9AB26346E5
:1037D000CDE9004701F0B8FC00230499012808BF97
:1037E0000B46184605B0F0BD17B91269002AECD097
:1037F0000023184605B0F0BD2DE9F041044600F065
:10380000C5FD40F2D006C2F20006F06841F2A40500
:103810000130F0603068C2F2000558B1306900280C
:1038200040F007813068E16AC06A884298BF34601E
:10383000FFE000BF3460F068012840F0FA802846BD
:1038400000F04AFD05F1140000F046FD05F12800E6
:1038500000F042FD05F13C0000F03EFD05F1500096
:1038600000F03AFD05F1640000F036FD05F1780046
:1038700000F032FD05F18C0000F02EFD05F1A000F6
:1038800000F02AFD05F1B40000F026FD05F1C800A6
:1038900000F022FD05F1DC0000F01EFD05F1F00056
:1038A00000F01AFD05F5827000F016FD05F58C702C
:1038B00000F012FD05F5967000F00EFD05F5A07004
:1038C00000F00AFD05F5AA7000F006FD05F5B470DC
:1038D00000F002FD05F5BE7000F0FEFC05F5C870B5
:1038E00000F0FAFC05F5D27000F0F6FC05F5DC708E
:1038F00000F0F2FC05F5E67000F0EEFC05F5F07066
:1039000000F0EAFC05F5FA7000F0E6FC05F502703F
:1039100000F0E2FC05F5077000F0DEFC05F50C7028
:1039200000F0DAFC05F5117000F0D6FC05F5167014
:1039300000F0D2FC05F51B7000F0CEFC05F5207000
:1039400000F0CAFC05F5257000F0C6FC05F52A70EC
:1039500000F0C2FC05F52F7000F0BEFC05F53470D8
:1039600000F0BAFC05F5397000F0B6FC05F53E70C4
:1039700000F0B2FC05F5437000F0AEFC05F54870B0
:1039800000F0AAFC05F54D7000F0A6FC05F552709C
:1039900000F0A2FC05F5577000F09EFC05F55C7088
:1039A00000F09AFC05F5617000F096FC05F5667074
:1039B00000F092FC05F56B7000F08EFC05F5707060
:1039C00000F08AFC05F5757000F086FC05F57A704C
:1039D00000F082FC05F57F7000F07EFC05F582604A
:1039E00000F07AFC05F2244000F076FC05F58760D3
:1039F00000F072FC05F24C4000F06EFC40F21C2816
:103A0000C2F20008404600F067FC08F1140738468F
:103A100000F062FC06F1640000F05EFC06F13C0080
:103A200000F05AFC06F1500000F056FCC6F81C806D
:103A300037627068716A421CE06A72608842626430
:103A400088BF706200EB800005EB8000211D00F054
:103A500085FC00F0BFFC306988B13068E16AC06A5B
:103A6000884228BFBDE8F0814EF60450CEF2000037
:103A70004FF080510160BFF34F8FBFF36F8FBDE8F0
:103A8000F081000040F2D00541F2A4064EF6045841
:103A9000C2F20005C2F20006CEF200084FF08057D5
:103AA00003E000BF204600F0ADFCA868D0B100F0F4
:103AB0006DFCA86CC468201D00F0E0FBE8680138CC
:103AC000E860A8680138A86000F084FC94F8590008
:103AD0000228EAD00128E5D070B9206B00F092FCF2
:103AE000E0E700BF30680228DFD3C8F80070BFF3FA
:103AF0004F8FBFF36F8FD8E74FF0500080F31188DE
:103B0000BFF36F8FBFF34F8FFEE700002DE9F04743
:103B10000A9C8246206B16460F46DDE90859910043
:103B2000A5229846FCF775FC206B002F00EB860061
:103B3000A0F1040020F0070644D0387884F834005F
:103B4000D8B3787884F83500B8B3B87884F83600FC
:103B500098B3F87884F8370078B3387984F8380067
:103B600058B3787984F8390038B3B87984F83A00D2
:103B700018B3F87984F83B00F8B1387A84F83C003F
:103B8000D8B1787A84F83D00B8B1B87A84F83E00AC
:103B900098B1F87A84F83F0078B1387B84F8400017
:103BA00058B1787B84F8410038B1B87B84F8420082
:103BB00000281CBFF87B84F84300002084F84300F1
:103BC00003E000BF002084F834000027201D372DBB
:103BD00028BF3725E562C4E9135700F089FB04F1DB
:103BE000180000F085FBC5F13800A0613046514651
:103BF000424624616462676584F8587000F02CFBCB
:103C0000B9F1000F206018BFC9F80040BDE8F08787
:103C100008480068006880F308884FF0000080F3CF
:103C2000148862B661B6BFF34F8FBFF36F8F00DFAA
:103C300000BF000008ED00E081B00020009040F2DD
:103C40006C00C2F2000000684FF0500181F311884F
:103C5000BFF36F8FBFF34F8F013007D0FEE700BF78
:103C6000009830B9009820B9009810B90098002841
:103C7000F6D001B07047000088B040F2481AC2F296
:103C8000000A0DF11009EB46DAF8080005681DB1CD
:103C9000C068046801E000BF002400F0CFFD01F01F
:103CA000CFFADAF810100646884220D3002DCAF861
:103CB000106051D0A6424FD301F0CCFBDAF80800D7
:103CC000C068C7683D1D284600F0D8FA97F828005C
:103CD000410745D400F0FA0087F8280082E000BFD1
:103CE0007860DAF8080029463F6100F005FBDAF851
:103CF0000800016831B3C068C76804683D1D2846E4
:103D000000F0BCFA396A3846884797F8280040071F
:103D1000EDD5B8692044A042E2D8DAF800000028C6
:103D200000F04081002004A991C101F079FADAF88D
:103D3000000049460022002300F038FF0028D6D1B9
:103D400030E100BFDAF80C10CAF81060CAE90210BE
:103D500001F080FB4FE000BF65B1002210E000BF22
:103D6000B8693F610119B14279601DD90AF10800B3
:103D70001FE000BFDAF80C000068B0FA80F04209DA
:103D8000DAF80000A11B00F0EDFB01F063FB90BB33
:103D90004EF60450CEF200004FF080510160BFF3A8
:103DA0004F8FBFF36F8F26E0311B814206D20AF19D
:103DB0000C000068294600F09FFA13E0DAF80000D2
:103DC000002800F00D81002004A991C101F028FA1B
:103DD000DAF8000049460022002300F0E7FE002840
:103DE00000F0FE80396A3846884704E00AF10C0288
:103DF000106800F081FADAF800005946002201F05C
:103E000035F800283FF440AF0098B0F1FF3F06DCE2
:103E1000DDE901200399904700980028EBD4029E29
:103E2000706910B1301D00F029FA01F009FADAF8D2
:103E30001010074688420CD30098CAF81070092861
:103E40003DD9D8E76860DAF8080021462D6100F016
:103E500053FADAF80800016841B3C068C568D0F8C1
:103E600000802C1D204600F009FA296A2846884760
:103E700095F828004007ECD5A86940444045E1D8B2
:103E8000DAF80000002800F083800020CDE9040863
:103E9000069501F0C5F9DAF8000049460022002332
:103EA00000F084FE0028D4D172E000BFDAF80C10D4
:103EB000CAE902100098CAF8107009289BD8DFE8F8
:103EC00000F005050557415F0505574196F82800A4
:103ED000B26940F00101019886F8281013183146A4
:103EE00041F8043FBB42366108D987420AF1080213
:103EF000BFF47EAF834205D27AE700BF381A904202
:103F0000FFF474AF316A3046884796F828004007BE
:103F10007FF571AFDAF8000000284DD00198B16943
:103F2000069608440021CDE9041001F079F9DAF889
:103F3000000049460022002300F038FE00287FF4EC
:103F40005AAF39E096F8280040F00101019886F850
:103F500028100028B06139D0384431460AF10C02EB
:103F600041F8040F3661B84288BF0AF108023FE702
:103F700096F8280000F0FE0086F828003BE700BF16
:103F800096F828008107F5D4304600F03BFA32E776
:103F90004FF0500080F31188BFF36F8FBFF34F8F46
:103FA000FEE700BF4FF0500080F31188BFF36F8F22
:103FB000BFF34F8FFEE700BF4FF0500080F3118832
:103FC000BFF36F8FBFF34F8FFEE700BF4FF050007E
:103FD00080F31188BFF36F8FBFF34F8FFEE700BFF1
:103FE0004FF0500080F31188BFF36F8FBFF34F8FF6
:103FF000FEE70000F0B581B0044600F0C7F994F97F
:104000004560012E0FDB04F1240500BF286850B184
:10401000284601F0E5F9002818BF00F017FBF0B2C0
:10402000013E0128F2D8FF2684F8456000F0D2F95D
:1040300000F0ACF994F94470012F0EDB04F1100587
:10404000286850B1284601F0CBF9002818BF00F0CD
:10405000FDFAF8B2013F0128F2D884F8446001B0BB
:10406000BDE8F04000F0B6B970B5044600F0E6FBDC
:1040700040F2841CC2F2000CDCF8042052B19CF81F
:104080000000002818BF4FF000404FF0000544BB6F
:1040900081E000BF41F20450C2F20000420700F587
:1040A000705200F1070122F0070218BF21F007004B
:1040B0000021A2F10803CCE90601CCF8043042E962
:1040C0000211DCF80420191AC0E9002101208CF843
:1040D00000004FF00040CCE90211002C4FF0000529
:1040E00059D0204057D124F0070000F11003600799
:1040F00008BF04F10803DCF80800591E81424AD2C7
:10410000604650F818EFDEF804509D422BD2DEF8DE
:104110000010B9B174464D689D4217D20E68AEB119
:1041200075689D4216D23068A0B145689D4215D28F
:1041300004689CB165689D4214D22168A646002996
:10414000E9D110E00CF118000DE000BF8E462046CA
:1041500009E000BFB646084605E000BF8646304687
:1041600001E000BFA646964514D00268DEF8004084
:10417000E91A112904604DD30EEB0305680719D025
:104180004FF0500080F31188BFF36F8FBFF34F8F54
:10419000FEE700BF002501F05DF968075AD04FF037
:1041A000500080F31188BFF36F8FBFF34F8F00BFB4
:1041B000FEE700BF0CF118006960CEF8043000BFC4
:1041C0000168A9420AD20868A8420BD20168A94234
:1041D00004D208680B46A842F2D304E0034608461E
:1041E00001E000BF0B465C6869681E19AE4202D14F
:1041F00021441D4659606C18844207D1DCF8044004
:10420000A04203D0D0E9000421446960AB42286099
:1042100018BF1D60DEF80400DCE9021302F1080596
:10422000091A9942CCF8081038BFCCF80C109CF849
:10423000001000294FF0000118BF40F00040CEE907
:104240000010DCF810000130CCF8100001F002F989
:104250006807A4D1284670BD034643F6394021F0D3
:104260000101C0F600004FF0807C03E903106FF0FD
:104270000201A3F1440043E9091270470169D0E942
:104280000132D1F804C09A608445536008BF4A6087
:104290000022026108680138086008687047000061
:1042A00045F20833C2F20003036045F20810C2F27F
:1042B00000000860802010607047000045F26473C1
:1042C000C2F20003036045F26430C2F200000860ED
:1042D0004FF48070106070474FF0FF31024642F893
:1042E000081F00214260C0E90322016070470000FE
:1042F000002101617047000010B5D1F800C01CF129
:10430000010213D000F1080462681368634511D8F4
:1043100053681C68644511D85A68146864450FD8FE
:1043200054682368A6466345EED90BE00269D2F8CB
:1043300004E007E09646224604E000BF9E4601E006
:1043400096461A46C1F804E0CEF808108A6051601B
:10435000086101680131016010BD0000D0F800C0A3
:10436000436808619A68C1E90132516099600CF1B3
:104370000101016070470000DFF80C00016841F4A2
:10438000700101607047000088ED00E04FF05000C0
:1043900080F31188BFF36F8FBFF34F8F40F26C0033
:1043A000C2F2000001684A1C026009B1704700BFF8
:1043B0004EF60450CEF200000068000608BF7047B9
:1043C0004FF0500080F31188BFF36F8FBFF34F8F12
:1043D000FEE7000040F26C00C2F20000016839B153
:1043E0000139016018BF7047002080F311887047C1
:1043F0004FF0500080F31188BFF36F8FBFF34F8FE2
:10440000FEE7000070B5002808BF70BD40F28414BC
:10441000C2F20004217850F8042C002918BF4FF094
:10442000004111420ED0A0F108052B68A3B14FF056
:10443000500080F31188BFF36F8FBFF34F8F00BF21
:10444000FEE700BF4FF0500080F31188BFF36F8F7D
:10445000BFF34F8FFEE700BF22EA010140F8041CC2
:10446000064600F0EBF956F8041CA0680844A0606A
:1044700004F118000368AB420AD21868A84225D29A
:104480000368AB4204D218681A46A842F2D301E08E
:10449000024618465368D618AE4202D11944154652
:1044A00051606B18834206D16368984203D0D0E90B
:1044B000000319446960AA42286018BF156060694A
:1044C00001306061BDE8704000F0C4BF1A46536817
:1044D000D618AE42E5D1E1E74EF21000CEF2000070
:1044E00000210160816040F26401C2F200010968AC
:1044F00044F6D352C1F26202A1FB02124FF0FF3127
:1045000001EB9211416007210160704745F2C07CC8
:10451000C2F2000CDCF8003003B3634653F8082FF6
:10452000EAB1634653F8102FCAB1634653F8182F07
:10453000AAB1634653F8202F8AB1634653F8282F57
:104540006AB1634653F8302F4AB15CF8382F002A1D
:10455000634608BFC3E90010704700BF6346C3E964
:104560000010704770B515460E460446FFF70EFF63
:1045700094F84400FF2804BF002084F8440094F815
:104580004500FF2804BF002084F84500FFF722FF04
:10459000A06B28B12046BDE87040FFF72BBD00BFDF
:1045A00004F1240031462A4600F092F82046BDE886
:1045B0007040FFF71FBD000070B588B340F2D00413
:1045C000C2F20004616949B14FF0500080F31188D4
:1045D000BFF36F8FBFF34F8FFEE700BF61690646E1
:1045E00001316161A569216804310846FFF746FE83
:1045F0002068AD19456005D3206A21680431FFF7B2
:104600007BFE08E0E06921680431FFF775FEE06A8F
:10461000854238BFE56200F01DFF002818BF70BD5D
:104620004EF60450CEF200004FF080510160BFF30F
:104630004F8FBFF36F8F70BD40F2D001C2F2000107
:104640008A6B0260896941607047000040F2D000C7
:10465000C2F20000012101637047000070B5D8B1BB
:1046600040F2D004C2F200040D4621681831FFF771
:1046700043FEA66920680430FFF700FE681C15D0D1
:104680002068AD19456019D3206A21680431BDE85E
:104690007040FFF731BE00BF4FF0500080F311882B
:1046A000BFF36F8FBFF34F8FFEE700BF54F8500B7F
:1046B000011D2046BDE87040FFF750BEE06921684B
:1046C0000431FFF719FEE06A854238BFE56270BD2C
:1046D000F0B581B0C0B140F2D004C2F200040D4682
:1046E000216816461831FFF739FEA76920680430A3
:1046F000FFF7C4FD96B154F8500B011D204601B0E0
:10470000BDE8F040FFF72ABE4FF0500080F311885B
:10471000BFF36F8FBFF34F8FFEE700BF2068ED1927
:10472000456007D3206A2168043101B0BDE8F0403C
:10473000FFF7E2BDE06921680431FFF7DDFDE06AC3
:10474000854238BFE56201B0F0BD000010B588B009
:104750000020CDE9050006A805A904AAFFF7A0FDE1
:10476000059800283ED0069C002C45D05C21049A78
:10477000079107995C2949D107992063022084F8A1
:10478000590007A80021CDE9001043F68520C0F6A6
:10479000000028A100230294FFF7B8F92046FFF794
:1047A0002BF8079840F2D004C2F20004A062B0B126
:1047B00000F0C8FE411C33D0012810D14FF050004A
:1047C00080F31188BFF36F8FBFF34F8F4FF0FF302F
:1047D000E062012020610020A06100F09DF808B097
:1047E00010BD00BF4FF0500080F31188BFF36F8FF2
:1047F000BFF34F8FFEE700BF4FF0500080F31188EA
:10480000BFF36F8FBFF34F8FFEE700BF4FF0500035
:1048100080F31188BFF36F8FBFF34F8FFEE700BFA8
:104820004FF0500080F31188BFF36F8FBFF34F8FAD
:10483000FEE700BF49444C450000000040F2D000B4
:10484000C2F20000416901314161704780B540F218
:10485000D00EC2F2000EDEF8141019B10121CEF80C
:10486000301080BD0021CEF83010DEF8241041F267
:10487000A40C01EB8102C2F2000C5CF82230002B88
:104880000CEB82030CD05868426803F108008242A6
:104890005A6023D0D068CEF80000CEF8241080BD36
:1048A000283B19B35A6901EB8100002A0CEB800206
:1048B00026D101291AD0186830BB022916D053F826
:1048C000140C28BB032911D053F8280C04390028F4
:1048D000A3F15003E5D02833D5E700BF52685A60F2
:1048E000D068CEF80000CEF8241080BD4FF0500004
:1048F00080F31188BFF36F8FBFF34F8FFEE700BFC8
:10490000A2F114030139BEE7A2F128030239BAE784
:10491000A2F13C030339B6E7B0B584B04EF2004CC7
:10492000CEF2000C4CF27021C4F20F11DCF8002919
:104930004B1C9A420AD14FF0500080F31188BFF30C
:104940006F8FBFF34F8F00BFFEE700BFDCF8002979
:104950008A4209D14FF0500080F31188BFF36F8F66
:10496000BFF34F8FFEE700BF9CF800100291FF21BC
:104970008CF800109CF800108DF807109DF80710B7
:1049800001F0500240F2A411C2F200010A700722A5
:104990004A609DF90720B2F1FF3F6BDC032200BFA4
:1049A000D31C4B609DF8070040008DF807009DF96F
:1049B0000700B0F1FF3F24DC931C4B609DF807001B
:1049C00040008DF807009DF90700B0F1FF3F18DCAB
:1049D000531C4B609DF8070040008DF807009DF9BF
:1049E0000700B0F1FF3F0CDC4A609DF80700043A75
:1049F00040008DF807009DF90700B0F1FF3FCFDDC3
:104A0000131D032B36D14FF44070486002988CF888
:104A10000000DCF8200940F47000CCF82009DCF834
:104A2000200940F07040CCF82009FFF755FD40F216
:104A30006C04C2F2000400252560FFF79DFC4EF6D1
:104A40003470CEF20000016841F040410160FFF790
:104A5000DFF8FFF7FBFE039520684FF0500181F36C
:104A60001188BFF36F8FBFF34F8F013012D000BF9B
:104A7000FEE700BF4FF0500080F31188BFF36F8F47
:104A8000BFF34F8FFEE700BF039830B9039820B9FA
:104A9000039810B903980028F6D0002004B0B0BDE8
:104AA00080B54FF0500080F31188BFF36F8FBFF3D4
:104AB0004F8F00F0CBFB30B14EF60450CEF2000029
:104AC0004FF080510160002080F3118880BD00000C
:104AD00070B582B060B1ABB1F1B9EAB14FF050003E
:104AE00080F31188BFF36F8FBFF34F8FFEE700BFD6
:104AF0004FF0500080F31188BFF36F8FBFF34F8FDB
:104B0000FEE700BF4FF0500080F31188BFF36F8FB6
:104B1000BFF34F8FFEE700BF51B14AB94FF05000CD
:104B200080F31188BFF36F8FBFF34F8FFEE700BF95
:104B300050250195019D502D2ED1019C069E0124EA
:104B400083F84640002908BF1A461A60C3E90F01DE
:104B50001C46FFF71BFC2068D4E90F12002502FB5E
:104B60000103013901FB0201A563C4E90103FF2030
:104B7000E16084F8440084F8450004F11000FFF778
:104B8000ABFB04F12400FFF7A7FBFFF723FC204653
:104B900084F84C6002B070BD4FF0500080F3118873
:104BA000BFF36F8FBFF34F8FFEE700002DE9F04F8B
:104BB00083B00292C0B11D460446F9B1022D02D164
:104BC000E06B01285CD116460F4600F029FB18BBAC
:104BD00016B34FF0500080F31188BFF36F8FBFF30F
:104BE0004F8F00BFFEE700BF4FF0500080F31188E9
:104BF000BFF36F8FBFF34F8FFEE700BF206C00281D
:104C0000DCD04FF0500080F31188BFF36F8FBFF3FB
:104C10004F8F00BFFEE700BFFFF7B8FBA06B022D70
:104C200065D0E16B884262D30298002800F01881B9
:104C30006846FFF701FDFFF7CDFBFFF7FFFDFFF72C
:104C4000A5FB94F84400FF2804BF002084F844002A
:104C500094F84500FF2804BF002084F84500FFF7C2
:104C6000B9FB684602A900F021FA98B12046FFF787
:104C7000C1F900F0EFFB002003B0BDE8F08F00BFEA
:104C80004FF0500080F31188BFF36F8FBFF34F8F49
:104C9000FEE700BF04F11008FFF778FBD4F8389066
:104CA000E66BFFF797FBB14516D102994046FFF737
:104CB000D5FC2046FFF79EF900F0CCFB88B94EF6F4
:104CC0000450CEF200004FF080510160BFF34F8FCF
:104CD000BFF36F8F05E000BF2046FFF78BF900F0B0
:104CE000B9FBFFF753FBA06BE16B884266D2A66B62
:104CF000226CDAB139462DB3E068FBF745FBE16879
:104D0000206C2268091A9142E16003D2A1684042F6
:104D10000844E060A81EB0FA80F040093146002E39
:104D200018BF01210840361A18E000BF2068A8B952
:104D3000A06800F00DFB0021B0FA80F0A1604009EE
:104D40000DE000BF6068FBF71FFBD4E90101226C96
:104D500010448842606001D3206860600120711CAB
:104D6000A16354F8241FA9B1204600F039FB50B1CB
:104D70004EF60450CEF200004FF080510160BFF3B8
:104D80004F8FBFF36F8FFFF725FB012003B0BDE806
:104D9000F08F00BF0028F6D14EF60450CEF200008E
:104DA0004FF080510160BFF34F8FBFF36F8FFFF75C
:104DB00011FB012003B0BDE8F08F00BFE94602AE51
:104DC0000CE000BF2046FFF715F900F043FBFFF7AA
:104DD000DDFAA06BE16B8842FFF489AF02980028EE
:104DE0003ED0FFF7F7FAFFF729FDFFF7CFFA94F867
:104DF0004400FF2804BF002084F8440094F84500D4
:104E0000FF2804BF002084F84500FFF7E3FA484676
:104E1000314600F04BF900287FF428AFFFF7B6FACF
:104E2000D4F838A0D4F83CB0FFF7D4FADA45C9D1A9
:104E300002994046FFF712FC2046FFF7DBF800F02E
:104E400009FB0028C3D14EF60450CEF200004FF00B
:104E500080510160BFF34F8FBFF36F8FB7E700BF83
:104E6000FFF7B8FA002003B0BDE8F08F2DE9F04F4E
:104E700083B0029290B115460446002948D00E46F0
:104E800000F0CEF9A0B99DB14FF0500080F3118829
:104E9000BFF36F8FBFF34F8FFEE700BF4FF050009F
:104EA00080F31188BFF36F8FBFF34F8FFEE700BF12
:104EB000FFF76CFAD4F838A0BAF1000F36D0226CA4
:104EC00052B1D4E9023130461144E160994224BF25
:104ED0002168E160FBF758FAAAF10100A06354F8D9
:104EE000100F70B1204600F07BFA50B14EF604501E
:104EF000CEF200004FF080510160BFF34F8FBFF33F
:104F00006F8F0124FFF766FA204603B0BDE8F08FEB
:104F1000206C0028B3D04FF0500080F31188BFF30D
:104F20006F8FBFF34F8F00BFFEE700BF02980028CE
:104F300000F0B4806846FFF77FFBFFF74BFAFFF7FE
:104F40007DFCFFF723FA94F8440004F12408FF28BD
:104F500004BF002084F8440094F84500FF2804BFF3
:104F6000002084F84500FFF735FA684602A900F0F2
:104F70009DF878B12046FFF73DF800F06BFAFFF797
:104F800005FAA56BFFF726FA2DBB0024204603B0D7
:104F9000BDE8F08FFFF7FAF9A56BFFF71BFA2DB10B
:104FA0002046FFF727F800F055FA14E00299404632
:104FB000FFF754FB2046FFF71DF800F04BFA50B9FD
:104FC0004EF60450CEF200004FF080510160BFF366
:104FD0004F8FBFF36F8FFFF7D9F9D4F838A0BAF12C
:104FE000000F7FF46CAF4FF00009EB4602AF13E007
:104FF0002046FEF7FFFF00F02DFAFFF7C7F9A56B7B
:10500000FFF7E8F9002DC0D0FFF7C0F9D4F838A0B9
:10501000BAF1000F7FF453AF029800283ED0FFF79B
:10502000D9F9FFF70BFCFFF7B1F994F84400FF281A
:1050300008BF84F8449094F84500FF2808BF84F81E
:105040004590FFF7C7F95846394600F02FF8002879
:10505000CED1FFF79BF9A56BFFF7BCF935B1204620
:10506000FEF7C8FF00F0F6F9CEE700BF0299404610
:10507000FFF7F4FA2046FEF7BDFF00F0EBF9002839
:10508000C2D14EF60450CEF200004FF080510160C4
:10509000BFF34F8FBFF36F8FB6E700BF0024FFF75A
:1050A00099F9204603B0BDE8F08F0000B0B548B3D1
:1050B0000C4689B30546FFF769F940F2D00CC2F2FD
:1050C000000CDCF818302268501C2FD0AE46D5E911
:1050D0000050DCF83810A94201D083422ED2181AB1
:1050E000824229D9101A2060DCF838000024CEF85A
:1050F0000000DCF81800CEF80400FFF76BF920463A
:10510000B0BD00BF4FF0500080F31188BFF36F8F28
:10511000BFF34F8FFEE700BF4FF0500080F31188C0
:10512000BFF36F8FBFF34F8FFEE700BF0024FFF781
:1051300051F92046B0BD00BF002020600124FFF7D8
:1051400049F92046B0BD00002DE9F04184B0074682
:105150009000984615460E46FEF786FFF8B10446C5
:105160005C20FEF781FFB8B1DDE90A21002304636A
:1051700080F85930CDE900210446384631462A46A8
:1051800043460294FEF7C2FC2046FEF735FB0120A1
:1051900004B0BDE8F08100BF2046FFF733F94FF0BF
:1051A000FF3004B0BDE8F08170B586B00B9CCCB187
:1051B0000C9E0EB35C250495049D5C2D26D1049DA8
:1051C000DDF828C0022586F8595005AD3463CDE9D5
:1051D00000C50296FEF79AFC3046FEF70DFB0598D7
:1051E00006B070BD4FF0500080F31188BFF36F8F91
:1051F000BFF34F8FFEE700BF4FF0500080F31188E0
:10520000BFF36F8FBFF34F8FFEE700BF4FF050002B
:1052100080F31188BFF36F8FBFF34F8FFEE700005D
:1052200040F2D000C2F20000016900290FBF012046
:105230004069B0FA80F0400918BF40007047000094
:1052400040F2D000C2F20000806970472DE9F043BF
:1052500081B040F2D006C2F20006706940B1706BB6
:10526000002401307063204601B0BDE8F08300BF28
:10527000B06910F10109C6F8189020D3F0690068F0
:1052800050B14FF0500080F31188BFF36F8FBFF320
:105290004F8F00BFFEE700BFF069316AF1613062F5
:1052A000B06B0130B063F069006828B1F069C06884
:1052B000C068406802E000BF4FF0FF30F062F06A63
:1052C00041F2A4088145C2F2000801D200242EE078
:1052D000F0690024006813E0F86A716A884288BFA8
:1052E000706200EB800008EB80002946FFF736F87B
:1052F000F86A3168C96AF269884228BF01241068D7
:1053000090B1F069C068C7683D4655F8040F814503
:105310000CD32846FEF7B2FFB86A0028DCD007F1AC
:105320001800FEF7ABFFD7E74FF0FF30F0623068B0
:10533000C06A00EB800058F82000012888BF0124D3
:10534000306B002818BF0124204601B0BDE8F0836F
:1053500070B588B140F2D005C2F2000529688142DB
:105360000CD04FF0500080F31188BFF36F8FBFF364
:105370004F8F00BFFEE700BF002070BD016D29B355
:10538000013901654FF000011DD1C26AC36C9A4218
:1053900019D0041D06462046FEF770FFF06CC0F1E0
:1053A0003801F062B161696A884241F2A40188BFA4
:1053B000686200EB8000C2F2000101EB8000214630
:1053C000FEF7CCFF0121084670BD00BF4FF0500032
:1053D00080F31188BFF36F8FBFF34F8FFEE700009C
:1053E00070B5C068C5686DB105F118042046FEF7B8
:1053F00045FF40F2D006C2F20006706960B106F1C6
:1054000064001AE04FF0500080F31188BFF36F8FF3
:10541000BFF34F8FFEE700BF2C1D2046FEF72EFF87
:10542000E86A716A884241F2A40188BF706200EBA9
:105430008000C2F2000101EB80002146FEF78EFFE2
:10544000E86A3168C96A884292BF0020012030634F
:1054500070BD00002DE9F04140F2D005C2F2000518
:10546000686968B1FEF792FF686901386861686928
:1054700080B10024FEF7AEFF2046BDE8F08100BFFA
:105480004FF0500080F31188BFF36F8FBFF34F8F41
:10549000FEE700BFE8680028EBD0686E88B341F2F1
:1054A000A406C2F200064FF0010800BF286FC768CB
:1054B00007F11800FEF7E2FE3C1D2046FEF7DEFE77
:1054C000F86A696A884288BF686200EB800006EB70
:1054D00080002146FEF742FFF86A2968C96A8842BF
:1054E00028BFC5F83080686E0028DFD1E869006801
:1054F00020B1E869C068C068406801E04FF0FF3043
:10550000E8626C6B4CB10126FFF7A0FE002818BFC3
:105510002E63013CF8D100206863286B0028A8D0D6
:105520004EF60450CEF200004FF080510160BFF300
:105530004F8F0124BFF36F8FFEF74CFF2046BDE86D
:10554000F081000070B586B0FEF720FF40F24816EB
:10555000C2F20006306808BB06F114042046FEF7CC
:10556000BBFE06F128052846FEF7B6FE40F6B472EB
:1055700041F25403C6E902450025C2F20002C2F21C
:1055800000030A2010210095FFF7A2FA306028B12D
:1055900047F61911C0F60001FEF7B8FFFEF71AFF33
:1055A0003068D8B10020CDE9040005A804A903AAF9
:1055B000FEF784FEDDE903200221059DCDE9001000
:1055C00043F67940C0F6000009A100230295FFF7D9
:1055D000EBFD706010B1012006B070BD4FF05000BF
:1055E00080F31188BFF36F8FBFF34F8FFEE700BFCB
:1055F000546D72205376630003B401984100009803
:1056000050EAC12018BF04204A0D18BF40F0010025
:1056100040F2FF72B2EB515F08BF40F00200012878
:1056200008BF052002B070474100080218BF0420DF
:105630000A0E18BF40F001004FF07F4232EA01012C
:1056400008BF40F00200012808BF05207047000095
:1056500070B54FF068422DED048BF0EE408A18EEE5
:10566000900AB0EE608A18EE101A02EB4003B3F114
:10567000654F3CBF02EB4102B2F1654F7DD200BFE6
:10568000C0F3C753C1F3C7529A1A1B2A09DD10F0A1
:10569000004F14BF9FED830A9FED830ABDEC048B7E
:1056A00070BD12F11A0F36DA11F0004F09D010F068
:1056B000004F0CBF9FED7D0A9FED7D0ABDEC048B72
:1056C00070BD88EE889A19EE100AFFF7ADFF042826
:1056D00008BF01F00BF918EE900AFFF7A5FF054689
:1056E00018EE100AFFF7A0FF044619EE100AFFF7A4
:1056F0009BFF042D18BF052D08D1042C18BF052CC5
:1057000004D1002804BF0220FAF7D1FEB0EE490A06
:10571000BDEC048B70BD4200B2EB410F3AD910F0E2
:10572000004F19BFDFED630A9FED630ADFED630AE7
:105730009FED630AB0EE481A0A46B1EE688A80F01F
:105740000041F0EE418A10460A1A5200B2F1807F01
:1057500034D2484010F0004FDFED5A1A9FED5A2A1C
:105760001DBFBEEE001A70EEE10A30EE420AB6EE40
:10577000001A08BF70EEA10A00E040E008BF30EE5A
:10578000020AB0EE682A01EE482A08EE818AC2EECB
:10579000081A15E011F0004F04BF9FED4C0AF0EE1F
:1057A000400AD1D010F0004F19BFDFED490A9FED3C
:1057B000490ADFED490A9FED490AC5E7C8EE881A94
:1057C00021EEA11A9FED462ADFED462A41EE022A7C
:1057D0009FED452A01EE222ADFED442A41EE022AFE
:1057E0009FED432ABDEC048B01EE222A21EE811AA3
:1057F00001EE020A30EE210A30EE200A70BD4FF0B1
:105800007F42B2EB400F28BFB2EB410F09D2F0EE5E
:10581000480AB0EE680ABDEC048BBDE8704001F0A8
:105820005AB840EA01035B0008BF41F0FF410BD0CA
:10583000B2EB400F08BFB2EB410F08D120F080401F
:1058400008EE900A21F0804108EE101A18E7B2EB3A
:10585000400F12BF5FEA410340F0FF4001F00041FA
:105860003FF40EAFB2EB410F12BF5FEA400200F00F
:10587000004041F0FF413FF403AF4A0092EA400389
:105880003FF5FEAE002AACBF9FED1A0A9FED1A0A43
:1058900068EE808A28EE008A18EE900A18EE101A38
:1058A000EEE60000DB0FC9BFDB0FC93FDB0F49404D
:1058B000DB0F49C00000C9BF22AAFDB90000C93FE3
:1058C00022AAFD390060ED3EC30ACE370000000079
:1058D000000049C022AA7DBA0000494022AA7D3AB0
:1058E0002DAD65BD8FB8D53D0FB511BE61C84C3E1D
:1058F000A8AAAABE0000804F0000802F10EE101A48
:1059000008B5444A6846B2EB410F28D94FF0E6404B
:10591000B0EB410F94BF00204FF0FF300090009893
:10592000002861DB60EE000A10F0010F45D010F096
:10593000020FDFED391A9FED391A00EEA11ADFEDE3
:10594000381A40EE811A21EEA01AF0EE400A40EE1D
:10595000010A08BFF1EE600AB0EE600A08BD314BE3
:1059600021F0004293423CD911F0004FDFED2E0AA6
:1059700020EE201ADFED2D0A19BF31EE601A71EE0C
:10598000200A31EE201A71EE600ABDEEE01A11EE27
:10599000100A9FED271A00F0030000EEC10A9FEDE8
:1059A000251A009000EEC10A9FED231A00EEC10AED
:1059B0009FED221A00EEC10AB1E79FED211A9FED7B
:1059C000210A10F0020F00EE810A9FED1F1A00EE6F
:1059D000801AB7EE000A00EE810A18BFB1EE400A45
:1059E00008BD00F08BFF9AE710EE100A4000B0F1FE
:1059F0007F4F3CBFB7EE000A08BD07D14FF0010052
:105A0000FAF755FDBDE8084000F068BFBDE8084062
:105A100000F05EBFB61F927E336D4CB9DA82083C4F
:105A2000A0AA2ABE490E494683F9223F0000004B36
:105A30000000C93F00A0FD390020A2331A61342CB8
:105A4000B93AB2BACA9F2A3DDDFFFFBE000000008E
:105A50002DE9F04D2DED040B2DED0E8B94B0DDE90D
:105A60002350259CDDF888A025F0004624F000484E
:105A7000BAF1000F14BF0121002101EB4502FC49DE
:105A800053184A1093422AD3002814BF012300233D
:105A900003EB44030B44F7498B4220D358EA00013F
:105AA0009FEDF5AB76D0DFF8D8B35D4503D1BAF101
:105AB000000F05D188E0BAF1000F08BF002100D027
:105AC000012101EB450111F5001F08D8002814BF82
:105AD0000121002101EB440111F5001F0BD99DEDBF
