:020000040800F2
:1000000098470020550200084937000825210008BC
:10001000453700086D0400082D3A00080000000074
:10002000000000000000000000000000C1370008D0
:10003000710400080000000051370008E53700088F
:100040006F0200086F0200086F0200086F020008CC
:100050006F0200086F0200086F0200086F020008BC
:100060006F0200086F0200086F0200086F020008AC
:100070006F0200086F0200086F0200086F0200089C
:100080006F0200086F0200086F0200086F0200088C
:100090006F0200086F0200086F0200086F0200087C
:1000A0006F0200086F0200086F0200086F0200086C
:1000B0006F0200086F0200086F0200086F0200085C
:1000C0006F02000835210008292100086F0200088E
:1000D0006F0200086F0200086F0200086F0200083C
:1000E0006F0200086F0200086F0200086F0200082C
:1000F0006F0200086F0200086F0200086F0200081C
:100100006F0200086F0200086F0200086F0200080B
:100110006F0200086F020008D1380008DD380008BF
:100120006F0200086F0200086F0200086F020008EB
:100130006F0200086F0200086F0200086F020008DB
:100140006F0200086F0200086F0200086F020008CB
:100150006F0200086F0200086F0200086F020008BB
:100160006F0200086F0200086F0200086F020008AB
:100170006F0200086F0200086F0200080000000014
:100180006F0200086F02000800F002F800F052F859
:1001900014A696E8000CB244B344DA4501D100F04D
:1001A00049F8BAE80F000FA696E83000A5EB040561
:1001B00004EB0607AAEB0704A7F101074FEA1515A0
:1001C0004FEA3414A4F10104AC4201D300F032F838
:1001D00013F0010F18BFFB1A43F0010300F001F800
:1001E000DBE71847AC500000CC500000103A24BFA9
:1001F00078C878C1FAD8520724BF30C830C144BF8C
:1002000004680C6070470000704700000023002461
:1002100000250026103A28BF78C1FBD8520728BF16
:1002200030C148BF0B6070471FB505F012F81FBD05
:1002300010B510BD00F0E4F81146FFF7F5FF03F02C
:100240002FFE00F002F903B4FFF7F2FF03BC00F049
:1002500005F900000948804709480047FEE7FEE726
:10026000FEE7FEE7FEE7FEE7FEE7FEE7FEE7FEE766
:1002700004480549054A064B70470000BD38000890
:1002800089010008984100209847002098430020E9
:100290009843002053EA020C00F069802DE9F04BEE
:1002A0004FF00006002B1FBFB3FA83F503FA05F4E5
:1002B00024FA05F65E4012BF1643B2FA82F502FA3E
:1002C00005F4C5F120051EBF22FA05FC44EA0C0422
:1002D000203556EA044C4FEA144418BF641C4FF012
:1002E00000084FF00009904271EB030C39D300294C
:1002F00019BFB1FA81F701FA07F6B0FA80F700FAF0
:1003000007F6C7F120071EBF20FA07FC46EA0C06D5
:100310002037B6FBF4FCA7EB0507103F07F01F0BD7
:10032000CBF120062CFA06F60CFA0BFB44BFB346C1
:100330000026202FA4BF5E464FF0000B5BEA060CA0
:1003400008BF4FF0010B19EB0B0948EB0608ABFB9C
:10035000027C06FB02CC0BFB03CCC01B71EB0C0137
:10036000C1E70B46024641464846BDE8F08B13B54F
:10037000084318BF4FF0FF300146AFF30080BDE8DF
:100380001C4070474FF0000200B513469446964655
:10039000203922BFA0E80C50A0E80C50B1F1200198
:1003A000BFF4F7AF090728BFA0E80C5048BF0CC046
:1003B0005DF804EB890028BF40F8042B08BF7047A4
:1003C00048BF20F8022B11F0804F18BF00F8012B16
:1003D000704770477047704710B500F009F8006823
:1003E00010BD10B5044600F003F8046010BD000015
:1003F000004870472000002000487047200000207F
:100400007546FFF7F9FFAE4605006946534620F0F2
:100410000700854618B020B5FFF72AFFBDE8204049
:100420004FF000064FF000074FF000084FF0000BB0
:10043000AC46ACE8C009ACE8C009ACE8C009ACE81F
:10044000C00921F007018D46704710B50446AFF38F
:1004500000802046BDE81040FFF7F5BE0149182096
:10046000ABBEFEE72600020070470000FEE700007A
:100470007047000072B600BFFEE7000090F835102C
:10048000022909D1052180F835100068016821F0A2
:100490000101016000207047802141650120704703
:1004A00090F8350070470000B0B5044600F0E0F861
:1004B000054640F20000C2F200000078611C18BF3F
:1004C000044400BF00F0D4F8401BA042FAD3B0BDF2
:1004D0002DE9F04F83B000F1200200F13E4741F6D4
:1004E0000045009207F1FF77C4F2020508224FEAA7
:1004F000B726A84208BF072200254FF000084FF09A
:100500000009072E38BF4FEAB72201920AE000BF68
:1005100009F1010908F10208B9F1100F05F104050C
:1005200000F0A2800F68012202FA09FE17EA0E0A03
:10053000EED0D1F804C003220CF003077E1E02FAAD
:1005400008F4012E6FEA040B12D88468CE6804EA1E
:100550000B0406FA08F634438460446824EA0E0665
:10056000CCF3001404FA09F42643466004E000BF0B
:10057000032F01D103271EE0C6688C6806EA0B062C
:1005800004FA08F42643022FC66014D16FF0030268
:10059000009E02EA590756F807C005F01C040F2216
:1005A0000B69A2402CEA0202A3401A43F251D1F88F
:1005B00004C00CF00307026807FA08F302EA0B0212
:1005C0001A431CF4403F0260A2D0002243F64403C9
:1005D0000292C4F202031A6843F6004442F48042D5
:1005E0001A601A68C4F2010402F480420292029A6C
:1005F00029F003024FF6084C2244CFF6FF7C52F854
:100600000C3005F00C070F26BE40B343019E06FADE
:1006100007F73B4342F80C30A2684B6842EA0A07EE
:1006200043F60C4CDE0258BF22EA0A07A760C4F268
:10063000010CDCF800209E0242EA0A0758BF22EAB9
:100640000A07CCF8007062689E0342EA0A0758BFA6
:1006500022EA0A0767602268DB0342EA0A0758BFFA
:1006600022EA0A07276053E703B0BDE8F08F0000D5
:1006700043F64070C2F20000006870477047000007
:1006800070470000F0B581B0044600680025476956
:10069000426894F83E1002F48076FA0505D5002EE3
:1006A0001EBF6FF4807242610125BA0505D5002E88
:1006B0001EBF02356FF4007242617A0516D5AEB1E5
:1006C000628D94F83D30D4F830C0202908BF002A4C
:1006D00024D06FF48062402905F10405426101D005
:1006E000102903D1016841F400710160380507D574
:1006F00036B1206808356FF40061416101E000BF48
:1007000055B1206C40EA05012046216401B0BDE8E6
:10071000F04001F0A7BD00BF01B0F0BD03F0F7014C
:10072000212909D0282B08BFBCF1210F04D06FF478
:10073000806141610435D9E794F83D10E26AB2F175
:10074000080318BF0123203A18BF0122134208BF33
:10075000282921D0212939D10021CFF6FF71E1626A
:1007600021212163202184F83D10002184F83E10CE
:10077000426822F4E06242606FF480624261026883
:1007800022F4806202604269120648BF016120467D
:1007900000F00EFFAAE700BF0021CFF6FF71E16273
:1007A000416821F4E06141606FF48061416101685A
:1007B00021F48061016000202021206384F83D1035
:1007C00084F83E00204600F0C1FC8FE76FF48061A2
:1007D00041618BE7F0B581B007687968C26A90F82B
:1007E0003E5090F83DE0402D01D0102D34D1BB6932
:1007F0007C69E60718D1B2F12A4F00F06782B2F5A2
:100800002A0F00F06382220701F4007240F1068192
:10081000002A00F00381416B426C0029D2B23A6198
:1008200040F0B080B0E000BF8A0543D44FF0010C27
:100830007A685B076ED4120500F1488204F0440226
:10084000402A40F0598111F4806100F0558101B0D7
:10085000BDE8F04001F048BE026C01F40073002ACC
:100860000CBFBC6900247D69AA0729D543B3016C7C
:10087000002918BFBC6990F83D1001F02801282913
:1008800040F0C0807968012221F48061796004F031
:10089000040182EA910122064FF0180258BF0C228F
:1008A000825A002380F83C3001B0BDE8F040FFF7E9
:1008B000E7BE00BFC16AB1F52A0F3DD1012140E07A
:1008C000EA066FD5002B6DD090F83D50796821F481
:1008D000E06179600021009179690091396841F007
:1008E000010139600099396821F4806139607968C3
:1008F000090540F1798105F0F7010446222940F00D
:10090000498154F8381F0A68526824F80E2C34F8CC
:100910000E2C47E1120500F1D98104F08402802AEF
:1009200040F0F88011F4806100F0F48001B0BDE87F
:10093000F04001F0BFBE00BFC16AB1F12A4F01D142
:100940000821C16290F83E1040290BD1016D406C26
:10095000002900F0FE0018BF40F00100386101B02E
:10096000F0BD00BF0169B1F5804F40F0898090F87B
:100970003D10426C212902F0FE0218BF01323A619B
:10098000416B09B1C96B39B9806B002800F09E81B9
:10099000C06B002800F09A81786840F400607860AD
:1009A00001B0F0BD0EF0F702212A79D105F08402E2
:1009B000802A40F0C18011F4806100F0BD8090F881
:1009C0003D10428D002A00F08181426A12F8013BFD
:1009D0003B614262428D013A4285428D002A08BF46
:1009E000292940F07381796821F48061796021219F
:1009F0000163282180F83D1001B0BDE8F04000F00F
:100A0000D7BD00BF002100917A690092BA690092B7
:100A1000009A80F83C1001B0F0BD00BF4FF0010C0F
:100A2000A6078CEA522C7FF503AF002A3FF400AFF3
:100A300090F83E20C16A036B90F83D60222E40F092
:100A40009F80066D002E08BF402A00F09980026D3D
:100A5000002A40F03D810269B2F5404F40F03881F4
:100A60000021009179690091B96900910099396874
:100A700041F480713960016D0131016501B0F0BD53
:100A8000016D002900F00081016D012940F01E81F7
:100A9000406C062101EAD010F130386101B0F0BDA0
:100AA00005F04402402A57D111F4806154D090F8E7
:100AB0003D10428D002A00F009813A69436A1A709C
:100AC000426A01324262428D013A4285428D002AD9
:100AD00008BF2A2940F0FA8001684A6822F480623F
:100AE0004A6022210163282180F83D1001B0BDE851
:100AF000F04000F05BBD00BF04F00401012282EA77
:100B0000910151EA0C0140F0E18001B0BDE8F040F4
:100B100001F06EBC04F00401012282EA910151EA65
:100B20000C0140F0D380BEF1210F40F0C78001B02E
:100B3000BDE8F04001F07CBD690740F1C780002BA3
:100B400000F0C480418D002900F0C080416A11F896
:100B5000012B3A610FE000BF690740F1B780002B1D
:100B600000F0B480418D002900F0B0803969426AFC
:100B70001170416A01314162418D01394185A5E021
:100B80000020009078690090B8690090009801B04A
:100B9000F0BD00BF54F8341F0A68526824F80A2CCC
:100BA00034F80A2C1AB1026C42F0040202647A682A
:100BB000064622F4006208467A60FFF771FC01469F
:100BC0003046012910D0206842F24111C0F60001E0
:100BD0000165FFF753FC0146304629B12168044600
:100BE0000A6D084690472046418D61B101684A6907
:100BF00052072FD44A69520639D4418D19B1016C7C
:100C000041F004010164016C21B101B0BDE8F04084
:100C100001F028BB2A2D08D100210163282180F88A
:100C20003D10044600F0C2FC204690F83D102829F3
:100C300032D10021CFF6FF71C16200212022016371
:100C400080F83D2080F83E1001B0BDE8F04000F093
:100C50007DBA00BF0969426A1170426A01680132B7
:100C60004262428D013A42854A695206C5D50969F8
:100C7000426A1170416A01314162418D01394185F9
:100C8000418D0029BBD1BEE7406C062101EAD0109E
:100C9000F030386101B0F0BD016B222918BF222D60
:100CA00014D100212022016380F83D2080F83E10FD
:100CB00001B0BDE8F04000F079BC00BF402D05D187
:100CC00001B0BDE8F04001F04FBD00BF01B0F0BD84
:100CD000428D52B1428D012A16D1202918BF082910
:100CE00026D1396821F48061396000210091796949
:100CF0000091B96900910099396841F40071396037
:100D00000021016501B0F0BD428D022A0CD11029ED
:100D100032D8012214238A40C0F201031A422BD098
:100D20004FF480622EE000BF3A6842F480622BE00C
:100D300011F5803F0CD1396821F480613960796800
:100D40000905D2D5396821F48061396030E000BFEF
:100D5000122B01D10129C4D11029F3D8012202FAA2
:100D600001F11422C0F201021142EBD0396841F4C2
:100D7000806139601CE000BF3A6822F480623A600A
:100D80004FF400623B681A433A607A6812050FD547
:100D90004A1E1F2A18D8012303FA02F248F28103DF
:100DA000C8F200031A420FD0796841F4805179608B
:100DB0000021009179690091B969009100990021A1
:100DC000016501B0F0BD00BF11F5803FECD0EFE749
:100DD00070470000002804BF01207047F0B581B0C3
:100DE000044690F83D0028B9002084F83C002046D5
:100DF00000F090FB242084F83D002068016821F079
:100E000001010160016841F400410160016821F4C1
:100E10000041016000F094FD636848F2A16CC0F2EB
:100E2000010C40F60011C0F23D0163453CBF48F2A1
:100E30008041C0F21E01884202D2012001B0F0BD03
:100E40004DF68361C4F21B31A0FB01122168970C9F
:100E5000D1F804E04FF496762EF03F0545EA92452E
:100E60004D60774348F638160D6AC0F24106A7FB7D
:100E7000067625F03F07634538BF960C721C3A434F
:100E80000A62CA6948F2A0664CF6FF77C0F2010612
:100E9000B34222EA07020BD801385B00B0FBF3F043
:100EA00001306FF31F30042898BF04201BE000BFFF
:100EB000A768013857B119277B43B0FBF3F0013025
:100EC0006FF31F3070B100F5804007E003EB430380
:100ED000B0FBF3F001306FF31F3018B100F50040A4
:100EE00001E000BF01201043C8610868D4E907236E
:100EF00020F0C000104318430860886848F2FF32B1
:100F000004F10C0790438CCF18431043A669886006
:100F1000C86820F0FF0038433043C860086840F0DC
:100F20000100086000202021206484F83D10206327
:100F300084F83E0001B0F0BD2DE9F04F83B01E46AD
:100F4000924688460446FFF793FB94F83D1020290B
:100F500024D12168054600BF886980071AD5FFF7AC
:100F600087FB401B21681A28F6D388698007F3D5D0
:100F700000202021206384F83D1084F83E00216C7D
:100F800041F02001216484F83C00022003B0BDE858
:100F9000F08F00BF94F83C00012803D1022003B079
:100FA000BDE8F08F4FF0010984F83C900868C00755
:100FB00003D1086840F0010008600868002720F4A9
:100FC00000600860242084F83D000020CFF6FF7008
:100FD0002764E06208F0FE08BAF1010F88BFD1462D
:100FE0004FF0A00A4FF0200B04E000BF01374F453F
:100FF00000F0A2800868002240F48070086020465B
:101000004FF001113346009501F05AFD2168002888
:1010100056D1C1F81080FFF72BFB21684B694A6954
:1010200094F83D50A02D054605D013F0020008BFEE
:1010300012F480601AD084F83DB048690A688007CD
:1010400042F400720A6045D46FF48060486100BFCA
:1010500088698007CAD5FFF70BFB401B21681A2857
:10106000F6D388698007F3D54AE000BFB6B100BF68
:10107000FFF7FEFA401BB04288BF84F83DA021680C
:101080004A69486994F83D30A02BD4D012F002028E
:1010900008BF10F48060EBD0CDE700BFFFF7E8FA9F
:1010A00084F83DA021684A69486994F83D30A02B36
:1010B000C1D012F00202BED110F48060EED0BAE7C7
:1010C0000868C00544BF4FF400702064032003B0DB
:1010D000BDE8F08F00200290486902908869029074
:1010E0000298886901E000BF806980071AD5FFF780
:1010F000BFFA411B20681A29F6D381698907F3D505
:1011000000202021206384F83D1084F83E00216CEB
:1011100041F02001216484F83C00012003B0BDE8C7
:10112000F08F00BF202084F83D00002084F83C00B0
:1011300003B0BDE8F08F00BF202084F83D00002000
:1011400084F83C00012003B0BDE8F08F7047000038
:1011500070470000704700007047000070470000B3
:101160002DE9F04784B0994616460F460446FFF72E
:101170007FFA94F83D10202927D10546206800BF4A
:10118000816989071CD5FFF773FA411B20681A296A
:10119000F6D381698907F3D500202021206384F8E4
:1011A0003D1084F83E00206C04F13C0A40F0200021
:1011B0002064022000218AF8001004B0BDE8F08706
:1011C000A2461AF83C1F012904D1022004B0BDE850
:1011D000F08700BF01228AF800200368DDE90D18BE
:1011E0000C9ADB0703D1036843F001030360036833
:1011F00023F400630360222084F83D00402084F83B
:101200003E000020206462626185608D3946208541
:101210000020CFF6FF70E062204632464B46CDE913
:10122000008501F001FB18B1012004B0BDE8F08792
:10123000208D08B3022813D0012835D121680A680F
:1012400022F480620A60002203924A6903928A694A
:101250000392039A0A6842F400720A602CE000BF0D
:1012600021680A6822F480620A600A6842F4006217
:101270000A60002203921AE000200390206841696E
:101280000391816903910399016841F40071016040
:10129000202084F83D00002084F83E0000218AF8D8
:1012A000001004B0BDE8F0870021039121684A696D
:1012B00003928969039103990427C0F201070CE0A6
:1012C00010690870606A218D01306062481E2085B7
:1012D000618D013961850104DAD080B203280FD80D
:1012E00002284AD001282DD1204641462A4601F045
:1012F00039FD002898D12068616A0069E1E700BFE4
:10130000204641462A4601F02DFD00287FF48CAF8F
:101310002068616A00690870606A2268411C208D3B
:10132000616201382085638D013B638553695B07EA
:10133000D1D580B20328C3D1106820F4806010603A
:10134000BEE700BF2046394600224346009501F023
:10135000B7FB00287FF468AF2068616A026822F456
:101360008062026000690870606A218D01306062ED
:10137000481E2085608D0138608520463946002250
:101380004346009501F09CFB00287FF44DAF206898
:10139000616A026842F40072026000690870606A63
:1013A0002268411C6162218D01392185618D0139DD
:1013B00061851169417085E72DE9F04383B0994655
:1013C00016460F460446FFF753F994F83D102029BE
:1013D00024D10546206800BF816989071AD5FFF727
:1013E00047F9411B20681A29F6D381698907F3D58B
:1013F00000202021206384F83D1084F83E00216CF9
:1014000041F02001216484F83C00022003B0BDE8D3
:10141000F08300BF94F83C10012903D1022003B0EF
:10142000BDE8F083012284F83C200368DDE90B1855
:101430000A9ADB0703D1036843F0010303600368E2
:1014400023F400630360212084F83D00402084F8E9
:101450003E000020206462626185608D39462085EF
:101460000020CFF6FF70E062204632464B46CDE9C1
:10147000008501F063FA18B1012003B0BDE8F083E4
:10148000208D98B9204641462A4601F0BBFA88B320
:10149000206C0428F0D12068016841F400710160DB
:1014A000012003B0BDE8F0830004EBD020464146A4
:1014B0002A4601F09FFC0028EAD1616A22680846AA
:1014C00010F8013B1361238D6062581E2085678DE3
:1014D000013F678557697F07E6D50704E4D0487860
:1014E0001061881C6062981E2085618D01396185BC
:1014F000DAE700BF2068016841F400710160202034
:1015000084F83D00002084F83E0084F83C0003B0DD
:10151000BDE8F083B0B586B045F600010068C4F2BE
:101520000001002488420594CDE90344029401940B
:1015300002D006B0B0BD00BF43F630050094C4F23F
:101540000205286840F002002860286800F00200C8
:10155000009000984FF4406001901220CDE9020401
:10156000032004900420059001F5D63001A9FEF770
:10157000AFFF00942869052140F4800028612869A4
:10158000002200F4800000900098212000F0CAF8AA
:10159000212000F0B5F822200521002200F0C2F839
:1015A000222000F0ADF806B0B0BD0000704700008A
:1015B0007047000040F2000043F64071C2F20000A4
:1015C000C2F2000100780A68104408607047000009
:1015D00080B543F60040C4F20200016841F4007196
:1015E0000160016841F480610160016841F480712B
:1015F0000160032000F0C2F80F2000F005F800F0B1
:101600005DF8002080BD000070B586B0002543F66F
:1016100040010195C4F202010A68044642F020022A
:101620000A60096801A801F0200101910199694649
:1016300000F066F9049E002E18BF012600F080F924
:101640004DF68361B040C4F21B31A0FB01014FF0A5
:10165000FF3000EB914140F26C2041F20042C2F2B7
:101660000000C4F2000240F2E733C0E90021C0E903
:1016700002530561856100F0E5FB08B106B070BD5D
:1016800040F26C20C2F2000000F02EFC0028F5D1E0
:10169000372000F035F80F2C0CD8372021460022D7
:1016A00000F040F840F204010020C2F200010C609A
:1016B00006B070BD012006B070BD000082B00020F1
:1016C00043F640010190C4F202014A6842F48042AC
:1016D0004A604A6802F480420192019A00900868C8
:1016E000002240F08050086008680F2100F0805010
:1016F000009000986FF0010002B000F013B80000F5
:10170000002848BF704700F01F01012202FA01F1D2
:101710001C2202EAD0004EF20012CEF200028150EA
:101720007047000010B54EF60C5CCEF2000CDCF8F1
:101730000030C3F3022E8EF00704042C28BF0424CB
:10174000BEF103034FF0FF3E0EFA04F438BF00234E
:10175000A14399400EFA03F39A43114300F00F029C
:1017600000F160430901043A03F564436244002830
:1017700048BF02F10C03197010BD00004EF60C5169
:10178000CEF200010A684FF6FF031A4060F30A2206
:1017900042F0806040F0FD7008607047002804BF90
:1017A000012070472DE9F04143F60808C4F2020811
:1017B0000446D8F8F8030D4600F00700884207D227
:1017C00088F8F853D8F8F80300F00700A84277D15A
:1017D0002068810717D5410705D5D8F8001041F4D6
:1017E000E051C8F80010010705D5D8F8001041F401
:1017F0006041C8F80010D8F80010A26821F0F0018C
:101800001143C8F80010C00740D1D8F8F80300F021
:101810000700A84207D988F8F853D8F8F80300F071
:101820000700A8424CD12068410707D5D8F800101E
:10183000E26821F4E0511143C8F80010000708D510
:10184000D8F80000216920F4604040EAC100C8F8DF
:10185000000000F089F8D8F8001045F26C22C1F3BE
:101860000311C0F60002515C40F2140220FA01F1AB
:1018700040F20400C2F200000068C2F200021160EF
:10188000FFF7C2FE0020BDE8F08100BF6068811E46
:10189000022907D258F8081C89015CBF0120BDE865
:1018A000F08111E0012807D158F8081C89035CBFBA
:1018B0000120BDE8F08107E058F8081C890703D42F
:1018C0000120BDE8F08100BFD8F8001021F003012D
:1018D0000843C8F80000FEF7CBFE064641F2883701
:1018E000D8F80000616800F00C00B0EB810F8CD0DC
:1018F000FEF7BEFE801BB842F2D90320BDE8F0819E
:101900000F22026043F60802C4F20202136803F0D9
:1019100003034360136803F0F0038360136803F468
:10192000E053C360D2F800C04FF4E05303EADC0395
:101930000361D2F8F80300F0070008607047000068
:1019400040F2140043F60801C2F20000C4F20201A2
:101950000068096845F27C22C1F38221C0F60002CA
:10196000515CC8407047000010B543F60404C4F24F
:101970000204606800F00C0142F200400829C0F245
:10198000F40007D0042918BF10BD41F20020C0F2B6
:101990007A0010BD216801F03F02216823684902E6
:1019A000C3F3881106D4A1FB00010023FEF772FCEB
:1019B00007E000BF41F20020C0F27A004843B0FBCC
:1019C000F2F021680222C1F3014102EB4101B0FBB8
:1019D000F1F010BD002804BF012070472DE9F0414F
:1019E00082B00446007843F60006C007C4F202063F
:1019F0000CD0B06800F00C00042840F08180306802
:101A0000800303D56068002800F068812078800793
:101A10001BD5B06810F00C0F09D0B06800F00C00B6
:101A2000082840F087807068400200F183803068A9
:101A3000800703D5E068012840F0508130682169B3
:101A400020F0F80040EAC10030602078000713D48D
:101A5000207840072AD4A569002D00F03A81B068AB
:101A600000F00C00082840F0A580012D40F00E8108
:101A7000012002B0BDE8F0816069002800F082809A
:101A80000020C4F247200121C0F8801EFEF7F0FDBF
:101A9000054600BF706F8007DAD4FEF7E9FD401BF2
:101AA0000228F7D9032002B0BDE8F081306C5FEA6C
:101AB000C0080AD400200190306C40F0805030649F
:101AC000306C00F080500190019847F20007C4F29A
:101AD00000073868C00547D4386840F48070386023
:101AE000FEF7C6FD054600BF3868C0053CD4FEF7CA
:101AF000BFFD401B0228F7D9032002B0BDE8F081EA
:101B0000B06800F00C00082803D1706840023FF56F
:101B100076AF61683068B1F5803F07D0B1F5A02F8E
:101B200040F09A8040F480203060306840F480308B
:101B300030609AE0E068002840F20000C4F24720DC
:101B40005CD001210160FEF793FD054630688007F7
:101B50003FF574AFFEF78CFD401B0228F6D9032039
:101B600002B0BDE8F08100BFA168306F012905D047
:101B7000052955D140F004003067306F40F0010076
:101B8000306756E00020C4F247200021C0F8801ED4
:101B9000FEF76EFD054600BF706F80077FF558AFFA
:101BA000FEF766FD401B0228F6D9032002B0BDE80F
:101BB000F08100BF0027C4F2472700203866FEF7F7
:101BC00057FD022D05460DD13068800140F18A8015
:101BD000FEF74EFD401B02284FF00300F4D902B07F
:101BE000BDE8F0813068800173D5FEF741FD401BF0
:101BF00002284FF00300F5D9F1E700BF0021016092
:101C0000FEF736FD054600BF306880077FF51DAF43
:101C1000FEF72EFD401B02284FF00300F4D9DEE74B
:101C200020F001003067306F002920F00400306799
:101C30007AD0FEF71DFD054641F28837306F8007E8
:101C400000F18480FEF714FD401BB842F6D9032052
:101C500002B0BDE8F08100BF20F480303060306811
:101C6000002920F4802030607AD0FEF701FD05467F
:101C7000306880033FF5CAAEFEF7FAFC401B6428CB
:101C8000F6D9032002B0BDE8F08100BF7068E169B9
:101C900000F480028A4221D1216A00F03F028A4288
:101CA0001CD147F6C071626A0140B1EB821F15D1A9
:101CB000A16A4FF6FF73C903994300F44032A1F5BE
:101CC00080318A420AD1E16A00F07060B0EB016FA6
:101CD00004D1002002B0BDE8F08100BF012002B0B5
:101CE000BDE8F08104F11C052FCD084340EA8210C5
:101CF000D9034FF6FF729143A1F5803140EA0560A8
:101D00000843706001203866FEF7B2FC044600BF4D
:101D100030688001DDD4FEF7ABFC001B02284FF0D9
:101D20000300F5D95BE700BFFEF7A2FC054641F2D0
:101D3000883700BF306F800708D5FEF799FC401B3D
:101D4000B8424FF00300F5D949E700BFB8F1000FE2
:101D50003FF581AE306C20F0805030647BE600BFF0
:101D6000FEF786FC054600BF306880037FF54EAE67
:101D7000FEF77EFC401B64284FF00300F4D92EE7E9
:101D8000704700007047000090F83C20012A4FF097
:101D9000020254D010B580F83D200268D2F804E069
:101DA000D2F808C00C682EF07003234341F2FF7490
:101DB000C4F20004A24253600EDC40F2FF73C4F28E
:101DC00000039A4216DCB2F1804F2BD040F2004360
:101DD000C4F2000324E000BF40F2FF33C4F2010369
:101DE0009A4213DC41F60003C4F200039A4219D070
:101DF000002313E040F60003C4F200039A4211D01E
:101E000040F60043C4F200030AE000BF44F20003BE
:101E1000C4F201039A4205D040F20043C4F2010328
:101E20009A4204D149682CF0800319439160012142
:101E3000002280F83D1080F83C20BDE8104010469C
:101E400070470000002804BF0120704710B5044609
:101E500090F83D0028B9002084F83C00204600F0AE
:101E60001FF8022084F83D002068211D01F03CFD90
:101E7000012084F8460084F83E0084F83F0084F88E
:101E8000400084F8410084F8420084F8430084F85C
:101E9000440084F8450084F83D00002010BD000097
:101EA000006841F20001C4F20001884218BF704787
:101EB00080B582B00020019043F64000C4F20200D9
:101EC0000168002241F0100101600068052100F066
:101ED0001000019001983620FFF724FC362002B054
:101EE000BDE88040FFF70CBC90F83D1001291CBFF5
:101EF00001207047022180F83D10006841F2FF7216
:101F0000C168C4F20002904241F00101C1600DDCE1
:101F100040F2FF71C4F20001884215DCB0F1804F3D
:101F20002AD040F20041C4F2000123E040F2FF3128
:101F3000C4F20101884213DC41F60001C4F2000141
:101F4000884219D0002113E040F60001C4F20001DC
:101F5000884211D040F60041C4F200010AE000BFFF
:101F600044F20001C4F20101884205D040F2004170
:101F7000C4F20101884206D1816801F007010629F7
:101F800004BF00207047016841F00101016000209A
:101F9000704700007047000070B504460068C568CF
:101FA0000669B10716D515F0020113D06FF00201D2
:101FB0000161012121778069800703D02046FFF766
:101FC000E9FF05E0204600F08FF8204600F08EF88B
:101FD00000202077700719D515F0040016D020686E
:101FE0006FF00401016102212177806910F4407FC4
:101FF00004D02046FFF7CEFF06E000BF204600F0E9
:1020000073F8204600F072F800202077300717D5CB
:1020100015F0080014D020686FF008010161042158
:102020002177C069800703D02046FFF7B3FF05E0A2
:10203000204600F059F8204600F058F8002020779C
:10204000F00619D515F0100016D020686FF01001B9
:10205000016108212177C06910F4407F04D0204637
:10206000FFF798FF06E000BF204600F03DF820464D
:1020700000F03CF800202077F00718BF15F00100B1
:1020800002D1300609D412E020686FF0010101612D
:10209000204600F02DF8300609D515F0800006D056
:1020A00020686FF0800101612046FFF769FE70062D
:1020B00009D515F0400006D020686FF0400101619D
:1020C000204600F02DF8B00658BF70BD15F0200076
:1020D00008D021686FF0200220460A61BDE87040F8
:1020E000FFF750BE70BD0000704700007047000051
:1020F000006841F20001C4F20001884208D041F2B8
:102100000041C4F20001884218BF7047FFF752BA7D
:1021100040F22C10C2F20000443001F0A7BC0000D5
:1021200070470000FEE7000040F2D010C2F200004D
:10213000FEF7A8BA40F2D010C2F20000FEF74ABB88
:1021400010B581B000210091806B40F21401C2F201
:10215000000190F83DC009684BF28952C908C1F2EC
:10216000F842A1FB0212110A232251430091009967
:1021700011B30099013900910168096889051FD5DB
:102180000099C9B100990139009101680968890570
:1021900016D5009981B1009901390091016809684B
:1021A00089050DD5009939B100990139009101686F
:1021B00009688905DBD403E0016C41F0200101646A
:1021C000446B4FF0000E002C1CBF0021E163816BBB
:1021D00000291CBF0022CA630268002C136823F484
:1021E00080631360A0F82AE018BFC4F850E000290B
:1021F0001CBF00230B65116821F00101116090F8EC
:102200003D1060290CD1202180F83D10002180F87C
:102210003E10016401B0BDE81040FEF72FBA00BFC8
:102220000CF02801282911D1116841F00101116039
:10223000116841F48061116000210163282180F858
:102240003D1001B0BDE81040FEF7C2BD202180F86E
:102250003D10002180F83E1001B0BDE81040FEF7AF
:10226000B7BD000010B5044690F83D1090F83E0050
:10227000B0F1100218BF0122403818BF01200242FD
:1022800008BF222934D001F0280028283AD10020A4
:102290002063282084F83D0020684168090542D564
:1022A000416821F400614160606B90F835100129AC
:1022B00058D1A06B42F24111C0F600010165FEF752
:1022C000DDF8002861D020684169490606D500691B
:1022D000616A0870616A206801316162016821F0F9
:1022E00001010160202084F83D00A06B4BE000BF9D
:1022F0002068026822F4006202604268120505D577
:102300000CE000BF20684268120507D4602905D0A0
:10231000202184F83D10002184F83E100021216323
:1023200041680905BCD494F83D10602950D12021A2
:1023300084F83D10002121644169490606D50069F1
:10234000616A0870616A206801316162016821F088
:10235000010101602046FEF791F9206C000717D1BA
:102360001BE000BF42F24111C0F600010165FEF71B
:1023700085F850B12168606B0A6822F001020A609A
:10238000202184F83D10016D8847206C000704D09F
:102390002068416821F4E061416094F83D00216CBF
:1023A000490758BF10BD282810D10020CFF6FF7074
:1023B000E06200212020216384F83D00204684F85B
:1023C0003E10BDE81040FEF7C1BE00BF10BD00BF0B
:1023D0004169490605D50069616A0870606A013083
:1023E00060622046FEF7F4FC206C0007D0D1D4E7F1
:1023F000C16A428D042A07D10168426A4B6823F4FE
:1024000080634B60096911E0428D032A16D102688E
:102410000229536823F48063536005D0042903D054
:10242000116821F4806111601169426A1170416A7A
:1024300001314162418D013941857047428D022A47
:1024400012D14A1E0F2A19D8DFE802F0081218121A
:102450001818181818181818181818080268136887
:1024600023F480630EE000BF0168426ACAE700BF40
:102470000268136843F4806304E000BF02681368D5
:1024800043F4007313601269436A1A70426AD0F809
:1024900000C0531C4362438D013B4385DCF8103080
:1024A0005370426A036801324262428D013A4285AA
:1024B0005A6822F440725A60202280F83D2090F839
:1024C0003E300022402B80F83E2003D10263FEF70D
:1024D00043BE00BFB1F1080218BF1222203918BF55
:1024E00011460163FEF734BE81B090F83D102229F9
:1024F00010D1C16A428D042A0ED30168426A09696B
:102500001170416A01314162418D01394185418D2E
:1025100003295DD001B07047C36A012A58D8022B45
:1025200056D00022009240F21402C2F20002126859
:102530004BF28953D208C1F2F843A2FB03231A0AD3
:1025400002EB82020092009A013A0092009A002A5D
:1025500046D0026813689B051AD5009A013A00928A
:10256000009AEAB3026813689B0511D5009A013AF4
:102570000092009AA2B3026813689B0508D5009ADE
:10258000013A0092009A5AB3026813689B05DAD4A4
:10259000136823F480631360536823F4E06353608B
:1025A0001269436A1A70426A01324262428D013AEC
:1025B0004285202280F83D2090F83E300022402BBA
:1025C00080F83E2028D1026301B0FEF7C5BD00BFF0
:1025D0000068416821F48061416001B0704700BF2C
:1025E000016C41F0200101640168426A4B6823F4E8
:1025F000E0634B6009691170416A01314162418DAC
:1026000001394185202180F83D10002180F83E10DD
:1026100001B0FEF7DDBB00BFB1F1080218BF122206
:10262000203918BF1146016301B0FEF791BD0000CB
:10263000C16A90F83D20212A18BF7047428D4AB1E7
:10264000416A026811F8013B13614162418D013911
:102650004185704711F5803F18BF082918D10168DE
:102660004A6822F4E0624A600A6842F400720A6032
:1026700000212022016380F83D2090F83E2080F860
:102680003E10402A08BFFEF769BDFEF763BD00BFDC
:102690002029E4D001684A6822F4E0624A601121EE
:1026A0000163002180F83E10202180F83D10FEF7E4
:1026B00051BD000090F83D1090F83EC0C26A038DF5
:1026C000002B08BF212919D0212905D0BCF1400FCA
:1026D00008BF222900D07047418D69B390F83E10A1
:1026E000402908BF00F040B8416A026811F8013B78
:1026F00013614162418D01394185704712F5803F78
:1027000018BF082A1ED101684A6822F4E0624A60B4
:102710000A6842F400720A6000212022016380F8F6
:102720003D2090F83E2080F83E10402A08BFFEF77A
:1027300015BDFEF70FBD00BF0068416821F4806140
:1027400041607047202ADED001684A6822F4E062C6
:102750004A6011210163002180F83E10202180F899
:102760003D10FEF7F7BC000090F83D10026D5AB125
:10277000026D012A14D10168826CD2B20A61016D26
:1027800001310165704700BFC26C816C012A15D10F
:102790000268C9B21161016D02310165704700BF65
:1027A000026D022A12D1222918D101680A6842F466
:1027B00080720A60016D0131016570470268C1F3E2
:1027C00007211161016D01310165704700684169A0
:1027D000090644BF00210161704700BF428D5AB114
:1027E000212909D1416A026811F8013B1361416254
:1027F000418D013941857047428D002A08BF21294A
:10280000EAD101684A6822F4E0624A600A6842F448
:1028100000720A6000212022016380F83D2080F8C8
:102820003E10FEF79BBC00002DE9F04782B0044645
:1028300000689A460B9D0A9E0368914643F48062A5
:10284000026002680F4642F48071016020464FF03A
:10285000011100223346009500F032F950B1206892
:102860000068C00544BF4FF400702064032002B02C
:10287000BDE8F08740F202082068C0F2010807F0C6
:10288000FE0707612046414632462B4600F0FEF91E
:1028900020B1012002B0BDE8F08700BF0020019008
:1028A00020682A464169019180693146019001986A
:1028B000204600F09FFAB0B92068BAF1010F09D0A4
:1028C0004FEA19210161204631462A4600F092FA6A
:1028D00048B920685FFA89F10161204631462A46ED
:1028E00000F088FA60B1206C0428D2D12068016819
:1028F00041F400710160012002B0BDE8F08700BF23
:10290000206800220168334641F48071016020464E
:102910004FF00111009500F0D3F800289FD147F047
:10292000010C27682046414632462B46C7F810C0A6
:1029300002B0BDE8F04700F0A9B900002DE9F0436E
:1029400083B0044600680F4601680A9D0B9E41F45F
:10295000807199469046016020464FF00111002297
:102960002B46009600F0ACF850B120680068C00516
:1029700044BF4FF400702064032003B0BDE8F0832F
:10298000206807F0FE0101610221C0F2010120462A
:102990002A46334600F07AF920B1012003B0BDE8A1
:1029A000F08300BF00200290206832464169029106
:1029B0008069294602900298204600F01BFA58B11F
:1029C000206C0428E9D12068016841F4007101609D
:1029D000012003B0BDE8F0832068B9F1010F0AD0EF
:1029E0004FEA1821016120462946324600F002FADA
:1029F0000028E5D120685FFA88F10161002003B06A
:102A0000BDE8F08370B50368044653F8140F40071F
:102A100011D40E46481C29D086BB00BF186840055B
:102A200027D4FDF725FE236853F8140F400737D548
:102A300018684007F2D5002070BD00BF1868400735
:102A4000F9D41868400514D418684007F3D41868FE
:102A500040050ED418684007EDD41868400508D426
:102A6000186840074FF0000048BF70BD1868400567
:102A7000E4D56FF480601860042012E0154603E08E
:102A800053F8140F4007D6D418684005F1D4FDF769
:102A9000EFFD401B2368B042F2D958694007EFD4DC
:102AA000202000212022216384F83D2084F83E105C
:102AB000226C10432064012084F83C1070BD00009B
:102AC0002DE9F041054600681E46144601F47F02D8
:102AD00001338FB242D0DDF81880B2F5803F40F06C
:102AE000878040693840C01BB0FA80F04009A0429E
:102AF00040F0C8804EB924E040693840C01BB0FAAD
:102B000080F04009A04240F0BD80FDF7B1FDA0EB90
:102B100008012868B142EFD941693940C91BB1FAAF
:102B200081F14909A142E7D19BE000BF40693840EB
:102B3000C01BB0FA80F04009A0424FF0000040F006
:102B4000A280FDF795FD286841693940C91BB1FA9B
:102B500081F14909A142E9D183E000BFB2F5803F8C
:102B600024D100BF41693940C91BB1FA81F149093B
:102B7000A14240F0878041693940C91BB1FA81F117
:102B80004909A14240F07E8041693940C91BB1FA30
:102B900081F14909A14275D141693940C91BB1FA96
:102BA00081F14909A142DDD06CE000BF8169394063
:102BB000C91BB1FA81F14909A14263D18169394048
:102BC000C91BB1FA81F14909A1425BD18169394040
:102BD000C91BB1FA81F14909A14253D18169394038
:102BE000C91BB1FA81F14909A142DFD04AE000BF17
:102BF00080693840C01BB0FA80F04009A04241D142
:102C000046B923E080693840C01BB0FA80F0400923
:102C1000A04237D1FDF72CFDA0EB08012868B14296
:102C2000F0D981693940C91BB1FA81F14909A14242
:102C3000E8D116E080693840C01BB0FA80F0400946
:102C4000A0424FF0000018BFBDE8F081FDF710FD75
:102C5000286881693940C91BB1FA81F14909A1424B
:102C6000E8D100202021286385F83D1085F83E003A
:102C7000296C41F02001296485F83C000120BDE861
:102C8000F08100BF0020BDE8F0810000F0B581B008
:102C9000044600681D4643698FB203EA0701B94242
:102CA00002D1002001B0F0BD4169164601323CD08E
:102CB000490512D47EB300BFFDF7DAFC411B206842
:102CC000B14203D941693940B9422BD141693940F8
:102CD000B942E6D041694905EED5016841F4007179
:102CE00001606FF480614161042000212022216392
:102CF00084F83D2084F83E10226C1043206484F850
:102D00003C10012001B0F0BD41693940B942C8D042
:102D100041694905E1D4FDF7ABFC206841693940C0
:102D2000B942F1D02020E0E741694905D5D4416995
:102D30003940B942B5D041694905CED441693940DD
:102D4000B942AED041694905C7D441693940B94259
:102D5000A7D041694905C0D441693940B942E3D19E
:102D60009FE7000070B504460068154650F8143F10
:102D70005A063DD40E4629B926E000BF50F8141F6C
:102D8000490635D40168C90621D4FDF771FC411B01
:102D90002068B142F2D941694906EFD400202021D0
:102DA000206384F83D1084F83E00206C40F0200041
:102DB00018E000BFFDF75CFC206850F8141F4906BE
:102DC000ECD50168490613D40168C906F2D56FF045
:102DD0001001016000202021206384F83D1084F858
:102DE0003E00206C2064002084F83C00012070BD6F
:102DF000002070BD70B50368044653F8140F000638
:102E000011D40E46481C29D086BB00BF1868400567
:102E100027D4FDF72DFC236853F8140F000637D58F
:102E200018680006F2D5002070BD00BF18680006C3
:102E3000F9D41868400514D418680006F3D418684B
:102E400040050ED418680006EDD41868400508D473
:102E5000186800064FF0000048BF70BD18684005B4
:102E6000E4D56FF480601860042012E0154603E09A
:102E700053F8140F0006D6D418684005F1D4FDF7B6
:102E8000F7FB401B2368B042F2D958690006EFD423
:102E9000202000212022216384F83D2084F83E1068
:102EA000226C10432064012084F83C1070BD0000A7
:102EB00080B588B00B4802AF01900AA000F1040E63
:102EC0009EE80E50806987E80E50079001A8002107
:102ED00001F00EF840F2C811C2F20001086008B01B
:102EE00080BD00BF84520008853E0008000000003D
:102EF0000000000080000000000000000000000052
:102F000083B0002043F630010290C4F202010A6847
:102F100042F080020A600A6802F080020292029A7D
:102F200001900A6842F002020A600A6802F0020296
:102F30000192019A0090086840F00100086008685A
:102F400000F001000090009803B0704780B540F297
:102F5000D01045F60001C2F20000C4F2000141F6B3
:102F6000802200234FF4804CC0F2060280E80E005D
:102F7000C0E9033CC0E90533C0E90733FDF72AFF88
:102F8000002808BF80BDBDE88040FDF773BA00008F
:102F900080B582B040F2242041F200020021C2F24A
:102FA0000000C4F20002532340F2E73CCDE90011D7
:102FB000C0E90023C0E9021C8161FEF743FF00283D
:102FC00018BFFDF757FA40F22420C2F2000069460C
:102FD000FEF7DAFE002818BFFDF74CFA02B080BDFC
:102FE000B5EE403AF1EE10FA0CD1F5EE403AF1EEC2
:102FF00010FA07D1B5EE404AF1EE10FA02D100F016
:1030000029BA00BF2DED108B45F6DF12F5EE401A00
:1030100040F2080140F2741CC5F63772F1EE10FA66
:10302000C2F20001C2F2000C0AD1B5EE402AF1EE64
:1030300010FA05D1F5EE402AF1EE10FA00F05781B2
:1030400022EE025A21EEA16A36EE055A22EEA26A5B
:1030500036EE055A15EE103AA2EB6303BEEE006A97
:1030600007EE103A25EE065A25EE075A25EE075AC6
:10307000F7EE084A35EE245A25EE077A23EEA35AD6
:1030800063EE035A35EE855A64EE045A35EE855ADE
:1030900015EE103AA2EB630305EE903A25EE065AC0
:1030A00025EE255A25EE255A35EE245A65EE254A99
:1030B00024EEA35AD1ED023AD1ED025AD1ED026AC3
:1030C000DCED007A24EE833A24EE844A66EEA74AC9
:1030D000D1ED026ADCED017A91ED028A9CED029A53
:1030E00066EEA76A68EE097A9CED008A9CED009A6C
:1030F0009CED00AA9CED01BA28EE098A2AEE0B9AF3
:103100009CED00AA9CED02BA9CED01CA9CED01DA8F
:103110002AEE0BAA2CEE0DBA9CED01CA9CED02DA48
:103120009CED02EA9CED02FA2CEE0DCA2EEE0FDAAF
:10313000B6EE00EA3EEE4BFA3EEE488A3FEE4DFA1E
:1031400079EE678A77EE897A38EE4D9A65EE289A9D
:1031500063EE0FAA25EE099A63EE277A7AEEA99A12
:1031600076EE8AAA77EE897A3CEE649A64EE2ABA01
:1031700024EE099A7BEEA99A79EE277A39EEA99A7C
:1031800077EEA77A67EEA77A29EE099A79EE277A81
:1031900027EE029AB1EEE72A67EE211A27EE227A8D
:1031A00063EEA52A7AEE663A74EE8C4A65EE245AEE
:1031B00063EE236A76EEA55A78EE4B6A64EE267AC1
:1031C00077EEA55A32EE866A75EEA52A62EE0F5AA0
:1031D00063EEA27A36EE0D6A75EEA75A62EE287A91
:1031E00024EEA28A66EEA22A22EE2A2A77EE887AB6
:1031F00072EE222A24EE872A69EE066A26EE216AFA
:1032000027EE237A36EEC22A67EE846A37EE466AE4
:1032100022EE837A24EE254A34EE474A34EE064AFB
:1032200023EE896A21EEA47A37EE466A91ED017A9F
:1032300025EE228A25EE855A23EE273A78EE666A35
:1032400033EE453AB5EE407A36EE822AF1EE10FAC8
:1032500033EE063A32DD91ED015A9FED7C6A22EEA3
:10326000055A9CED037A25EE065A35EE075A8CED89
:10327000035A91ED015A9CED047A24EE055A25EE8D
:10328000065A35EE075A8CED045A91ED015A9CED21
:10329000057A23EE055A25EE065A35EE075A8CEDCF
:1032A000055A9CED035A35EE000A9CED045A9CED3C
:1032B000056A75EE200A36EE011A06E00023CCF806
:1032C0000C30CCF81030CCF8143091ED005A25EECB
:1032D000022A91ED005A32EE000A25EE042A91ED01
:1032E000004A72EE200A24EE032A32EE011A9FED04
:1032F000582A91ED024A9CED005A9CED016A20EE9D
:10330000020A20EE823ADCED020A21EE021A23EED6
:10331000062A25EE407A37EE422A20EE817AD1ED58
:10332000020A32EE472A30EE822A81ED022ADCEDD3
:10333000020A21EE062A24EE007A37EE022A20EE57
:10334000837ADCED000A32EE472A30EE822A8CEDD9
:10335000002ADCED020A21EE052A24EE037A37EE7C
:10336000422A20EE807ADCED010A37EE022A30EEA6
:10337000822A8CED012A23EE052A24EE011A31EE71
:10338000021A26EE000A9CED022A31EE400A32EEC5
:10339000000A8CED020A91ED020A91ED021A9CEDF1
:1033A000002A9CED003A20EE010A22EE032A9CED51
:1033B000011A9CED013A30EE020A21EE031A9CED4F
:1033C000022A9CED023A31EE000A22EE031A31EE97
:1033D000000A10EE103AA2EB6302BEEE002A01EEE4
:1033E000102A20EE020A20EE010A20EE010AB7EEB2
:1033F000082A30EE020A91ED022A20EE010A22EE9E
:10340000001A81ED021A9CED001A21EE001A8CEDD3
:10341000001A9CED011A21EE001A8CED011A9CEDA8
:10342000021A21EE000A8CED020A8968DCE9002309
:10343000DCF80800CCF81810CCF81C20CCF82030B0
:10344000CCF82400BDEC108B704700BF6F12833A9C
:103450006F12033A45F6DF12F5EE401A40F208010A
:1034600040F27410C5F63772F1EE10FAC2F20001A4
:10347000C2F200000AD1B5EE402AF1EE10FA05D1F1
:10348000F5EE402AF1EE10FA00F0B28022EE023A98
:1034900021EEA14A34EE033A22EEA24A34EE033A78
:1034A00013EE103AA2EB6303BEEE005A04EE103A9C
:1034B00023EE053A23EE043A23EE043AB7EE086A07
:1034C00033EE063A23EE043A23EE214A23EE026A53
:1034D00090ED002A90ED027AD1ED021AD0ED013A7A
:1034E00063EE222A23EEA13A22EE072A91ED027A18
:1034F000D0ED001AD0ED013AD0ED024A72EE435AF7
:1035000027EE213A91ED027AD1ED021A23EEA42A98
:1035100073EE023A27EE212A90ED023A90ED027AFC
:1035200032EE052A23EE073A33EE022A23EEA23AC0
:1035300026EE025A35EE433A22EE042A22EEA55A2E
:1035400035EE422A25EE865A91ED016A24EE234A91
:10355000B5EE406AF1EE10FA34EE454A32DD91EDF7
:10356000015A9FED766A23EE055A90ED037A25EE17
:10357000065A35EE075A80ED035A91ED015A90ED47
:10358000047A22EE055A25EE065A35EE075A80EDEA
:10359000045A91ED015A90ED057A24EE055A25EE74
:1035A000065A35EE075A80ED055A90ED035A35EE6E
:1035B000000A90ED045A90ED056A75EE200A36EE89
:1035C000011A03E00023C3600361436191ED005AD7
:1035D00025EE033A91ED005A33EE000A91ED003AE0
:1035E00025EE022A72EE200A23EE042A32EE011A98
:1035F0009FED532A91ED024A90ED005A90ED016A39
:1036000020EE020A20EE823AD0ED020A21EE021AE2
:1036100023EE062A25EE407A37EE422A20EE817A02
:10362000D1ED020A32EE472A30EE822A81ED022ADB
:10363000D0ED020A21EE062A24EE007A37EE022AA5
:1036400020EE837AD0ED000A32EE472A30EE822A4D
:1036500080ED002AD0ED020A21EE052A24EE037A3D
:1036600037EE422A20EE807AD0ED010A37EE022AA8
:1036700030EE822A80ED012A23EE052A24EE011A7B
:1036800031EE021A26EE000A90ED022A31EE400ACF
:1036900032EE000A80ED020A91ED020A91ED021A63
:1036A00090ED002A90ED003A20EE010A22EE032A66
:1036B00090ED011A90ED013A30EE020A21EE031A64
:1036C00090ED022A90ED023A31EE000A22EE031A42
:1036D00031EE000A10EE103AA2EB6302BEEE002AB1
:1036E00001EE102A20EE020A20EE010A20EE010A65
:1036F000B7EE082A30EE020A91ED022A20EE010A06
:1037000022EE001A81ED021A90ED001A21EE001A45
:1037100080ED001A90ED011A21EE001A80ED011AD9
:1037200090ED021A21EE000A80ED020A896890E805
:103730000C10183080E80E10704700BF6F12833AEB
:103740006F12033AFEE70000FEE7000000000000F1
:10375000EFF30980BFF36F8F154B1A681EF0100F3F
:1037600008BF20ED108A20E9F04F10602DE9090014
:103770004FF0500080F31188BFF34F8FBFF36F8F6E
:1037800001F0C2F84FF0000080F31188BDE8090095
:1037900019680868B0E8F04F1EF0100F08BFB0ECD1
:1037A000108A80F30988BFF36F8F704700BF00BF96
:1037B0008000002000000000000000000000000069
:1037C000074B19680868B0E8F04F80F30988BFF329
:1037D0006F8F4FF0000080F31188704700BF00BF6B
:1037E0008000002080B54FF0500080F31188BFF3B7
:1037F0006F8FBFF34F8F01F0FFF930B14EF60450D9
:10380000CEF200004FF080510160002080F311885B
:1038100080BD000070B592B006AC20463021FCF7A8
:10382000B1FD002543F640000595CDE90355CDE9EE
:1038300001550095C4F202000168022641F0805152
:103840000160006800F080500090009847F200008E
:103850000095C4F20000016841F4804101600068F5
:10386000A82100F4804000900098012006904FF4B9
:10387000803007904FF480000D9004200E9011903E
:1038800020460C96CDE90F16FEF7A4F810B172B6DB
:10389000FEE700BF0F20CDE901064FF4A0500490D1
:1038A0004FF48050059001A805210395FDF776FFA0
:1038B00010B172B6FEE700BF12B070BD4EF6885070
:1038C000CEF20000016841F4700101607047000011
:1038D00040F22420C2F20000FEF75EBB40F26C20F2
:1038E000C2F20000FEF758BB10B540F6FF3E036879
:1038F000C4F2000E40F2004C7045C4F2010C25DC0D
:10390000B0F1804F2FD040F20042C4F2000290424A
:1039100029D040F60002C4F20002904223D041F6C2
:10392000FF72C4F20002904227DC70453ADCB0F12D
:10393000804F5BD040F20042C4F20002904255D06A
:1039400040F60002C4F200024EE000BF40F6004222
:10395000C4F20002904206D0604504D00022C4F2B6
:1039600001029042DBD14A6823F07003134341F611
:10397000FF72C4F200029042D7DD43F6FF72C4F238
:103980000102904220DC42F20002C4F200029042A6
:103990002CD00022C4F20102904227D0604525D0ED
:1039A00028E000BF40F60042C4F2000290421DD061
:1039B00041F60002C4F20002904217D041F60042E4
:1039C000C4F2000210E000BF44F20002C4F201029F
:1039D00090420BD044F60002C4F20102904205D09E
:1039E00044F20042C4F20102904203D1CA6823F4B7
:1039F0004073134323F080024B69D1F800E08C68D8
:103A00001A430260C46240F48062C0F828E0624554
:103A100004BF09690163012141610169C90708BF48
:103A200010BD016921F00101016110BDFEE7000038
:103A3000B0B540F2C41540F2D014C2F20005002027
:103A4000C2F20004287000BFC1B2204601224FF428
:103A50007A73FDF771FA002808BFB0BD28780130ED
:103A6000C1B2FF292870EFD1B0BD0000F0B587B01A
:103A700040F2D01406270DF10E00C2F200044FF4FC
:103A80007A75CDE900072046D0213B22012302951B
:103A9000FDF766FBBDF80E00BDF81010BDF8122052
:103AA000C0BAC9BAD2BA00EE100A9FED3B1A02EEB4
:103AB000101A03EE102AB8EEC00A40F22016B8EE33
:103AC000C22AB8EEC33A05A820EE010AC2F20006E7
:103AD00022EE012A23EE011ACDE900072046D0216B
:103AE0004322012386ED030A86ED042A86ED051A9A
:103AF0000295FDF735FBBDF81400BDF81610BDF8B2
:103B00001820C0BAC9BAD2BA00EE100A9FED231A23
:103B100002EE101A03EE102AB8EEC00AB8EEC22A5E
:103B2000B8EEC33A80EE010A82EE012A83EE011A52
:103B300096ED003A96ED014A96ED025A30EE430AB0
:103B400032EE442A31EE451A86ED060A86ED072A42
:103B500086ED081A00F028F802200DF11A01CDE9CF
:103B600000102046D021412201230295FDF7F8FAEA
:103B7000BDF81A009FED0A1AC0BA00EE100AB8EE9E
:103B8000C00A80EE010A9FED071A30EE010A86EDA9
:103B9000130A07B0F0BD00BF0000803800000343E7
:103BA0000000AA43B81E1242B0B52DED028B40F2C0
:103BB0002014C2F2000494ED041A94ED053A9FED2E
:103BC0004E4A94ED030A21EE042A63EE042A9FED87
:103BD0004B1A94ED073A94ED065A63EE010A94ED00
:103BE000083A60EE041A25EE010A23EE011A9FED51
:103BF000443AC4ED031AF0EE433AB0EE434A84ED82
:103C0000042AC4ED052A84ED060AC4ED070A84EDF2
:103C1000081AFFF7E5F940F28C15C2F2000595EDA0
:103C2000001A95ED012A95ED020A95ED033A84ED0F
:103C30000C1A84ED0D2A84ED0E0A84ED0F3A22EE63
:103C4000000A21EE033A22EE022A21EE011A31EE99
:103C5000021A33EE000A31EE011ABFEE008A30EE8E
:103C6000000A71EE080A01F069F984ED100A95ED79
:103C7000000A95ED011A95ED022A95ED033A22EE20
:103C8000000A21EE031A30EE410A30EE000A01F07C
:103C9000BFF884ED110A95ED001A95ED020A95ED35
:103CA000032A95ED013A20EE020A21EE033A22EEB4
:103CB000022A21EE011A31EE021A33EE000A31EE29
:103CC000011A30EE000A71EE080A01F037F994ED9E
:103CD000101A9FED0C2A94ED113A21EE021A23EEF0
:103CE000023A20EE020A84ED101A84ED113A84EDB6
:103CF000120ABDEC028BB0BDCDCC1C4135FA8E3C16
:103D000000000000E02E65422DE9F04381B02DED6A
:103D1000088B86B09FED308A40F2D0149FED2F9A29
:103D200040F220174FF4FA754FF47A784FF00609F5
:103D30000DF11206C2F20004C2F20007B0EE48AA6A
:103D4000B0EE48BA2046D02143220123CDE90069D4
:103D5000CDF80880FDF704FABDF81200BDF8141084
:103D6000BDF81620C0BAC9BAD2BA00EE100A01EEE8
:103D7000101A02EE102AB8EEC00AB8EEC11AB8EE58
:103D8000C22A80EE090A81EE091A82EE092A05206C
:103D900087ED060A38EE008A87ED071A3AEE01AA87
:103DA00087ED082A3BEE02BAFCF77EFB013DC9D144
:103DB0009FED0B0A88EE001A8AEE002A8BEE000AAD
:103DC00087ED001A87ED012A87ED020A06B0BDECE7
:103DD000088B01B0BDE8F083000000000000034341
:103DE0000000FA432DE9F04184B001260DF10F00E7
:103DF000CDE9000640F2D0104FF47A75C2F200000F
:103E0000D021752201230295FDF7AAF99DF80F0034
:103E1000682834D140F2D014C2F200044FF00008F8
:103E20000DF10E072046D0216B2201238DF80E8064
:103E3000CDE900760295FDF7BFFA07208DF80E0058
:103E40002046D02119220123CDE900760295FDF705
:103E5000B3FA2046D0211C2201238DF80E80CDE933
:103E600000760295FDF7A8FA2046D0211B220123F7
:103E70008DF80E80CDE900760295FDF79DFA04B02D
:103E8000BDE8F08100F02CF840F2CC14C2F200043E
:103E9000206000BF2046C82100F014F8FAE70000B7
:103EA000FDF796FBFFF7B6FCFFF72AF8FFF74EF891
:103EB000FFF76EF800F0C4FAFEF7FAFF00F00AF818
:103EC000FEE7000080B5012998BF012100F03EFC0B
:103ED000002080BD80B500F0A9FC002080BD00005E
:103EE000EFF30580002808BF00F076BE00F07ABE30
:103EF000B0B584B043698E4693B1846984B10589B5
:103F0000D0E9001C026928B2843D18BFC51CCDE968
:103F1000005360467346029400F022FE04B0B0BD28
:103F20000589D0E90013028A28B2843D18BFC51C58
:103F300003AC18467346CDE9005400F0E1FD039947
:103F4000012818BF0021084604B0B0BD2DE9F0419A
:103F5000044600F00BFB40F28006C2F20006306916
:103F600040F2B425013030613068C2F2000548B13A
:103F70007069002840D13068E16AC06A884298BF01
:103F8000346039E034603069012835D1284600F0CA
:103F900093FA05F1140000F08FFA05F1280000F003
:103FA0008BFA05F13C0000F087FA05F1500000F0B3
:103FB00083FA05F1640000F07FFA05F1780000F063
:103FC0007BFA40F29C18C2F20008404600F074FAF6
:103FD00008F11407384600F06FFA06F1640000F0AB
:103FE0006BFA06F13C0000F067FA06F1500000F0B1
:103FF00063FAC6F8308077637068B16801220131D6
:10400000B160E16A8A401043706001EB810005EB0A
:104010008000211D00F092FA00F0CCFA706988B19E
:104020003068E16AC06A884228BFBDE8F0814EF678
:104030000450CEF200004FF080510160BFF34F8F6B
:10404000BFF36F8FBDE8F08140F2800540F2B426E7
:104050004EF60458C2F20005C2F20006CEF2000885
:104060004FF0805703E000BF204600F0BBFAE8683D
:10407000D0B100F07BFAA86CC468201D00F0FCF9F8
:10408000286901382861E8680138E86000F092FA90
:1040900094F851000228EAD00128E5D070B9206BCD
:1040A00000F0A0FAE0E700BF30680228DFD3C8F8CC
:1040B0000070BFF34F8FBFF36F8FD8E74FF0500002
:1040C00080F31188BFF36F8FBFF34F8FFEE70000BF
:1040D0002DE9F047DDE909878246386B089C00EB43
:1040E000820004389946002920F0070644D0087859
:1040F00087F83400D8B3487887F83500B8B38878A3
:1041000087F8360098B3C87887F8370078B308790D
:1041100087F8380058B3487987F8390038B3887978
:1041200087F83A0018B3C87987F83B00F8B1087AE5
:1041300087F83C00D8B1487A87F83D00B8B1887A52
:1041400087F83E0098B1C87A87F83F0078B1087BBD
:1041500087F8400058B1487B87F8410038B1887B28
:1041600087F8420000281CBFC87B87F84300002066
:1041700087F8430003E000BF002087F834000025E3
:10418000381D062C28BF0624FC62C7E9114500F043
:104190009FF907F1180000F09BF984F00700B8615F
:1041A000304651464A463F617F62FD6487F8505071
:1041B00000F034F9B8F1000F386018BFC8F800708B
:1041C000BDE8F08708480068006880F308884FF071
:1041D000000080F3148862B661B6BFF34F8FBFF35F
:1041E0006F8F00DF00BF000008ED00E081B000200D
:1041F000009040F21800C2F2000000684FF0500139
:1042000081F31188BFF36F8FBFF34F8F013007D059
:10421000FEE700BF009830B9009820B9009810B9A7
:1042200000980028F6D001B07047000070B5044631
:1042300000F062FB40F2F80CC2F2000CDCF8042043
:1042400052B19CF80000002818BF4FF000404FF01A
:10425000000544BB81E000BF40F24030C2F20000E4
:10426000420700F5705200F1070122F0070218BF63
:1042700021F007000021A2F10803CCE90601CCF8E7
:10428000043042E90211DCF80420191AC0E90021C7
:1042900001208CF800004FF00040CCE90211002C06
:1042A0004FF0000559D0204057D124F0070000F10D
:1042B0001003600708BF04F10803DCF80800591E6A
:1042C00081424AD2604650F818EFDEF804509D4211
:1042D0002BD2DEF80010B9B174464D689D4217D25A
:1042E0000E68AEB175689D4216D23068A0B14568BF
:1042F0009D4215D204689CB165689D4214D2216824
:10430000A6460029E9D110E00CF118000DE000BF2D
:104310008E46204609E000BFB646084605E000BFCD
:104320008646304601E000BFA646964514D0026896
:10433000DEF80040E91A112904604DD30EEB0305A5
:10434000680719D04FF0500080F31188BFF36F8FCA
:10435000BFF34F8FFEE700BF002500F0D1FC6807D8
:104360005AD04FF0500080F31188BFF36F8FBFF326
:104370004F8F00BFFEE700BF0CF118006960CEF858
:10438000043000BF0168A9420AD20868A8420BD2D3
:104390000168A94204D208680B46A842F2D304E09F
:1043A0000346084601E000BF0B465C6869681E19B9
:1043B000AE4202D121441D4659606C18844207D197
:1043C000DCF80440A04203D0D0E900042144696035
:1043D000AB42286018BF1D60DEF80400DCE9021360
:1043E00002F10805091A9942CCF8081038BFCCF838
:1043F0000C109CF8001000294FF0000118BF40F08D
:104400000040CEE90010DCF810000130CCF81000BC
:1044100000F076FC6807A4D1284670BD034644F23C
:10442000ED1021F00101C0F600004FF0807C03E99F
:1044300003106FF00201A3F1440043E90912704731
:1044400010B540F22C14C2F200042046FFF7F0FA37
:104450002046FFF7C7FC4FF47A70FCF725F804F10B
:104460004500FFF751FC40F22420C2F20000BDE8F5
:104470001040FDF739BD00000169D0E90132D1F8E3
:1044800004C09A608445536008BF4A6000220261FC
:1044900008680138086008687047000044F2441357
:1044A000C2F20003036043F64470C2F200000860E9
:1044B00080201060704700004FF0FF31024642F844
:1044C000081F00214260C0E903220160704700001C
:1044D000002101617047000010B5D1F800C01CF147
:1044E000010213D000F1080462681368634511D813
:1044F00053681C68644511D85A68146864450FD81D
:1045000054682368A6466345EED90BE00269D2F8E9
:1045100004E007E09646224604E000BF9E4601E024
:1045200096461A46C1F804E0CEF808108A60516039
:10453000086101680131016010BD0000D0F800C0C1
:10454000436808619A68C1E90132516099600CF1D1
:104550000101016070470000DFF80C00016841F4C0
:10456000700101607047000088ED00E04FF05000DE
:1045700080F31188BFF36F8FBFF34F8F40F21800A5
:10458000C2F2000001684A1C026009B1704700BF16
:104590004EF60450CEF200000068000608BF7047D7
:1045A0004FF0500080F31188BFF36F8FBFF34F8F30
:1045B000FEE7000040F21800C2F20000016839B1C5
:1045C0000139016018BF7047002080F311887047DF
:1045D0004FF0500080F31188BFF36F8FBFF34F8F00
:1045E000FEE7000070B5002808BF70BD40F2F80477
:1045F000C2F20004217850F8042C002918BF4FF0B3
:10460000004111420ED0A0F108052B68A3B14FF074
:10461000500080F31188BFF36F8FBFF34F8F00BF3F
:10462000FEE700BF4FF0500080F31188BFF36F8F9B
:10463000BFF34F8FFEE700BF22EA010140F8041CE0
:10464000064600F059F956F8041CA0680844A0601A
:1046500004F118000368AB420AD21868A84225D2B8
:104660000368AB4204D218681A46A842F2D301E0AC
:10467000024618465368D618AE4202D11944154670
:1046800051606B18834206D16368984203D0D0E929
:10469000000319446960AA42286018BF1560606968
:1046A00001306061BDE8704000F02ABB1A465368D3
:1046B000D618AE42E5D1E1E74EF21000CEF200008E
:1046C00000210160816040F21401C2F2000109681A
:1046D00044F6D352C1F26202A1FB02124FF0FF3145
:1046E00001EB9211416007210160704740F2181000
:1046F000EFF305811029C2F2000011D34EF2F0321F
:10470000CEF20002895C0278914209D24FF050004B
:1047100080F31188BFF36F8FBFF34F8FFEE700BFA9
:104720004EF60C51CEF200010968406801F4E061D8
:10473000814298BF70474FF0500080F31188BFF35B
:104740006F8FBFF34F8F00BFFEE7000070B588B1D9
:10475000D1B140F28004C2F20004A269F2B14FF07C
:10476000500080F31188BFF36F8FBFF34F8F00BFEE
:10477000FEE700BF4FF0500080F31188BFF36F8F4A
:10478000BFF34F8FFEE700BF4FF0500080F311885A
:10479000BFF36F8FBFF34F8FFEE700BFA2690132F7
:1047A000A261E26903689A42194403D2994203D391
:1047B00020E000BF994201D391421BD90160E56915
:1047C00020688E1A0430FFF757FE40B92068012197
:1047D000C06A626801FA00F022EA000060602068A6
:1047E000AD19456008D3606B21680431FFF774FE92
:1047F0000BE000BF016008E0206B21680431FFF787
:104800006BFE606A854238BF656200F079FA002865
:1048100018BF70BD4EF60450CEF200004FF080512C
:104820000160BFF34F8FBFF36F8F70BDB0B588B01D
:104830000020CDE9050006A805A904AAFFF72EFE71
:104840000598B8B3069C002C3ED05421049A0791D9
:104850000799542942D107992063022084F8510016
:1048600007A80025CDE9005044F24900C0F6000039
:104870001FA100230294FFF72BFC2046FFF766FBE5
:10488000079940F28000C2F20000016279B14FF056
:10489000500181F31188BFF36F8FBFF34F8F4FF03B
:1048A000FF31416201214161C56100F065F808B046
:1048B000B0BD00BF4FF0500080F31188BFF36F8F81
:1048C000BFF34F8FFEE700BF4FF0500080F3118819
:1048D000BFF36F8FBFF34F8FFEE700BF4FF0500065
:1048E00080F31188BFF36F8FBFF34F8FFEE700BFD8
:1048F00049444C450000000040F28000C2F2000034
:10490000816901318161704740F28000C2F200008C
:10491000816900291EBF01218162704700218162E7
:104920004168B1FA81F1C9B2C1F11F0140F2B4226C
:1049300001EB8101C2F2000252F8213063B102EBB7
:104940008102516802F108034968994251600DD013
:10495000C9680160704700BF4FF0500080F31188B4
:10496000BFF36F8FBFF34F8FFEE700BF4968516001
:10497000C968016070470000B0B584B04EF2004CC9
:10498000CEF2000C4CF27021C4F20F11DCF80029B9
:104990004B1C9A420AD14FF0500080F31188BFF3AC
:1049A0006F8FBFF34F8F00BFFEE700BFDCF8002919
:1049B0008A4209D14FF0500080F31188BFF36F8F06
:1049C000BFF34F8FFEE700BF9CF800100291FF215C
:1049D0008CF800109CF800108DF807109DF8071057
:1049E00001F0500240F21811C2F200010A700722D1
:1049F0004A609DF90720B2F1FF3F6BDC032200BF44
:104A0000D31C4B609DF8070040008DF807009DF90E
:104A10000700B0F1FF3F24DC931C4B609DF80700BA
:104A200040008DF807009DF90700B0F1FF3F18DC4A
:104A3000531C4B609DF8070040008DF807009DF95E
:104A40000700B0F1FF3F0CDC4A609DF80700043A14
:104A500040008DF807009DF90700B0F1FF3FCFDD62
:104A6000131D032B36D14FF44070486002988CF828
:104A70000000DCF8200940F47000CCF82009DCF8D4
:104A8000200940F07040CCF82009FFF715FE40F2F5
:104A90001804C2F2000400252560FFF75DFD4EF604
:104AA0003470CEF20000016841F040410160FFF730
:104AB00089FBFFF729FF039520684FF0500181F330
:104AC0001188BFF36F8FBFF34F8F013012D000BF3B
:104AD000FEE700BF4FF0500080F31188BFF36F8FE7
:104AE000BFF34F8FFEE700BF039830B9039820B99A
:104AF000039810B903980028F6D0002004B0B0BD88
:104B00002DE9F04184B007469000984615460E46C0
:104B1000FFF78CFBF8B104465420FFF787FBB8B1D0
:104B2000DDE90A210023046380F85130CDE900213A
:104B30000446384631462A4643460294FFF7C8FAEF
:104B40002046FFF703FA012004B0BDE8F08100BF62
:104B50002046FFF747FD4FF0FF3004B0BDE8F0817D
:104B600070B586B00B9CCCB10C9E0EB35425049549
:104B7000049D542D26D1049DDDF828C0022586F819
:104B8000515005AD3463CDE900C50296FFF7A0FA98
:104B90003046FFF7DBF9059806B070BD4FF05000C6
:104BA00080F31188BFF36F8FBFF34F8FFEE700BF15
:104BB0004FF0500080F31188BFF36F8FBFF34F8F1A
:104BC000FEE700BF4FF0500080F31188BFF36F8FF6
:104BD000BFF34F8FFEE7000040F28000C2F20000FA
:104BE000C069704780B5FFF781FD40F28000C2F2D6
:104BF0000000C06980BD00002DE9F04740F280064A
:104C0000C2F20006B06928B1F06A0130F0620020FB
:104C1000BDE8F087F06910F1010AC6F81CA020D3A6
:104C2000306B006850B14FF0500080F31188BFF333
:104C30006F8FBFF34F8F00BFFEE700BF306B716B0C
:104C400031637063B06B0130B063306B006828B1C2
:104C5000306BC068C068406802E000BF4FF0FF30B2
:104C60007062706A40F2B4288245C2F2000801D234
:104C7000002434E0306B0024006868B34FF0010971
:104C800016E000BFF86A716809FA00F2114300EB00
:104C90008000716008EB80002946FFF74FFCF86A3E
:104CA0003168C96A326B8842106828BF4C4698B197
:104CB000306BC068C7683D4655F8040F82450DD378
:104CC0002846FFF7D9FBB86A0028DBD007F11800A7
:104CD000FFF7D2FBD6E700BF4FF0FF3070623068BD
:104CE000C06A00EB800058F82000012888BF01242A
:104CF000B06A002818BF01242046BDE8F0870000F4
:104D00002DE9F04140F28005C2F20005A86968B1C2
:104D1000FFF72CFCA8690138A861A86980B10024BC
:104D2000FFF748FC2046BDE8F08100BF4FF050007F
:104D300080F31188BFF36F8FBFF34F8FFEE700BF83
:104D400028690028EBD0686E78B340F2B4280126B9
:104D5000C2F20008286FC76807F11800FFF78CFB44
:104D60003C1D2046FFF788FBF86A696806FA00F2E6
:104D7000114300EB8000696008EB80002146FFF7DB
:104D8000DDFBF86A2968C96A884228BFAE62686E8E
:104D90000028DFD1286B006820B1286BC068C0688C
:104DA000406801E04FF0FF306862EC6A4CB10126C8
:104DB000FFF722FF002818BFAE62013CF8D10020A7
:104DC000E862A86A0028AAD04EF60450CEF200008D
:104DD0004FF080510160BFF34F8F0124BFF36F8FFD
:104DE000FFF7E8FB2046BDE8F0814100080218BF4C
:104DF00004200A0E18BF40F001004FF07F4232EA53
:104E0000010108BF40F00200012808BF05207047DB
:104E100010B54FF00E402DED028BB0EE408A18EE2B
:104E2000104A00EB4400B0F1506F4AD84FF0FC40FC
:104E3000B0EB440F22D2B0EEC80AF7EE000A30EE13
:104E4000C00AF6EE000A60EE208A18EE900A00F022
:104E5000E1F901EE100A14F0004F1DBFDFED2D0A3D
:104E60009FED2D0AB1EE411ADFED2C0A08BF9FED30
:104E70002C0AF8EE001A21EE218A05E0DFED290A5E
:104E800068EE088AB0EE600A9FED271ADFED271A58
:104E900030EE080A48EE811A9FED251A08EEA11A95
:104EA000DFED241A48EE811A9FED231A08EEA11AAD
:104EB00068EE281ABDEC028B01EE810A30EE200A62
:104EC00010BD4FF0E440B0EB440F0CD918EE100ABF
:104ED000FFF78BFF042808BF00F094F9B0EE480AF2
:104EE000BDEC028B10BD4FF07F40B0EB440F07D2FA
:104EF000B0EE480ABDEC028BBDE8104000F074B97A
:104F00000120FBF76EFABDEC028BBDE8104000F00B
:104F100071B900000000C9BF22AAFDB90000C93F55
:104F200022AAFD390000000024FE1C3DC78AD83C9F
:104F30001E67383D1B93993DAFAA2A3E70B54FF0CE
:104F400068422DED048BF0EE408A18EE900AB0EE28
:104F5000608A18EE101A02EB4003B3F1654F3CBFB4
:104F600002EB4102B2F1654F7DD200BFC0F3C753DF
:104F7000C1F3C7529A1A1B2A09DD10F0004F14BF63
:104F80009FED830A9FED830ABDEC048B70BD12F187
:104F90001A0F36DA11F0004F09D010F0004F0CBF95
:104FA0009FED7D0A9FED7D0ABDEC048B70BD88EE00
:104FB000889A19EE100AFFF718FF042808BF00F0BE
:104FC00021F918EE900AFFF710FF054618EE100AB7
:104FD000FFF70BFF044619EE100AFFF706FF042D3A
:104FE00018BF052D08D1042C18BF052C04D10028AA
:104FF00004BF0220FBF7F5F9B0EE490ABDEC048BC3
:1050000070BD4200B2EB410F3AD910F0004F19BF0A
:10501000DFED630A9FED630ADFED630A9FED630A2C
:10502000B0EE481A0A46B1EE688A80F00041F0EE10
:10503000418A10460A1A5200B2F1807F34D24840A9
:1050400010F0004FDFED5A1A9FED5A2A1DBFBEEE39
:10505000001A70EEE10A30EE420AB6EE001A08BFFE
:1050600070EEA10A00E040E008BF30EE020AB0EEA8
:10507000682A01EE482A08EE818AC2EE081A15E075
:1050800011F0004F04BF9FED4C0AF0EE400AD1D062
:1050900010F0004F19BFDFED490A9FED490ADFED1F
:1050A000490A9FED490AC5E7C8EE881A21EEA11A00
:1050B0009FED462ADFED462A41EE022A9FED452A62
:1050C00001EE222ADFED442A41EE022A9FED432A17
:1050D000BDEC048B01EE222A21EE811A01EE020AB8
:1050E00030EE210A30EE200A70BD4FF07F42B2EB65
:1050F000400F28BFB2EB410F09D2F0EE480AB0EEE4
:10510000680ABDEC048BBDE8704000F070B840EA5E
:1051100001035B0008BF41F0FF410BD0B2EB400F31
:1051200008BFB2EB410F08D120F0804008EE900A92
:1051300021F0804108EE101A18E7B2EB400F12BFC1
:105140005FEA410340F0FF4001F000413FF40EAF41
:10515000B2EB410F12BF5FEA400200F0004041F0A5
:10516000FF413FF403AF4A0092EA40033FF5FEAE31
:10517000002AACBF9FED1A0A9FED1A0A68EE808ADA
:1051800028EE008A18EE900A18EE101AEEE60000DB
:10519000DB0FC9BFDB0FC93FDB0F4940DB0F49C045
:1051A0000000C9BF22AAFDB90000C93F22AAFD39EB
:1051B0000060ED3EC30ACE3700000000000049C089
:1051C00022AA7DBA0000494022AA7D3A2DAD65BDD4
:1051D0008FB8D53D0FB511BE61C84C3EA8AAAABE76
:1051E0000000804F0000802F30EE000A704730EE44
:1051F000200A7047DFED020A80EEA00A7047000027
:10520000000000009FED020A20EE000A7047000037
:105210000000001010B500EE100A2DED028BB1EE6B
:10522000C08A18EE100A20F00040C0F1FF40C00F05
:105230000AD010EE100A20F00040C0F1FF40C00F6D
:1052400004BF0120FBF7CDF818EE100ABDEC028B6D
:1052500010BDF1EE100A4FF6FF71C0F2C03120EA26
:10526000010040F04070E1EE100A704700000000BD
:105270000000000001020304060708090000000006
:1052800001020304494D555F5441534B0000000097
:10529000B05200080000002020000000EC010008CF
:1052A000D052000820000020784700000C020008BF
:1052B00001000000100000000000803F0AD7A33C5E
:1052C0000000803F0024F400AAAAAAAA000000005F
:040000050800018965
:00000001FF
