:020000040800F2
:1000000048470020550200084D210008DD16000871
:1000100049210008390500083124000800000000CB
:10002000000000000000000000000000C1210008E6
:100030003D0500080000000051210008F5210008DE
:100040006F0200086F0200086F0200086F020008CC
:100050006F0200086F0200086F0200086F020008BC
:100060006F0200086F0200086F0200086F020008AC
:100070006F0200086F0200086F0200086F0200089C
:100080006F0200086F0200086F0200086F0200088C
:100090006F0200086F0200086F0200086F0200087C
:1000A0006F0200086F0200086F0200086F0200086C
:1000B0006F0200086F0200086F0200086F0200085C
:1000C0006F0200086F0200086F0200086F0200084C
:1000D0006F0200086F0200086F0200086F0200083C
:1000E0006F0200086F0200086F0200086F0200082C
:1000F0006F0200086F0200086F0200086F0200081C
:100100006F0200086F0200086F0200086F0200080B
:100110006F0200086F0200086F020008E122000869
:100120006F0200086F0200086F0200086F020008EB
:100130006F0200086F0200086F0200086F020008DB
:100140006F0200086F0200086F0200086F020008CB
:100150006F0200086F0200086F0200086F020008BB
:100160006F0200086F0200086F0200086F020008AB
:100170006F0200086F0200086F0200080000000014
:100180006F0200086F02000800F002F800F052F859
:1001900014A696E8000CB244B344DA4501D100F04D
:1001A00049F8BAE80F000FA696E83000A5EB040561
:1001B00004EB0607AAEB0704A7F101074FEA1515A0
:1001C0004FEA3414A4F10104AC4201D300F032F838
:1001D00013F0010F18BFFB1A43F0010300F001F800
:1001E000DBE71847A07B0000C07B0000103A24BF6B
:1001F00078C878C1FAD8520724BF30C830C144BF8C
:1002000004680C6070470000704700000023002461
:1002100000250026103A28BF78C1FBD8520728BF16
:1002200030C148BF0B6070471FB506F0E0FE1FBD30
:1002300010B510BD00F04AF91146FFF7F5FF02F0C6
:1002400075FF00F068F903B4FFF7F2FF03BC00F09C
:100250006BF900000948804709480047FEE7FEE7C0
:10026000FEE7FEE7FEE7FEE7FEE7FEE7FEE7FEE766
:1002700004480549054A064B70470000CD22000896
:1002800089010008484100204847002048430020D9
:100290004843002053EA020C00F069802DE9F04B3E
:1002A0004FF00006002B1FBFB3FA83F503FA05F4E5
:1002B00024FA05F65E4012BF1643B2FA82F502FA3E
:1002C00005F4C5F120051EBF22FA05FC44EA0C0422
:1002D000203556EA044C4FEA144418BF641C4FF012
:1002E00000084FF00009904271EB030C39D300294C
:1002F00019BFB1FA81F701FA07F6B0FA80F700FAF0
:1003000007F6C7F120071EBF20FA07FC46EA0C06D5
:100310002037B6FBF4FCA7EB0507103F07F01F0BD7
:10032000CBF120062CFA06F60CFA0BFB44BFB346C1
:100330000026202FA4BF5E464FF0000B5BEA060CA0
:1003400008BF4FF0010B19EB0B0948EB0608ABFB9C
:10035000027C06FB02CC0BFB03CCC01B71EB0C0137
:10036000C1E70B46024641464846BDE8F08B13B54F
:10037000084318BF4FF0FF300146AFF30080BDE8DF
:100380001C40704753EA020C23D010B54C1084EA8D
:10039000530404D54042C1F1000138BF491E1B423D
:1003A00004D55242C3F1000338BF5B1EFFF772FF52
:1003B00014F0804F04D04042C1F1000138BF491E03
:1003C00014F0004F04D05242C3F1000338BF5B1E4B
:1003D00010BD13B540424FF0000070EB0104B8BFF0
:1003E000012001F0004100281CBF6FF000414FF0D8
:1003F000FF30AFF300801CBD40EA010310B59B073E
:100400000FD1042A0DD310C808C9121F9C42F8D07E
:1004100020BA19BA884201D9012010BD4FF0FF302F
:1004200010BD1AB1D30703D0521C07E0002010BD45
:1004300010F8013B11F8014B1B1B07D110F8013BD1
:1004400011F8014B1B1B01D1921EF1D1184610BDB2
:100450004FF0000200B5134694469646203922BF5D
:10046000A0E80C50A0E80C50B1F12001BFF4F7AFA8
:10047000090728BFA0E80C5048BF0CC05DF804EB8A
:10048000890028BF40F8042B08BF704748BF20F8F8
:10049000022B11F0804F18BF00F8012B70477047F6
:1004A0007047704710B500F009F8006810BD10B52E
:1004B000044600F003F8046010BD000000487047D7
:1004C0004000002000487047400000207546FFF7BC
:1004D000F9FFAE4605006946534620F00700854601
:1004E00018B020B5FFF7C4FEBDE820404FF000066D
:1004F0004FF000074FF000084FF0000BAC46ACE89F
:10050000C009ACE8C009ACE8C009ACE8C00921F0FA
:1005100007018D46704710B50446AFF300802046B2
:10052000BDE81040FFF78FBE01491820ABBEFEE7C3
:100530002600020070470000FEE700007047000040
:1005400072B600BFFEE7000004F006BB2DE9F04FD5
:1005500083B000F1200200F13E4741F600450092D1
:1005600007F1FF77C4F2020508224FEAB726A84236
:1005700008BF072200254FF000084FF00009072EA2
:1005800038BF4FEAB72201920AE000BF09F1010922
:1005900008F10208B9F1100F05F1040500F0A2807E
:1005A0000F68012202FA09FE17EA0E0AEED0D1F80E
:1005B00004C003220CF003077E1E02FA08F4012E89
:1005C0006FEA040B12D88468CE6804EA0B0406FABA
:1005D00008F634438460446824EA0E06CCF3001421
:1005E00004FA09F42643466004E000BF032F01D15A
:1005F00003271EE0C6688C6806EA0B0604FA08F4B6
:100600002643022FC66014D16FF00302009E02EA57
:10061000590756F807C005F01C040F220B69A240C9
:100620002CEA0202A3401A43F251D1F804C00CF0A4
:100630000307026807FA08F302EA0B021A431CF4E4
:10064000403F0260A2D0002243F644030292C4F26B
:1006500002031A6843F6004442F480421A601A68A2
:10066000C4F2010402F480420292029A29F00302C9
:100670004FF6084C2244CFF6FF7C52F80C3005F0C0
:100680000C070F26BE40B343019E06FA07F73B4313
:1006900042F80C30A2684B6842EA0A0743F60C4C59
:1006A000DE0258BF22EA0A07A760C4F2010CDCF898
:1006B00000209E0242EA0A0758BF22EA0A07CCF845
:1006C000007062689E0342EA0A0758BF22EA0A07DE
:1006D00067602268DB0342EA0A0758BF22EA0A077A
:1006E000276053E703B0BDE8F08F000043F6F060E9
:1006F000C2F2000000687047002804BF0120704764
:10070000F0B581B0044690F83D0028B9002084F887
:100710003C00204600F07CFA242084F83D0020684C
:10072000016821F001010160016841F400410160AC
:10073000016821F40041016000F06CFC636848F23C
:10074000A16CC0F2010C40F60011C0F23D016345FE
:100750003CBF48F28041C0F21E01884202D2012013
:1007600001B0F0BD4DF68361C4F21B31A0FB011254
:100770002168970CD1F804E04FF496762EF03F05EF
:1007800045EA92454D60774348F638160D6AC0F247
:100790004106A7FB067625F03F07634538BF960C58
:1007A000721C3A430A62CA6948F2A0664CF6FF77A7
:1007B000C0F20106B34222EA07020BD801385B00FF
:1007C000B0FBF3F001306FF31F30042898BF042012
:1007D0001BE000BFA768013857B119277B43B0FB66
:1007E000F3F001306FF31F3070B100F5804007E087
:1007F00003EB4303B0FBF3F001306FF31F3018B18C
:1008000000F5004001E000BF01201043C861086806
:10081000D4E9072320F0C00010431843086088681B
:1008200048F2FF3204F10C0790438CCF1843104379
:10083000A6698860C86820F0FF0038433043C8606C
:10084000086840F00100086000202021206484F83E
:100850003D10206384F83E0001B0F0BD2DE9F04763
:1008600084B0994616460F460446FFF73FFF94F8BA
:100870003D10202927D10546206800BF81698907DE
:100880001CD5FFF733FF411B20681A29F6D3816975
:100890008907F3D500202021206384F83D1084F8D7
:1008A0003E00206C04F13C0A40F02000206402204D
:1008B00000218AF8001004B0BDE8F087A2461AF8BB
:1008C0003C1F012904D1022004B0BDE8F08700BF1D
:1008D00001228AF800200368DDE90D180C9ADB0775
:1008E00003D1036843F001030360036823F400634A
:1008F0000360222084F83D00402084F83E00002060
:10090000206462626185608D394620850020CFF6C3
:10091000FF70E062204632464B46CDE9008500F08C
:10092000DFFE18B1012004B0BDE8F087208D08B3C8
:10093000022813D0012835D121680A6822F4806288
:100940000A60002203924A6903928A690392039A19
:100950000A6842F400720A602CE000BF21680A684D
:1009600022F480620A600A6842F400620A6000228F
:1009700003921AE000200390206841690391816985
:1009800003910399016841F400710160202084F80B
:100990003D00002084F83E0000218AF8001004B0D9
:1009A000BDE8F0870021039121684A6903928969B3
:1009B000039103990427C0F201070CE01069087045
:1009C000606A218D01306062481E2085618D013989
:1009D00061850104DAD080B203280FD802284AD0FA
:1009E00001282DD1204641462A4601F017F900285A
:1009F00098D12068616A0069E1E700BF204641465E
:100A00002A4601F00BF900287FF48CAF2068616A58
:100A100000690870606A2268411C208D616201389B
:100A20002085638D013B638553695B07D1D580B217
:100A30000328C3D1106820F480601060BEE700BFB7
:100A40002046394600224346009500F095FF0028D5
:100A50007FF468AF2068616A026822F480620260F5
:100A600000690870606A218D01306062481E20852F
:100A7000608D013860852046394600224346009546
:100A800000F07AFF00287FF44DAF2068616A0268A9
:100A900042F40072026000690870606A2268411CBA
:100AA0006162218D01392185618D0139618511696D
:100AB000417085E72DE9F04383B0994616460F460D
:100AC0000446FFF713FE94F83D10202924D1054673
:100AD000206800BF816989071AD5FFF707FE411B0F
:100AE00020681A29F6D381698907F3D500202021CF
:100AF000206384F83D1084F83E00216C41F0200111
:100B0000216484F83C00022003B0BDE8F08300BFFC
:100B100094F83C10012903D1022003B0BDE8F08312
:100B2000012284F83C200368DDE90B180A9ADB07F0
:100B300003D1036843F001030360036823F40063F7
:100B40000360212084F83D00402084F83E0000200E
:100B5000206462626185608D394620850020CFF671
:100B6000FF70E062204632464B46CDE9008500F03A
:100B700041FE18B1012003B0BDE8F083208D98B983
:100B8000204641462A4600F099FE88B3206C04288E
:100B9000F0D12068016841F400710160012003B0C8
:100BA000BDE8F0830004EBD0204641462A4601F020
:100BB0007DF80028EAD1616A2268084610F8013BF6
:100BC0001361238D6062581E2085678D013F678504
:100BD00057697F07E6D50704E4D048781061881C80
:100BE0006062981E2085618D01396185DAE700BF5A
:100BF0002068016841F400710160202084F83D0004
:100C0000002084F83E0084F83C0003B0BDE8F08387
:100C1000B0B586B045F600010068C4F200010024BA
:100C200088420594CDE903440294019402D006B0B1
:100C3000B0BD00BF43F630050094C4F20205286839
:100C400040F002002860286800F002000090009840
:100C50004FF4406001901220CDE90204032004907B
:100C60000420059001F5D63001A9FFF76FFC009430
:100C7000286940F480002861286900F48000009011
:100C8000009806B0B0BD000040F2000043F6F061ED
:100C9000C2F20000C2F2000100780A681044086045
:100CA0007047000080B543F60040C4F202000168BE
:100CB00041F400710160016841F4806101600168E4
:100CC00041F480710160032000F0C2F80F2000F0B1
:100CD00005F800F05DF8002080BD000070B586B01A
:100CE000002543F640010195C4F202010A6804465A
:100CF00042F020020A60096801A801F02001019178
:100D00000199694600F066F9049E002E18BF01267D
:100D100000F080F94DF68361B040C4F21B31A0FBB6
:100D200001014FF0FF3000EB914140F2D81041F249
:100D30000042C2F20000C4F2000240F2E733C0E910
:100D40000021C0E902530561856100F087FB08B10D
:100D500006B070BD40F2D810C2F2000000F0AEFB49
:100D60000028F5D1372000F035F80F2C0CD83720AB
:100D70002146002200F040F840F204010020C2F2B7
:100D800000010C6006B070BD012006B070BD00000F
:100D900082B0002043F640010190C4F202014A688B
:100DA00042F480424A604A6802F480420192019A09
:100DB00000900868002240F08050086008680F2109
:100DC00000F08050009000986FF0010002B000F039
:100DD00013B80000002848BF704700F01F0101222F
:100DE00002FA01F11C2202EAD0004EF20012CEF209
:100DF000000281507047000010B54EF60C5CCEF238
:100E0000000CDCF80030C3F3022E8EF00704042C33
:100E100028BF0424BEF103034FF0FF3E0EFA04F492
:100E200038BF0023A14399400EFA03F39A431143BC
:100E300000F00F0200F160430901043A03F5644336
:100E40006244002848BF02F10C03197010BD000075
:100E50004EF60C51CEF200010A684FF6FF031A401D
:100E600060F30A2242F0806040F0FD700860704735
:100E7000002804BF012070472DE9F04143F608081F
:100E8000C4F202080446D8F8F8030D4600F0070043
:100E9000884207D288F8F853D8F8F80300F0070022
:100EA000A84277D12068810717D5410705D5D8F822
:100EB000001041F4E051C8F80010010705D5D8F83A
:100EC000001041F46041C8F80010D8F80010A26882
:100ED00021F0F0011143C8F80010C00740D1D8F844
:100EE000F80300F00700A84207D988F8F853D8F8AB
:100EF000F80300F00700A8424CD12068410707D54D
:100F0000D8F80010E26821F4E0511143C8F800104D
:100F1000000708D5D8F80000216920F4604040EAB5
:100F2000C100C8F8000000F089F8D8F8001047F2B6
:100F30000E12C1F30311C0F60002515C40F2080228
:100F400020FA01F140F20400C2F200000068C2F28F
:100F500000021160FFF7C2FE0020BDE8F08100BF73
:100F60006068811E022907D258F8081C89015CBFFD
:100F70000120BDE8F08111E0012807D158F8081CD4
:100F800089035CBF0120BDE8F08107E058F8081C28
:100F9000890703D40120BDE8F08100BFD8F8001014
:100FA00021F003010843C8F80000FFF79FFB064645
:100FB00041F28837D8F80000616800F00C00B0EB0F
:100FC000810F8CD0FFF792FB801BB842F2D903202F
:100FD000BDE8F0810F22026043F60802C4F202026B
:100FE000136803F003034360136803F0F0038360A6
:100FF000136803F4E053C360D2F800C04FF4E05329
:1010000003EADC030361D2F8F80300F0070008608C
:101010007047000040F2080043F60801C2F20000E9
:10102000C4F202010068096847F21E12C1F382216E
:10103000C0F60002515CC8407047000010B543F68E
:101040000404C4F20204606800F00C0142F20040A3
:101050000829C0F2F40007D0042918BF10BD41F2DE
:101060000020C0F27A0010BD216801F03F02216823
:1010700023684902C3F3881106D4A1FB00010023B1
:10108000FFF708F907E000BF41F20020C0F27A0044
:101090004843B0FBF2F021680222C1F3014102EBA8
:1010A0004101B0FBF1F010BD002804BF01207047E2
:1010B0002DE9F04182B00446007843F60006C007EF
:1010C000C4F202060CD0B06800F00C00042840F016
:1010D00081803068800303D56068002800F0688153
:1010E000207880071BD5B06810F00C0F09D0B068CD
:1010F00000F00C00082840F087807068400200F182
:1011000083803068800703D5E068012840F0508173
:101110003068216920F0F80040EAC1003060207892
:10112000000713D4207840072AD4A569002D00F0C9
:101130003A81B06800F00C00082840F0A580012D2D
:1011400040F00E81012002B0BDE8F0816069002806
:1011500000F082800020C4F247200121C0F8801EE8
:10116000FFF7C4FA054600BF706F8007DAD4FFF7B7
:10117000BDFA401B0228F7D9032002B0BDE8F08178
:10118000306C5FEAC0080AD400200190306C40F057
:1011900080503064306C00F080500190019847F22C
:1011A0000007C4F200073868C00547D4386840F427
:1011B00080703860FFF79AFA054600BF3868C005AE
:1011C0003CD4FFF793FA401B0228F7D9032002B062
:1011D000BDE8F081B06800F00C00082803D1706809
:1011E00040023FF576AF61683068B1F5803F07D0C7
:1011F000B1F5A02F40F09A8040F480203060306834
:1012000040F4803030609AE0E068002840F200004E
:10121000C4F247205CD001210160FFF767FA054660
:10122000306880073FF574AFFFF760FA401B022873
:10123000F6D9032002B0BDE8F08100BFA168306F8D
:10124000012905D0052955D140F004003067306FE1
:1012500040F00100306756E00020C4F24720002132
:10126000C0F8801EFFF742FA054600BF706F800786
:101270007FF558AFFFF73AFA401B0228F6D9032052
:1012800002B0BDE8F08100BF0027C4F2472700206C
:101290003866FFF72BFA022D05460DD13068800124
:1012A00040F18A80FFF722FA401B02284FF003002A
:1012B000F4D902B0BDE8F0813068800173D5FFF742
:1012C00015FA401B02284FF00300F5D9F1E700BFE3
:1012D00000210160FFF70AFA054600BF3068800769
:1012E0007FF51DAFFFF702FA401B02284FF0030005
:1012F000F4D9DEE720F001003067306F002920F0DC
:10130000040030677AD0FFF7F1F9054641F28837DB
:10131000306F800700F18480FFF7E8F9401BB84286
:10132000F6D9032002B0BDE8F08100BF20F4803080
:1013300030603068002920F4802030607AD0FFF7D8
:10134000D5F90546306880033FF5CAAEFFF7CEF900
:10135000401B6428F6D9032002B0BDE8F08100BF2D
:101360007068E16900F480028A4221D1216A00F0AC
:101370003F028A421CD147F6C071626A0140B1EB5C
:10138000821F15D1A16A4FF6FF73C903994300F478
:101390004032A1F580318A420AD1E16A00F07060E2
:1013A000B0EB016F04D1002002B0BDE8F08100BFB6
:1013B000012002B0BDE8F08104F11C052FCD0843E7
:1013C00040EA8210D9034FF6FF729143A1F58031B4
:1013D00040EA05600843706001203866FFF786F92F
:1013E000044600BF30688001DDD4FFF77FF9001BA1
:1013F00002284FF00300F5D95BE700BFFFF776F94D
:10140000054641F2883700BF306F800708D5FFF7E7
:101410006DF9401BB8424FF00300F5D949E700BF12
:10142000B8F1000F3FF581AE306C20F08050306491
:101430007BE600BFFFF75AF9054600BF306880031E
:101440007FF54EAEFFF752F9401B64284FF00300C2
:10145000F4D92EE77047000070470000002804BF51
:101460000120704710B5044690F83D0028B90020CF
:1014700084F83C00204600F01FF8022084F83D006C
:101480002068211D00F032FF012084F8460084F816
:101490003E0084F83F0084F8400084F8410084F85E
:1014A000420084F8430084F8440084F8450084F83E
:1014B0003D00002010BD00007047000090F83D1076
:1014C00001291CBF01207047022180F83D100068EF
:1014D00041F2FF72C168C4F20002904241F0010182
:1014E000C1600DDC40F2FF71C4F20001884215DCDE
:1014F000B0F1804F2AD040F20041C4F2000123E055
:1015000040F2FF31C4F20101884213DC41F60001D0
:10151000C4F20001884219D0002113E040F6000116
:10152000C4F20001884211D040F60041C4F200012B
:101530000AE000BF44F20001C4F20101884205D074
:1015400040F20041C4F20101884206D1816801F0F5
:101550000701062904BF00207047016841F001011E
:1015600001600020704700007047000070B504461D
:101570000068C5680669B10716D515F0020113D0D9
:101580006FF002010161012121778069800703D09A
:101590002046FFF7E9FF05E0204600F08FF82046DF
:1015A00000F08EF800202077700719D515F00400A0
:1015B00016D020686FF00401016102212177806953
:1015C00010F4407F04D02046FFF7CEFF06E000BFB6
:1015D000204600F073F8204600F072F800202077D3
:1015E000300717D515F0080014D020686FF00801F7
:1015F000016104212177C069800703D02046FFF7ED
:10160000B3FF05E0204600F059F8204600F058F8F6
:1016100000202077F00619D515F0100016D02068AC
:101620006FF01001016108212177C06910F4407F3B
:1016300004D02046FFF798FF06E000BF204600F0E8
:101640003DF8204600F03CF800202077F00718BF56
:1016500015F0010002D1300609D412E020686FF0C5
:1016600001010161204600F02DF8300609D515F082
:10167000800006D020686FF0800101612046FFF7EE
:10168000E9FE700609D515F0400006D020686FF01D
:1016900040010161204600F01FF8B00658BF70BD40
:1016A00015F0200008D021686FF0200220460A6162
:1016B000BDE87040FFF7D0BE70BD0000704700006D
:1016C00070470000006841F20041C4F20001884206
:1016D00018BF7047FFF7D8BA70470000FEE7000058
:1016E0002DE9F04782B0044600689A460B9D0A9E99
:1016F0000368914643F48062026002680F4642F438
:101700008071016020464FF00111002233460095A0
:1017100000F032F950B120680068C00544BF4FF4B2
:1017200000702064032002B0BDE8F08740F2020898
:101730002068C0F2010807F0FE0707612046414615
:1017400032462B4600F0FEF920B1012002B0BDE880
:10175000F08700BF0020019020682A46416901916E
:101760008069314601900198204600F09FFAB0B997
:101770002068BAF1010F09D04FEA19210161204612
:1017800031462A4600F092FA48B920685FFA89F19A
:101790000161204631462A4600F088FA60B1206C8B
:1017A0000428D2D12068016841F400710160012051
:1017B00002B0BDE8F08700BF206800220168334610
:1017C00041F48071016020464FF00111009500F056
:1017D000D3F800289FD147F0010C276820464146E6
:1017E00032462B46C7F810C002B0BDE8F04700F003
:1017F000A9B900002DE9F04383B0044600680F4604
:1018000001680A9D0B9E41F48071994690460160E3
:1018100020464FF0011100222B46009600F0ACF854
:1018200050B120680068C00544BF4FF400702064C8
:10183000032003B0BDE8F083206807F0FE010161DA
:101840000221C0F2010120462A46334600F07AF90F
:1018500020B1012003B0BDE8F08300BF002002905A
:1018600020683246416902918069294602900298B7
:10187000204600F01BFA58B1206C0428E9D12068FA
:10188000016841F400710160012003B0BDE8F083FC
:101890002068B9F1010F0AD04FEA182101612046F2
:1018A0002946324600F002FA0028E5D120685FFAA6
:1018B00088F10161002003B0BDE8F08370B50368D2
:1018C000044653F8140F400711D40E46481C29D083
:1018D00086BB00BF1868400527D4FEF707FF2368C2
:1018E00053F8140F400737D518684007F2D5002089
:1018F00070BD00BF18684007F9D41868400514D4BB
:1019000018684007F3D4186840050ED418684007DB
:10191000EDD41868400508D4186840074FF000005F
:1019200048BF70BD18684005E4D56FF4806018604A
:10193000042012E0154603E053F8140F4007D6D4F4
:1019400018684005F1D4FEF7D1FE401B2368B04271
:10195000F2D958694007EFD42020002120222163CA
:1019600084F83D2084F83E10226C1043206401204E
:1019700084F83C1070BD00002DE9F0410546006878
:101980001E46144601F47F0201338FB242D0DDF8C7
:101990001880B2F5803F40F0878040693840C01B16
:1019A000B0FA80F04009A04240F0C8804EB924E06F
:1019B00040693840C01BB0FA80F04009A04240F0B6
:1019C000BD80FEF793FEA0EB08012868B142EFD975
:1019D00041693940C91BB1FA81F14909A142E7D1F6
:1019E0009BE000BF40693840C01BB0FA80F040095E
:1019F000A0424FF0000040F0A280FEF777FE28687A
:101A000041693940C91BB1FA81F14909A142E9D1C3
:101A100083E000BFB2F5803F24D100BF4169394067
:101A2000C91BB1FA81F14909A14240F0878041699F
:101A30003940C91BB1FA81F14909A14240F07E80C9
:101A400041693940C91BB1FA81F14909A14275D1F7
:101A500041693940C91BB1FA81F14909A142DDD080
:101A60006CE000BF81693940C91BB1FA81F14909B5
:101A7000A14263D181693940C91BB1FA81F1490999
:101A8000A1425BD181693940C91BB1FA81F1490991
:101A9000A14253D181693940C91BB1FA81F1490989
:101AA000A142DFD04AE000BF80693840C01BB0FAD5
:101AB00080F04009A04241D146B923E08069384016
:101AC000C01BB0FA80F04009A04237D1FEF70EFEED
:101AD000A0EB08012868B142F0D981693940C91BDF
:101AE000B1FA81F14909A142E8D116E08069384094
:101AF000C01BB0FA80F04009A0424FF0000018BFB0
:101B0000BDE8F081FEF7F2FD286881693940C91B04
:101B1000B1FA81F14909A142E8D1002020212863CE
:101B200085F83D1085F83E00296C41F020012964BC
:101B300085F83C000120BDE8F08100BF0020BDE831
:101B4000F0810000F0B581B0044600681D4643698D
:101B50008FB203EA0701B94202D1002001B0F0BD03
:101B60004169164601323CD0490512D47EB300BF0C
:101B7000FEF7BCFD411B2068B14203D941693940E1
:101B8000B9422BD141693940B942E6D04169490592
:101B9000EED5016841F4007101606FF4806141612C
:101BA000042000212022216384F83D2084F83E1087
:101BB000226C1043206484F83C10012001B0F0BD79
:101BC00041693940B942C8D041694905E1D4FEF7BD
:101BD0008DFD206841693940B942F1D02020E0E70D
:101BE00041694905D5D441693940B942B5D0416907
:101BF0004905CED441693940B942AED04169490561
:101C0000C7D441693940B942A7D041694905C0D418
:101C100041693940B942E3D19FE7000070B50446FD
:101C20000068154650F8143F5A063DD40E4629B9AF
:101C300026E000BF50F8141F490635D40168C906D4
:101C400021D4FEF753FD411B2068B142F2D941690E
:101C50004906EFD400202021206384F83D1084F849
:101C60003E00206C40F0200018E000BFFEF73EFD73
:101C7000206850F8141F4906ECD50168490613D4B2
:101C80000168C906F2D56FF0100101600020202123
:101C9000206384F83D1084F83E00206C206400200E
:101CA00084F83C00012070BD002070BD70B5036851
:101CB000044653F8140F000611D40E46481C29D0D0
:101CC00086BB00BF1868400527D4FEF70FFD2368C8
:101CD00053F8140F000637D518680006F2D5002017
:101CE00070BD00BF18680006F9D41868400514D408
:101CF00018680006F3D4186840050ED4186800066A
:101D0000EDD41868400508D4186800064FF00000AC
:101D100048BF70BD18684005E4D56FF48060186056
:101D2000042012E0154603E053F8140F0006D6D441
:101D300018684005F1D4FEF7D9FC401B2368B04277
:101D4000F2D958690006EFD4202000212022216317
:101D500084F83D2084F83E10226C1043206401205A
:101D600084F83C1070BD0000B0B52DED108B8CB028
:101D70000DF10D050DF10E040DF12A0009A905AABA
:101D800004ABCDE9004500F0B1FC28B14FF0FF30C5
:101D90000CB0BDEC108BB0BDBDF80E00C00509D471
:101DA0009FED7FAAB7EE009AB0EE4ABAB0EE4ACAEB
:101DB0009DE000BF05A890ED000A90ED011A9FED8F
:101DC000794A90ED022AB8EEC00A90ED033A20EE6F
:101DD000049AB8EEC10A20EE04AAB8EEC20A20EEB8
:101DE00004BAB8EEC30A20EE04CAB8EE000A2AEE1E
:101DF00000EA39EE098A28EE0B0A2EEE0C1A31EEB3
:101E0000000A10EE100A05F081F841EC100B03F007
:101E100017FE51EC100B9FED600B54EC105B2A4643
:101E2000234604F0AFFD04F02FFB3BEE0BFA28EE47
:101E30000A0A2FEE0C1A31EE000A0DEE100A10EE0F
:101E4000100A05F063F82BEE0F0A2EEE0A1A31EE97
:101E5000400AB7EE001A30EE010A41EC180B10EE02
:101E6000100A05F053F841EC110BB0EE480AF0EE01
:101E7000680A04F001F951EC100B2A46234604F0DD
:101E800081FD04F001FB2AEE0B0A29EE0C1A31EE5B
:101E9000000A30EE000A0EEE100A10EE100A05F0ED
:101EA00035F82AEE0A0A29EE091A31EE000A2BEE5D
:101EB0000B1A30EE410A2CEE0C1A30EE410A41ECBE
:101EC000180B10EE100A05F021F841EC110BB0EEE2
:101ED000480AF0EE680A04F0CFF851EC100B2A46DD
:101EE000234604F04FFD04F0CFFA00EE100ABDF9CE
:101EF00024009FED2F4A01EE100ABDF92A00BDF91A
:101F0000261003EE100AB8EEC33A83EE043ABDF988
:101F100028209FED252A04EE101A05EE102AB8EEAF
:101F2000C11AB8EEC44AB8EEC55A21EE021A24EE20
:101F3000024A25EE022A9FED1F5A9FED1C6A40F2CD
:101F4000202023EE053A21EE061A24EE064A22EE60
:101F5000062AC2F2000023EE055A80ED001A80ED39
:101F6000014A80ED022A80ED033A80ED045A80EDAB
:101F7000055A80ED099A80ED0AAA80ED0BBA80ED32
:101F80000CCA80ED0D0A80ED0EDA80ED0FEA00201C
:101F90000CB0BDEC108BB0BD6666666666A64C40A4
:101FA000000000000000803000008038CDCC1C41D3
:101FB0000000034335FA8E3C80B582B001A801F0E1
:101FC0007FF918B14FF0FF3002B080BD782002F0E9
:101FD000DFFC18B16FF0010002B080BD782001F085
:101FE000B5F818B16FF0020002B080BD642002F0B5
:101FF0004BFC18B16FF0030002B080BD00F06AFB2B
:1020000020B16FF0040002B080BD00BF01F08CF879
:1020100000F050FD20B16FF0050002B080BD00BFA0
:1020200040F2731000F006FA20B16FF0060002B023
:1020300080BD00BF642000F095FC18B16FF0070070
:1020400002B080BD03F03EF820B16FF0080002B08E
:1020500080BD00BF012002F01FFB002818BF6FF0F9
:10206000090002B080BD000080B588B00B4802AF07
:1020700001900AA000F1040E9EE80E50806987E8E6
:102080000E50079001A8002102F074FD40F2781173
:10209000C2F20001086008B080BD00BF4E7D00089C
:1020A000E5210008000000000000000080000000A2
:1020B000000000000000000083B0002043F6300163
:1020C0000290C4F202010A6842F080020A600A68C3
:1020D00002F080020292029A01900A6842F0020223
:1020E0000A600A6802F002020192019A00900868F0
:1020F00040F001000860086800F0010000900098BE
:1021000003B0704780B540F2841045F60001C2F27A
:102110000000C4F2000141F6802200234FF4804CFD
:10212000C0F2060280E80E00C0E9033CC0E90533B6
:10213000C0E90733FEF7E0FA002808BF80BDBDE81C
:102140008040FEF7FDB90000FEE70000FEE700005A
:10215000EFF30980BFF36F8F154B1A681EF0100F55
:1021600008BF20ED108A20E9F04F10602DE909002A
:102170004FF0500080F31188BFF34F8FBFF36F8F84
:1021800003F0E2F94FF0000080F31188BDE8090088
:1021900019680868B0E8F04F1EF0100F08BFB0ECE7
:1021A000108A80F30988BFF36F8F704700BF00BFAC
:1021B000A00000200000000000000000000000005F
:1021C000074B19680868B0E8F04F80F30988BFF33F
:1021D0006F8F4FF0000080F31188704700BF00BF81
:1021E000A0000020FFF7E8FE0028FBD1FFF7BCFDB0
:1021F000FCE7000080B54FF0500080F31188BFF37A
:102200006F8FBFF34F8F03F007FB30B14EF60450D2
:10221000CEF200004FF080510160002080F3118861
:1022200080BD000070B592B006AC20463021FEF7AC
:102230000FF9002543F640000595CDE90355CDE99A
:1022400001550095C4F202000168022641F0805158
:102250000160006800F080500090009847F2000094
:102260000095C4F20000016841F4804101600068FB
:10227000A82100F4804000900098012006904FF4BF
:10228000803007904FF480000D9004200E90119044
:1022900020460C96CDE90F16FEF706FF10B172B678
:1022A000FEE700BF0F20CDE901064FF4A0500490D7
:1022B0004FF48050059001A805210395FEF7D8FD45
:1022C00010B172B6FEE700BF12B070BD4EF6885076
:1022D000CEF20000016841F4700101607047000017
:1022E00040F2D810C2F20000FFF740B910B540F636
:1022F000FF3E0368C4F2000E40F2004C7045C4F289
:10230000010C25DCB0F1804F2FD040F20042C4F226
:102310000002904229D040F60002C4F2000290422E
:1023200023D041F6FF72C4F20002904227DC7045D0
:102330003ADCB0F1804F5BD040F20042C4F20002C0
:10234000904255D040F60002C4F200024EE000BFB9
:1023500040F60042C4F20002904206D0604504D02C
:102360000022C4F201029042DBD14A6823F07003DC
:10237000134341F6FF72C4F200029042D7DD43F6E8
:10238000FF72C4F20102904220DC42F20002C4F269
:10239000000290422CD00022C4F20102904227D0C9
:1023A000604525D028E000BF40F60042C4F200029C
:1023B00090421DD041F60002C4F20002904217D0B4
:1023C00041F60042C4F2000210E000BF44F20002F5
:1023D000C4F2010290420BD044F60002C4F20102A2
:1023E000904205D044F20042C4F20102904203D16F
:1023F000CA6823F44073134323F080024B69D1F879
:1024000000E08C681A430260C46240F48062C0F845
:1024100028E0624504BF0969016301214161016946
:10242000C90708BF10BD016921F00101016110BD9C
:10243000FEE70000F0B587B004464CF60220C0F677
:10244000E3100DF10605CDF80600682004212A46A8
:1024500002F032FB14F040014FF0A3006FF03F0197
:102460008DF8060008BF6FF05C016FF037026FF067
:102470003D0308BF6FF05C0208BF6FF05C038DF88E
:10248000071014F4C0716FF03B018DF808208DF82F
:10249000093008BF6FF05C016FF033026FF0390351
:1024A00008BF6FF05C0208BF6FF05C038DF80A1084
:1024B0004AF2A3318DF80B20ADF80D108DF80F0006
:1024C00040F6A7200A212A468DF80C3002F0F4FAD3
:1024D0002020A60708BF6FF027008DF8060040F601
:1024E000B62001212A4602F0E7FAA0060CD4C72044
:1024F000069048F6B000CCF2C35005904AF6B820DA
:10250000CAF6AA200BE000BF5D20069049F6B40091
:10251000C3F20D5005904AF6B820C8F6B3500490A7
:1025200004AA4FF49760092102F0C6FA14F4C07FA0
:1025300025D06FF04D016FF0740214F4807008BF65
:102540006FF04F0108BF6FF07F026FF049036FF02B
:10255000640508BF6FF04B03002808BF6FF06F05DC
:102560008DF806108DF807200DF1060240F6A22026
:1025700004218DF808308DF8095002F09DFAE0072B
:1025800008D1D8208DF806000DF106024FF40B603B
:10259000012150E0F8208DF806000DF106024FF4FD
:1025A0000B60012102F088FA0720FA2100F0F6FA08
:1025B0003F208DF8100004AA4FF4A470012102F00E
:1025C0007BFA00208DF8100004AA40F24F10012180
:1025D00002F072FA4FF4A050ADF8100004AA4FF4C4
:1025E000EF70022102F068FA4FF4C840ADF8100015
:1025F00004AA4FF4ED70022102F05EFA48F6006082
:10260000C9F2F900049004AA4FF4AE70042102F05C
:1026100053FA4FF40060ADF8100004AA4FF4AD7007
:10262000022102F049FA4FF40070ADF8100004AA3C
:102630004FF4AC70022102F03FFA6FF02600002E3A
:1026400058BF6FF027008DF806000DF1060240F22A
:102650003D70012102F030FA600752BF4FF08B301D
:102660004CF2C020CCF2C460049004AA40F698203A
:10267000042102F021FA01F091F9E00652BF4FF077
:10268000A33042F62000C3F63000049004AA40F6BE
:102690009E20042102F010FA01F080F940F2401768
:1026A00044F00800C2F200076506B88001F076F930
:1026B000062000EAE57114F4C07F18BF063114F05B
:1026C000140F18BF1031002E18BF043100203970CC
:1026D00007B0F0BD47F22E11C0F6000140F6F6300B
:1026E0004FF48062C82300F0B9BE00002DE9F04F1E
:1026F00089B040F240191446DDE912B2C2F2000975
:102700000F468046002199F800000DF1040AABF84D
:10271000001051461E4601F0C5F828B14FF0FF30B9
:1027200009B0BDE8F08F00BFB9F804C01CF0140F69
:102730004ED09DF80520B6469DF80410BDF8066001
:1027400012049DF8095042EA016132BA9DF808303E
:1027500041EA1242BDF80A6022602A0442EA03629A
:1027600033BA42EA134363609DF80D309DF80C6064
:10277000BDF80E501B0443EA06632EBA43EA164620
:10278000A6609DF811609DF8105011FB31F13604E0
:1027900012FB3211BDF8120046EA056613FB331135
:1027A00016FB361100BA01F1714146EA1040B1F151
:1027B000007FE0606AD8BBF80000102140F4807010
:1027C0007646ABF800005FEA4C6005D421E000BF1C
:1027D00000215FEA4C601CD50AEB01001AF80120C9
:1027E000437834468678C57890F804E0407943EA27
:1027F00002223A8045EA062240EA0E207A80B8801A
:10280000BBF80000264641F0060140F00800ABF896
:1028100000001CF4C07F18D03AF801000AEB010256
:1028200000BA5388000CA8F8000018BA9288000C6F
:10283000A8F8020010BA000CA8F80400BBF80000C9
:10284000063140F07000ABF800005FEA8C7016D0E3
:102850000AEB01056878EC78C10709D0D9F808209F
:1028600032B104F00700411CC4F3C20090476878FD
:10287000000704D5D9F80C1009B1A0098847FDF765
:1028800035FF3060002009B0BDE8F08F01F086F818
:102890000020ABF800004FF0FF3009B0BDE8F08F2A
:1028A00010B584B004460DF1020000F0D1FC40F2F6
:1028B0007C11BDF802C000BFC2F20001098801F01E
:1028C00003024B0754F822204FF00C0348BF52423A
:1028D00003EA51038806E358C1F3811048BF5B4205
:1028E00054F82000C90548BF40424FEACC3181FB73
:1028F00002C481FB03E281FB00014FEA9C73800F5D
:1029000043EA840C4FEA9E7340EA810EA00D8DF8D5
:102910000400A00B8DF80500A0098DF80600900DAD
:102920008DF80800900B8DF8090090098DF80A00C9
:10293000880D8DF80C00880B8DF80D00880943EA8E
:1029400082038DF80E0001AA4FF425700C218DF83A
:1029500007C08DF80B308DF80FE002F0ADF804B031
:1029600010BD000010B586B04AF6BB71CDF6DF7120
:1029700005914FF2AA11CDF6DF7104914FF2FE21BD
:10298000CCF2AB41C828039118D80446C0B2C82184
:10299000B1FBF0F0002101388DF804108DF805002E
:1029A00001AA40F21620022102F086F830B903AAEB
:1029B00040F6C1200C2102F07FF818B14FF0FF3033
:1029C00006B010BD40F28010C2F20000048000206A
:1029D00006B010BDF0B581B040F27C11C2F200012A
:1029E0000E880C2306F003014EF2093450F8211032
:1029F00003EA5603C0F2CA24720748BF4942C758C7
:102A0000C6F3811381FB041250F82350F0054FEAFE
:102A100091704FEA925148BF6D428DF80010910BB2
:102A200040EA82008DF8011091098DF802108DF8AE
:102A300003006A464FF47470042102F03DF8E0B9D7
:102A4000B00648BF7F42A7FB0401FA1702FB04113E
:102A5000800F8A0D40EA81008DF800208A0B8909D9
:102A60008DF801208DF802108DF803006A464FF4AE
:102A70007570042102F020F820B14FF0FF3001B052
:102A8000F0BD00BF85FB0401800F40EA8100010E0C
:102A90008DF80010010C8DF80110010A8DF802105C
:102AA0008DF803006A464FF47670042102F004F8B2
:102AB00001B0F0BDB0B582B0054647F20B11C0F6CB
:102AC0000001C5F3C10300F00300CC5C0A5C8DF883
:102AD000054047F208148DF80420C5F38112C0F6B2
:102AE0000004895C205C8DF806108DF80000E05C25
:102AF000A15C8DF801008DF8021001AA40F2264079
:102B0000032101F0D9FF50BB6A4640F22A4003215D
:102B100001F0D2FF18BB45F23660C0F2760001909A
:102B200044F22660C0F26600690700901CD4A80633
:102B300022D4E80505D577208DF8060067208DF8AA
:102B4000020001AA4FF48860032101F0B5FF30B9FB
:102B50006A4640F23140032101F0AEFFB0B14FF0C0
:102B6000FF3002B0B0BD00BF37208DF80400272031
:102B70008DF80000A806DCD557208DF80500472009
:102B80008DF80100E805D6D4DBE700BF40F27C10E9
:102B9000C2F200000580002002B0B0BDB0B582B026
:102BA0000446B1F5C86F4FF0FF3045D814F0070266
:102BB00042D00DF103000D4600F02EFB9DF80300FE
:102BC00002384FEA7000072865D8C1B28B2222FA7A
:102BD00001F1C9075FD000EE105A9FED311AB8EE2F
:102BE000400A80EE010A2FA101EB800191ED001A4D
:102BF00034A101EB800090ED002A20EE011A20EEB6
:102C0000020ABDEEC00A10EE100ABDEEC10A10EEB7
:102C1000101A0A0A8DF804208DF80510010A01AA7D
:102C2000951C8DF80610E1078DF8070006D1A00766
:102C300012D4600720D4002002B0B0BD4FF4EA7077
:102C4000022101F039FF30BB4FF4927002212A4675
:102C500001F032FFF8B9EAE701AA4FF4EC70022163
:102C600001F02AFFB8B94FF4947002212A4601F00E
:102C700023FF80B9DDE700BF01AA4FF4EE70022107
:102C800001F01AFF38B94FF4967002212A4601F07C
:102C900013FF0028CFD04FF0FF3002B0B0BD00BF0F
:102CA00000004843000080460000004600008046C7
:102CB00000008045000080460000804600008046FD
:102CC00000000045000040460000C04500004046AE
:102CD00000004045000040460000404600004046DD
:102CE0000000C0442DE9F04F89B040F20C0BC2F255
:102CF000000B89468046DBE900010125ADF818503C
:102D0000437D022006AC0978CDE9004040F28410F2
:102D100016464FF48077C2F200001A46012302974C
:102D2000FDF7C8FE002840F03381C820FDF70CFCF9
:102D30000020DBE900218DF818000978527C40F270
:102D40008410C2F200000123CDE901570094FDF781
:102D5000B1FE002840F01C81DBE900014FF48075D2
:102D60000978427940F284100127C2F20000012361
:102D7000CDE900470295FDF79DFE002840F008814F
:102D8000DBE9000101230978427D40F28410C2F2A0
:102D90000000CDE901750094FDF78CFE002840F09D
:102DA000F780DBE900014FF480750978827E40F2FC
:102DB00084100127C2F200000123CDE900470295EB
:102DC000FDF778FE002840F0E380DBE900010123F5
:102DD0000978027940F28410C2F20000CDE9017551
:102DE0000094FDF767FE002840F0D2800C20DBE95C
:102DF00000218DF818000978127940F284104FF400
:102E000080750127C2F200000123CDE90047029539
:102E1000FDF750FE002840F0BB800F20FDF794FB2B
:102E2000DBF82800DBE90021407A92788DF8180061
:102E3000097840F28410C2F200000123CDE9017547
:102E40000094FDF737FE002840F0A280DBF8280050
:102E5000DBE90021007A52788DF81800097840F2F9
:102E600084104FF480750127C2F200000123CDE9E0
:102E700000470295FDF71EFE002840F08980DBF830
:102E80002800DBE90021807A002E18BF40F0E00026
:102E90008DF818000978927940F28410C2F200008F
:102EA0000123CDE901750094FDF704FE00286FD1E0
:102EB00036B1DBF82800C07A60F01F0001E000BFE7
:102EC0001820DBE900218DF818004FF480700123F1
:102ED0000978D279CDE9013040F28410C2F20000C5
:102EE0000094FDF7E7FD002852D116B1C820FDF788
:102EF0002BFB4020DBE900218DF8180009781279BE
:102F000040F284104FF480750126C2F200000123C4
:102F1000CDE900460295FDF7CDFDC8BB7820DBE981
:102F200000218DF818000978527940F28410C2F21D
:102F300000000123CDE901650094FDF7BBFD38BB1E
:102F40003220FDF701FB0020DBE900218DF818009D
:102F5000012009785279CDE9004040F284104FF405
:102F60008075C2F2000001230295FDF7A3FD78B938
:102F7000DBE900010123027B02200978CDE901058C
:102F800040F28410C2F200000094FDF767FC28B103
:102F90004FF0FF3009B0BDE8F08F00BFBDF818005A
:102FA0004AF6AB2100BA000C4843C0F3C7420021E7
:102FB000002AC8E90011C8F80810C9E900110492F4
:102FC000C9F808104AD0C00C0026C0B20590DBE951
:102FD00000010123427B0C200978019040F284100B
:102FE000C2F200004FF4807700940297FDF736FCA0
:102FF0000028CDD1BDF81800BDF81A10BDF81C206E
:10300000D9E90037D9F8085000BA09BA12BA03EB67
:10301000204007EB214105EB2242C9E90001C9F834
:103020000820BDF82010BDF82220D8E90037D8F8D4
:103030000850BDF81E0009BA12BA07EB214A05EB89
:1030400022470136059A00BAF1B203EB20409142C3
:10305000C8E9000AC8F80870B9D303E0D8E9000A43
:10306000D8F80870C117090441EA1041000483220E
:103070000023FDF787F9049E00233246FDF782F90D
:10308000C8F800004FEAEA70000440EA1A414FEA2B
:103090000A4083220023FDF775F932460023FDF72D
:1030A00071F9C8F80400F817000440EA1741380421
:1030B00083220023FDF766F932460023FDF762F90B
:1030C000C8F80800D9E90005D9F80840C117490136
:1030D00041EAD061400132460023FDF753F9C9F8B7
:1030E0000000E817400140EAD5616801324600233C
:1030F000FDF748F9C9F80400E017400140EAD4613F
:10310000600132460023FDF73DF901464FF480325D
:103110000029C4BF0022CFF6FF7211440020C9F875
:10312000081009B0BDE8F08FAC207047FDF7BAFD7C
:10313000FFF778F8FEF7C0FFFEF7E4FF02F00AF8A9
:10314000FEF792FF01F010FDFEE70000F0B585B03C
:1031500040F20C04C2F2000494F8241011B10020D3
:1031600005B0F0BDA27AAAB300F0FE063240257C7D
:10317000901B217D18BF4FF0FF30002E227408BF36
:1031800000292BD0617CE9B90123D4E900218DF815
:1031900012300DF112070978527CCDE9007340F22C
:1031A0008413C2F200034FF4807C074618460123C3
:1031B000CDF808C0FDF77EFC0146384611B99DF8F0
:1031C0001210617436B3064600F0E8FB0146304643
:1031D00001B325744FF0FF3005B0F0BD0546002067
:1031E000D4E900218DF8130001200DF113030978B3
:1031F000527CCDE9003040F284104FF48077C2F267
:10320000000001230297FDF755FC10B99DF813004B
:103210006074284605B0F0BD40F20C01C2F2000116
:103220004A7A032A84BF4FF0FF30704740F20243CE
:10323000D200C1F20803D3400370C97C29B140F623
:103240000401C2F21001D14001700020704700005B
:1032500040F20C01C2F200014A7A032A84BF4FF007
:10326000FF30704706A333F81230C97C0FF2180CF8
:103270003CF812200029038018BF0280002070470C
:1032800000409C1F001000080020CE0F0008000422
:1032900040F20C01C2F20001097A032984BF4FF009
:1032A000FF30704702A252F82110016000207047E1
:1032B000000003430000834233330342333383412E
:1032C000F0B585B040F20C04C2F200048020D4E9CD
:1032D00000218DF80D000978527D40F284104FF4E2
:1032E000807601270DF10D05C2F200000123CDE922
:1032F00000570296FDF7DEFB30BB6420FDF724F992
:103300000020D4E900218DF80D000978527D40F2AB
:103310008410C2F200000123CDE901760095FDF78B
:10332000C9FB88B9D4E900010623427E4FF48070BE
:103330000978CDE9013040F28410C2F20000012387
:103340000095FDF78BFA18B14FF0FF3005B0F0BDD6
:103350009DF812209DF80E009DF81010042303EA3A
:10336000820261F3410200F0010011184FF00100E8
:1033700056D0012902D00229E6D10020E0744FF690
:10338000FF700021E081FF20C4E90511E161218483
:10339000C4F8231084F8271018212074A0744FF06B
:1033A000FF308DF81310D4E90021A06001200DF149
:1033B000130320730978927984F82200CDE9003054
:1033C00040F284104FF48077C2F20000012302978C
:1033D000FDF770FB0028B7D19DF81300C0082072DC
:1033E000022001F067F80028AED12A2001F0F4F99C
:1033F0000028A9D1322001F047FA0028A4D10020EA
:10340000FFF7A4FE00289FD1002001F0A9F80028B2
:103410009AD1002001F0BCFA002005B0F0BD00BF39
:10342000D4E900214FF480770978D278CDE90050B3
:1034300040F28410C2F2000001230297FDF70EFA59
:1034400000287FF481AF9DF80D0010F00F003FF4CD
:103450007BAF042891D1012090E700002DE9F04FC7
:103460008DB0074600294FF0FF3000F0C88040F2D1
:103470000C04C2F200040E4694F82510002940F016
:10348000BE80002FCDE9043200F096804FF0000B93
:10349000CDE906671FFA8BF9A7EB0908A07AB8F106
:1034A000100FA8BF4FF01008002800F09E80606841
:1034B0001FFA88F7418957FA8BFA8A459BFA8BF1F4
:1034C0004FEA1141ADF8321000F28F802268017886
:1034D0000DF13200D27E00900220019040F2841063
:1034E000C2F2000001234FF480750295FDF7E2FA65
:1034F00040F20C05C2F20005002876D1D5E90001A2
:1035000016FA8BF40978027E40F28410C2F20000B1
:1035100001234FF48076CDE900470296FDF7CAFA01
:10352000002862D1A87A00285FD068682B464289BB
:103530004FEA192192458DF832108DF833B054D8E6
:103540001A6801780DF13200D27E009002200190BD
:1035500040F28410C2F2000001234FF480760296FC
:10356000FDF7A8FA40F20C01C2F20001E8BBD1E974
:1035700000010DF122050978027E40F28410C2F2AA
:10358000000001234FF48076CDE900570296FDF745
:1035900065F950BB204629463A46FCF72DFF88BB0B
:1035A000C344079F1FFA8BF0069E40F20C04B842FA
:1035B000C2F20004FFF46EAF0598D4E9002140BACE
:1035C000ADF832004FF480700978527F02230DF17C
:1035D0003207029040F28410CDE90073C2F200007D
:1035E00001230125FDF766FA20B14FF0FF300DB041
:1035F000BDE8F08F049884F82550E08400200DB0D9
:10360000BDE8F08F6FF001000DB0BDE8F08F000055
:10361000282884BF4FF0FF30704770B586B040F265
:103620000C04C2F2000400285AD094F82310012997
:103630002AD00546A07C94F822103222002808BF28
:1036400030228DF8132039B16FF04D01002808BFEA
:103650006FF04F018DF81310D4E900010DF1130341
:10366000C27D4FF480700978029040F284100126E8
:103670000093C2F2000001230196FDF71BFA002817
:10368000284608BF84F82360202101288DF81010F7
:1036900072D1A07A002100288DF8111000F0DA8094
:1036A000E07A062106288DF8141000F0D380D4E9C2
:1036B000000105AB827801200978CDE9003040F2A5
:1036C00084104FF48076C2F2000001230296FDF7C9
:1036D000F1F9002840F0BE809DF81400B9E000BF69
:1036E00094F8230050B3A07C94F8221002460028DE
:1036F00018BF012252008DF8122039B16FF07D0100
:10370000002808BF6FF07F018DF81210D4E9000186
:103710000DF11203C27D01200978CDE9003040F29D
:1037200084104FF48076C2F2000001230296FDF768
:10373000C1F9002804BF002084F823004FF4E060A2
:10374000D4E90021ADF81000022004AB0978527DC5
:10375000CDE9003040F284104FF48076C2F20000D0
:1037600001230296FDF7A6F9002806BF0020207568
:103770004FF0FF3006B070BD052823D8A07A012194
:1037800000288DF8111065D0E07A062106288DF802
:1037900015105FD0D4E900010DF1150382780120E6
:1037A0000978CDE9003040F284104FF48076C2F2FF
:1037B000000001230296FDF77DF900284AD19DF80B
:1037C000150046E0142823D8A07A022100288DF89D
:1037D00011103FD0E07A052105288DF8161039D058
:1037E000D4E900010DF11603827801200978CDE9B2
:1037F000003040F284104FF48076C2F200000123C2
:103800000296FDF757F928BB9DF8160021E000BF8E
:10381000A07A03218DF81110E0B1E07A0421042888
:103820008DF8171016D0D4E900010DF11703827836
:1038300001200978CDE9003040F284104FF4807601
:10384000C2F2000001230296FDF734F910B99DF889
:103850001700E0729DF81100D4E9002180010730C3
:103860008DF811004FF480700978527D022304AE68
:10387000029040F28410CDE90063C2F200000123FF
:103880000125FDF717F918B14FF0FF3006B070BDF4
:103890000820A072002020732575FFF757FC002038
:1038A00006B070BD2DE9F04385B040F20C06C2F2BF
:1038B000000696F824300446002B4FF0FF3061D00C
:1038C000B37A002B5ED00F46D6E900019146027B09
:1038D0004FF4807002230978CDE9013040F2841062
:1038E0000DF11205C2F2000001230095FCF7B6FFAE
:1038F00020B14FF0FF3005B0BDE8F083BDF81210E5
:1039000008BAB4EB104F07D9002089F800004FF037
:10391000FF3005B0BDE8F083706891FA91F84288F5
:10392000B8EB520F17D9326801780120D27CCDE96B
:10393000005040F284104FF4807CC2F2000001235A
:10394000CDF808C0FCF78AFF0028D2D19DF81200FC
:10395000C0061BD47068326801784FF48070527BC7
:10396000029040F28410C2F20000012300970194FB
:10397000FCF774FF0028BCD1B8FBF4F0013889F8DB
:103980000000002005B0BDE8F08300BF00F006F89D
:103990006FF0010005B0BDE8F0830000F0B585B020
:1039A00040F20C04C2F20004A07AB0B30020D4E9C3
:1039B00000218DF813000978527C40F284104FF4F6
:1039C000807601270DF11305C2F200000123CDE935
:1039D00000570296FDF76EF8F8B9D4E9000101230B
:1039E0000978427940F28410C2F20000CDE90176F4
:1039F0000095FDF75FF880B9D4E900010123027951
:103A00004FF480700978CDE9013040F28410C2F2A1
:103A100000000095FDF74EF820B14FF0FF3005B0E3
:103A2000F0BD00BF94F82400002855D00C20D4E944
:103A300000218DF813000978127940F284104FF4B8
:103A400080760127C2F200000123CDE900570296DB
:103A5000FDF730F80028E0D13220FCF775FDA07AA0
:103A60000123C0076FF01F0008BF6FF03F00D4E9CB
:103A700000218DF813000978127940F28410C2F207
:103A80000000CDE901760095FDF714F80028C4D1B7
:103A9000607C4FF48076002818BF01204000D4E9F4
:103AA00000218DF813000978527C40F28410012720
:103AB000C2F200000123CDE900570296FCF7FAFF9D
:103AC0000028AAD10020D4E900218DF8130009783C
:103AD0005279CDE9005757E00420D4E900218DF850
:103AE00013000978127940F284104FF48076012790
:103AF000C2F200000123CDE900570296FCF7DAFF7D
:103B000000288AD1A07AA17CC0074FF0600008BFCE
:103B10004020002918BF4020D4E900218DF813006F
:103B20000978127940F28410C2F200000123CDE935
:103B300001760095FCF7BEFF00287FF46EAF3220BF
:103B4000FCF702FD607C4FF48076002818BF01204E
:103B5000D4E900218DF813000978527C40F28410DA
:103B60000127C2F200000123CDE900570296FCF7BD
:103B7000A1FF00287FF451AFD4E900010978427910
:103B800004F11000CDE9000740F28410C2F20000F9
:103B900001230296FCF78EFF00287FF43EAF002041
:103BA00005B0F0BD2DE9F04F81B02DED028B96B040
:103BB00040F20C0BC2F2000B9BF82420884605460D
:103BC0000E9212B1002000F067FD9BF80800032858
:103BD00016D847F22611C0F6000131F810709BF894
:103BE0000900032811D900200D909BF80B0006282E
:103BF0001DD90020CDE90B00CDE9080032E000BF5F
:103C000000279BF809000328EDD80FF674029BF8F3
:103C1000133002EB80020FF65801002B08BF01EBB6
:103C2000800210680D909BF80B000628E1D8411E19
:103C3000B1FA81F149090C9100F07F000621C140E1
:103C400001F001010B910E21C14001F00101099128
:103C50001E21C14001F0010108913E2121FA00F02E
:103C600000F001000790BBF80E409BF80A609BF83B
:103C70001090284641460022FFF734F848B1284604
:103C8000414600224FF0000AFFF72CF8002840F0D0
:103C9000158312A80FA901220A95FFF723F848B14E
:103CA00012A80FA90122FFF71DF818B14FF0000A62
:103CB00004E300BFDBF80400042201784FF48070B5
:103CC000CDE9012040F2841015ADC2F200000D22B2
:103CD00001230095FCF7C2FDCDE904643E46CDF812
:103CE000189038B3D8F800000F990A9C401A48BFC2
:103CF000404203EE100A9FEDE88AB8EEC33AB5EEF3
:103D0000401AF1EE10FA23EE083A47D083EE011A7A
:103D1000BFEE003A31EE031A9FEDE23AB0EEC11A5F
:103D2000B4EE431AF1EE10FACCBF4FF001094FF098
:103D3000000948E09DF854009DF855209DF8577003
:103D40009DF856301C219FEDD80A2C4601EAD0057B
:103D5000C7F3011A01EAD209C7F381001AEB050C77
:103D600009EB000201EAD30E07F00307B0EE401A98
:103D700000F01181BCF1010300F0DE8045EA0A0188
:103D800013F00305A1F1020A00F0DE80012D40F0DE
:103D9000E3809FEDE31AACF10203ECE09FEDE11A42
:103DA0000020B4EE413A9FEDE01AF1EE10FA4FF028
:103DB0000001B4EE413AB8BF0121F1EE10FAC8BFDC
:103DC000012041EA0009D8F804001099B5EE402A14
:103DD000401A48BF404201EE100AB8EEC11AF1EE97
:103DE00010FA21EE081A11D081EE021ABFEE002A55
:103DF00031EE021A9FEDAB2AB0EEC11AB4EE421AB0
:103E0000F1EE10FAC8BF09F1020911E09FEDC62AD0
:103E100009F10200B4EE421A9FEDC22AF1EE10FA47
:103E2000C8BF8146B4EE421AF1EE10FAB8BF81461F
:103E3000D8F808001199B5EE400A401A48BF404230
:103E400001EE100AB8EEC11AF1EE10FA21EE081ACE
:103E500012D081EE000ABFEE001A30EE010A9FED8B
:103E6000911AB0EEC00AB4EE410AF1EE10FAC8BFE2
:103E700009F1040912E000BF9FEDAB0A09F104004B
:103E8000B4EE401A9FEDA70AF1EE10FAC8BF8146C2
:103E9000B4EE401AF1EE10FAB8BF8146DBF8040028
:103EA0004FF4807701780320CDE9005040F2841070
:103EB000C2F200000D2201230297FCF7CFFC18B1DB
:103EC00007203746EDE100BF206812999DF8542085
:103ED000401A48BF404200EE100A02F01F039DF84E
:103EE00055209DF85610B8EEC00A20EE080A6BB1B6
:103EF000581E25D010F00304A3F1020528D0012C90
:103F00006AD19FEDCD1A284674E000BFB2EE041AC4
:103F1000B4EE410A9FEDC91A0020F1EE10FA4FF0FD
:103F20000003B4EE410AB8BF0123F1EE10FAC8BF96
:103F30000120184380E000BF9FEDC11A2BE000BFB5
:103F4000B3EE091A67E000BF9FEDBD1A13E000BF92
:103F5000B3EE091A4EE000BF6FF00301022D0FF21D
:103F6000305308BF6FF00201022D08BF043393EDF8
:103F7000001A0CEB0103BAF1030F0CD39FEDB12A29
:103F800021EE021A21EE021A21EE021A043B190652
:103F900021EE021AF4D10EEB0703002AB0EE402AFC
:103FA000254600F0A680511E0ED040EA09003C468E
:103FB00011F00307A0F102000AD0012F7AD19FED82
:103FC000582A911E84E000BF9FED9D2A91E000BF1A
:103FD0009FED9B2A7CE000BF6FF00300022C0FF2E4
:103FE000C44708BF6FF00200022C08BF043797EDEA
:103FF000001A18440A9C032D0DD39FEDD82A00BF48
:1040000021EE021A21EE021A21EE021A04380306EA
:1040100021EE021AF4D180EE010ABFEE001A30EE52
:10402000010A9FED201AB0EEC00AB4EE410AF1EE8B
:1040300010FACCBF012000206368139F02F01F0517
:10404000DB1B48BF5B4200EE103AB8EEC00A20EE20
:10405000080A374665B16A1E20D012F00304A5F1A4
:10406000020323D0012C65D19FED731A1A4670E02C
:104070009FED721A821CB4EE410AB2EE041AF1EE00
:1040800010FAC8BF1046B4EE410AF1EE10FAB8BFFC
:1040900010460A9D7DE000BF000080370A9DB3EE08
:1040A000091A66E0295C0F3E00000000B3EE091A11
:1040B0004FE000BF6FF00301022F08BF6FF0020155
:1040C000022F0FF2CC3708BF043797ED002A1144B6
:1040D000274603280DD39FED5B3A00BF22EE032A4B
:1040E00022EE032A22EE032A0439080622EE032ACE
:1040F000F4D1002B3FF4F6AD581E0DD04EEA070167
:1041000010F00302A1F1020110D0012A76D19FED37
:10411000040A981E7FE000BF9FED490AE2E500BF58
:10412000ADFFB33E9A99993E3333733F9FED440AF6
:1041300071E000BF6FF00302022C0FF2683708BF76
:104140006FF00202022C08BF043797ED001A3746C1
:104150002A440A9D032B0CD39FEDD42A21EE021A88
:1041600021EE021A21EE021A043A130621EE021A77
:10417000F4D180EE010ABFEE001A30EE010A9FED85
:10418000C71AB0EEC00AB4EE410AF1EE10FAC8BF89
:104190000230AA68149BD21A48BF524200EE102A7D
:1041A00001F01F03B8EEC00A20EE080A63B1591EE1
:1041B0001CD011F00307A3F102021BD0012F43D141
:1041C0009FEDB71A11464CE09FEDB91A011DB4EEF0
:1041D000410AB2EE041AF1EE10FAC8BF0846B4EE76
:1041E000410AF1EE10FAB8BF08465AE0B3EE091AD8
:1041F00047E000BFB3EE091A33E000BF6FF00300E1
:10420000022A08BF6FF00200022AA1A208BF0432EE
:1042100092ED000A18440329FFF464AD9FED9E3A25
:1042200020EE030A20EE030A20EE030A04380106FA
:1042300020EE030AF4D155E53333D1410000D242D8
:104240007B14AE3E1D5A843F6FF00301022F08BF5E
:104250006FF00201022F93A708BF043797ED001AF1
:104260001944032A37460CD39FED902A21EE021AF7
:1042700021EE021A21EE021A04390A0621EE021A70
:10428000F4D180EE010ABFEE001A30EE010A9FED74
:10429000831AB0EEC00AB4EE410AF1EE10FAC8BFBC
:1042A0000430B0FA80F04FEA501AB9F1000F08BF9D
:1042B0000AF1020ADDF81890DDE904644FF6FF7098
:1042C000ABF80E00FF208BF810004FF0FF30CBF85A
:1042D00008000120B7F57A7F8BF80C0006DAFA2F78
:1042E0000AD0B7F5FA7F29D1082008E006D0B7F543
:1042F000FA6F23D1182002E0002000E010208DF892
:104300005400DBE9000115AB827901200978CDE981
:10431000003040F284104FF48077C2F20000012395
:104320000297FCF7C7FB20B99DF85400C0088BF832
:1043300008009BF80A00002800F084800D996FF0B7
:10434000010050FA81F04FEA7000072844D8DFE8F6
:1043500000F00719430F4343432300BF54E3853F55
:1043600000208DF854009BF8091081421CD133E0E5
:1043700010208DF8540002209BF80910814213D1BF
:104380002AE000BF08208DF8540001209BF8091096
:10439000814209D120E000BF18208DF8540003208D
:1043A0009BF80910814217D0DBE9000115ABC279F7
:1043B00001200978CDE9003040F284104FF4807775
:1043C000C2F2000001230297FCF774FB20B99DF8AC
:1043D0005400C0088BF809009BF80A0090B30C98B1
:1043E00010B1012011E000BF0B9808B102200CE0D1
:1043F000099808B1032008E0089808B1042004E0F7
:10440000079800280CBF062005209BF80B108DF89C
:104410005400814216D0DBE9000115AB82780120FF
:104420000978CDE9003040F284104FF48077C2F271
:10443000000001230297FCF73DFB18B99DF85400DA
:104440008BF80B00204600F01FFA304600F0A0FA6F
:104450004846FEF77BFE0E9810B1012000F01CF9D3
:10446000504616B0BDEC028B01B0BDE8F08F00BF26
:10447000020000000400000008000000100000001E
:1044800004000000080000001000000020000000F0
:104490005E72C03E631EBA3E1D5A843F295C0F3EC9
:1044A0003333D1419AE3E441BDD2DA4154E3853F4D
:1044B0000000D24210B584B040F20C04C2F20004F5
:1044C000A17A002940D002384FEA700107294FF045
:1044D000FF3042D8DFE801F00414410C4141411C97
:1044E00000208DF80F00617A814218D134E000BFBE
:1044F00010208DF80F000220617A81420FD12BE04D
:1045000008208DF80F000120617A814207D123E055
:1045100018208DF80F000320617A81421CD0D4E965
:1045200000010DF10F03C27901200978CDE90030B7
:1045300040F284104FF4807CC2F200000123CDF8D9
:1045400008C0FCF7B7FA18B14FF0FF3004B010BD47
:104550009DF80F00C0086072002004B010BD00007C
:1045600070B584B040F20C05C2F20005A97C81420E
:1045700002D1002004B070BD0446D5E9000101233A
:1045800002794FF480700978CDE9013040F284104F
:104590000DF10F06C2F200000096FCF75FF9002C47
:1045A00044D000285FD19DF80F00D5E9002100F02C
:1045B000DF008DF80F004FF4807001230978127925
:1045C000CDE9013040F28410C2F200000096FCF701
:1045D00071FA002847D10320FBF7B6FF95F82210A7
:1045E00095F823206FF07D00002908BF02208DF888
:1045F0000F001AB140F030008DF80F00D5E900012E
:104600004FF4807CC27D01200978CDE9006040F242
:104610008410C2F200000123CDF808C0FCF74AFA6A
:1046200008BBAC74002004B070BD00BFD8B99DF8C1
:104630000F00A97A00F0DF0001F0010140EA41100B
:10464000D5E900218DF80F004FF48070012309781F
:104650001279CDE9013040F28410C2F200000096D8
:10466000FCF728FA20B14FF0FF3004B070BD00BF56
:104670000320FBF769FF95F8220095F82310024606
:1046800000281CBF01226FF07F00D20100298DF8A5
:104690000F20AFD1B2E70000F0B585B040F20C05B5
:1046A000C2F2000595F82410814200F08D800028A8
:1046B00054D095F82500002800F08A8009B9A87A1E
:1046C000C8B10020D5E900218DF8110001200DF1BD
:1046D00011030978527CCDE9003040F284104FF488
:1046E0008076C2F2000001230296FCF7E3F910B9CC
:1046F0009DF81100687400200024FFF731FFE88C5A
:1047000000F0C2F868688DF8104040F28414017817
:10471000012704A8C2F200044FF48076CDE9000717
:104720002046232201230296FCF7C4F90220D5E992
:1047300000218DF812000978527C0DF11200CDE9AC
:1047400000072046012385F824700296FCF7B2F991
:10475000C0BB9DF81200687434E000BF09B9A87AA4
:10476000C8B10020D5E900218DF8130001200DF11A
:1047700013030978527CCDE9003040F284104FF4E5
:104780008077C2F2000001230297FCF793F910B979
:104790009DF813006874287C69688DF8100001206A
:1047A00004AA0978CDE9002040F284104FF4807704
:1047B000C2F20000232201230297FCF77BF90020BC
:1047C00085F82400FFF7EAF8002005B0F0BD00BF2F
:1047D0004FF0FF3005B0F0BD10B584B040F20C04CE
:1047E000C2F20004A17A002944D0BC2806D30120DB
:1047F000E17A8DF80F00814227D142E0622807D389
:104800000220E17A8DF80F0081421ED139E000BF0D
:104810002A2807D30320E17A8DF80F00814214D1B2
:104820002FE000BF142807D30420E17A8DF80F0091
:1048300081420AD125E000BF0A2834BF06200520A6
:10484000E17A8DF80F0081421BD0D4E900010DF10F
:104850000F03827801200978CDE9003040F28410FE
:104860004FF4807CC2F200000123CDF808C0FCF7B1
:1048700021F918B14FF0FF3004B010BD9DF80F00C2
:10488000E072002004B010BD70B584B040F20C049A
:10489000C2F20004A17A00294FF0FF3139D094F818
:1048A0002420B2BB217D81B1411E89B2272907D8BE
:1048B000C0B2FEF7ADFE0021084604B070BD00BFD7
:1048C00005460020FEF7A4FE28464FF47A76B0F5A0
:1048D0007A7F28BF3046042898BF0420B6FBF0F04A
:1048E000D4E9002101388DF80E0001200DF10E03EE
:1048F00009785278CDE9003040F284104FF4807589
:10490000C2F2000001230295FCF7D4F820B14FF069
:10491000FF31084604B070BD9DF80E00A27A411C1C
:10492000B6FBF1F1E1817AB3012801D801200FE053
:10493000042801D802200BE00A2801D8032007E050
:10494000182801D8042003E031288CBF0620052058
:10495000E17A8DF80F00814216D0D4E900010DF103
:104960000F03827801200978CDE9003040F28410ED
:104970004FF48076C2F2000001230296FCF79AF809
:1049800010B99DF80F00E0720021084604B070BD18
:104990002DE9F04184B0044610F0700F02D00120E0
:1049A00004E000BF002C0CBF4020002040F20C08A7
:1049B000C2F200088DF80E00D8E900014FF48076AD
:1049C0000978427D40F2841001270DF10E05C2F2F4
:1049D00000000123CDE900570296FCF76BF820BBDD
:1049E0000421A20621EA141104F010029DF80E0021
:1049F00058BF023187EA12121144220758BF3831DA
:104A00008DF80E10D8E9002100F0BF000978927DE2
:104A100088F80C0040F28410C2F200000123CDE9B6
:104A200000570296FCF746F840B1002088F80A00CB
:104A30004FF0FF3004B0BDE8F08100BF14F0F70F75
:104A40002ED098F8230058B398F8120098F8221046
:104A50000246002818BF012252008DF80F2039B1FC
:104A60006FF07D01002808BF6FF07F018DF80F10F7
:104A7000D8E900010DF10F03C27D01200978CDE9CD
:104A8000003040F284104FF48077C2F2000001231E
:104A90000297FCF70FF8002804BF002088F82300D5
:104AA000002088F81400322088F80A40FBF74CFDFB
:104AB000002004B0BDE8F0810346002A4FF0FF302B
:104AC00008BF7047F0B585B040F20C04C2F2000494
:104AD000A77A57B160685FBA468951FA83F3B34247
:104AE000ADF8127006D94FF0FF3005B0BDE8F040C8
:104AF000704700BF174622680E46017802200DF16C
:104B00001203D27ECDE9003040F284104FF480755C
:104B1000C2F2000001230295FBF7CCFF30B14FF049
:104B2000FF3005B0BDE8F040704700BFD4E9000198
:104B300001230978027E40F28410C2F20000CDE920
:104B400000760295FBF7B6FF002818BF4FF0FF3044
:104B500005B0BDE8F040704780B5012898BF01203E
:104B600000F034FC002080BD80B500F07FFC002008
:104B700080BD0000B0B584B043698E4693B18469AE
:104B800084B10589D0E9001C026928B2843D18BFB0
:104B9000C51CCDE9005360467346029400F000FE48
:104BA00004B0B0BD0589D0E90013028A28B2843D63
:104BB00018BFC51C03AC18467346CDE9005400F07D
:104BC000BFFD0399012818BF0021084604B0B0BDFD
:104BD0002DE9F041044600F039FB40F2A006C2F294
:104BE0000006306940F26425013030613068C2F25D
:104BF000000548B17069002840D13068E16AC06A98
:104C0000884298BF346039E034603069012835D17A
:104C1000284600F0C1FA05F1140000F0BDFA05F1D4
:104C2000280000F0B9FA05F13C0000F0B5FA05F1F2
:104C3000500000F0B1FA05F1640000F0ADFA05F1A2
:104C4000780000F0A9FA40F25018C2F2000840467D
:104C500000F0A2FA08F11407384600F09DFA06F1B8
:104C6000640000F099FA06F13C0000F095FA06F1B4
:104C7000500000F091FAC6F8308077637068B16830
:104C800001220131B160E16A8A401043706001EB9A
:104C9000810005EB8000211D00F0C0FA00F0FAFA57
:104CA000706988B13068E16AC06A884228BFBDE88F
:104CB000F0814EF60450CEF200004FF080510160BA
:104CC000BFF34F8FBFF36F8FBDE8F08140F2A005B7
:104CD00040F264264EF60458C2F20005C2F2000605
:104CE000CEF200084FF0805703E000BF204600F0EE
:104CF000E9FAE868D0B100F0A9FAA86CC468201DF0
:104D000000F02AFA286901382861E8680138E8606B
:104D100000F0C0FA94F851000228EAD00128E5D04A
:104D200070B9206B00F0CEFAE0E700BF30680228CF
:104D3000DFD3C8F80070BFF34F8FBFF36F8FD8E792
:104D40004FF0500080F31188BFF36F8FBFF34F8F88
:104D5000FEE700002DE9F047DDE909878246386B60
:104D6000089C00EB820004389946002920F00706D1
:104D700044D0087887F83400D8B3487887F83500ED
:104D8000B8B3887887F8360098B3C87887F83700C2
:104D900078B3087987F8380058B3487987F839002C
:104DA00038B3887987F83A0018B3C87987F83B0098
:104DB000F8B1087A87F83C00D8B1487A87F83D0006
:104DC000B8B1887A87F83E0098B1C87A87F83F0072
:104DD00078B1087B87F8400058B1487B87F84100DC
:104DE00038B1887B87F8420000281CBFC87B87F851
:104DF0004300002087F8430003E000BF002087F84D
:104E000034000025381D062C28BF0624FC62C7E9A3
:104E1000114500F0CDF907F1180000F0C9F984F050
:104E20000700B861304651464A463F617F62FD64E3
:104E300087F8505000F034F9B8F1000F386018BF0F
:104E4000C8F80070BDE8F08708480068006880F383
:104E500008884FF0000080F3148862B661B6BFF393
:104E60004F8FBFF36F8F00DF00BF000008ED00E041
:104E700081B00020009040F23800C2F200000068CB
:104E80004FF0500181F31188BFF36F8FBFF34F8F45
:104E9000013007D0FEE700BF009830B9009820B974
:104EA000009810B900980028F6D001B070470000B3
:104EB00070B5044600F040FB40F2181CC2F2000C32
:104EC000DCF8042052B19CF80000002818BF4FF015
:104ED00000404FF0000544BB81E000BF40F2F020ED
:104EE000C2F20000420700F5705200F1070122F003
:104EF000070218BF21F007000021A2F10803CCE946
:104F00000601CCF8043042E90211DCF80420191A39
:104F1000C0E9002101208CF800004FF00040CCE9EE
:104F20000211002C4FF0000559D0204057D124F039
:104F3000070000F11003600708BF04F10803DCF864
:104F40000800591E81424AD2604650F818EFDEF838
:104F500004509D422BD2DEF80010B9B174464D6862
:104F60009D4217D20E68AEB175689D4216D2306868
:104F7000A0B145689D4215D204689CB165689D4208
:104F800014D22168A6460029E9D110E00CF11800DE
:104F90000DE000BF8E46204609E000BFB646084639
:104FA00005E000BF8646304601E000BFA6469645B4
:104FB00014D00268DEF80040E91A112904604DD3CC
:104FC0000EEB0305680719D04FF0500080F31188ED
:104FD000BFF36F8FBFF34F8FFEE700BF002500F0D8
:104FE0009FFC68075AD04FF0500080F31188BFF340
:104FF0006F8FBFF34F8F00BFFEE700BF0CF11800AB
:105000006960CEF8043000BF0168A9420AD208687E
:10501000A8420BD20168A94204D208680B46A842F4
:10502000F2D304E00346084601E000BF0B465C688B
:1050300069681E19AE4202D121441D4659606C18A0
:10504000844207D1DCF80440A04203D0D0E9000438
:1050500021446960AB42286018BF1D60DEF804007F
:10506000DCE9021302F10805091A9942CCF808108C
:1050700038BFCCF80C109CF8001000294FF000014C
:1050800018BF40F00040CEE90010DCF810000130FD
:10509000CCF8100000F044FC6807A4D1284670BD8D
:1050A000034644F6716021F00101C0F600004FF0A4
:1050B000807C03E903106FF00201A3F1440043E98F
:1050C0000912704710B588B005A802A9FEF76AFD5D
:1050D00003283BD101A801ACFEF7DAF894ED040AED
:1050E00094ED051A94ED062A94ED003AB8EEC00A44
:1050F000B8EEC11AB8EEC22A23EE000A23EE011A56
:1051000023EE022ABDEEC00ABDEEC11ABDEEC22AD0
:1051100005A884ED040A84ED051A84ED062AFDF73E
:1051200059FC0DF10200FEF793F802ABBDF8020046
:105130000ECB4143029102FB00F15843049002A8B8
:105140000391FDF7ADFB002008B010BD4FF0FF301C
:1051500008B010BD704700000169D0E90132D1F8F4
:1051600004C09A608445536008BF4A60002202610F
:1051700008680138086008687047000044F2F403CA
:10518000C2F20003036043F6F460C2F2000008605C
:1051900080201060704700004FF0FF31024642F857
:1051A000081F00214260C0E903220160704700002F
:1051B000002101617047000010B5D1F800C01CF15A
:1051C000010213D000F1080462681368634511D826
:1051D00053681C68644511D85A68146864450FD830
:1051E00054682368A6466345EED90BE00269D2F8FD
:1051F00004E007E09646224604E000BF9E4601E038
:1052000096461A46C1F804E0CEF808108A6051604C
:10521000086101680131016010BD0000D0F800C0D4
:10522000436808619A68C1E90132516099600CF1E4
:105230000101016070470000DFF80C00016841F4D3
:10524000700101607047000088ED00E04FF05000F1
:1052500080F31188BFF36F8FBFF34F8F40F2380098
:10526000C2F2000001684A1C026009B1704700BF29
:105270004EF60450CEF200000068000608BF7047EA
:105280004FF0500080F31188BFF36F8FBFF34F8F43
:10529000FEE7000040F23800C2F20000016839B1B8
:1052A0000139016018BF7047002080F311887047F2
:1052B0004FF0500080F31188BFF36F8FBFF34F8F13
:1052C000FEE7000070B5002808BF70BD40F218145A
:1052D000C2F20004217850F8042C002918BF4FF0C6
:1052E000004111420ED0A0F108052B68A3B14FF088
:1052F000500080F31188BFF36F8FBFF34F8F00BF53
:10530000FEE700BF4FF0500080F31188BFF36F8FAE
:10531000BFF34F8FFEE700BF22EA010140F8041CF3
:10532000064600F009F956F8041CA0680844A0607D
:1053300004F118000368AB420AD21868A84225D2CB
:105340000368AB4204D218681A46A842F2D301E0BF
:10535000024618465368D618AE4202D11944154683
:1053600051606B18834206D16368984203D0D0E93C
:10537000000319446960AA42286018BF156060697B
:1053800001306061BDE8704000F0CABA1A46536847
:10539000D618AE42E5D1E1E74EF21000CEF20000A1
:1053A00000210160816040F20801C2F20001096839
:1053B00044F6D352C1F26202A1FB02124FF0FF3158
:1053C00001EB9211416007210160704770B5002820
:1053D0003FD040F2A004C2F20004A16951B14FF0E5
:1053E000500080F31188BFF36F8FBFF34F8F00BF62
:1053F000FEE700BF0546A0690130A061E6692068AC
:105400000430FFF7A9FE48B12068AD19456012D3FA
:10541000606B21680431FFF7CFFE15E020680121A1
:10542000C06A626801FA00F022EA00006060206849
:10543000AD194560ECD2206B21680431FFF7BCFE4A
:10544000606A854238BF656200F06AFA002818BFBA
:1054500070BD4EF60450CEF200004FF08051016056
:10546000BFF34F8FBFF36F8F70BD0000B0B588B032
:105470000020CDE9050006A805A904AAFFF77EFED5
:105480000598B8B3069C002C3ED05421049A07918D
:105490000799542942D107992063022084F85100CA
:1054A00007A80025CDE9005044F6CD40C0F6000025
:1054B0001FA100230294FFF74DFC2046FFF788FB55
:1054C000079940F2A000C2F20000016279B14FF0EA
:1054D000500181F31188BFF36F8FBFF34F8F4FF0EF
:1054E000FF31416201214161C56100F065F808B0FA
:1054F000B0BD00BF4FF0500080F31188BFF36F8F35
:10550000BFF34F8FFEE700BF4FF0500080F31188CC
:10551000BFF36F8FBFF34F8FFEE700BF4FF0500018
:1055200080F31188BFF36F8FBFF34F8FFEE700BF8B
:1055300049444C450000000040F2A000C2F20000C7
:10554000816901318161704740F2A000C2F2000020
:10555000816900291EBF012181627047002181629B
:105560004168B1FA81F1C9B2C1F11F0140F2642270
:1055700001EB8101C2F2000252F8213063B102EB6B
:105580008102516802F108034968994251600DD0C7
:10559000C9680160704700BF4FF0500080F3118868
:1055A000BFF36F8FBFF34F8FFEE700BF49685160B5
:1055B000C968016070470000B0B584B04EF2004C7D
:1055C000CEF2000C4CF27021C4F20F11DCF800296D
:1055D0004B1C9A420AD14FF0500080F31188BFF360
:1055E0006F8FBFF34F8F00BFFEE700BFDCF80029CD
:1055F0008A4209D14FF0500080F31188BFF36F8FBA
:10560000BFF34F8FFEE700BF9CF800100291FF210F
:105610008CF800109CF800108DF807109DF807100A
:1056200001F0500240F23811C2F200010A70072264
:105630004A609DF90720B2F1FF3F6BDC032200BFF7
:10564000D31C4B609DF8070040008DF807009DF9C2
:105650000700B0F1FF3F24DC931C4B609DF807006E
:1056600040008DF807009DF90700B0F1FF3F18DCFE
:10567000531C4B609DF8070040008DF807009DF912
:105680000700B0F1FF3F0CDC4A609DF80700043AC8
:1056900040008DF807009DF90700B0F1FF3FCFDD16
:1056A000131D032B36D14FF44070486002988CF8DC
:1056B0000000DCF8200940F47000CCF82009DCF888
:1056C000200940F07040CCF82009FFF765FE40F259
:1056D0003804C2F2000400252560FFF7ADFD4EF648
:1056E0003470CEF20000016841F040410160FFF7E4
:1056F000ABFBFFF729FF039520684FF0500181F3C2
:105700001188BFF36F8FBFF34F8F013012D000BFEE
:10571000FEE700BF4FF0500080F31188BFF36F8F9A
:10572000BFF34F8FFEE700BF039830B9039820B94D
:10573000039810B903980028F6D0002004B0B0BD3B
:105740002DE9F04184B007469000984615460E4674
:10575000FFF7AEFBF8B104465420FFF7A9FBB8B140
:10576000DDE90A210023046380F85130CDE90021EE
:105770000446384631462A4643460294FFF7EAFA81
:105780002046FFF725FA012004B0BDE8F08100BFF4
:105790002046FFF797FD4FF0FF3004B0BDE8F081E1
:1057A00070B586B00B9CCCB10C9E0EB354250495FD
:1057B000049D542D26D1049DDDF828C0022586F8CD
:1057C000515005AD3463CDE900C50296FFF7C2FA2A
:1057D0003046FFF7FDF9059806B070BD4FF0500058
:1057E00080F31188BFF36F8FBFF34F8FFEE700BFC9
:1057F0004FF0500080F31188BFF36F8FBFF34F8FCE
:10580000FEE700BF4FF0500080F31188BFF36F8FA9
:10581000BFF34F8FFEE700002DE9F04740F2A006EE
:10582000C2F20006B06928B1F06A0130F0620020CF
:10583000BDE8F087F06910F1010AC6F81CA020D37A
:10584000306B006850B14FF0500080F31188BFF307
:105850006F8FBFF34F8F00BFFEE700BF306B716BE0
:1058600031637063B06B0130B063306B006828B196
:10587000306BC068C068406802E000BF4FF0FF3086
:105880007062706A40F264288245C2F2000801D258
:10589000002434E0306B0024006868B34FF0010945
:1058A00016E000BFF86A716809FA00F2114300EBD4
:1058B0008000716008EB80002946FFF7AFFCF86AB2
:1058C0003168C96A326B8842106828BF4C4698B16B
:1058D000306BC068C7683D4655F8040F82450DD34C
:1058E0002846FFF739FCB86A0028DBD007F118001A
:1058F000FFF732FCD6E700BF4FF0FF307062306830
:10590000C06A00EB800058F82000012888BF0124FD
:10591000B06A002818BF01242046BDE8F0870000C7
:105920002DE9F04140F2A005C2F20005A86968B176
:10593000FFF78CFCA8690138A861A86980B1002430
:10594000FFF7A8FC2046BDE8F08100BF4FF05000F3
:1059500080F31188BFF36F8FBFF34F8FFEE700BF57
:1059600028690028EBD0686E78B340F264280126DD
:10597000C2F20008286FC76807F11800FFF7ECFBB8
:105980003C1D2046FFF7E8FBF86A696806FA00F25A
:10599000114300EB8000696008EB80002146FFF7AF
:1059A0003DFCF86A2968C96A884228BFAE62686E01
:1059B0000028DFD1286B006820B1286BC068C06860
:1059C000406801E04FF0FF306862EC6A4CB101269C
:1059D000FFF722FF002818BFAE62013CF8D100207B
:1059E000E862A86A0028AAD04EF60450CEF2000061
:1059F0004FF080510160BFF34F8F0124BFF36F8FD1
:105A0000FFF748FC2046BDE8F08103B4019841004F
:105A1000009850EAC12018BF04204A0D18BF40F07A
:105A2000010040F2FF72B2EB515F08BF40F002008C
:105A3000012808BF052002B07047000000000000E8
:105A400070B5C1482DED020B2DED0E8B82B0119D6E
:105A500025F000449FEDBEDB9FEDBFEB84423EDBB3
:105A6000A4F140511098A1F17F6108430FD0BC48C8
:105A7000844202DC28D1109830B39DED100B02B0A7
:105A8000BDEC0E8B02B0BDE8704000F071BC9DED26
:105A9000100B53EC1D2B51EC100B00F073FF9DED20
:105AA000100B41EC180B53EC1E2B51EC100B00F0BB
:105AB00069FF53EC182B00F019FD41EC100B02B0FC
:105AC000BDEC0E8B02B070BD0120FAF7F0FC02B005
:105AD000BDEC0E8B02B0BDE8704000F05DBCA1488B
